:100000000C94F0000C94C6020C94ED020C941403B2
:100010000C9477030C94DA030C9418010C94C532F9
:100020000C9418010C9418010C9418010C94AB0F4B
:100030000C9418010C9418010C9418010C941801DC
:100040000C943D2A0C9418010C94A22D0C94D42DE0
:100050000C9418010C9418010C9418010C941801BC
:100060000C9418010C941801D60ADB0AE20AF10A72
:10007000F80A070B180B240B380B490B550B690BAF
:10008000760B820B960BA70BAE0BBB0BC20BCF0BE9
:10009000E00BA30EA60EA90EAC0EAF0EB20EB50E5F
:1000A000B80EBB0EBE0EC10EC40EC70EFB0EFE0E6A
:1000B000010F040F070F0A0F0D0F100F130F160F6C
:1000C000190F1C0F1F0F220F250F280F2B0F2E0F9C
:1000D000310F751F9C1FC61FFF1F1820312057208E
:1000E0008B20C420FD2031215E218821B921E92106
:1000F000022254226D228B227D23A523E023722429
:100100001F259C25B125D425862676236F23F1282B
:10011000A22905A84CCDB2D44EB93836A9020C504C
:10012000B9918688083CA6AAAA2ABE000000803F92
:10013000252500460026260025250041002626000C
:1001400025250049200026260025250042200026DE
:1001500026002525004E20002626002525004420C7
:100160000026260025250045200026260000010245
:10017000030405060700010203040500010203044D
:100180000500000008000201000003040700000051
:100190000000000000010204081020408001020459
:1001A00008102001020408102004040404040404BC
:1001B000040202020202020303030303030000001D
:1001C0000023002600290000000000250028002B45
:1001D0000000000000240027002A0002F805042E79
:1001E00011241FBECFEFD8E0DEBFCDBF13E0A0E0EB
:1001F000B1E0E4EAF4E702C005900D92A633B1073E
:10020000D9F727E0A6E3B3E001C01D92AE37B207ED
:10021000E1F711E0C0EED1E004C02297FE010E9498
:100220002638CC3DD107C9F70E94482E0C94503A8D
:100230000C94000081E08093400390914103911160
:100240000BC08093410321E04FE050E060E070E09C
:1002500086E493E00C948A1E089581E080933F0326
:100260009091410391110BC08093410321E04FE035
:1002700050E060E070E086E493E00C948A1E0895FC
:10028000EF92FF920F931F93CF93DF931F92CDB7FF
:10029000DEB77C01FC0100811181C80169830E94E5
:1002A0002F3A6981681719F0C8010E94373AC701CF
:1002B0000F90DF91CF911F910F91FF90EF900895D4
:1002C0000F931F93CF93DF9300D0CDB7DEB78B0191
:1002D000FB0160819A838983CE0101960E944001CF
:1002E000C8010F900F90DF91CF911F910F9108954A
:1002F000A82FAF7787FD05C08EEF8A0F823008F4F4
:1003000099C0B0E0FD01EB56FE4F2491FD01E75589
:10031000FE4F8491942F9D7F9130B9F4823031F457
:1003200090918806922B909388060FC0833031F409
:1003300090917906922B9093790607C0843029F426
:1003400090916606922B9093660641504230B8F425
:10035000823031F490918706922B909387060FC0DC
:10036000833031F490917806922B9093780607C0F1
:10037000843029F490916506922B90936506FD01D7
:10038000E359FE4FA4918230C1F4B0E0AA0FBB1F25
:10039000A757B94F6D937C93E1ECF1E0A591B4912F
:1003A0008C91809386068BE690E090939A068093DA
:1003B000990680916800816033C08330C1F4B0E059
:1003C000AA0FBB1FA658B94F6D937C93E3ECF1E0E5
:1003D000A591B4918C91809377068CE690E09093F0
:1003E0009A068093990680916800826019C08430D3
:1003F000C9F4B0E0AA0FBB1FA959B94F6D937C9304
:10040000E5ECF1E0A591B4918C91809364068DE6C2
:1004100090E090939A06809399068091680084609A
:1004200080936800A0919906B0919A068C91822BD6
:100430008C9316C09FB7F894A230B1F470939606CF
:1004400060939506E898809169008C7F809369009D
:1004500080916900842B80936900E09AE89A9FBF9D
:100460008FB780688FBF0895709398066093970642
:10047000E99880916900837F809369008091690089
:1004800024E0429FA0011124842B80936900E19A0B
:10049000E99AE5CF3FB7F894982F9F7787FD05C07D
:1004A0008EEF890F823008F45EC0892F90E0FC0146
:1004B000EB56FE4F2491FC01E755FE4F84918230AC
:1004C000D1F480916B002095822380936B00809102
:1004D0006B00811105C0809168008E7F8093680059
:1004E00080918806822380938806809187068223E4
:1004F0008093870641C08330D1F480916C002095B1
:10050000822380936C0080916C00811105C08091E2
:1005100068008D7F809368008091790682238093A4
:1005200079068091780682238093780625C08430EE
:1005300019F580916D002095822380936D00809144
:100540006D00811105C0809168008B7F80936800E9
:1005500080916606822380936606809165068223D9
:100560008093650609C0923049F4E898809169004B
:100570008C7F80936900E09A3FBF0895E99880914D
:100580006900837F80936900E19AF6CF1F920F92F2
:100590000FB60F9211242F933F934F935F936F9356
:1005A0007F938F939F93AF93BF93EF93FF93E091CC
:1005B0009506F09196060995FF91EF91BF91AF9145
:1005C0009F918F917F916F915F914F913F912F916B
:1005D0000F900FBE0F901F9018951F920F920FB69D
:1005E0000F9211242F933F934F935F936F937F93B9
:1005F0008F939F93AF93BF93EF93FF93E0919706F1
:10060000F09198060995FF91EF91BF91AF919F915D
:100610008F917F916F915F914F913F912F910F90AB
:100620000FBE0F901F9018951F920F920FB60F924A
:1006300011242F933F934F935F936F937F938F93E7
:100640009F93AF93BF93CF93EF93FF9393B1C091D9
:1006500086062091880630918706892F809583230E
:100660002923822B20916B00C927C223C823909392
:100670008606CC2351F1C0FF05C0E0918906F091B8
:100680008A060995C1FF05C0E0918B06F0918C06A2
:100690000995C2FF05C0E0918D06F0918E0609957F
:1006A000C3FF05C0E0918F06F09190060995C4FF45
:1006B00005C0E0919106F09192060995C5FF05C02D
:1006C000E0919306F09194060995FF91EF91CF91F7
:1006D000BF91AF919F918F917F916F915F914F915A
:1006E0003F912F910F900FBE0F901F9018951F9262
:1006F0000F920FB60F9211242F933F934F935F9356
:100700006F937F938F939F93AF93BF93CF93EF9309
:10071000FF9396B1C09177062091790630917806C3
:10072000892F809583232923822B20916C00C92750
:10073000C223C82390937706CC2351F1C0FF05C094
:10074000E0917A06F0917B060995C1FF05C0E09122
:100750007C06F0917D060995C2FF05C0E0917E06FA
:10076000F0917F060995C3FF05C0E0918006F091E6
:1007700081060995C4FF05C0E0918206F0918306C9
:100780000995C5FF05C0E0918406F091850609959D
:10079000FF91EF91CF91BF91AF919F918F917F91F9
:1007A0006F915F914F913F912F910F900FBE0F90DE
:1007B0001F9018951F920F920FB60F9211242F932E
:1007C0003F934F935F936F937F938F939F93AF93D9
:1007D000BF93CF93EF93FF9399B1C091640620919B
:1007E000660630916506892F809583232923822B05
:1007F00020916D00C927C223C82390936406CC239F
:10080000C1F1C0FF05C0E0916706F0916806099547
:10081000C1FF05C0E0916906F0916A060995C2FF23
:1008200005C0E0916B06F0916C060995C3FF05C009
:10083000E0916D06F0916E060995C4FF05C0E09148
:100840006F06F09170060995C5FF05C0E09171062D
:10085000F09172060995C6FF05C0E0917306F0910C
:1008600074060995C7FF05C0E0917506F0917606FC
:100870000995FF91EF91CF91BF91AF919F918F918A
:100880007F916F915F914F913F912F910F900FBE8C
:100890000F901F90189586E493E00E94661D0E94B9
:1008A000CE356F30710524F481E0809336030895CE
:1008B0001092360308958F929F92AF92BF92CF927B
:1008C000DF92EF92FF920F931F93CF9386E493E012
:1008D0000E94921D20E030E048E452E40E9462351C
:1008E00087FF54C0C3E08091410381114FC021E0D4
:1008F0004CE150E060E070E086E493E00E948A1EE4
:100900001F92CF9348E0842E912CA12CB12C58EB50
:10091000C52E5EE1D52E55E8E52E5FE3F52E00E00D
:1009200010E02AEF34E440E050E06CE574E486E443
:1009300093E00E94C41E6EE170E080E090E00E94AF
:10094000B62A1F92CF936CE5C62E6FE8D62E62E8CA
:10095000E62E6FE3F62E00E010E02CE534E440E0F4
:1009600050E06AEF74E486E493E00E94C41E86E4DB
:1009700093E00E948F1E64EF71E080E090E00E949F
:10098000B62A0F900F900F900F90ADCFCF911F917F
:100990000F91FF90EF90DF90CF90BF90AF909F901E
:1009A0008F9008954F925F926F927F928F929F9255
:1009B000AF92BF92CF92DF92EF92FF920F931F936D
:1009C000CF93DF93CDB7DEB728970FB6F894DEBF8D
:1009D0000FBECDBF88E0EAE0F1E0DE0111960190A4
:1009E0000D928A95E1F780914103811109C0AE0112
:1009F0004F5F5F4F6CEB72E086E493E00E94DD1482
:100A0000F4E06F2E712CAAE05A2E44244394809176
:100A100041038823A1F0809141038111C1C021E0ED
:100A200043E150E060E070E086E493E00E948A1EBB
:100A300069E070E086E493E00E945E1FB1C020E0B0
:100A400030E041E050E060E070E086E493E00E9436
:100A50007A1E1F925F927AE0872E912CA12CB12CE6
:100A6000E8EBCE2EEEE1DE2EE5E8EE2EEFE3FE2EF5
:100A700000E010E028E433E440E050E068EC72E489
:100A800086E493E00E94C41E809141030F900F9072
:100A90008111C1CF21E030E041E050E060E070E042
:100AA00086E493E00E947A1E1F925F9200E010E0BD
:100AB00026E933E440E050E068E473E486E493E040
:100AC0000E94C41E809141030F900F908111A3CF0B
:100AD00022E030E041E050E060E070E086E493E046
:100AE0000E947A1E1F925F9200E010E02AEF33E42A
:100AF00040E050E066E973E486E493E00E94C41E9F
:100B000064EF71E080E090E00E94B62A809141039A
:100B10000F900F9081117FCF21E030E041E050E055
:100B200060E070E086E493E00E947A1E1F924F928C
:100B300000E010E02AE733E440E050E068EC73E4C2
:100B400086E493E00E94C41E809141030F900F90B1
:100B5000811161CF20E030E041E050E060E070E0E2
:100B600086E493E00E947A1E1F924F9200E010E00C
:100B700028EC32E440E050E06AE773E486E493E076
:100B80000E94C41E64EF71E080E090E00E94B62AEB
:100B900081E0681A71080F900F9009F038CF3BCFB1
:100BA00086E493E00E94421780914103811109C0BD
:100BB00021E04BE050E060E070E086E493E00E94CA
:100BC0008A1E28960FB6F894DEBF0FBECDBFDF9108
:100BD000CF911F910F91FF90EF90DF90CF90BF903A
:100BE000AF909F908F907F906F905F904F900895FF
:100BF000CF93DF938BE294E00E94DE122CE04DE075
:100C00006BE086E493E00E949A128DE493E00E94E8
:100C1000BC11CEE4D3E0CE010E946710188A1F8673
:100C2000A99683E0C23FD807B1F782EF93E0DF9146
:100C3000CF910C941712CF92DF92EF92FF920F9305
:100C40001F93CF93DF93CDB7DEB72B970FB6F894F2
:100C5000DEBF0FBECDBF86E493E00E94421719822B
:100C60001A821B821C82FE01359687E0DF011D92ED
:100C70008A95E9F78E010F5F1F4FB5E0EB2EF12C3F
:100C80006801C7010E942F3AF80181938F01FFEF9D
:100C9000EF1AFF0A80E1E816F10499F76AE671E0BD
:100CA0008AEC96E00E94952E67E671E08AEC96E069
:100CB0000E94952EB6018AEC96E00E94BA2E64E658
:100CC00071E08AEC96E00E94D72E8AEC96E00E94B2
:100CD000B92C2B960FB6F894DEBF0FBECDBFDF91B7
:100CE000CF911F910F91FF90EF90DF90CF900895DB
:100CF000CF92DF92EF92FF9286E493E00E94421738
:100D000086E493E00E94661D6B017C0161E671E060
:100D10008AEC96E00E94952E6EE571E08AEC96E0F2
:100D20000E94952EC701B6010E94CE354AE050E0E0
:100D30008AEC96E00E948C2F6BE571E08AEC96E0DD
:100D40000E94D72E8AEC96E0FF90EF90DF90CF9034
:100D50000C94B92CCF93DF9386E493E00E94421762
:100D600086E493E00E946A1DEC0168E571E08AEC7C
:100D700096E00E94952E65E571E08AEC96E00E946F
:100D8000952E4AE050E0BE018AEC96E00E948C2F3E
:100D900062E571E08AEC96E00E94D72E8AEC96E03C
:100DA000DF91CF910C94B92CCF92DF92EF92FF920A
:100DB00086E493E00E94421786E493E00E94921D2D
:100DC0006B017C016FE471E08AEC96E00E94952E45
:100DD0006CE471E08AEC96E00E94952E22E030E00F
:100DE000B701A6018AEC96E00E947F3069E471E0C9
:100DF0008AEC96E00E94D72E8AEC96E0FF90EF9066
:100E0000DF90CF900C94B92C86E493E00E944217B7
:100E100066E471E08AEC96E00E94952E63E471E04E
:100E20008AEC96E00E94952E6BE073E08AEC96E0E7
:100E30000E94BA2E60E471E08AEC96E00E94D72E00
:100E40008AEC96E00C94B92C8F929F92AF92BF924D
:100E5000CF92DF92EF92FF920F931F93CF93DF9386
:100E60001F92CDB7DEB726E040E052EC61E070E0C3
:100E70008AEC96E00E94402D60E086E00E94692B9B
:100E800060E087E00E94692B1F9289E08F9308E061
:100E9000802E912C8AE0A82EB12C94E1C92ED12C61
:100EA000EE24E39405E010E024E030E043E050E07D
:100EB00062E070E086E493E00E941A1484E10E94EC
:100EC000232B0E94213343E06AE171E086E00E9417
:100ED000780143E06DE271E087E00E9478014DE423
:100EE00059E06EEE72E08BE294E00E94F31245E569
:100EF00059E060EF72E08BE294E00E94F3124FE859
:100F000059E062EF72E08BE294E00E94F3124DEE42
:100F100058E064EF72E08BE294E00E94F31247E73E
:100F20005EE066EF72E08BE294E00E94F3124FEC19
:100F30005EE068EF72E08BE294E00E94F3124CEE08
:100F400059E06AEF72E08BE294E00E94F31240E510
:100F50005AE06CEF72E08BE294E00E94F31249E3F6
:100F60005FE06EEF72E08BE294E00E94F3124BE1DF
:100F700056E060E073E08BE294E00E94F31248E7F1
:100F800056E062E073E08BE294E00E94F3124AEADA
:100F900056E064E073E08BE294E00E94F31244EDCB
:100FA00056E066E073E08BE294E00E94F31244E0C6
:100FB00057E068E073E08BE294E00E94F3126DE486
:100FC00079E08BE294E00E94251360E070E086E413
:100FD00093E00E945E1F86E493E00E94421785E042
:100FE00090E00E942F3A0F900F908432F1F46AE063
:100FF00073E085E090E00E9460011982BE016F5F9E
:101000007F4F86E090E00E94600121E04DE150E0DA
:1010100060E070E086E493E00E948A1E68EE73E070
:1010200080E090E00E94B62AF9CF0E941B0662E39E
:1010300070E080E090E00E94B62A0E94040762E31C
:1010400070E080E090E00E94B62A0E94D4060E94E0
:101050005B0412E0E12EF12C00E010E080914103EE
:10106000882329F081E0E81AF108A9F0F5CF98016A
:1010700040E050E0BA0186E493E00E947A1E66E9FF
:1010800070E080E090E00E94B62A0F5F1F4F0830AA
:10109000110521F7E7CF80914103811115C021E0AF
:1010A0004AE050E060E070E086E493E00E948A1E2F
:1010B0006BE070E086E493E00E945E1F68EC70E0F5
:1010C00080E090E00E94B62A85E090E00E942F3AEE
:1010D000833209F041C080914103811110C02CEB93
:1010E00032E040E050E060E87FE386E493E00E9475
:1010F000871768EC70E080E090E00E94B62A80914B
:10110000410381110CC0409106015091070121E07B
:1011100030E061E070E086E493E00E942F19809156
:101120004103811119C021E04FE050E060E070E020
:1011300086E493E00E948A1E04E110E020E233E09E
:1011400040E050E060E070E486E493E00E94341AEE
:1011500086E493E00E94421780914103811109C007
:1011600021E04BE050E060E070E086E493E00E9414
:101170008A1E0E94872A60933B0370933C038093EE
:101180003D0390933E030F90DF91CF911F910F91FC
:10119000FF90EF90DF90CF90BF90AF909F908F9097
:1011A000089562E370E080E090E00E94B62A6DE36B
:1011B00071E08AEC96E00E94952E6BE371E08AEC78
:1011C00096E00E94952E68E371E08AEC96E00E941A
:1011D000D72E8AEC96E00C94B92C0E94D10860E0DE
:1011E00086E493E00E9482178BE294E00E94E91269
:1011F000009739F00E94B5399093450380934403DA
:1012000017C021E04AE150E060E070E086E493E03E
:101210000E948A1E60ED77E080E090E00E94B62A8E
:1012200086E493E00E948F1E1092450310924403BF
:101230008BE294E00E94E912009719F00E94B53900
:1012400002C088EE93E090930701809306018BE241
:1012500094E00E94E912009719F00E94B53902C08B
:101260008FE090E09093050180930401089565E379
:1012700071E08AEC96E00E94952E63E371E08AECBF
:1012800096E00E94952E60E371E08AEC96E00E9461
:10129000D72E8AEC96E00C94B92C0E94D10886E4F3
:1012A00093E00E9442170C943709CF93DF9300D04C
:1012B000CDB7DEB70E94D10886E493E00E944217C2
:1012C0008BE294E00E94E912009779F042E050E04E
:1012D000BE016F5F7F4F0E94A138AB01BC0120E0CF
:1012E00086E493E00E948A1E13C021E04AE150E0A8
:1012F00060E070E086E493E00E948A1E60ED77E093
:1013000080E090E00E94B62A86E493E00E948F1E5F
:101310000E9437090F900F90DF91CF9108958F921F
:101320009F92AF92BF92EF92FF920F931F93CF9332
:10133000DF930E94D10886E493E00E9442178BE27B
:1013400094E00E94E912009729F00E94B539EC015F
:1013500010E001C011E08BE294E00E94E9120097D6
:1013600021F00E94B5391123A1F021E04AE150E0BB
:1013700060E070E086E493E00E948A1E60ED77E012
:1013800080E090E00E94B62A86E493E00E948F1EDF
:1013900017C04C01AA2497FCA094BA2CBE01882740
:1013A00077FD8095982F0E940136AB01BC01EE2499
:1013B000E394F12C9501840186E493E00E94911E50
:1013C000DF91CF911F910F91FF90EF90BF90AF9061
:1013D0009F908F900C943709CF92DF92EF92FF92FB
:1013E0000F931F93CF93DF930E94D10886E493E07D
:1013F0000E9442178BE294E00E94E912009729F0C4
:101400000E94B539EC0110E001C011E08BE294E0DC
:101410000E94E912009721F00E94B5397C0101C0B9
:1014200011E08BE294E00E94E912009721F00E9403
:10143000B5396C0101C011E08BE294E00E94E91221
:10144000009721F00E94B5391123A1F021E04AE173
:1014500050E060E070E086E493E00E948A1E60ED58
:1014600077E080E090E00E94B62A86E493E00E9454
:101470008F1E0CC08C019601A701BE0186E493E08B
:101480000E94AC1486E493E00E94BE14DF91CF91D9
:101490001F910F91FF90EF90DF90CF900C94370940
:1014A000BF92CF92DF92EF92FF920F931F93CF9351
:1014B000DF93CDB7DEB728970FB6F894DEBF0FBE27
:1014C000CDBF0E94D1088BE294E00E94E912009700
:1014D00029F00E94B5396C01B12C02C0BB24B39431
:1014E0008BE294E00E94E912009721F00E94B53946
:1014F0007C0102C0BB24B3948BE294E00E94E91209
:10150000009721F00E94B5398C0102C0BB24B3942E
:101510008BE294E00E94E912009721F00E94B53915
:10152000BB20A1F021E04AE150E060E070E086E4F9
:1015300093E00E948A1E60ED77E080E090E00E94D8
:10154000B62A86E493E00E948F1E11C0DA82C98217
:10155000FC82EB821E830D8398878F83AE014F5FE1
:101560005F4F68EC70E086E493E00E94DD140E9417
:10157000370928960FB6F894DEBF0FBECDBFDF91B6
:10158000CF911F910F91FF90EF90DF90CF90BF9080
:101590000895EF92FF920F931F938531910508F004
:1015A00025C1FC01EC5CFF4F0C94243886E493E0E9
:1015B0000E94421715C1209106013091070101E0F8
:1015C00010E006C020910601309107010FEF1FEFD8
:1015D00040E050E060E87FE386E493E00E94C417B7
:1015E000FFC0209106013091070101E010E006C024
:1015F00020910601309107010FEF1FEF40E050E00E
:1016000060E87FE386E493E00E943418E9C000912B
:10161000040110910501209106013091070140E07D
:1016200050E060E87FE386E493E00E94EA19D8C0C6
:1016300000910401109105012091060130910701EC
:10164000EE24E394F12C0BC00091040110910501EC
:101650002091060130910701EE24EA94FE2C40E02F
:1016600050E060E87FE386E493E00E94651BB8C029
:1016700000910401109105012091060130910701AC
:1016800040E050E060E87FE386E493E00E94341A93
:10169000A7C000910401109105012091060130912D
:1016A0000701EE24E394F12C0BC00091040110918A
:1016B00005012091060130910701EE24EA94FE2CE9
:1016C00040E050E060E87FE386E493E00E94171C6E
:1016D00087C0209106013091070140E050E060E8AA
:1016E0007FE386E493E00E9487177AC000910401AB
:1016F000109105012091060130910701EE24E39439
:10170000F12C0BC0009104011091050120910601FC
:1017100030910701EE24EA94FE2C40E050E060E8AE
:101720007FE386E493E00E94B81C5AC00091040154
:1017300010910501209106013091070140E050E031
:1017400060E87FE386E493E00E94851A49C04091F7
:1017500006015091070121E030E006C040910601EA
:10176000509107012FEF3FEF61E070E086E493E0D6
:101770000E94901835C0409106015091070121E068
:1017800030E006C040910601509107012FEF3FEF76
:1017900061E070E086E493E00E942F1921C000917F
:1017A000040110910501209106013091070140E0EC
:1017B00050E060E87FE386E493E00E94CB1A10C01B
:1017C000009104011091050120910601309107015B
:1017D00040E050E060E87FE386E493E00E94131B62
:1017E0001F910F91FF90EF900C9437091F910F916B
:1017F000FF90EF9008950F931F93CF93DF938AECA0
:1018000096E00E945D2C181619063CF48091420364
:1018100090914303049709F0EEC18091410388231E
:1018200041F186E493E00E94421764E670E080E0B4
:1018300090E00E94B62A62E070E086E493E00E94A5
:101840005E1F68EC70E080E090E00E94B62A809114
:101850004003882309F4E7C180913F038111E3C16C
:1018600081E090E0909343038093420363E070E053
:1018700022C200914203109143030230110509F482
:1018800087C03CF40115110569F00130110559F1CB
:10189000ABC10330110509F431C10430110509F45D
:1018A0008FC1A2C10E94872A00913B0310913C0383
:1018B00020913D0330913E03601B710B820B930B13
:1018C000603878438140910508F40CC20E94D2042C
:1018D0000E94872A60933B0370933C0380933D03EF
:1018E00090933E03FFC125E130E040E050E065E029
:1018F00070E080E090E00E944D3370933A03609373
:1019000039036F5071096430710538F4109338034E
:101910000093370380E496E010C026E030E040E01A
:1019200050E063E070E080E090E00E944D337093FF
:1019300038036093370388EE93E090930701809318
:10194000060125E130E040E050E06AE070E080E030
:1019500090E00E944D33AB01BC0121E086E493E0AE
:101960000E948A1EC0E0D0E0809137039091380336
:10197000C817D9070CF0B6C18091390390913A038A
:101980000E94C90A809141038111ACC12196ECCF1C
:1019900080913603882309F49FC08091410381110F
:1019A00019C021E04EE050E060E070E086E493E092
:1019B0000E948A1E66E070E086E493E00E945E1F4B
:1019C00024EF31E040E050E060EA70E486E493E028
:1019D0000E9487178091410381110FC021E044E1EB
:1019E00050E060E070E086E493E00E948A1E69E0C7
:1019F00070E086E493E00E945E1FC3E0D0E0809137
:101A00004103882399F064E670E080E090E00E9452
:101A1000B62A0E944B0464E670E080E090E00E94E9
:101A2000B62A8091360381115DC10FC00FEF1FEF01
:101A300024E135E040E050E060E87FE386E493E0B5
:101A40000E94C4172197D9F6DECF809141038111FE
:101A500049C121E04AE050E060E070E086E493E0B4
:101A60000E948A1E62E370E080E090E00E94B62A45
:101A70000E944B04C3E0D0E080913603882329F014
:101A80008091360381112EC106C0809141038823C5
:101A900009F416C1F5CF80914103811123C186E479
:101AA00093E00E94421721E04BE050E060E070E0DC
:101AB00086E493E00E948A1E6DE070E086E493E085
:101AC0000E945E1F68EC70E080E090E0DF91CF91B3
:101AD0001F910F910C94B62A01E010E028EE33E03C
:101AE00040E050E060E87FE386E493E00E94C417A2
:101AF000DF91CF911F910F910C944B0486E493E0FA
:101B00000E946A1D8A3892400CF4ECC062E370E0D7
:101B100080E090E00E94B62A8091410381113FC08D
:101B200021E04EE050E060E070E086E493E00E9447
:101B30008A1E67E070E086E493E00E945E1F809159
:101B400041038111CFC025E130E040E050E06AE080
:101B500070E080E090E00E944D33AB01BC0121E0D9
:101B600086E493E00E948A1E25E130E040E050E0E8
:101B700065E070E080E090E00E944D3370933A039E
:101B800060933903CB010E94C90A86E493E00E9466
:101B9000421764EF71E080E090E00E94B62A8091E5
:101BA000410381119FC021E04BE050E060E070E014
:101BB00086E493E0DF91CF911F910F910C948A1EE0
:101BC0008BE294E00E942B1386E493E00E947D1741
:101BD000811188C08091440390914503DF91CF919A
:101BE0001F910F910C94C90A84E090E090934303F5
:101BF0008093420377C084E090E090934303809306
:101C0000420321E04BE050E060E070E086E493E0C6
:101C10000E948A1E86E00E944A0287E00E944A02D1
:101C200010924103FACD8091400381110DC0809143
:101C30003F03882349F082E090E090934303809330
:101C4000420364E070E037C080914003882321F0B4
:101C500080913F03811127C040914203509143037B
:101C6000662757FD6095762F21E086E493E00E9479
:101C70008A1EC8ECD0E06AE070E080E090E00E944C
:101C8000B62A2197C1F721E04BE050E060E070E018
:101C900086E493E00E948A1E109241031092400352
:101CA00010923F031FC083E090E090934303809322
:101CB000420365E070E086E493E00E945E1FCCCFB3
:101CC00001E010E028EE33E040E050E060E87FE320
:101CD00086E493E00E9434180E944B04219709F097
:101CE000CBCECECEDF91CF911F910F9108950E9460
:101CF000D10886E493E00E9442178BE294E00E94B0
:101D0000E912009761F00E94B53901978D30910575
:101D100008F043C0875B9F4FFC010C94243821E0FE
:101D20004AE150E060E070E086E493E00E948A1EA1
:101D300060ED77E080E090E00E94B62A86E493E0D0
:101D40000E948F1E2AC060E070E023C061E070E056
:101D500020C062E070E01DC063E070E01AC064E083
:101D600070E017C065E070E014C066E070E011C07C
:101D700067E070E00EC068E070E00BC069E070E002
:101D800008C06AE070E005C06BE070E002C06CE083
:101D900070E086E493E00E94C5220C9437090E940B
:101DA000D10886E493E00E9442178BE294E00E94FF
:101DB000E912009761F00E94B539019783319105CE
:101DC00008F055C08A5A9F4FFC010C94243821E03A
:101DD0004AE150E060E070E086E493E00E948A1EF1
:101DE00060ED77E080E090E00E94B62A86E493E020
:101DF0000E948F1E3CC060E070E035C061E070E082
:101E000032C066E070E02FC067E070E02CC068E090
:101E100070E029C069E070E026C06AE070E023C08D
:101E20006BE070E020C06CE070E01DC06DE070E021
:101E30001AC06EE070E017C06FE070E014C060E19F
:101E400070E011C061E170E00EC062E170E00BC0B3
:101E500063E070E008C064E070E005C065E070E039
:101E600002C062E070E086E493E00E945E1F0C9482
:101E70003709CF92DF92EF92FF920F931F93CF9388
:101E8000DF93CDB7DEB72D970FB6F894DEBF0FBE48
:101E9000CDBF0E94D10886E493E00E9442171982C8
:101EA0001A821B821C82FE01359687E0DF011D929B
:101EB0008A95E9F78BE294E00E94E912009739F1E4
:101EC000DC01FE0131969E2F2F2F6E018CE0C80E93
:101ED000D11C8D91811106C0092F122FA5E0EA2E89
:101EE000F12C05C0EC15FD05B9F38193F2CFD801B3
:101EF0006D918D01FD86EC86C6010E944001BFEF09
:101F0000EB1AFB0AE0E1EE16F10489F713C021E0B9
:101F10004AE150E060E070E086E493E00E948A1EAF
:101F200060ED77E080E090E00E94B62A86E493E0DE
:101F30000E948F1E0E9437092D960FB6F894DEBFBF
:101F40000FBECDBFDF91CF911F910F91FF90EF900A
:101F5000DF90CF9008951F920F920FB60F92112429
:101F60002F933F934F935F936F937F938F939F93A1
:101F7000AF93BF93EF93FF9380919C0687FF05C0BB
:101F800010928500109284001AC020919C0633277D
:101F900027FD309580919B0690E0281739077CF447
:101FA00080919C06992787FD9095FC01EE0FFF1FFD
:101FB000E80FF91FE356F94F808186FD15C0809127
:101FC0009C068F5F80939C0620919C06332727FDFB
:101FD000309580919B0690E028173907BCF48091DA
:101FE0009C068C305CF112C080919C06992787FD7D
:101FF0009095FC01EE0FFF1FE80FF91FE356F94F14
:10200000808160E08F730E94A22BD9CF80918400E1
:1020100090918500049680349C4918F480E49CE9F2
:1020200005C080918400909185000496909389006A
:10203000809388008FEF80939C0638C020918400A5
:102040003091850080919C06992787FD9095FC0131
:10205000EE0FFF1FE80FF91FE356F94F81819281C0
:10206000820F931F909389008093880080919C0633
:10207000992787FD9095FC01EE0FFF1FE80FF91FD0
:10208000E356F94F808186FF11C080919C06992705
:1020900087FD9095FC01EE0FFF1FE80FF91FE35637
:1020A000F94F808161E08F730E94A22BFF91EF9125
:1020B000BF91AF919F918F917F916F915F914F9160
:1020C0003F912F910F900FBE0F901F901895209168
:1020D0009B062C30A0F431E0320F30939B06FC01BC
:1020E0002083822F90E0FC01EE0FFF1FE80FF91F05
:1020F000E356F94F88EB9BE09283818308952FEF9D
:10210000FC0120830895DF92EF92FF920F931F93BB
:10211000CF93DF93EC01D62E7A01890188818C3030
:1021200008F066C061E08D2D0E94692B8881A82F80
:10213000B0E0FD01EE0FFF1FEA0FFB1FE356F94F62
:102140002D2D2F739081907C922B908360E272E012
:102150006E197F0977FF02C06D5F7F4F7595679598
:1021600075956795698340E659E0401B510B57FF11
:1021700002C04D5F5F4F55954795559547954A83EA
:102180006CE00E94AF379CE0899FB001112420E0F1
:1021900030E0A901460F571FFA01EE0FFF1FE40FB1
:1021A000F51FE356F94F908196FD16C02F5F3F4F04
:1021B0002C30310571F781110FC01092800082E040
:1021C000809381001092850010928400B19A8091D2
:1021D0006F00826080936F00888190E0FC01EE0FB9
:1021E000FF1FE80FF91FE356F94F80818064808359
:1021F0008881DF91CF911F910F91FF90EF90DF9039
:10220000089520E639E040E252E00C948310FC018E
:10221000808190E0FC01EE0FFF1FE80FF91FE356ED
:10222000F94F80818F7B80830895FC0180818C3001
:1022300070F5918128E830E0291B310997FD33952D
:10224000220F331F220F331F621773077CF0928116
:1022500028E532E0291B310997FD3395220F331F02
:10226000220F331F621773070CF49B0122503109B0
:10227000220F331F4FB7F89490E0FC01EE0FFF1FC1
:10228000E80FF91FE356F94F328321834FBF0895BA
:102290004F925F926F927F92AF92BF92CF92DF92F6
:1022A000EF92FF920F931F93CF93DF93EC01603275
:1022B00082E078070CF040C077FD06C0653B7105F1
:1022C0002CF064EB70E002C060E070E0898128E8E7
:1022D00030E0281B310987FD3395220F331F220F71
:1022E000331F5901CC24B7FCC094DC2C882777FD20
:1022F0008095982F2A8148E552E0421B510927FD1D
:102300005395440F551F440F551F2A01662457FC4F
:102310006094762C7F926F925F924F9214EBE12E35
:10232000F12C00E010E020E030E0A9010E946933C8
:102330000F900F900F900F90CE01DF91CF911F91D2
:102340000F91FF90EF90DF90CF90BF90AF907F9074
:102350006F905F904F900C941511FC01808190E07C
:10236000FC01EE0FFF1FE80FF91FE356F94F8081C4
:1023700086FB882780F9089508950F931F93CF93C4
:10238000DF9385E10E94232B25E0AC01249FC0014F
:10239000259F900D1124BC01882777FD8095982FEB
:1023A0000E94013620E030E040E85AE30E94B53652
:1023B0008B01D82FC92F26E636E646E850E40E9466
:1023C000B136181624F406E616E6D6E8C0E4B801DD
:1023D0008D2F9C2FDF91CF911F910F9108950F9317
:1023E0001F93CF93DF930E94BD112FEB36E842ED90
:1023F00052E40E94B5362CE73DE04BEA53E40E94DC
:10240000FD348B01D82FC92F20E030E0A9010E94B4
:10241000623587FF04C000E010E0D0E0C0E0B80102
:102420008D2F9C2FDF91CF911F910F9108950895CB
:10243000CF93DF93EC01862F688379835B834A8394
:1024400061E00E94692B60E08A81DF91CF910C945A
:10245000692BCF93DF93EC0160E088810E94A22B6F
:1024600082E090E00E94DE2A61E088810E94A22B37
:102470008AE090E00E94DE2A60E088810E94A22B20
:1024800020E43CE940E050E061E08A81DF91CF91B7
:102490000C94D82B0E9429122AE330E040E050E04F
:1024A0000E940538211531054105510521F427EE1B
:1024B00033E040E050E0CA01B9010E9401360895BE
:1024C0000F931F93CF93DF93EC0100E010E048815E
:1024D00059816A817B81002E04C076956795579556
:1024E00047950A94D2F7642F61708C810E94A22BC9
:1024F00000000000000061E08D810E94A22B00001E
:102500000000000060E08D810E94A22B0F5F1F4F32
:102510000E311105E1F661E08E810E94A22B0000D0
:102520000000000060E08E81DF91CF911F910F913C
:102530000C94A22BCF93DF93EC01862F1882198283
:102540001A821B826C834D832E8361E00E94692B6B
:1025500061E08D810E94692B61E08E810E94692B70
:1025600060E08C810E94A22B60E08D810E94A22BF2
:1025700060E08E810E94A22BCE01DF91CF910C945E
:102580006012FC0140835183628373830C94601258
:10259000FC0110821182128213820C94601221E0DD
:1025A00030E0FC01E20FF31F10822F5F3F4F243217
:1025B0003105B9F7FC0115A214A2089520E230E01C
:1025C000FC0137A326A32DE020A716A615A60C9480
:1025D000CF12AC01455D5F4FBC016A5D7F4F80E06B
:1025E00090E00C94003AFF920F931F93CF93DF93E8
:1025F000EC018A012DA53EA52E30310504F585E2BA
:10260000F82EF29EC001F39E900D11248F9643E2A6
:1026100050E08C0F9D1F0E94F1392DA53EA5F29E22
:10262000C001F39E900D11248C0F9D1FFC01EE5AEA
:10263000FF4F118300832F5F3F4F3EA72DA7DF91F0
:10264000CF911F910F91FF9008958B5C9D4FFC01DE
:102650007183608308952F923F924F925F926F92A1
:102660007F928F929F92AF92BF92CF92DF92EF9222
:10267000FF920F931F93CF93DF9300D000D0CDB77D
:10268000DEB79C838B831C012BE2220E311C2C01B4
:1026900036E2430E511C6C018FEFC81AD80AAB808A
:1026A000BC809FE2A90EB11C2B813C812B5C3D4F6D
:1026B0003A8329838AEC96E00E945D2C181619064D
:1026C0000CF073C08AEC96E00E94762CAB81BC8142
:1026D0008C9398969C919897891341C095961C92DB
:1026E0001E929497A101B201C6010E94003A3C01DA
:1026F000EB81FC8192A781A7009709F456C085A4BD
:1027000096A4750100E010E008151905FCF443E2F9
:1027100050E0B701C3010E94E339F5E2EF0EF11C6E
:10272000892B89F425E2209FC001219F900D11245F
:102730002B813C81820F931FFC01EE5AFF4F0190C9
:10274000F081E02D07C00F5F1F4FDECFA981BA8156
:10275000ED91FC9109958B819C810E94CF12AB81F8
:10276000BC811C91812F992787FD90950E94D539B6
:10277000892B09F49FCFEB81FC8124A135A1C901EC
:10278000019695A384A3E20FF31F1183EB81FC81D3
:10279000E80FF91F118283970CF48CCFAB81BC81B9
:1027A00095961C921E92949785CF0F900F900F9044
:1027B0000F90DF91CF911F910F91FF90EF90DF90DD
:1027C000CF90BF90AF909F908F907F906F905F90D1
:1027D0004F903F902F900895CF93DF93EC01FC0131
:1027E000E055FF4F6081718140E008960E94E2331E
:1027F000FE01EE54FF4F6081718140E0CE01C19631
:102800000E94E233FE01EC54FF4F6081718140E091
:10281000CE01865A9F4F0E94E233FE01EA54FF4FD9
:102820006081718140E0CE018D579F4FDF91CF9144
:102830000C94E2334F925F926F927F928F929F92AD
:10284000AF92BF92CF92DF92EF92FF920F931F93BE
:10285000CF93DF93CDB7DEB73C014B885C88FC019A
:10286000E055FF4F718360833296518340833296E7
:10287000318320833296118300830E94EC13F3018D
:10288000EC51FF4F1082E11037C0F301E054FF4FCD
:102890008AE590E09183808332969183808332969B
:1028A00091838083329691838083A201B401C30116
:1028B00084559F4F0E941812F301E853FF4FA082E6
:1028C000B1823296C082D18261E08A2D0E94692B4A
:1028D00060E08C2DDF91CF911F910F91FF90EF90D1
:1028E000DF90CF90BF90AF909F908F907F906F9030
:1028F0005F904F900C94692BE12CF12C00E010E0DC
:10290000C8010E942F3A90E0813891050CF09A9509
:10291000F301EE0DFF1D908F878B0F5F1F4F89E234
:10292000E80EF11C0430110559F7AFCFCF93DF93B8
:10293000EC0108960E943534CE01C1960E943534D0
:10294000CE01865A9F4F0E943534CE018D579F4F3E
:10295000DF91CF910C9435340F931F93FC01708F4E
:10296000678BE05CFF4F51834083B99631832083AE
:10297000B996118300831F910F910895EF92FF92F2
:102980000F931F93CF93DF937C0100E010E0C0E032
:10299000D0E0F701E00FF11F6789CE010E94373ABE
:1029A0002196075D1F4FC430D10599F7DF91CF9174
:1029B0001F910F91FF90EF9008952F923F924F92A9
:1029C0005F926F927F928F929F92AF92BF92CF92BF
:1029D000DF92EF92FF920F931F93CF93DF93CDB7C8
:1029E000DEB72A970FB6F894DEBF0FBECDBF1C012D
:1029F0006B0149835A830E94EC13F101EC51FF4FA4
:102A000010822BE0C216D1040CF4CDC0EE24D7FC0A
:102A1000E094FE2CC701B6010E94013620E030E0B0
:102A200040E251E40E9466352B013C0139813B8331
:102A30008A818C83510100E010E0AB81BC818D91D3
:102A40009D91BC83AB834501B4ED8B0E911CF101CC
:102A5000E00FF11FE054FF4F20813181821B930B67
:102A6000BC01882777FD8095982F0E940136A3012D
:102A700092010E946635F40160837183828393839F
:102A80000E5F1F4FF4E0AF0EB11C08301105A9F620
:102A90000E94872A910124533F4F3C832B836C0D66
:102AA0007D1D8E1D9F1DD9016D937D938D939C93EC
:102AB000139744244394512CF101E053FF4FFE83BC
:102AC000ED83245C310938872F830E94872AEB81AC
:102AD000FC81008111812281338160177107820797
:102AE000930708F076C00E94872A665F7F4F8F4F5A
:102AF0009F4FAD81BE816D937D938D939C93139772
:102B00006F80788481011A8619864201AA2497FC75
:102B1000A094BA2CE985FA85E20DF31DE054FF4F2D
:102B200080819181BC01882777FD8095982F0E9434
:102B300001366B017C01C501B4010E940136F80128
:102B4000EC52FF4F20813181428153810E94B53682
:102B50009B01AC01C701B6010E94FE340E94CE3534
:102B6000C3010E946534E985FA853296FA87E987C0
:102B70000C5F1F4FF9E26F0E711C29853A852830D2
:102B8000310541F60E94872AAD81BE810D911D91CC
:102B90002D913C91601771078207930798F3BFEF5F
:102BA0004B1A5B0A92CFC980DA8000E010E0710115
:102BB000F8E0EF0EF11CD6016D917D916D01C7011A
:102BC000800F911F0E946534075D1F4F043A110565
:102BD00091F7E981FA8180E090E021913191D10172
:102BE000A80FB91FA054BF4F2D933C930296883075
:102BF000910599F72A960FB6F894DEBF0FBECDBFA8
:102C0000DF91CF911F910F91FF90EF90DF90CF90C8
:102C1000BF90AF909F908F907F906F905F904F90FC
:102C20003F902F9008952F923F924F925F926F9214
:102C30007F928F929F92AF92BF92CF92DF92EF924C
:102C4000FF920F931F93CF93DF9300D000D0CDB7A7
:102C5000DEB75C01CA012901A70196013C014B01C5
:102C6000650188E0C80ED11C780104E010E03C2C1E
:102C70002D2CF301819191913F01F601968385837B
:102C8000F401819191914F01F60194838383B20104
:102C9000C60129833A834B835C830E944434F70145
:102CA00081919191A191B1917F01F60181879287E4
:102CB000A387B48701501109F9E2CF0ED11C2981F5
:102CC0003A814B815C810115110599F60E94872A92
:102CD0000E94FF356B017C01B201882777FD80954A
:102CE000982F0E94013629813A814B815C810E9494
:102CF000B536A70196010E94FE342B013C018501E7
:102D00000F5C1F4F45018AE5880E911CE3E8AE0E6B
:102D1000B11CA3019201C701B6010E9462351816C9
:102D2000A4F0832D922D0E946C34C8010E946C3453
:102D3000C4010E946C34C5010E946C340E94872A31
:102D40000E94FF356B017C01E4CF0F900F900F9034
:102D50000F90DF91CF911F910F91FF90EF90DF9037
:102D6000CF90BF90AF909F908F907F906F905F902B
:102D70004F903F902F9008952F923F924F925F92E5
:102D80006F927F928F929F92AF92BF92CF92DF927B
:102D9000EF92FF920F931F93CF93DF93CDB7DEB7E0
:102DA0002C970FB6F894DEBF0FBECDBF4C017A83CF
:102DB00069835C834B833E832D8318012601370191
:102DC0000E94EC13F401EC51FF4F1082C701B601D1
:102DD0000E94CE356F83788789879A87AF80B884C1
:102DE0001A141B04A4F12F813885B901882777FDB7
:102DF0008095982F0E9401369B01AC01C301B2015E
:102E00000E94FD346B017C0181012D813E814B814B
:102E10005C8169817A81C4010E9413162C960FB6D9
:102E2000F894DEBF0FBECDBFDF91CF911F910F9100
:102E3000FF90EF90DF90CF90BF90AF909F908F90DA
:102E40007F906F905F904F903F902F9008951C86D9
:102E50001B86C12CD12C90E8E92E9FE3F92E81012D
:102E60002D813E814B815C8169817A81C4010E9400
:102E700013168B859C8501969C878B878A159B05ED
:102E800041F7B1CFEF92FF920F931F93CF93DF9350
:102E9000CDB7DEB728970FB6F894DEBF0FBECDBF13
:102EA0008C017C0184EEE80EF11CF7018081811118
:102EB00017C088E0E2E1F1E0DE01119601900D9289
:102EC0008A95E1F7AE014F5F5F4F64EF71E0C80193
:102ED0000E94DD14C8010E94961481E0F7018083EE
:102EE00028960FB6F894DEBF0FBECDBFDF91CF910D
:102EF0001F910F91FF90EF9008958C519F4FFC010F
:102F0000808108958C519F4FFC0160830895EF925A
:102F1000FF920F931F93CF93DF93CDB7DEB76097E8
:102F20000FB6F894DEBF0FBECDBF8C01790188E0EB
:102F3000EAE1F1E0DE01199601900D928A95E1F740
:102F4000AE01475F5F4FB901C8010E94DD1488E000
:102F5000E2E1F1E0DE01119601900D928A95E1F730
:102F6000AE014F5F5F4FB701C8010E94DD1460964C
:102F70000FB6F894DEBF0FBECDBFDF91CF911F918A
:102F80000F91FF90EF9008958F929F92AF92BF9212
:102F9000CF92DF92EF92FF920F931F93CF93DF9325
:102FA000CDB7DEB7A0970FB6F894DEBF0FBECDBF8A
:102FB0005C016A017B014901980188E0E2E2F1E0ED
:102FC000DE01599601900D928A95E1F788E0EAE2D8
:102FD000F1E0DE01519601900D928A95E1F78E01A4
:102FE0000F5F1F4F80E1F80111928A95E9F746EAD9
:102FF0004203B001439F700D1124882777FD80950F
:10300000982F0E9401362BED3FE049E450E40E94E6
:10301000B53620E030E044E353E40E94663569872A
:103020007A878B879C876D877E878F87988B9401A3
:10303000AE014F5E5F4FBE01675E7F4FC5010E94CC
:10304000BC16A0960FB6F894DEBF0FBECDBFDF91C1
:10305000CF911F910F91FF90EF90DF90CF90BF9095
:10306000AF909F908F900895CF92DF92EF92FF9252
:103070000F931F93CF93DF93CDB7DEB7A0970FB613
:10308000F894DEBF0FBECDBFE8E0FE2EE2E2F1E035
:10309000DE01599601900D92FA94E1F7F8E0FF2EC7
:1030A000EAE2F1E0DE01519601900D92FA94E1F727
:1030B000A0E1FA2EE2E3F1E0DE01119601900D921B
:1030C000FA94E1F70130110539F4EEE1F0E0FA8FFE
:1030D000E98FEAE0F0E006C0EAE0F0E0FA8FE98F7D
:1030E000EEE1F0E0FC8FEB8F6A017B018E010F5F58
:1030F0001F4FAE014F5E5F4FBE01675E7F4F0E9464
:10310000BC16A0960FB6F894DEBF0FBECDBFDF9100
:10311000CF911F910F91FF90EF90DF90CF90089586
:103120004F925F926F927F928F929F92AF92BF92D7
:10313000CF92DF92EF92FF920F931F93CF93DF9383
:10314000CDB7DEB768970FB6F894DEBF0FBECDBF20
:103150008C016B0188E0E2E4F1E0DE015196019020
:103160000D928A95E1F788E0EAE4F1E0DE01199634
:1031700001900D928A95E1F788E0E2E1F1E0DE014D
:10318000119601900D928A95E1F7FA01483582E097
:10319000580714F4E8E5F2E02F3F3F4F71F481E95E
:1031A00090E09E8B8D8B8AE790E0988F8F8B2BE43D
:1031B00030E03E872D87988B8F874F0195948794B9
:1031C00095948794CF016AE070E00E94CF375B014D
:1031D0002F01440C551C4E0E5F1E55944794559478
:1031E0004794662457FC6094762CE12CF12CEC1467
:1031F000FD04F4F4AE014F5E5F4FB401C8010E94BC
:10320000DD14AE01475F5F4FB501C8010E94DD14B8
:10321000C301B2010E94B62AAE014F5F5F4F64EF57
:1032200071E0C8010E94DD148FEFE81AF80ADFCFC1
:1032300068960FB6F894DEBF0FBECDBFDF91CF9179
:103240001F910F91FF90EF90DF90CF90BF90AF90C4
:103250009F908F907F906F905F904F9008958F9286
:103260009F92AF92BF92CF92DF92EF92FF920F9315
:103270001F93CF93DF93CDB7DEB7A0970FB6F89427
:10328000DEBF0FBECDBF8C014B0188E0E2E4F1E070
:10329000DE01599601900D928A95E1F788E0E2E50A
:1032A000F1E0DE01519601900D928A95E1F788E0F8
:1032B000EAE5F1E0DE01199601900D928A95E1F7B9
:1032C00088E0E2E1F1E0DE01119601900D928A952D
:1032D000E1F721303105A1F481E990E09E8F8D8FD7
:1032E0008AE790E098A38F8F2CE330E03E8B2D8B04
:1032F000988F8F8B28E730E03E872D87988B8F87BC
:103300006A0188EEC81A83E0D80A80E9C81681E00D
:10331000D80624F430E9C32EDD24D3947601F59445
:10332000E794F594E794A12CB12CA814B904C4F542
:10333000AE01475E5F4F64EF71E0C8010E94DD148B
:10334000AE014F5E5F4F64EF71E0C8010E94DD1473
:10335000AE01475F5F4FB701C8010E94DD14AE01A7
:103360004F5E5F4FB701C8010E94DD14AE01475F99
:103370005F4FB701C8010E94DD14AE014F5E5F4F81
:10338000B701C8010E94DD14AE014F5F5F4F64EFCB
:1033900071E0C8010E94DD148FEFA81AB80AC5CFEA
:1033A000B601882777FD8095982F0E94B62AA096AF
:1033B0000FB6F894DEBF0FBECDBFDF91CF911F9146
:1033C0000F91FF90EF90DF90CF90BF90AF909F90C4
:1033D0008F900895CF92DF92EF92FF920F931F93F9
:1033E000CF93DF93CDB7DEB7A0970FB6F894DEBFCB
:1033F0000FBECDBF6A017B01E8E0BE01675E7F4F73
:10340000DB014E2F1D924A95E9F71E8F0D8F18A3F1
:103410000F8FAE014F5E5F4FDA011D92EA95E9F71B
:103420001E8B0D8B119501951109188F0F8B10E1D3
:10343000E2E6F1E0DE01119601900D921A95E1F7B6
:103440008E010F5F1F4F0E94BC16A0960FB6F89416
:10345000DEBF0FBECDBFDF91CF911F910F91FF90C7
:10346000EF90DF90CF900895CF92DF92EF92FF928E
:103470000F931F93CF93DF93CDB7DEB7A0970FB60F
:10348000F894DEBF0FBECDBF6A017B01E8E0BE014C
:10349000675E7F4FDB014E2F1D924A95E9F71E8F25
:1034A0000D8F18A30F8FAE014F5E5F4FDA011D9293
:1034B000EA95E9F7F80117FD3196F595E795FE8B4A
:1034C000ED8B17FF02C00F5F1F4F159507951195E4
:1034D00001951109188F0F8B8E010F5F1F4FE0E1CF
:1034E000D8011D92EA95E9F70E94BC16A0960FB686
:1034F000F894DEBF0FBECDBFDF91CF911F910F912A
:10350000FF90EF90DF90CF900895CF92DF92EF92EF
:10351000FF920F931F93CF93DF93CDB7DEB7A097A2
:103520000FB6F894DEBF0FBECDBF6A017B01E8E0A5
:10353000BE01675E7F4FDB014E2F1D924A95E9F772
:103540001E8F0D8F18A30F8FAE014F5E5F4FDA01F4
:103550001D92EA95E9F71E8B0D8B119501951109C6
:10356000188F0F8B8E010F5F1F4FE0E1D8011D9266
:10357000EA95E9F70E94BC16A0960FB6F894DEBF54
:103580000FBECDBFDF91CF911F910F91FF90EF90B4
:10359000DF90CF900895CF92DF92EF92FF920F933A
:1035A0001F93CF93DF93CDB7DEB7A0970FB6F894F4
:1035B000DEBF0FBECDBF6A017B010A31110514F0D9
:1035C00009E110E0E8E0BE01675E7F4FDB014E2FAE
:1035D0001D924A95E9F71A8F098F1C8F0B8FAE0148
:1035E0004F5E5F4FDA011D92EA95E9F710E1E2E7DD
:1035F000F1E0DE01119601900D921A95E1F78E012E
:103600000F5F1F4F0E94BC16A0960FB6F894DEBF46
:103610000FBECDBFDF91CF911F910F91FF90EF9023
:10362000DF90CF900895CF92DF92EF92FF920F93A9
:103630001F93CF93DF93CDB7DEB7A0970FB6F89463
:10364000DEBF0FBECDBF6A017B010E30110514F045
:103650000DE010E01A8F098F1C8F0B8F1E8F0D8FBE
:1036600018A30F8FAE014F5E5F4F68E0FA01119211
:103670006A95E9F7B8016C5F7F4F7E8B6D8B64E0D4
:1036800070E0601B710B788F6F8B60E1E2E8F1E016
:10369000DE01119601900D926A95E1F78E010F5FA0
:1036A0001F4FBE01675E7F4F0E94BC16A0960FB6EB
:1036B000F894DEBF0FBECDBFDF91CF911F910F9168
:1036C000FF90EF90DF90CF9008952F923F924F920E
:1036D0005F926F927F928F929F92AF92BF92CF92A2
:1036E000DF92EF92FF920F931F93CF93DF93CDB7AB
:1036F000DEB7A2970FB6F894DEBF0FBECDBF4C0168
:103700001A012B01390188E09E01275E3F4F3AA341
:1037100029A3F901282F11922A95E9F71E8F0D8F01
:1037200018A30F8F5E0131E1A30EB11CF5011192B8
:103730008A95E9F7C80117FD019695958795029638
:103740009E8B8D8B17FF02C00F5F1F4F159507953E
:1037500011950195110902501109188F0F8B26EA56
:10376000A70124036001259FD00C11248E010F5F57
:103770001F4F80E1F80111928A95E9F7B601882779
:1037800077FD8095982F0E9401362BED3FE049E4AC
:1037900050E40E94B53620E030E044E353E40E9458
:1037A000663569877A878B879C8724ECA701240379
:1037B000B001259F700D11246C0D7D1D882777FDAC
:1037C0008095982F0E9401362BED3FE049E450E4AC
:1037D0000E94B53620E030E044E353E40E946635B1
:1037E0006D877E878F87988B720161019301A50198
:1037F000BE01675E7F4FC4010E94BC16A2960FB641
:10380000F894DEBF0FBECDBFDF91CF911F910F9116
:10381000FF90EF90DF90CF90BF90AF909F908F90F0
:103820007F906F905F904F903F902F9008952F92D0
:103830003F924F925F926F927F928F929F92AF9240
:10384000BF92CF92DF92EF92FF920F931F93CF938D
:10385000DF93CDB7DEB7A0970FB6F894DEBF0FBEEB
:10386000CDBF4C015A016B01390128E02E0149E11D
:10387000440E511CF201422F11924A95E9F789E159
:1038800090E09A8F898F9C8F8B8F1E8F0D8F18A33E
:103890000F8F1E0151E1250E311CF10111922A9565
:1038A000E9F7C80117FD01969595879504969E8BBB
:1038B0008D8B17FF02C00F5F1F4F15950795119550
:1038C0000195110904501109188F0F8B8E010F5F9C
:1038D0001F4F80E1F80111928A95E9F780E090E0AE
:1038E000A4EBB2E489839A83AB83BC838D839E83EC
:1038F000AF83B88724ECA7012403B001259F700D86
:103900001124882777FD8095982F0E9401362BED92
:103910003FE049E450E40E94B53620E030E044E363
:1039200053E40E9466356D877E878F87988B76017A
:1039300065019301A101B201C4010E94BC16A096C9
:103940000FB6F894DEBF0FBECDBFDF91CF911F91B0
:103950000F91FF90EF90DF90CF90BF90AF909F902E
:103960008F907F906F905F904F903F902F90089531
:103970002F923F924F925F926F927F928F929F927F
:10398000AF92BF92CF92DF92EF92FF920F931F936D
:10399000CF93DF93CDB7DEB7A0970FB6F894DEBF15
:1039A0000FBECDBF4C015A016B01390128E02E0139
:1039B00049E1440E511CF201422F11924A95E9F758
:1039C0008CE090E09A8F898F9C8F8B8F1E8F0D8F4C
:1039D00018A30F8F1E0151E1250E311CF101119228
:1039E0002A95E9F7C8010A979E8B8D8B8AE090E0B3
:1039F000801B910B988F8F8B8E010F5F1F4F80E183
:103A0000F80111928A95E9F78BED9FE0A9E4B0E403
:103A10008D839E83AF83B88726EAA7012403B00174
:103A2000259F700D1124882777FD8095982F0E947F
:103A300001362BED3FE049E450E40E94B53620E02A
:103A400030E044E353E40E94663569877A878B87C8
:103A50009C878AE58E9DB0018F9D700D112488276B
:103A600077FD8095982F0E9401362BED3FE049E4C9
:103A700050E40E94B53620E030E044E353E40E9475
:103A800066356D877E878F87988B760165019301F8
:103A9000A101B201C4010E94BC16A0960FB6F89411
:103AA000DEBF0FBECDBFDF91CF911F910F91FF9071
:103AB000EF90DF90CF90BF90AF909F908F907F90CE
:103AC0006F905F904F903F902F90089584559F4F37
:103AD0000C944A120F931F93CF93DF938C010653DC
:103AE0001F4FF80180810E94232BEC0162E070E0FF
:103AF00080E090E00E94B62AF80180810E94232B8A
:103B0000C80FD91F62E070E080E090E00E94B62A02
:103B1000CE01D7FD019695958795DF91CF911F91A5
:103B20000F910895CF92DF92EF92FF920F931F9320
:103B3000CF93DF938C01095F1F4FC8010E94EF11E3
:103B4000CAE0D0E0C12CD12C7601C8010E94EF114F
:103B50009B01AC01C701B6010E94FE346B017C01E0
:103B600061E070E080E090E00E94B62A219769F75A
:103B700020E030E040E251E4C701B6010E94663522
:103B8000DF91CF911F910F91FF90EF90DF90CF9039
:103B90000895CF93DF93CDB7DEB7CC57D1090FB6D9
:103BA000F894DEBF0FBECDBF8CE7E2E9F1E0DE01A5
:103BB000119601900D928A95E1F7660F771F660FB7
:103BC000771F81E090E08C0F9D1F680F791FFB012C
:103BD0006081718182819381C458DF4F0FB6F89460
:103BE000DEBF0FBECDBFDF91CF910895CF93DF939E
:103BF000EC01BA010E94C91DAB01BC01CE01DF91ED
:103C0000CF910C94C112CF93DF93CDB7DEB7C057DD
:103C1000D1090FB6F894DEBF0FBECDBF80E2EEE053
:103C2000F2E0DE01999601900D928A95E1F780E12C
:103C3000EEE2F2E0DE01AF59BF4F01900D928A959E
:103C4000E1F788E1EEE3F2E0DE01A75BBF4F019010
:103C50000D928A95E1F788E2E6E5F2E0DE01119641
:103C600001900D928A95E1F76130710509F194F4A4
:103C7000672BB1F5FA01EE0FFF1FEE0FFF1F81E07A
:103C800090E08C0F9D1FE80FF91F60A571A582A51C
:103C900093A526C06230710599F06330710501F576
:103CA000FA01EE0FFF1FEE0FFF1F81E090E00FC043
:103CB000FA01EE0FFF1FEE0FFF1F81E690E007C035
:103CC000FA01EE0FFF1FEE0FFF1F89E490E08C0F4B
:103CD0009D1FE80FF91F608171818281938100C06F
:103CE000C059DF4F0FB6F894DEBF0FBECDBFDF91D6
:103CF000CF910895CF93DF93EC01CB01BA01A901D5
:103D0000CE010E94031EAB01BC01CE01DF91CF9119
:103D10000C94C11221110C94F61D0C94C1120C9438
:103D2000C8128F929F92AF92BF92EF92FF920F9321
:103D30001F93CF93DF93EC0148015901E114F10483
:103D400019F4EE24E394F12CCB01BA010E94D3358F
:103D5000C853DF4FA501940188810E948130C501BD
:103D6000B4010E94B62AB701882777FD8095982F65
:103D7000DF91CF911F910F91FF90EF90BF90AF9087
:103D80009F908F900C94B62A2F923F924F925F9201
:103D90006F927F928F929F92AF92BF92CF92DF925B
:103DA000EF92FF920F931F93CF93DF93CDB7DEB7C0
:103DB00028970FB6F894DEBF0FBECDBF1C012A01B5
:103DC0003B0109831A832B833C83CD82DE82EF8201
:103DD000F886CD8CDE8CC114D10419F4CC24C394A4
:103DE000D12C29813A814B815C81C301B2010E94AF
:103DF000623587FF25C0C301B2010E94CE358827F6
:103E000077FD8095982F0E9401362B013C01298176
:103E10003A814B815C810E94623587FF36C0760112
:103E200095018401B301A201C1010E94911E2D815F
:103E30003E814F815885C301B2010E94B536DDCF66
:103E4000C301B2010E94CE35882777FD8095982F57
:103E50000E9401362B013C0129813A814B815C8112
:103E60000E94B13618168CF4760195018401B301D5
:103E7000A201C1010E94911E2D813E814F81588572
:103E8000C301B2010E946635DDCF28960FB6F894C3
:103E9000DEBF0FBECDBFDF91CF911F910F91FF907D
:103EA000EF90DF90CF90BF90AF909F908F907F90DA
:103EB0006F905F904F903F902F9008957F928F92D8
:103EC0009F92AF92BF92CF92DF92EF92FF920F93A9
:103ED0001F93CF93DF93EC016331710508F047C363
:103EE000FB01E759FF4F0C9424385EE1E52EF12CDD
:103EF00002E310E020E030E044EA50ED64E274E4D4
:103F00000E94911E69E1E62EF12C07E310E020E00B
:103F100030E042E550ED64EA74E4CE010E94911E67
:103F20007AE0E72EF12C0CE310E020E030E040E0F6
:103F300050E06CED74E426C02EE1E22EF12C02E399
:103F400010E020E030E044EA50ED64E274E40E94C6
:103F5000911E39E1E32EF12C07E310E020E030E080
:103F600040E050E06CED74E4CE010E94911E4AE006
:103F7000E42EF12C02E310E020E030E042E550EDC9
:103F800064EA74E4CE010E94911EF1C21F92B2E075
:103F90007B2E7F9214E1812E912CA12CB12C0AE072
:103FA000C02E07EDD02E03E8E02E0FE3F02E0CE537
:103FB0001FEF23EC34E442E550ED64EA74E40E9420
:103FC000C41E6EE170E080E090E00E94B62A1F926D
:103FD0007F928AE0882E912CA12CB12C98EBC92ECF
:103FE0009EE1D92E95E8E92E9FE3F92E0FE115ED1C
:103FF00022E135E442E550ED64EA74E4B1C21F9277
:104000008AE08F93FEE18F2E912CA12CB12CACE590
:10401000CA2EAFE8DA2EA2E8EA2EAFE3FA2E00E0CD
:1040200010E02CED34E442E550ED64EA74E46DC236
:104030001F928AE08F937EE1872E912CA12CB12CC8
:10404000EAE0CE2EE7EDDE2EE3E8EE2EEFE3FE2EE5
:104050000FE115ED22E135E44CE55FEF63EC74E42C
:1040600054C254E6E52EF12C02E310E020E030E0EB
:1040700042E550ED64EA74E40E94911E60E5E62E8C
:10408000F12C02E310E020E030E04CE55FEF63EC60
:1040900074E4CE010E94911EE12CF12C0CE211E09F
:1040A00020E030E04FE155ED62E175E46BCF1F9207
:1040B000772473947F929AE0892E912CA12CB12CB5
:1040C0002CE5C22E2FE8D22E22E8E22E2FE3F22E8C
:1040D00000E010E626E035E440E050E068E474E4F7
:1040E000CE010E94C41E1F927F9237E0832E912C36
:1040F000A12CB12C4AE0C42E47EDD42E43E8E42E87
:104100004FE3F42E00E010E028E434E440E050E512
:1041100066E075E425C21F9283E08F9318E0812E3C
:10412000912CA12CB12C08EBC02E0EE1D02E05E86D
:10413000E02E0FE3F02E00E010E02AEF34E440E040
:1041400050E06CE574E4CE010E94C41E68EC70E09F
:1041500080E090E00E94B62A0F900F9086E1C82E72
:10416000D12CBAE0EB2EF12C05E010E020E030E09D
:1041700048E451EF66E774E4CE010E94911E81E0AD
:10418000C81AD10871F7F3C11F9283E08F93E8E05A
:104190008E2E912CA12CB12CFAE0CF2EF7EDDF2E34
:1041A000F3E8EF2EFFE3FF2E00E010E82BE335E409
:1041B00040E050E06BEE74E4CE010E94C41E68EC57
:1041C00070E080E090E00E94B62A0F900F90A0E18E
:1041D000CA2ED12C7AE0E72EF12C0AE010E020E084
:1041E00030E040E050ED62E874E4CE010E94911EA0
:1041F00081E0C81AD10871F7BAC11F9284E08F9389
:1042000030E1832E912CA12CB12C4AE0C42E47ED35
:10421000D42E43E8E42E4FE3F42E00E010E021E634
:1042200034E440E050E06FE274E4CE010E94C41E2A
:104230001F9287E08F9352E1852E912CA12CB12CF7
:104240006EEAC62E67E4D62E61E8E62E6FE3F62E00
:1042500000E010E822E234E440E050EC60E674E470
:104260007FC11F928AE08F939AE0892E912CA12C16
:10427000B12C28EBC22E2EE1D22E25E8E22E2FE320
:10428000F22E00E010E02AEF33E440E050E068EC6A
:1042900072E4CE010E94C41E64EF71E080E090E001
:1042A0000E94B62A1F9281E08F9300E010E028EC74
:1042B00032E440E050E068EC73E452C11F92B8E091
:1042C0007B2E7F9214E1812E912CA12CB12C06E63D
:1042D000C02EDC2C06E8E02E0FE3F02E00E010E408
:1042E0002CE135E440E050E86BEB74E40E94C41E1E
:1042F0001F927F9289E1882E912CA12CB12C00E095
:1043000010E82BEB34E440E050E36CE175E428C1A5
:104310001F9283E08F93E8E08E2E912CA12CB12C7C
:10432000F6E6CF2EDC2CF6E8EF2EFFE3FF2E00E0C2
:1043300010E82BEB35E440E050E06AEF74E4CE0186
:104340000E94C41E62E370E080E090E00E94B62A02
:104350001F9282E08F93ADE08A2E912CA12CB12C7C
:1043600000E010E02AEF34E440E058E76BEB75E43E
:10437000F7C01F9248E0742E7F925FE0852E912C4B
:10438000A12CB12C66E6C62EDC2C66E8E62E6FE387
:10439000F62E00E010E02AEF34E440E050E86BEB4A
:1043A00074E40E94C41E64E670E080E090E00E9425
:1043B000B62A1F927F927AE0872E912CA12CB12CE5
:1043C00000E010E42CE135E440E050E86DEE74E4E8
:1043D000C7C01F9288EC8F9324E1822E912CA12CD0
:1043E000B12C3CE5C32E3FE8D32E32E8E32E3FE369
:1043F000F32E00E010E427E234E440E050E06CE506
:1044000074E483C01F9282E08F93B8E08B2E912CCE
:10441000A12CB12C1AE0C12E17EDD12E13E8E12EFC
:104420001FE3F12E00E010E824ED34E440E050E01A
:104430006AE774E4CE010E94C41E1F9283E08F934A
:1044400008EBC02E0EE1D02E05E8E02E0FE3F02E93
:1044500000E010E02AEF33E440E050E664ED74E45D
:10446000CE010E94C41E1F928AE08F9389E0882E9D
:10447000912CA12CB12C96E6C92EDC2C96E8E92EC5
:104480009FE3F92E00E010E824ED34E440E050E032
:104490006AE774E4CE010E94C41E0F900F900F9043
:1044A0000F900F900F9063C01F928FE08F93F2E0F8
:1044B0008F2E912CA12CB12CACE5CA2EAFE8DA2EB0
:1044C000A2E8EA2EAFE3FA2E00E010E82BE335E491
:1044D00040E050E068EC74E418C01F9284E18F93D0
:1044E00072E0872E912CA12CB12CECE5CE2EEFE8BA
:1044F000DE2EE2E8EE2EEFE3FE2E00E010E82BEBDE
:1045000035E440E050E06AEF74E4CE010E94C41E3E
:104510000F900F902CC01F9244E1742E7F9252E0B6
:10452000852E912CA12CB12C6CE5C62E6FE8D62ED1
:1045300062E8E62E6FE3F62E00E010E02AE735E4AD
:1045400040E050E068EC74E40E94C41E1F927F9229
:1045500000E010E82BE335E440E050E06AE775E462
:10456000CE010E94C41E0F900F900F900F90DF910C
:10457000CF911F910F91FF90EF90DF90CF90BF9060
:10458000AF909F908F907F9008952F923F924F927F
:104590005F926F927F928F929F92AF92BF92CF92D3
:1045A000DF92EF92FF920F931F93CF93DF93CDB7DC
:1045B000DEB7C258D1090FB6F894DEBF0FBECDBF2B
:1045C0003C0188E0EEE7F2E0DE01AF58BF4F01901A
:1045D0000D928A95E1F788E0E6E8F2E0DE01A7595E
:1045E000BF4F01900D928A95E1F788E0EEE8F2E086
:1045F000DE01AF59BF4F01900D928A95E1F788E037
:10460000E6E9F2E0DE01A75ABF4F01900D928A95CC
:10461000E1F788E0EEE9F2E0DE01AF5ABF4F01902A
:104620000D928A95E1F788E0E6EAF2E0DE01A75B09
:10463000BF4F01900D928A95E1F788E0EEEAF2E033
:10464000DE01AF5BBF4F01900D928A95E1F788E0E4
:10465000E6EBF2E0DE01D99601900D928A95E1F742
:1046600088E0EEEBF2E0DE01D19601900D928A95A2
:10467000E1F788E0E6ECF2E0DE01999601900D9218
:104680008A95E1F788E0EEECF2E0DE019196019088
:104690000D928A95E1F788E0E6EDF2E0DE015996A9
:1046A00001900D928A95E1F788E0EEEDF2E0DE01EF
:1046B000519601900D928A95E1F788E0E6EEF2E0DE
:1046C000DE01199601900D928A95E1F76D30710522
:1046D00008F0B9C6FB01E458FF4F0C94243882E07F
:1046E00090E0EF969FAF8EAFEF973DC4E4E0F0E02F
:1046F000EF96FFAFEEAFEF976BC3FEE1EF2EF12C1D
:1047000002E310E020E030E044EA50ED64E274E4BB
:10471000C3010E94911E4AE050E060E070E0C301D6
:104720000E94F61D6DE070E0C3010E945E1F04E16F
:1047300010E020E233E040E050E060E87FE3C301B6
:104740000E94341A6DE070E076C14BE050E060E00A
:1047500070E0C3010E94F61D6BE070E0C3010E948F
:104760005E1F4CE050E060E070E0C3010E94F61D67
:1047700004E110E024EF31E040E050E060E87FE346
:10478000C3010E94851A4BE050E060E070E0C30175
:104790000E94F61D6CE070E0C3010E945E1F4CE0B9
:1047A00050E060E070E0C3010E94F61D24EF31E0AC
:1047B00040E050E060E87FE3C3010E94851A04C333
:1047C00046E150E060E070E0C3010E94F61DAE01DA
:1047D0004F585F4F6CEB72E0C3010E94DD141F92D3
:1047E00068EC562E5F9274E1872E912CA12CB12C8F
:1047F000ECE5CE2EEFE8DE2EE2E8EE2EEFE3FE2E25
:1048000000E010E82FE434E440E050E06CE574E4AC
:10481000C3010E94C41E48E150E060E070E0C301A3
:104820000E94F61D1F925F9200E010E825E434E438
:1048300040E050E86FE474E4C3010E94C41E47E105
:1048400050E060E070E0C3010E94F61D1F925F928D
:1048500000E010E029E334E440E050E865E474E46B
:10486000C3010E94C41E48E150E060E070E0C30153
:104870000E94F61D1F925F9200E010E02FE234E4E8
:1048800040E050E069E374E4C3010E94C41E47E1C4
:1048900050E060E070E0C3010E94F61D1F925F923D
:1048A00000E010E427E234E440E050E06FE274E41A
:1048B000C3010E94C41E46E150E060E070E0C30105
:1048C0000E94F61D64EF71E080E090E00E94B62A3D
:1048D000C3010E9442176CE271E080E090E00E9408
:1048E000B62A07C2AE0147595F4F6CEB72E0C301B5
:1048F0000E94DD1444E0442E512C5AE0352E22242F
:10490000239420E030E041E050E060E070E0C3013B
:104910000E947A1E1F923F922AE0822E912CA12C97
:10492000B12C38EBC32E3EE1D32E35E8E32E3FE326
:10493000F32E00E010E028E433E440E050E068ECBF
:1049400072E4C3010E94C41E21E030E041E050E067
:1049500060E070E0C3010E947A1E1F923F9200E067
:1049600010E026E933E440E050E068E473E4C3017A
:104970000E94C41E22E030E041E050E060E070E0C0
:10498000C3010E947A1E1F923F9200E010E02AEFBE
:1049900033E440E050E066E973E4C3010E94C41EC2
:1049A00064EF71E080E090E00E94B62A21E030E000
:1049B00041E050E060E070E0C3010E947A1E1F9267
:1049C0002F9200E010E02AE733E440E050E068EC8A
:1049D00073E4C3010E94C41E20E030E041E050E0D7
:1049E00060E070E0C3010E947A1E1F922F9200E0E7
:1049F00010E028EC32E440E050E06AE773E4C301E1
:104A00000E94C41E64EF71E080E090E00E94B62A2C
:104A100091E0491A51080FB6F894DEBF0FBECDBF22
:104A200009F06FCF43E150E060E070E0C3010E9405
:104A3000F61D69E070E0C3010E945E1FC5C1AE01B2
:104A40004F595F4F64EF71E0C3010E94DD146CE2C7
:104A500071E080E090E00E94B62A43E150E060E01F
:104A600070E0C3010E94F61D60E170E0C3010E9486
:104A70005E1F40E150E060E070E0C3010E94F61D5F
:104A80006AEF70E080E090E00E94B62AAE01475ADB
:104A90005F4F64EF71E0C3010E94DD146CE271E0CE
:104AA00080E090E00E94B62A43E150E060E070E0D0
:104AB000C3010E94F61D61E170E0C3010E945E1F08
:104AC00040E150E060E070E0C3010E94F61D6AEF33
:104AD00070E080E090E00E94B62AAE014F5A5F4F2E
:104AE00064EF71E0C3010E94DD146CE271E080E0CC
:104AF00090E00E94B62A43E150E060E070E0C3011C
:104B00000E94F61D62E170E0C3010E945E1F40E159
:104B100050E060E070E0C3010E94F61D6CE271E0BD
:104B200080E090E00E94B62AC3010E94421764EF21
:104B300071E080E090E052C3AE01475B5F4F6CE2F2
:104B400071E0C3010E94DD1444E150E060E070E0D8
:104B5000C3010E94F61D6FE070E0C3010E945E1F5A
:104B60002DC14DE050E060E070E0C3010E94F61DF1
:104B700069E070E0C3010E945E1FEE24E394F12C13
:104B80000FE010E02CED35E040E050E060E070E434
:104B9000C3010E94171CC3010E9442176DE070E020
:104BA000C3010E945E1FC6C3AE014F5B5F4F6CE244
:104BB00071E0C3010E94DD144EE150E060E070E05E
:104BC000C3010E94F61DFEE1EF2EF12C04E610E079
:104BD00020E030E040E050E06CE574E4C3010E9466
:104BE000911E1F92A4E05A2E5F92B7E08B2E912C5B
:104BF000A12CB12C1CE5C12E1FE8D12E12E8E12E0C
:104C00001FE3F12E0FE115ED22E934E440E050E01E
:104C10006CE574E4C3010E94C41E1F9244244394B3
:104C20004F920AE0802E912CA12CB12C0CE51FEFA5
:104C300023EC34E44FE155ED62E974E4C3010E94D2
:104C4000C41E1F924F9200E010E02CE534E44CE5C6
:104C50005FEF63EC74E4C3010E94C41E6FE070E078
:104C600080E090E00E94B62A1F925F9284E1882E35
:104C7000912CA12CB12C04EA10ED24E234E440E0A4
:104C800050E06CE574E4C3010E94C41E60E971E069
:104C900080E090E00E94B62AAE01475C5F4F68EC6E
:104CA00070E0C3010E94DD141F925F920FE115EDC9
:104CB00022E934E440E050E06CE574E4C3010E9472
:104CC000C41EAE014F5C5F4F68EC70E0C3010E94F0
:104CD000DD141F925F9204EA10ED24E234E440E018
:104CE00050E06CE574E4C3010E94C41EC3010E943D
:104CF00042174BE050E060E070E0C3010E94F61DF7
:104D00000FB6F894DEBF0FBECDBF9DC34EE150E09D
:104D100060E070E0C3010E94F61D1F9264E0562E11
:104D20005F9274E1872E912CA12CB12CECE5CE2E54
:104D3000EFE8DE2EE2E8EE2EEFE3FE2E0FE115EDBA
:104D400022E934E440E050E06CE574E4C3010E94E1
:104D5000C41E1F925F9204EA10ED24E234E440E0A6
:104D600050E06CE574E4C3010E94C41E6CE271E083
:104D700080E090E00E94B62A43E150E060E070E0FD
:104D8000C3010E94F61D0F900F900F900F9004E04A
:104D900010E0AE01475D5F4F64E670E0C3010E9422
:104DA000DD14C3010E9442170150110991F74EE131
:104DB00050E060E070E0C3010E94F61D64EF71E016
:104DC00080E090E00E94B62AC3010E944217B2C25E
:104DD000EB961FAE1EAEEB9700E911E0EB962EAD01
:104DE0003FADEB9742E050E060E070E0C3010E940D
:104DF0007A1E180194E6290E311CB801882777FD28
:104E00008095982F0E940136C158DF4F68837983BF
:104E10008A839B83CF57D040B101882777FD809547
:104E2000982F0E9401368B019C011F92EAE0EF93BC
:104E30004AE0842E912CA12CB12C58EBC52E5EE1BA
:104E4000D52E55E8E52E5FE3F52EC158DF4F48819A
:104E500059816A817B81CF57D040C3010E94C41E13
:104E6000EB968EAD9FADEB970196EB969FAF8EAF15
:104E7000EB970F900F9098EE291693E0390611F0FA
:104E80008101ACCFC3010E94C8121F92EAE0EF93E8
:104E900000E010E829E834E4C158DF4F4881598127
:104EA0006A817B81CF57D040C3010E94C41E0F90FE
:104EB0000F90412C512C920142E050E060E070E0F4
:104EC000C3010E947A1EB1016C597F4F882777FD7C
:104ED0008095982F0E940136ED966CAF7DAF8EAF16
:104EE0009FAFED97B101882777FD8095982F0E949D
:104EF0000136AB01BC011F92FAE0FF932AE0822E3B
:104F0000912CA12CB12C38EBC32E3EE1D32E35E8E9
:104F1000E32E3FE3F32EED960CAD1DAD2EAD3FAD70
:104F2000ED97C3010E94C41E84E6281A31089FEF42
:104F3000491A590A0F900F90E0E92E16E1E03E065B
:104F400009F0B9CFEF968EAD9FADEF970197EF9631
:104F50009FAF8EAFEF97892B09F03ACF6CE271E0EB
:104F600080E090E03BC1212C312C54EF452E55249C
:104F70005394910143E050E060E070E0C3010E946F
:104F80007A1EB2016C597F4F882777FD8095982F44
:104F90000E940136ED966CAF7DAF8EAF9FAFED975F
:104FA000B201882777FD8095982F0E940136AB01CA
:104FB000BC011F929AE09F938AE0882E912CA12C2D
:104FC000B12C9CE5C92E9FE8D92E92E8E92E9FE3EB
:104FD000F92EED960CAD1DAD2EAD3FADED97C30195
:104FE0000E94C41EE5E64E0E511CFFEF2F1A3F0A29
:104FF0000F900F9086EE481685E0580609F0B9CF5D
:10500000212C312C910143E050E060E070E0C301BD
:105010000E947A1EB2016C597F4F882777FD8095D8
:10502000982F0E940136ED966CAF7DAF8EAF9FAF8B
:10503000ED97B201882777FD8095982F0E94013661
:10504000AB01BC011F929AE09F931AE0812E912C34
:10505000A12CB12C0CE5C02E0FE8D02E02E8E02EDA
:105060000FE3F02EED960CAD1DAD2EAD3FADED97DF
:10507000C3010E94C41EE5E64E0E511CFFEF2F1A1D
:105080003F0A0F900F9088ED481689E0580609F006
:10509000B9CF212C312C910143E050E060E070E069
:1050A000C3010E947A1EB20164567109882777FDF8
:1050B0008095982F0E940136ED966CAF7DAF8EAF34
:1050C0009FAFED97B201882777FD8095982F0E94BA
:1050D0000136AB01BC011F929AE09F93AAE08A2E91
:1050E000912CA12CB12CBCE5CB2EBFE8DB2EB2E875
:1050F000EB2EBFE3FB2EED960CAD1DAD2EAD3FADFF
:10510000ED97C3010E94C41EE5E64E1A5108FFEF59
:105110002F1A3F0A0F900F9086EE481685E058062A
:1051200009F0B9CF212C312C910143E050E060E02F
:1051300070E0C3010E947A1EB2016456710988278B
:1051400077FD8095982F0E940136ED966CAF7DAF6C
:105150008EAF9FAFED97B201882777FD8095982F8E
:105160000E940136AB01BC011F929AE09F93EAE0D6
:105170008E2E912CA12CB12CFCE5CF2EFFE8DF2E3A
:10518000F2E8EF2EFFE3FF2EED960CAD1DAD2EAD38
:105190003FADED97C3010E94C41EE5E64E1A5108CB
:1051A000FFEF2F1A3F0A0F900F9084EF481681E00F
:1051B000580609F0B9CFEF96EEADFFADEF973197F6
:1051C000EF96FFAFEEAFEF97EF2B09F0CCCEC30118
:1051D0000E94C81264E670E080E090E00E94B62A67
:1051E000A9C090E4C92E96E0D92E2AE5422E512C72
:1051F000CE0101961C013AE5A32EB12C44EB842E7E
:10520000912CF10188E011928A95E9F7BA82A9827E
:10521000BC82AB825E824D82C40184199509988755
:105220008F83A1016AE070E0C3010E94DD14B60122
:10523000882777FD8095982F0E940136AB01BC012D
:10524000EE24E394F12C0FE010E020E030E0C30105
:105250000E94911E9FEF491A590AE4E1CE0ED11C1B
:10526000F6E94F16510469F6A0EFAA2EAAE0BA2E6D
:10527000B6E9CB2ED12C1AE5412E512C04EB802E11
:10528000912CF10188E011928A95E9F75A824982BE
:105290005C824B82DE82CD82C4018C199D09988785
:1052A0008F83A1016AE070E0C3010E94DD14B501A3
:1052B000882777FD8095982F0E940136AB01BC01AD
:1052C000EE24E394F12C0FE010E020E030E0C30185
:1052D0000E94911E91E0C91AD108E4E1AE0EB11C02
:1052E000FAE5CF16D10469F604E110E024EF31E0CD
:1052F00040E050E060E87FE3C3010E94851A6CE063
:1053000070E0C3010E945E1F4CE050E060E070E07E
:10531000C3010E94F61D24EF31E040E050E060E858
:105320007FE3C3010E94851AC3010E944217C30193
:105330000E94C8124BE050E060E070E0C3010E94A0
:10534000F61D81C047E150E060E070E0C3010E94BB
:10535000F61DAE014F5D5F4F6CE271E0C3010E942C
:10536000DD14EE24E394F12C08EC10E020E030E0B2
:1053700040E050E061E674E4C3010E94911E48E100
:1053800050E060E070E0C3010E94F61DAE01475E90
:105390005F4F6CE271E0C3010E94DD1408EC10E085
:1053A00020E030E040E050E066E174E4C3010E9498
:1053B000911E44E150E060E070E0C3010E94F61DE0
:1053C000AE014F5E5F4F6CE271E0C3010E94DD14DD
:1053D00008EC10E020E030E040E050E066E973E4E3
:1053E000C3010E94911EAE01475F5F4F6CE271E006
:1053F000C3010E94DD144AE150E060E070E0C301A7
:105400000E94F61DC3010E94961408E918E020E0EE
:1054100030E040E050E066E173E4C3010E94911E79
:1054200068E572E080E090E00E94B62AC3010E9425
:10543000C8124BE050E060E070E0C3010E94F61D2E
:10544000C3010E944217CE57DF4F0FB6F894DEBF5C
:105450000FBECDBFDF91CF911F910F91FF90EF90C5
:10546000DF90CF90BF90AF909F908F907F906F9084
:105470005F904F903F902F9008951F920F920FB61C
:105480000F9211242F933F938F939F93AF93BF93CA
:105490008091C2069091C306A091C406B091C50642
:1054A0003091C10623E0230F2D3720F40196A11D72
:1054B000B11D05C026E8230F0296A11DB11D209342
:1054C000C1068093C2069093C306A093C406B0930E
:1054D000C5068091C6069091C706A091C806B091F6
:1054E000C9060196A11DB11D8093C6069093C706FB
:1054F000A093C806B093C906BF91AF919F918F91B9
:105500003F912F910F900FBE0F901F9018952FB7BE
:10551000F8946091C2067091C3068091C406909180
:10552000C5062FBF08953FB7F8948091C6069091A5
:10553000C706A091C806B091C90626B5A89B05C0AC
:105540002F3F19F00196A11DB11D3FBF6627782F8F
:10555000892F9A2F620F711D811D911D42E0660FE8
:10556000771F881F991F4A95D1F70895CF92DF9230
:10557000EF92FF92CF93DF936B017C010E94932AFD
:10558000EB01C114D104E104F10489F00E94FC3460
:105590000E94932A6C1B7D0B683E734090F381E060
:1055A000C81AD108E108F108C851DC4FEACFDF91F1
:1055B000CF91FF90EF90DF90CF900895019739F051
:1055C000880F991F880F991F02970197F1F7089587
:1055D000789484B5826084BD84B5816084BD85B5CE
:1055E000826085BD85B5816085BDEEE6F0E0808195
:1055F00081608083E1E8F0E01082808182608083B6
:10560000808181608083E0E8F0E080818160808338
:10561000E1EBF0E0808184608083E0EBF0E080816A
:1056200081608083EAE7F0E080818460808380810C
:1056300082608083808181608083808180688083B4
:105640001092C10008958E3008F08E50877020911E
:10565000080190E4299F90011124822B80937C0003
:1056600080917A00806480937A0080917A0086FD30
:10567000FCCF809178002091790090E0922B0895E2
:10568000833081F028F4813099F08230A1F00895C0
:105690008730A9F08830B9F08430D1F4809180004F
:1056A0008F7D03C0809180008F7780938000089564
:1056B00084B58F7702C084B58F7D84BD08958091B5
:1056C000B0008F7703C08091B0008F7D8093B000D1
:1056D0000895CF93DF9390E0FC01EB56FE4F2491A9
:1056E000FC01E755FE4F8491882349F190E0880F33
:1056F000991FFC01EF52FE4FA591B49189539E4F23
:10570000FC01C591D4919FB7611108C0F8948C91A8
:10571000209582238C93888182230AC0623051F4C1
:10572000F8948C91322F309583238C938881822B2F
:10573000888304C0F8948C91822B8C939FBFDF9157
:10574000CF9108950F931F93CF93DF931F92CDB7FF
:10575000DEB7282F30E0F901EF57FE4F8491F901B1
:10576000EB56FE4F1491F901E755FE4F04910023CB
:10577000C9F0882321F069830E94402B6981E02FC2
:10578000F0E0EE0FFF1FE953FE4FA591B4919FB7D4
:10579000F8948C91611103C01095812301C0812B75
:1057A0008C939FBF0F90DF91CF911F910F91089520
:1057B000CF92DF92EF92FF920F931F93CF93DF93DD
:1057C00090E0FC01EB56FE4FD491FC01E755FE4FF3
:1057D0007491611102C0C0E001C0CD2FDA01C9018E
:1057E000BF70672F70E0660F771F63547E4F00E035
:1057F00010E09801FB01E590F490F70140814D2302
:105800004C131EC0680179014FEFC41AD40AE40A90
:10581000F40A081719072A073B0709F442C0970141
:105820008601E8CF68017901FFEFCF1ADF0AEF0A9E
:10583000FF0A081719072A073B0799F19701860104
:10584000FB01E590F490F70140814D234C13EACF22
:10585000801B910BA20BB30B20E030E0A901FB01F0
:10586000E590F490F701F080FD22FC120AC02817A1
:1058700039074A075B07A9F02F5F3F4F4F4F5F4F34
:10588000EECFA8E1B0E00E942A38605F7F4F8F4FD3
:105890009F4F24E096958795779567952A95D1F740
:1058A00003C060E070E0CB01DF91CF911F910F91B9
:1058B000FF90EF90DF90CF900895FC01818D228DB5
:1058C00090E0805C9F4F821B91098F739927089508
:1058D000FC01918D828D981731F0828DE80FF11DBA
:1058E000858D90E008958FEF9FEF0895FC01918DD5
:1058F000828D981761F0828DDF01A80FB11D5D9632
:105900008C91928D9F5F9F73928F90E008958FEF9F
:105910009FEF08958AEF9DE2892B49F080E090E0A7
:10592000892B29F00E94FA2D81110C940000089512
:10593000FC01848DDF01A80FB11DA35ABF4F2C912C
:10594000848D90E001968F739927848FA689B789FB
:105950002C93A089B1898C9180648C93938D848DD4
:10596000981306C00288F389E02D80818F7D8083A3
:105970000895CF93DF93EC01888D8823C9F0EA89DD
:10598000FB89808185FD05C0A889B9898C9186FD38
:105990000FC00FB607FCF5CF808185FFF2CFA88935
:1059A000B9898C9185FFEDCFCE010E94982CE7CF6D
:1059B000DF91CF910895CF92DF92FF920F931F93C3
:1059C000CF93DF931F92CDB7DEB76C01DC015B96FE
:1059D0009C915B975C968C915C97981307C050964E
:1059E000ED91FC915197808185FD32C0F601038DC8
:1059F00010E00F5F1F4F0F731127F02EF601848DFB
:105A0000F81211C00FB607FCF9CFD6015096ED91F0
:105A1000FC915197808185FFF1CFC60169830E9477
:105A2000982C6981EBCF838DE80FF11DE35AFF4F6E
:105A30006083D6015B960C935B975296ED91FC9137
:105A4000539780818062808381E058968C930DC04B
:105A5000D6015696ED91FC91579760835096ED9143
:105A6000FC91519780818064808381E090E00F9069
:105A7000DF91CF911F910F91FF90DF90CF9008950C
:105A8000BF92CF92DF92EF92FF92CF93DF93EC0120
:105A90006A017B01B22EE889F98982E08083411591
:105AA00081EE580761057105A1F060E079E08DE3B2
:105AB00090E0A70196010E94E33721503109410986
:105AC00051095695479537952795211580E1380757
:105AD00098F0E889F989108260E874E88EE190E036
