:100000000C94F0000C94C6020C94ED020C941403B2
:100010000C9477030C94DA030C9418010C94F632C8
:100020000C9418010C9418010C9418010C94BD0F39
:100030000C9418010C9418010C9418010C941801DC
:100040000C946E2A0C9418010C94D32D0C94052E4C
:100050000C9418010C9418010C9418010C941801BC
:100060000C9418010C941801E80AED0AF40A030B29
:100070000A0B190B2A0B360B4A0B5B0B670B7B0B1E
:10008000880B940BA80BB90BC00BCD0BD40BE10B59
:10009000F20BB50EB80EBB0EBE0EC10EC40EC70ECF
:1000A000CA0ECD0ED00ED30ED60ED90E0D0F100FD8
:1000B000130F160F190F1C0F1F0F220F250F280FDC
:1000C0002B0F2E0F310F340F370F3A0F3D0F400F0C
:1000D000430F911FB81FE21F1B2034204D207320B7
:1000E000A720E02019214D217A21A421D521052224
:1000F0001E2270228922A7229923C123FC238E2449
:100100003B25B825CD25F025A22692238B230D294A
:10011000D32905A84CCDB2D44EB93836A9020C501B
:10012000B9918688083CA6AAAA2ABE000000803F92
:10013000252500460026260025250041002626000C
:1001400025250049200026260025250042200026DE
:1001500026002525004E20002626002525004420C7
:100160000026260025250045200026260000010245
:10017000030405060700010203040500010203044D
:100180000500000008000201000003040700000051
:100190000000000000010204081020408001020459
:1001A00008102001020408102004040404040404BC
:1001B000040202020202020303030303030000001D
:1001C0000023002600290000000000250028002B45
:1001D0000000000000240027002A0002F805352E48
:1001E00011241FBECFEFD8E0DEBFCDBF13E0A0E0EB
:1001F000B1E0E6E0F5E702C005900D92A633B10745
:10020000D9F727E0A6E3B3E001C01D92AE37B207ED
:10021000E1F711E0C0EED1E004C02297FE010E9498
:100220005738CC3DD107C9F70E94792E0C94813AFA
:100230000C94000081E08093400390914103911160
:100240000BC08093410321E04FE050E060E070E09C
:1002500086E493E00C94A61E089581E080933F030A
:100260009091410391110BC08093410321E04FE035
:1002700050E060E070E086E493E00C94A61E0895E0
:10028000EF92FF920F931F93CF93DF931F92CDB7FF
:10029000DEB77C01FC0100811181C80169830E94E5
:1002A000603A6981681719F0C8010E94683AC7016D
:1002B0000F90DF91CF911F910F91FF90EF900895D4
:1002C0000F931F93CF93DF9300D0CDB7DEB78B0191
:1002D000FB0160819A838983CE0101960E944001CF
:1002E000C8010F900F90DF91CF911F910F9108954A
:1002F000A82FAF7787FD05C08EEF8A0F823008F4F4
:1003000099C0B0E0FD01EB56FE4F2491FD01E75589
:10031000FE4F8491942F9D7F9130B9F4823031F457
:1003200090918806922B909388060FC0833031F409
:1003300090917906922B9093790607C0843029F426
:1003400090916606922B9093660641504230B8F425
:10035000823031F490918706922B909387060FC0DC
:10036000833031F490917806922B9093780607C0F1
:10037000843029F490916506922B90936506FD01D7
:10038000E359FE4FA4918230C1F4B0E0AA0FBB1F25
:10039000A757B94F6D937C93E1ECF1E0A591B4912F
:1003A0008C91809386068BE690E090939A068093DA
:1003B000990680916800816033C08330C1F4B0E059
:1003C000AA0FBB1FA658B94F6D937C93E3ECF1E0E5
:1003D000A591B4918C91809377068CE690E09093F0
:1003E0009A068093990680916800826019C08430D3
:1003F000C9F4B0E0AA0FBB1FA959B94F6D937C9304
:10040000E5ECF1E0A591B4918C91809364068DE6C2
:1004100090E090939A06809399068091680084609A
:1004200080936800A0919906B0919A068C91822BD6
:100430008C9316C09FB7F894A230B1F470939606CF
:1004400060939506E898809169008C7F809369009D
:1004500080916900842B80936900E09AE89A9FBF9D
:100460008FB780688FBF0895709398066093970642
:10047000E99880916900837F809369008091690089
:1004800024E0429FA0011124842B80936900E19A0B
:10049000E99AE5CF3FB7F894982F9F7787FD05C07D
:1004A0008EEF890F823008F45EC0892F90E0FC0146
:1004B000EB56FE4F2491FC01E755FE4F84918230AC
:1004C000D1F480916B002095822380936B00809102
:1004D0006B00811105C0809168008E7F8093680059
:1004E00080918806822380938806809187068223E4
:1004F0008093870641C08330D1F480916C002095B1
:10050000822380936C0080916C00811105C08091E2
:1005100068008D7F809368008091790682238093A4
:1005200079068091780682238093780625C08430EE
:1005300019F580916D002095822380936D00809144
:100540006D00811105C0809168008B7F80936800E9
:1005500080916606822380936606809165068223D9
:100560008093650609C0923049F4E898809169004B
:100570008C7F80936900E09A3FBF0895E99880914D
:100580006900837F80936900E19AF6CF1F920F92F2
:100590000FB60F9211242F933F934F935F936F9356
:1005A0007F938F939F93AF93BF93EF93FF93E091CC
:1005B0009506F09196060995FF91EF91BF91AF9145
:1005C0009F918F917F916F915F914F913F912F916B
:1005D0000F900FBE0F901F9018951F920F920FB69D
:1005E0000F9211242F933F934F935F936F937F93B9
:1005F0008F939F93AF93BF93EF93FF93E0919706F1
:10060000F09198060995FF91EF91BF91AF919F915D
:100610008F917F916F915F914F913F912F910F90AB
:100620000FBE0F901F9018951F920F920FB60F924A
:1006300011242F933F934F935F936F937F938F93E7
:100640009F93AF93BF93CF93EF93FF9393B1C091D9
:1006500086062091880630918706892F809583230E
:100660002923822B20916B00C927C223C823909392
:100670008606CC2351F1C0FF05C0E0918906F091B8
:100680008A060995C1FF05C0E0918B06F0918C06A2
:100690000995C2FF05C0E0918D06F0918E0609957F
:1006A000C3FF05C0E0918F06F09190060995C4FF45
:1006B00005C0E0919106F09192060995C5FF05C02D
:1006C000E0919306F09194060995FF91EF91CF91F7
:1006D000BF91AF919F918F917F916F915F914F915A
:1006E0003F912F910F900FBE0F901F9018951F9262
:1006F0000F920FB60F9211242F933F934F935F9356
:100700006F937F938F939F93AF93BF93CF93EF9309
:10071000FF9396B1C09177062091790630917806C3
:10072000892F809583232923822B20916C00C92750
:10073000C223C82390937706CC2351F1C0FF05C094
:10074000E0917A06F0917B060995C1FF05C0E09122
:100750007C06F0917D060995C2FF05C0E0917E06FA
:10076000F0917F060995C3FF05C0E0918006F091E6
:1007700081060995C4FF05C0E0918206F0918306C9
:100780000995C5FF05C0E0918406F091850609959D
:10079000FF91EF91CF91BF91AF919F918F917F91F9
:1007A0006F915F914F913F912F910F900FBE0F90DE
:1007B0001F9018951F920F920FB60F9211242F932E
:1007C0003F934F935F936F937F938F939F93AF93D9
:1007D000BF93CF93EF93FF9399B1C091640620919B
:1007E000660630916506892F809583232923822B05
:1007F00020916D00C927C223C82390936406CC239F
:10080000C1F1C0FF05C0E0916706F0916806099547
:10081000C1FF05C0E0916906F0916A060995C2FF23
:1008200005C0E0916B06F0916C060995C3FF05C009
:10083000E0916D06F0916E060995C4FF05C0E09148
:100840006F06F09170060995C5FF05C0E09171062D
:10085000F09172060995C6FF05C0E0917306F0910C
:1008600074060995C7FF05C0E0917506F0917606FC
:100870000995FF91EF91CF91BF91AF919F918F918A
:100880007F916F915F914F913F912F910F900FBE8C
:100890000F901F90189586E493E00E94811D0E949E
:1008A000FF356F30710524F481E08093360308959D
:1008B0001092360308958F929F92AF92BF92CF927B
:1008C000DF92EF92FF920F931F93CF9386E493E012
:1008D0000E94AE1D20E030E044E352E40E949335D4
:1008E00087FF54C0C3E08091410381114FC021E0D4
:1008F0004CE150E060E070E086E493E00E94A61EC8
:100900001F92CF9348E0842E912CA12CB12C58EB50
:10091000C52E5EE1D52E55E8E52E5FE3F52E00E00D
:1009200010E02AEF34E440E050E06CE574E486E443
:1009300093E00E94E01E6EE170E080E090E00E9493
:10094000E72A1F92CF936CE5C62E6FE8D62E62E899
:10095000E62E6FE3F62E00E010E02CE534E440E0F4
:1009600050E06AEF74E486E493E00E94E01E86E4BF
:1009700093E00E94AB1E64EF71E080E090E00E9483
:10098000E72A0F900F900F900F90ADCFCF911F914E
:100990000F91FF90EF90DF90CF90BF90AF909F901E
:1009A0008F9008954F925F926F927F928F929F9255
:1009B000AF92BF92CF92DF92EF92FF920F931F936D
:1009C000CF93DF93CDB7DEB728970FB6F894DEBF8D
:1009D0000FBECDBF88E0EAE0F1E0DE0111960190A4
:1009E0000D928A95E1F780914103811109C0AE0112
:1009F0004F5F5F4F6CEB72E086E493E00E94F4146B
:100A0000F4E06F2E712CAAE05A2E44244394809176
:100A100041038823A1F0809141038111C1C021E0ED
:100A200043E150E060E070E086E493E00E94A61E9F
:100A300069E070E086E493E00E947A1FB1C020E094
:100A400030E041E050E060E070E086E493E00E9436
:100A5000961E1F925F927AE0872E912CA12CB12CCA
:100A6000E8EBCE2EEEE1DE2EE5E8EE2EEFE3FE2EF5
:100A700000E010E028E433E440E050E068EC72E489
:100A800086E493E00E94E01E809141030F900F9056
:100A90008111C1CF21E030E041E050E060E070E042
:100AA00086E493E00E94961E1F925F9200E010E0A1
:100AB00026E933E440E050E068E473E486E493E040
:100AC0000E94E01E809141030F900F908111A3CFEF
:100AD00022E030E041E050E060E070E086E493E046
:100AE0000E94961E1F925F9200E010E02AEF33E40E
:100AF00040E050E066E973E486E493E00E94E01E83
:100B000064EF71E080E090E00E94E72A8091410369
:100B10000F900F9081117FCF21E030E041E050E055
:100B200060E070E086E493E00E94961E1F924F9270
:100B300000E010E02AE733E440E050E068EC73E4C2
:100B400086E493E00E94E01E809141030F900F9095
:100B5000811161CF20E030E041E050E060E070E0E2
:100B600086E493E00E94961E1F924F9200E010E0F0
:100B700028EC32E440E050E06AE773E486E493E076
:100B80000E94E01E64EF71E080E090E00E94E72A9E
:100B900081E0681A71080F900F9009F038CF3BCFB1
:100BA00086E493E00E945D1780914103811109C0A2
:100BB00021E04BE050E060E070E086E493E00E94CA
:100BC000A61E28960FB6F894DEBF0FBECDBFDF91EC
:100BD000CF911F910F91FF90EF90DF90CF90BF903A
:100BE000AF909F908F907F906F905F904F900895FF
:100BF000CF93DF938BE294E00E94F0122CE04DE063
:100C00006BE086E493E00E94AC128DE493E00E94D6
:100C1000CE11CEE4D3E0CE010E947910188A1F864F
:100C2000A99683E0C23FD807B1F782EF93E0DF9146
:100C3000CF910C942912CF92DF92EF92FF920F93F3
:100C40001F93CF93DF93CDB7DEB72B970FB6F894F2
:100C5000DEBF0FBECDBF86E493E00E945D17198210
:100C60001A821B821C82FE01359687E0DF011D92ED
:100C70008A95E9F78E010F5F1F4FB5E0EB2EF12C3F
:100C80006801C7010E94603AF80181938F01FFEF6C
:100C9000EF1AFF0A80E1E816F10499F76AE671E0BD
:100CA0008AEC96E00E94C62E67E671E08AEC96E038
:100CB0000E94C62EB6018AEC96E00E94EB2E64E6F6
:100CC00071E08AEC96E00E94082F8AEC96E00E9480
:100CD000EA2C2B960FB6F894DEBF0FBECDBFDF9186
:100CE000CF911F910F91FF90EF90DF90CF900895DB
:100CF000CF92DF92EF92FF9286E493E00E945D171D
:100D000086E493E00E94811D6B017C0161E671E045
:100D10008AEC96E00E94C62E6EE571E08AEC96E0C1
:100D20000E94C62EC701B6010E94FF354AE050E07E
:100D30008AEC96E00E94BD2F6BE571E08AEC96E0AC
:100D40000E94082F8AEC96E0FF90EF90DF90CF9002
:100D50000C94EA2CCF93DF9386E493E00E945D1716
:100D600086E493E00E94851DEC0168E571E08AEC61
:100D700096E00E94C62E65E571E08AEC96E00E943E
:100D8000C62E4AE050E0BE018AEC96E00E94BD2FDC
:100D900062E571E08AEC96E00E94082F8AEC96E00A
:100DA000DF91CF910C94EA2CCF92DF92EF92FF92D9
:100DB00086E493E00E945D1786E493E00E94AE1DF6
:100DC0006B017C016FE471E08AEC96E00E94C62E14
:100DD0006CE471E08AEC96E00E94C62E22E030E0DE
:100DE000B701A6018AEC96E00E94B03069E471E098
:100DF0008AEC96E00E94082F8AEC96E0FF90EF9034
:100E0000DF90CF900C94EA2C86E493E00E945D176B
:100E100066E471E08AEC96E00E94C62E63E471E01D
:100E20008AEC96E00E94C62E6BE073E08AEC96E0B6
:100E30000E94EB2E60E471E08AEC96E00E94082F9D
:100E40008AEC96E00C94EA2C8F929F92AF92BF921C
:100E5000CF92DF92EF92FF920F931F93CF93DF9386
:100E60001F92CDB7DEB726E040E052EC61E070E0C3
:100E70008AEC96E00E94712D60E086E00E949A2B39
:100E800060E087E00E949A2B1F9289E08F9308E030
:100E9000802E912C8AE0A82EB12C94E1C92ED12C61
:100EA000EE24E39405E010E024E030E043E050E07D
:100EB00062E070E086E493E00E94311484E10E94D5
:100EC000542B0E94523343E06AE171E086E00E94B5
:100ED000780143E06DE271E087E00E94780149E526
:100EE00059E06EEE72E08BE294E00E94051341E659
:100EF00059E060EF72E08BE294E00E9405134BE949
:100F000059E062EF72E08BE294E00E9405134DEE2F
:100F100058E064EF72E08BE294E00E94051349E828
:100F20005EE066EF72E08BE294E00E94051341EE12
:100F30005EE068EF72E08BE294E00E94051348EFF8
:100F400059E06AEF72E08BE294E00E9405134CE5F1
:100F50005AE06CEF72E08BE294E00E9405134BE4E0
:100F60005FE06EEF72E08BE294E00E9405134BE1CC
:100F700056E060E073E08BE294E00E94051348E7DE
:100F800056E062E073E08BE294E00E9405134AEAC7
:100F900056E064E073E08BE294E00E94051344EDB8
:100FA00056E066E073E08BE294E00E94051344E0B3
:100FB00057E068E073E08BE294E00E94051369E576
:100FC00079E08BE294E00E94371360E070E086E401
:100FD00093E00E947A1F86E493E00E945D1785E00B
:100FE00090E00E94603A0F900F908432F1F46AE032
:100FF00073E085E090E00E9460011982BE016F5F9E
:101000007F4F86E090E00E94600121E04DE150E0DA
:1010100060E070E086E493E00E94A61E68EE73E054
:1010200080E090E00E94E72AF9CF0E941B0662E36D
:1010300070E080E090E00E94E72A0E94040762E3EB
:1010400070E080E090E00E94E72A0E94D4060E94AF
:101050005B0412E0E12EF12C00E010E080914103EE
:10106000882329F081E0E81AF108A9F0F5CF98016A
:1010700040E050E0BA0186E493E00E94961E66E9E3
:1010800070E080E090E00E94E72A0F5F1F4F083079
:10109000110521F7E7CF80914103811115C021E0AF
:1010A0004AE050E060E070E086E493E00E94A61E13
:1010B0006BE070E086E493E00E947A1F68EC70E0D9
:1010C00080E090E00E94E72A85E090E00E94603A8C
:1010D000833209F041C080914103811110C02CEB93
:1010E00032E040E050E060E87FE386E493E00E9475
:1010F000A21768EC70E080E090E00E94E72A8091FF
:10110000410381110CC0409106015091070121E07B
:1011100030E061E070E086E493E00E944A1980913B
:101120004103811119C021E04FE050E060E070E020
:1011300086E493E00E94A61E04E110E020E233E082
:1011400040E050E060E070E486E493E00E944F1AD3
:1011500086E493E00E945D1780914103811109C0EC
:1011600021E04BE050E060E070E086E493E00E9414
:10117000A61E0E94B82A60933B0370933C038093A1
:101180003D0390933E030F90DF91CF911F910F91FC
:10119000FF90EF90DF90CF90BF90AF909F908F9097
:1011A00008956EE170E080E090E00E94E72A6DE330
:1011B00071E08AEC96E00E94C62E6BE371E08AEC47
:1011C00096E00E94C62E68E371E08AEC96E00E94E9
:1011D000082F8AEC96E00C94EA2C0E94D10886E451
:1011E00093E00E949817882329F060E086E493E05A
:1011F0000E949D178BE294E00E94FB12009739F049
:101200000E94E639909345038093440317C021E080
:101210004AE150E060E070E086E493E00E94A61EA0
:1012200060ED77E080E090E00E94E72A86E493E0BA
:101230000E94AB1E10924503109244038BE294E08F
:101240000E94FB12009719F00E94E63902C088EE56
:1012500093E090930701809306018BE294E00E9453
:10126000FB12009719F00E94E63902C08FE090E06F
:10127000909305018093040108956EE170E080E091
:1012800090E00E94E72A65E371E08AEC96E00E9414
:10129000C62E63E371E08AEC96E00E94C62E60E3FE
:1012A00071E08AEC96E00E94082F8AEC96E00C949C
:1012B000EA2C0E94D10886E493E00E945D170C940A
:1012C0003D09CF93DF9300D0CDB7DEB70E94D108A0
:1012D00086E493E00E945D178BE294E00E94FB128B
:1012E000009779F042E050E0BE016F5F7F4F0E94AF
:1012F000D238AB01BC0120E086E493E00E94A61E38
:1013000013C021E04AE150E060E070E086E493E041
:101310000E94A61E60ED77E080E090E00E94E72A40
:1013200086E493E00E94AB1E0E943D090F900F904F
:10133000DF91CF9108958F929F92AF92BF92EF92DB
:10134000FF920F931F93CF93DF930E94D10886E4FF
:1013500093E00E945D178BE294E00E94FB120097DD
:1013600029F00E94E639EC0110E001C011E08BE2A7
:1013700094E00E94FB12009721F00E94E6391123AD
:10138000A1F021E04AE150E060E070E086E493E003
:101390000E94A61E60ED77E080E090E00E94E72AC0
:1013A00086E493E00E94AB1E17C04C01AA2497FC70
:1013B000A094BA2CBE01882777FD8095982F0E94B3
:1013C0003236AB01BC01EE24E394F12C950184018B
:1013D00086E493E00E94AD1EDF91CF911F910F91A3
:1013E000FF90EF90BF90AF909F908F900C943D092D
:1013F000CF92DF92EF92FF920F931F93CF93DF93E1
:101400000E94D10886E493E00E945D178BE294E08D
:101410000E94FB12009729F00E94E639EC0110E0CF
:1014200001C011E08BE294E00E94FB12009721F0D2
:101430000E94E6397C0101C011E08BE294E00E9439
:10144000FB12009721F00E94E6396C0101C011E007
:101450008BE294E00E94FB12009721F00E94E63993
:101460001123A1F021E04AE150E060E070E086E461
:1014700093E00E94A61E60ED77E080E090E00E947D
:10148000E72A86E493E00E94AB1E0CC08C01960113
:10149000A701BE0186E493E00E94C31486E493E0B2
:1014A0000E94D514DF91CF911F910F91FF90EF9083
:1014B000DF90CF900C943D09BF92CF92DF92EF92D4
:1014C000FF920F931F93CF93DF93CDB7DEB728978B
:1014D0000FB6F894DEBF0FBECDBF0E94D1088EE1DB
:1014E00090E090934503809344038BE294E00E9444
:1014F000FB12009729F00E94E6396C01B12C02C062
:10150000BB24B3948BE294E00E94FB12009721F07D
:101510000E94E6397C0102C0BB24B3948BE294E0C4
:101520000E94FB12009721F00E94E6398C0102C054
:10153000BB24B3948BE294E00E94FB12009721F04D
:101540000E94E639BB20A1F021E04AE150E060E0D2
:1015500070E086E493E00E94A61E60ED77E080E0F4
:1015600090E00E94E72A86E493E00E94AB1E11C03F
:10157000DA82C982FC82EB821E830D8398878F8377
:10158000AE014F5F5F4F68EC70E086E493E00E942D
:10159000F4140E943D0928960FB6F894DEBF0FBEE2
:1015A000CDBFDF91CF911F910F91FF90EF90DF9012
:1015B000CF90BF900895EF92FF920F931F938531C4
:1015C000910508F025C1FC01EC5CFF4F0C945538E7
:1015D00086E493E00E945D1715C1209106013091C9
:1015E000070101E010E006C02091060130910701DB
:1015F0000FEF1FEF40E050E060E87FE386E493E008
:101600000E94DF17FFC0209106013091070101E021
:1016100010E006C020910601309107010FEF1FEF87
:1016200040E050E060E87FE386E493E00E944F18DA
:10163000E9C000910401109105012091060130914B
:10164000070140E050E060E87FE386E493E00E9419
:10165000051AD8C0009104011091050120910601DE
:1016600030910701EE24E394F12C0BC000910401AA
:10167000109105012091060130910701EE24EA94B2
:10168000FE2C40E050E060E87FE386E493E00E94B7
:10169000801BB8C000910401109105012091060142
:1016A0003091070140E050E060E87FE386E493E09A
:1016B0000E944F1AA7C000910401109105012091CA
:1016C000060130910701EE24E394F12C0BC0009148
:1016D0000401109105012091060130910701EE24CB
:1016E000EA94FE2C40E050E060E87FE386E493E07B
:1016F0000E94321C87C0209106013091070140E012
:1017000050E060E87FE386E493E00E94A2177AC08D
:10171000009104011091050120910601309107010B
:10172000EE24E394F12C0BC000910401109105010B
:101730002091060130910701EE24EA94FE2C40E04E
:1017400050E060E87FE386E493E00E94D31C5AC037
:1017500000910401109105012091060130910701CB
:1017600040E050E060E87FE386E493E00E94A01A46
:1017700049C0409106015091070121E030E006C0C8
:1017800040910601509107012FEF3FEF61E070E0BB
:1017900086E493E00E94AB1835C040910601509159
:1017A000070121E030E006C0409106015091070199
:1017B0002FEF3FEF61E070E086E493E00E944A196A
:1017C00021C0009104011091050120910601309182
:1017D000070140E050E060E87FE386E493E00E9488
:1017E000E61A10C000910401109105012091060134
:1017F0003091070140E050E060E87FE386E493E049
:101800000E942E1B1F910F91FF90EF900C943D09A9
:101810001F910F91FF90EF9008950F931F93CF9317
:10182000DF938AEC96E00E948E2C181619063CF481
:101830008091420390914303049709F0EEC1809197
:101840004103882341F186E493E00E945D1764E63A
:1018500070E080E090E00E94E72A62E070E086E4B9
:1018600093E00E947A1F68EC70E080E090E00E94B4
:10187000E72A80914003882309F4E7C180913F0360
:101880008111E3C181E090E0909343038093420390
:1018900063E070E022C200914203109143030230E2
:1018A000110509F487C03CF40115110569F00130F8
:1018B000110559F1ABC10330110509F431C10430F0
:1018C000110509F48FC1A2C10E94B82A00913B03FF
:1018D00010913C0320913D0330913E03601B710B3E
:1018E000820B930B603878438140910508F40CC259
:1018F0000E94D2040E94B82A60933B0370933C0379
:1019000080933D0390933E03FFC125E130E040E02A
:1019100050E065E070E080E090E00E947E337093DC
:101920003A03609339036F5071096430710538F4DC
:10193000109338030093370380E496E010C026E04C
:1019400030E040E050E063E070E080E090E00E9432
:101950007E33709338036093370388EE93E090935F
:1019600007018093060125E130E040E050E06AE0A5
:1019700070E080E090E00E947E33AB01BC0121E08A
:1019800086E493E00E94A61EC0E0D0E08091370379
:1019900090913803C817D9070CF0B6C1809139036C
:1019A00090913A030E94DB0A809141038111ACC1FE
:1019B0002196ECCF80913603882309F49FC0809153
:1019C0004103811119C021E04EE050E060E070E079
:1019D00086E493E00E94A61E66E070E086E493E051
:1019E0000E947A1F24EF31E040E050E060EA70E4AA
:1019F00086E493E00E94A2178091410381110FC0F9
:101A000021E044E150E060E070E086E493E00E9471
:101A1000A61E69E070E086E493E00E947A1FC3E0AE
:101A2000D0E080914103882399F064E670E080E083
:101A300090E00E94E72A0E944B0464E670E080E098
:101A400090E00E94E72A8091360381115DC10FC0AA
:101A50000FEF1FEF24E135E040E050E060E87FE366
:101A600086E493E00E94DF172197D9F6DECF8091BC
:101A70004103811149C121E04AE050E060E070E09B
:101A800086E493E00E94A61E62E370E080E090E0AE
:101A90000E94E72A0E944B04C3E0D0E08091360305
:101AA000882329F08091360381112EC106C08091D0
:101AB0004103882309F416C1F5CF809141038111B8
:101AC00023C186E493E00E945D1721E04BE050E0E3
:101AD00060E070E086E493E00E94A61E6DE070E096
:101AE00086E493E00E947A1F68EC70E080E090E06A
:101AF000DF91CF911F910F910C94E72A01E010E044
:101B000028EE33E040E050E060E87FE386E493E0D5
:101B10000E94DF17DF91CF911F910F910C944B041E
:101B200086E493E00E94851D8A3892400CF4ECC054
:101B300062E370E080E090E00E94E72A8091410338
:101B400081113FC021E04EE050E060E070E086E4AB
:101B500093E00E94A61E67E070E086E493E00E9496
:101B60007A1F809141038111CFC025E130E040E030
:101B700050E06AE070E080E090E00E947E33AB01CC
:101B8000BC0121E086E493E00E94A61E25E130E03E
:101B900040E050E065E070E080E090E00E947E333D
:101BA00070933A0360933903CB010E94DB0A86E409
:101BB00093E00E945D1764EF71E080E090E00E9486
:101BC000E72A8091410381119FC021E04BE050E062
:101BD00060E070E086E493E0DF91CF911F910F9178
:101BE0000C94A61E8BE294E00E943D1386E493E0E1
:101BF0000E949817811188C08091440390914503F9
:101C0000DF91CF911F910F910C94DB0A84E090E05B
:101C1000909343038093420377C084E090E09093D5
:101C200043038093420321E04BE050E060E070E02A
:101C300086E493E00E94A61E86E00E944A0287E0A6
:101C40000E944A0210924103FACD80914003811113
:101C50000DC080913F03882349F082E090E090938B
:101C600043038093420364E070E037C080914003F7
:101C7000882321F080913F03811127C040914203C6
:101C800050914303662757FD6095762F21E086E447
:101C900093E00E94A61EC8ECD0E06AE070E080E00D
:101CA00090E00E94E72A2197C1F721E04BE050E045
:101CB00060E070E086E493E00E94A61E109241036B
:101CC0001092400310923F031FC083E090E0909376
:101CD00043038093420365E070E086E493E00E9452
:101CE0007A1FCCCF01E010E028EE33E040E050E076
:101CF00060E87FE386E493E00E944F180E944B0463
:101D0000219709F0CBCECECEDF91CF911F910F91CD
:101D100008950E94D10886E493E00E945D178BE24B
:101D200094E00E94FB12009761F00E94E63901974F
:101D30008D30910508F043C0875B9F4FFC010C94E8
:101D4000553821E04AE150E060E070E086E493E03D
:101D50000E94A61E60ED77E080E090E00E94E72AF6
:101D600086E493E00E94AB1E2AC060E070E023C0CE
:101D700061E070E020C062E070E01DC063E070E0F0
:101D80001AC064E070E017C065E070E014C066E05F
:101D900070E011C067E070E00EC068E070E00BC05A
:101DA00069E070E008C06AE070E005C06BE070E0D8
:101DB00002C06CE070E086E493E00E94E1220C94A3
:101DC0003D090E94D10886E493E00E945D178BE2F2
:101DD00094E00E94FB12009761F00E94E63901979F
:101DE0008331910508F055C08A5A9F4FFC010C942D
:101DF000553821E04AE150E060E070E086E493E08D
:101E00000E94A61E60ED77E080E090E00E94E72A45
:101E100086E493E00E94AB1E3CC060E070E035C0F9
:101E200061E070E032C066E070E02FC067E070E013
:101E30002CC068E070E029C069E070E026C06AE06C
:101E400070E023C06BE070E020C06CE070E01DC06B
:101E50006DE070E01AC06EE070E017C06FE070E0F7
:101E600014C060E170E011C061E170E00EC062E199
:101E700070E00BC063E070E008C064E070E005C093
:101E800065E070E002C062E070E086E493E00E94EA
:101E90007A1F0C943D09CF92DF92EF92FF920F933D
:101EA0001F93CF93DF93CDB7DEB72D970FB6F8947E
:101EB000DEBF0FBECDBF0E94D10886E493E00E9432
:101EC0005D1719821A821B821C82FE01359687E0FB
:101ED000DF011D928A95E9F78BE294E00E94FB12E4
:101EE000009739F1DC01FE0131969E2F2F2F6E01F4
:101EF0008CE0C80ED11C8D91811106C0092F122FC4
:101F0000A5E0EA2EF12C05C0EC15FD05B9F381938F
:101F1000F2CFD8016D918D01FD86EC86C6010E943D
:101F20004001BFEFEB1AFB0AE0E1EE16F10489F77E
:101F300013C021E04AE150E060E070E086E493E005
:101F40000E94A61E60ED77E080E090E00E94E72A04
:101F500086E493E00E94AB1E0E943D092D960FB6C9
:101F6000F894DEBF0FBECDBFDF91CF911F910F91CF
:101F7000FF90EF90DF90CF9008951F920F920FB6D1
:101F80000F9211242F933F934F935F936F937F93FF
:101F90008F939F93AF93BF93EF93FF9380919C0692
:101FA00087FF05C010928500109284001AC020910E
:101FB0009C06332727FD309580919B0690E02817DB
:101FC00039077CF480919C06992787FD9095FC0148
:101FD000EE0FFF1FE80FF91FE356F94F808186FDD2
:101FE00015C080919C068F5F80939C0620919C0673
:101FF000332727FD309580919B0690E028173907FD
:10200000BCF480919C068C305CF112C080919C06DF
:10201000992787FD9095FC01EE0FFF1FE80FF91F30
:10202000E356F94F808160E08F730E94D32BD9CFA4
:102030008091840090918500049680349C4918F426
:1020400080E49CE905C0809184009091850004960D
:1020500090938900809388008FEF80939C0638C00E
:10206000209184003091850080919C06992787FDFE
:102070009095FC01EE0FFF1FE80FF91FE356F94F93
:1020800081819281820F931F9093890080938800B1
:1020900080919C06992787FD9095FC01EE0FFF1F0C
:1020A000E80FF91FE356F94F808186FF11C0809138
:1020B0009C06992787FD9095FC01EE0FFF1FE80F06
:1020C000F91FE356F94F808161E08F730E94D32B93
:1020D000FF91EF91BF91AF919F918F917F916F9100
:1020E0005F914F913F912F910F900FBE0F901F90D6
:1020F000189520919B062C30A0F431E0320F3093DC
:102100009B06FC012083822F90E0FC01EE0FFF1F55
:10211000E80FF91FE356F94F88EB9BE09283818328
:1021200008952FEFFC0120830895DF92EF92FF9234
:102130000F931F93CF93DF93EC01D62E7A01890181
:1021400088818C3008F066C061E08D2D0E949A2B4A
:102150008881A82FB0E0FD01EE0FFF1FEA0FFB1FE3
:10216000E356F94F2D2D2F739081907C922B908305
:1021700060E272E06E197F0977FF02C06D5F7F4FEA
:102180007595679575956795698340E659E0401B9D
:10219000510B57FF02C04D5F5F4F559547955595C1
:1021A00047954A836CE00E94E0379CE0899FB0012C
:1021B000112420E030E0A901460F571FFA01EE0F6D
:1021C000FF1FE40FF51FE356F94F908196FD16C0EF
:1021D0002F5F3F4F2C30310571F781110FC01092E6
:1021E000800082E08093810010928500109284002C
:1021F000B19A80916F00826080936F00888190E037
:10220000FC01EE0FFF1FE80FF91FE356F94F808125
:10221000806480838881DF91CF911F910F91FF901F
:10222000EF90DF90089520E639E040E252E00C9410
:102230009510FC01808190E0FC01EE0FFF1FE80F7C
:10224000F91FE356F94F80818F7B80830895FC014D
:1022500080818C3070F5918128E830E0291B3109AC
:1022600097FD3395220F331F220F331F6217730719
:102270007CF0928128E532E0291B310997FD3395E6
:10228000220F331F220F331F621773070CF49B01B9
:1022900022503109220F331F4FB7F89490E0FC0110
:1022A000EE0FFF1FE80FF91FE356F94F328321832A
:1022B0004FBF08954F925F926F927F92AF92BF92FD
:1022C000CF92DF92EF92FF920F931F93CF93DF9302
:1022D000EC01603282E078070CF040C077FD06C068
:1022E000653B71052CF064EB70E002C060E070E0CB
:1022F000898128E830E0281B310987FD3395220FBA
:10230000331F220F331F5901CC24B7FCC094DC2C9F
:10231000882777FD8095982F2A8148E552E0421B57
:10232000510927FD5395440F551F440F551F2A018E
:10233000662457FC6094762C7F926F925F924F9246
:1023400014EBE12EF12C00E010E020E030E0A901D8
:102350000E949A330F900F900F900F90CE01DF9153
:10236000CF911F910F91FF90EF90DF90CF90BF9092
:10237000AF907F906F905F904F900C942711FC016D
:10238000808190E0FC01EE0FFF1FE80FF91FE3567C
:10239000F94F808186FB882780F9089508950F936F
:1023A0001F93CF93DF9385E10E94542B25E0AC016E
:1023B000249FC001259F900D1124BC01882777FD23
:1023C0008095982F0E94323620E030E040E85AE3B2
:1023D0000E94E6368B01D82FC92F26E636E646E85E
:1023E00050E40E94E236181624F406E616E6D6E813
:1023F000C0E4B8018D2F9C2FDF91CF911F910F91D9
:1024000008950F931F93CF93DF930E94CF112FEB6B
:1024100036E842ED52E40E94E6362CE73DE04BEA16
:1024200053E40E942E358B01D82FC92F20E030E0D5
:10243000A9010E94933587FF04C000E010E0D0E0BE
:10244000C0E0B8018D2F9C2FDF91CF911F910F918C
:1024500008950895CF93DF93EC01862F68837983E5
:102460005B834A8361E00E949A2B60E08A81DF915E
:10247000CF910C949A2BCF93DF93EC0160E088818D
:102480000E94D32B82E090E00E940F2B61E08881B4
:102490000E94D32B8AE090E00E940F2B60E088819D
:1024A0000E94D32B20E43CE940E050E061E08A81C7
:1024B000DF91CF910C94092C0E943B122AE330E06B
:1024C00040E050E00E9436382115310541055105A4
:1024D00021F427EE33E040E050E0CA01B9010E9448
:1024E000323608950F931F93CF93DF93EC0100E0F2
:1024F00010E0488159816A817B81002E04C0769565
:102500006795579547950A94D2F7642F61708C812F
:102510000E94D32B00000000000061E08D810E942A
:10252000D32B00000000000060E08D810E94D32BBF
:102530000F5F1F4F0E311105E1F661E08E810E94A1
:10254000D32B00000000000060E08E81DF91CF916E
:102550001F910F910C94D32BCF93DF93EC01862F17
:10256000188219821A821B826C834D832E8361E04C
:102570000E949A2B61E08D810E949A2B61E08E81EE
:102580000E949A2B60E08C810E94D32B60E08D81A9
:102590000E94D32B60E08E810E94D32BCE01DF916D
:1025A000CF910C947212FC01408351836283738338
:1025B0000C947212FC0110821182128213820C940C
:1025C000721221E030E0FC01E20FF31F10822F5F56
:1025D0003F4F24323105B9F7FC0115A214A208952A
:1025E00020E230E0FC0137A326A32DE020A716A6A9
:1025F00015A60C94E112AC01455D5F4FBC016A5D0C
:102600007F4F80E090E00C94313AFF920F931F933C
:10261000CF93DF93EC018A012DA53EA52E30310525
:1026200004F585E2F82EF29EC001F39E900D112470
:102630008F9643E250E08C0F9D1F0E94223A2DA5F9
:102640003EA5F29EC001F39E900D11248C0F9D1F9C
:10265000FC01EE5AFF4F118300832F5F3F4F3EA7CF
:102660002DA7DF91CF911F910F91FF9008958B5C63
:102670009D4FFC017183608308952F923F924F928A
:102680005F926F927F928F929F92AF92BF92CF9202
:10269000DF92EF92FF920F931F93CF93DF9300D0BF
:1026A00000D0CDB7DEB79C838B8311E05C012BE2B9
:1026B000A20EB11C1C0136E2230E311C2C018FEF3F
:1026C000481A580ACB80DC809FE2C90ED11C2B81AE
:1026D0003C812B5C3D4F3A8329838AEC96E00E9433
:1026E0008E2C181619060CF077C0112309F474C04B
:1026F0008AEC96E00E94A72CEB81FC81808390A558
:10270000891344C0AB81BC8195961C921E9294970C
:10271000A501B101C2010E94313A3C01EB81FC816B
:1027200092A781A7009709F457C085A496A47601C3
:1027300000E010E008151905FCF443E250E0B70191
:10274000C3010E94143AF5E2EF0EF11C892B89F4C3
:1027500025E2209FC001219F900D11242B813C81F7
:10276000820F931FFC01EE5AFF4F0190F081E02D84
:1027700007C00F5F1F4FDECFA981BA81ED91FC9199
:1027800009958B819C810E94E11210E0AB81BC8194
:102790000C91802F992787FD90950E94063A892BEE
:1027A00009F49BCFEB81FC8124A135A1C9010196DD
:1027B00095A384A3E20FF31F0183EB81FC81E80F53
:1027C000F91F118283970CF488CFAB81BC81959659
:1027D0001C921E92949781CF0F900F900F900F90A4
:1027E000DF91CF911F910F91FF90EF90DF90CF90ED
:1027F000BF90AF909F908F907F906F905F904F9021
:102800003F902F900895CF93DF93EC01FC01E055AA
:10281000FF4F6081718140E008960E941334FE01F1
:10282000EE54FF4F6081718140E0CE01C1960E945D
:102830001334FE01EC54FF4F6081718140E0CE0102
:10284000865A9F4F0E941334FE01EA54FF4F608165
:10285000718140E0CE018D579F4FDF91CF910C9455
:1028600013344F925F926F927F928F929F92AF92AA
:10287000BF92CF92DF92EF92FF920F931F93CF936D
:10288000DF93CDB7DEB73C014B885C88FC01E05597
:10289000FF4F718360833296518340833296318338
:1028A00020833296118300830E940314F301EC51BC
:1028B000FF4F1082E11037C0F301E054FF4F8AE56B
:1028C00090E09183808332969183808332969183C6
:1028D0008083329691838083A201B401C301845521
:1028E0009F4F0E942A12F301E853FF4FA082B1824A
:1028F0003296C082D18261E08A2D0E949A2B60E0DC
:102900008C2DDF91CF911F910F91FF90EF90DF9071
:10291000CF90BF90AF909F908F907F906F905F907F
:102920004F900C949A2BE12CF12C00E010E0C801A0
:102930000E94603A90E0813891050CF09A95F3017D
:10294000EE0DFF1D908F878B0F5F1F4F89E2E80E02
:10295000F11C0430110559F7AFCFCF93DF93EC0191
:1029600008960E946634CE01C1960E946634CE015C
:10297000865A9F4F0E946634CE018D579F4FDF913C
:10298000CF910C9466340F931F93FC01708F678B6B
:10299000E05CFF4F51834083B99631832083B99621
:1029A000118300831F910F910895EF92FF920F936F
:1029B0001F93CF93DF937C0100E010E0C0E0D0E0F4
:1029C000F701E00FF11F6789CE010E94683A219656
:1029D000075D1F4FC430D10599F7DF91CF911F914B
:1029E0000F91FF90EF9008952F923F924F925F9238
:1029F0006F927F928F929F92AF92BF92CF92DF920F
:102A0000EF92FF920F931F93CF93DF93CDB7DEB773
:102A10002A970FB6F894DEBF0FBECDBF1C016B0125
:102A200049835A830E940314F101EC51FF4F8081C6
:102A3000811110822BE0C216D1040CF4CDC0EE241B
:102A4000D7FCE094FE2CC701B6010E94323620E08C
:102A500030E040E251E40E9497352B013C0139817E
:102A60003B838A818C83510100E010E0AB81BC8103
:102A70008D919D91BC83AB834501B4ED8B0E911C70
:102A8000F101E00FF11FE054FF4F20813181821BE3
:102A9000930BBC01882777FD8095982F0E943236D2
:102AA000A30192010E949735F401608371838283B0
:102AB00093830E5F1F4FF4E0AF0EB11C0830110579
:102AC000A9F60E94B82A910124533F4F3C832B83DF
:102AD0006C0D7D1D8E1D9F1DD9016D937D938D9372
:102AE0009C93139744244394512CF101E053FF4FDE
:102AF000FE83ED83245C310938872F830E94B82A36
:102B0000EB81FC8100811181228133816017710783
:102B10008207930708F076C00E94B82A665F7F4F4D
:102B20008F4F9F4FAD81BE816D937D938D939C930D
:102B300013976F80788481011A8619864201AA242E
:102B400097FCA094BA2CE985FA85E20DF31DE054B8
:102B5000FF4F80819181BC01882777FD8095982F58
:102B60000E9432366B017C01C501B4010E943236ED
:102B7000F801EC52FF4F20813181428153810E9444
:102B8000E6369B01AC01C701B6010E942F350E94B9
:102B9000FF35C3010E949634E985FA853296FA879B
:102BA000E9870C5F1F4FF9E26F0E711C29853A858A
:102BB0002830310541F60E94B82AAD81BE810D91C1
:102BC0001D912D913C91601771078207930798F32F
:102BD000BFEF4B1A5B0A92CFC980DA8000E010E0A9
:102BE0007101F8E0EF0EF11CD6016D917D916D0140
:102BF000C701800F911F0E949634075D1F4F043A52
:102C0000110591F7E981FA8180E090E021913191FD
:102C1000D101A80FB91FA054BF4F2D933C9302962A
:102C20008830910599F72A960FB6F894DEBF0FBE4B
:102C3000CDBFDF91CF911F910F91FF90EF90DF906B
:102C4000CF90BF90AF909F908F907F906F905F904C
:102C50004F903F902F9008952F923F924F925F9206
:102C60006F927F928F929F92AF92BF92CF92DF929C
:102C7000EF92FF920F931F93CF93DF9300D000D07A
:102C8000CDB7DEB75C01CA012901A70196013C015D
:102C90004B01650188E0C80ED11C780104E010E00A
:102CA0003C2C2D2CF301819191913F01F6019683EB
:102CB0008583F401819191914F01F601948383837F
:102CC000B201C60129833A834B835C830E94753429
:102CD000F70181919191A191B1917F01F6018187D5
:102CE0009287A387B48701501109F9E2CF0ED11C56
:102CF00029813A814B815C810115110599F60E9469
:102D0000B82A0E9430366B017C01B201882777FD1A
:102D10008095982F0E94323629813A814B815C81BF
:102D20000E94E636A70196010E942F352B013C0137
:102D300085010F5C1F4F45018AE5880E911CE3E871
:102D4000AE0EB11CA3019201C701B6010E949335DA
:102D50001816A4F0832D922D0E949D34C8010E9464
:102D60009D34C4010E949D34C5010E949D340E947F
:102D7000B82A0E9430366B017C01E4CF0F900F908F
:102D80000F900F90DF91CF911F910F91FF90EF90D7
:102D9000DF90CF90BF90AF909F908F907F906F907B
:102DA0005F904F903F902F9008952F923F924F92B7
:102DB0005F926F927F928F929F92AF92BF92CF92CB
:102DC000DF92EF92FF920F931F93CF93DF93CDB7D4
:102DD000DEB72C970FB6F894DEBF0FBECDBF4C0107
:102DE0007A8369835C834B833E832D83180126019C
:102DF00037010E940314F401EC51FF4F80818111CF
:102E00001082C301B2010E94FF356F8378878987E2
:102E10009A87AF80B8841A141B04A4F12F813885D7
:102E2000B901882777FD8095982F0E9432369B0143
:102E3000AC01C301B2010E942E356B017C018101FE
:102E40002D813E814B815C8169817A81C4010E9420
:102E50002C162C960FB6F894DEBF0FBECDBFDF91B7
:102E6000CF911F910F91FF90EF90DF90CF90BF9087
:102E7000AF909F908F907F906F905F904F903F901A
:102E80002F9008951C861B86C12CD12C90E8E92E2A
:102E90009FE3F92E81012D813E814B815C81698107
:102EA0007A81C4010E942C168B859C8501969C8793
:102EB0008B878A159B0541F7B1CFEF92FF920F9355
:102EC0001F93CF93DF93CDB7DEB728970FB6F89453
:102ED000DEBF0FBECDBF8C017C0184EEE80EF11C7D
:102EE000F7018081811117C088E0E2E1F1E0DE01A5
:102EF000119601900D928A95E1F7AE014F5F5F4FF9
:102F000064EF71E0C8010E94F414C8010E94AD147E
:102F100081E0F701808328960FB6F894DEBF0FBEDC
:102F2000CDBFDF91CF911F910F91FF90EF9008954A
:102F30008C519F4FFC01808108958C519F4FFC0163
:102F400060830895EF92FF920F931F93CF93DF93C7
:102F5000CDB7DEB760970FB6F894DEBF0FBECDBF1A
:102F60008C01790188E0EAE1F1E0DE011996019037
:102F70000D928A95E1F7AE01475F5F4FB901C80135
:102F80000E94F41488E0E2E1F1E0DE011196019084
:102F90000D928A95E1F7AE014F5F5F4FB701C8010F
:102FA0000E94F41460960FB6F894DEBF0FBECDBF3A
:102FB000DF91CF911F910F91FF90EF9008958F9225
:102FC0009F92AF92BF92CF92DF92EF92FF920F93B8
:102FD0001F93CF93DF93CDB7DEB7A0970FB6F894CA
:102FE000DEBF0FBECDBF5C016A017B0149019801C4
:102FF00088E0E2E2F1E0DE01599601900D928A95B7
:10300000E1F788E0EAE2F1E0DE01519601900D92ED
:103010008A95E1F78E010F5F1F4F80E1F801119251
:103020008A95E9F746EA4203B001439F700D1124E7
:10303000882777FD8095982F0E9432362BED3FE050
:1030400049E450E40E94E63620E030E044E353E4F3
:103050000E94973569877A878B879C876D877E87E3
:103060008F87988B9401AE014F5E5F4FBE01675E04
:103070007F4FC5010E94D516A0960FB6F894DEBF0B
:103080000FBECDBFDF91CF911F910F91FF90EF90B9
:10309000DF90CF90BF90AF909F908F900895CF9288
:1030A000DF92EF92FF920F931F93CF93DF93CDB7F1
:1030B000DEB7A0970FB6F894DEBF0FBECDBFE8E035
:1030C000FE2EE2E2F1E0DE01599601900D92FA94B3
:1030D000E1F7F8E0FF2EEAE2F1E0DE01519601901F
:1030E0000D92FA94E1F7A0E1FA2EE2E3F1E0DE01BD
:1030F000119601900D92FA94E1F70130110539F41F
:10310000EEE1F0E0FA8FE98FEAE0F0E006C0EAE0F5
:10311000F0E0FA8FE98FEEE1F0E0FC8FEB8F6A01CF
:103120007B018E010F5F1F4FAE014F5E5F4FBE01EF
:10313000675E7F4F0E94D516A0960FB6F894DEBF4B
:103140000FBECDBFDF91CF911F910F91FF90EF90F8
:10315000DF90CF9008954F925F926F927F928F92FF
:103160009F92AF92BF92CF92DF92EF92FF920F9316
:103170001F93CF93DF93CDB7DEB768970FB6F89460
:10318000DEBF0FBECDBF8C016B0188E0E2E4F1E051
:10319000DE01519601900D928A95E1F788E0EAE40C
:1031A000F1E0DE01199601900D928A95E1F788E031
:1031B000E2E1F1E0DE01119601900D928A95E1F7CE
:1031C000FA01483582E0580714F4E8E5F2E02F3FB1
:1031D0003F4F71F481E990E09E8B8D8B8AE790E000
:1031E000988F8F8B2BE430E03E872D87988B8F87CD
:1031F0004F019594879495948794CF016AE070E08D
:103200000E9400385B012F01440C551C4E0E5F1EBE
:103210005594479455944794662457FC6094762CB3
:10322000E12CF12CEC14FD04F4F4AE014F5E5F4F81
:10323000B401C8010E94F414AE01475F5F4FB501AD
:10324000C8010E94F414C301B2010E94E72AAE0132
:103250004F5F5F4F64EF71E0C8010E94F4148FEF7D
:10326000E81AF80ADFCF68960FB6F894DEBF0FBEF3
:10327000CDBFDF91CF911F910F91FF90EF90DF9025
:10328000CF90BF90AF909F908F907F906F905F9006
:103290004F9008958F929F92AF92BF92CF92DF92FC
:1032A000EF92FF920F931F93CF93DF93CDB7DEB7CB
:1032B000A0970FB6F894DEBF0FBECDBF8C014B01B7
:1032C00088E0E2E4F1E0DE01599601900D928A95E2
:1032D000E1F788E0E2E5F1E0DE01519601900D9220
:1032E0008A95E1F788E0EAE5F1E0DE0119960190C0
:1032F0000D928A95E1F788E0E2E1F1E0DE011196B6
:1033000001900D928A95E1F721303105A1F481E910
:1033100090E09E8F8D8F8AE790E098A38F8F2CE3AB
:1033200030E03E8B2D8B988F8F8B28E730E03E87E7
:103330002D87988B8F876A0188EEC81A83E0D80A98
:1033400080E9C81681E0D80624F430E9C32EDD24D4
:10335000D3947601F594E794F594E794A12CB12CDD
:10336000A814B904C4F5AE01475E5F4F64EF71E085
:10337000C8010E94F414AE014F5E5F4F64EF71E02C
:10338000C8010E94F414AE01475F5F4FB701C80146
:103390000E94F414AE014F5E5F4FB701C8010E9456
:1033A000F414AE01475F5F4FB701C8010E94F414E7
:1033B000AE014F5E5F4FB701C8010E94F414AE0129
:1033C0004F5F5F4F64EF71E0C8010E94F4148FEF0C
:1033D000A81AB80AC5CFB601882777FD8095982F1F
:1033E0000E94E72AA0960FB6F894DEBF0FBECDBFAD
:1033F000DF91CF911F910F91FF90EF90DF90CF90D1
:10340000BF90AF909F908F900895CF92DF92EF92F0
:10341000FF920F931F93CF93DF93CDB7DEB7A097A3
:103420000FB6F894DEBF0FBECDBF6A017B01E8E0A6
:10343000BE01675E7F4FDB014E2F1D924A95E9F773
:103440001E8F0D8F18A30F8FAE014F5E5F4FDA01F5
:103450001D92EA95E9F71E8B0D8B119501951109C7
:10346000188F0F8B10E1E2E6F1E0DE01119601907A
:103470000D921A95E1F78E010F5F1F4F0E94D5162E
:10348000A0960FB6F894DEBF0FBECDBFDF91CF91EF
:103490001F910F91FF90EF90DF90CF900895CF9202
:1034A000DF92EF92FF920F931F93CF93DF93CDB7ED
:1034B000DEB7A0970FB6F894DEBF0FBECDBF6A018E
:1034C0007B01E8E0BE01675E7F4FDB014E2F1D925E
:1034D0004A95E9F71E8F0D8F18A30F8FAE014F5E2F
:1034E0005F4FDA011D92EA95E9F7F80117FD319671
:1034F000F595E795FE8BED8B17FF02C00F5F1F4F11
:1035000015950795119501951109188F0F8B8E014F
:103510000F5F1F4FE0E1D8011D92EA95E9F70E9485
:10352000D516A0960FB6F894DEBF0FBECDBFDF91C3
:10353000CF911F910F91FF90EF90DF90CF90089562
:10354000CF92DF92EF92FF920F931F93CF93DF936F
:10355000CDB7DEB7A0970FB6F894DEBF0FBECDBFD4
:103560006A017B01E8E0BE01675E7F4FDB014E2F01
:103570001D924A95E9F71E8F0D8F18A30F8FAE018C
:103580004F5E5F4FDA011D92EA95E9F71E8B0D8BB6
:10359000119501951109188F0F8B8E010F5F1F4F29
:1035A000E0E1D8011D92EA95E9F70E94D516A096B0
:1035B0000FB6F894DEBF0FBECDBFDF91CF911F9144
:1035C0000F91FF90EF90DF90CF900895CF92DF9210
:1035D000EF92FF920F931F93CF93DF93CDB7DEB798
:1035E000A0970FB6F894DEBF0FBECDBF6A017B0176
:1035F0000A31110514F009E110E0E8E0BE01675E50
:103600007F4FDB014E2F1D924A95E9F71A8F098FE4
:103610001C8F0B8FAE014F5E5F4FDA011D92EA9552
:10362000E9F710E1E2E7F1E0DE01119601900D9279
:103630001A95E1F78E010F5F1F4F0E94D516A096D5
:103640000FB6F894DEBF0FBECDBFDF91CF911F91B3
:103650000F91FF90EF90DF90CF900895CF92DF927F
:10366000EF92FF920F931F93CF93DF93CDB7DEB707
:10367000A0970FB6F894DEBF0FBECDBF6A017B01E5
:103680000E30110514F00DE010E01A8F098F1C8F19
:103690000B8F1E8F0D8F18A30F8FAE014F5E5F4FE4
:1036A00068E0FA0111926A95E9F7B8016C5F7F4F03
:1036B0007E8B6D8B64E070E0601B710B788F6F8B7D
:1036C00060E1E2E8F1E0DE01119601900D926A9569
:1036D000E1F78E010F5F1F4FBE01675E7F4F0E94B3
:1036E000D516A0960FB6F894DEBF0FBECDBFDF9102
:1036F000CF911F910F91FF90EF90DF90CF900895A1
:103700002F923F924F925F926F927F928F929F92F1
:10371000AF92BF92CF92DF92EF92FF920F931F93DF
:10372000CF93DF93CDB7DEB7A2970FB6F894DEBF85
:103730000FBECDBF4C011A012B01390188E09E015B
:10374000275E3F4F3AA329A3F901282F11922A950A
:10375000E9F71E8F0D8F18A30F8F5E0131E1A30EC5
:10376000B11CF50111928A95E9F7C80117FD019680
:103770009595879502969E8B8D8B17FF02C00F5FE4
:103780001F4F1595079511950195110902501109C3
:10379000188F0F8B26EAA70124036001259FD00C08
:1037A00011248E010F5F1F4F80E1F80111928A955D
:1037B000E9F7B601882777FD8095982F0E94323669
:1037C0002BED3FE049E450E40E94E63620E030E093
:1037D00044E353E40E94973569877A878B879C87F7
:1037E00024ECA7012403B001259F700D11246C0D5A
:1037F0007D1D882777FD8095982F0E9432362BED0E
:103800003FE049E450E40E94E63620E030E044E343
:1038100053E40E9497356D877E878F87988B72015E
:1038200061019301A501BE01675E7F4FC4010E9443
:10383000D516A2960FB6F894DEBF0FBECDBFDF91AE
:10384000CF911F910F91FF90EF90DF90CF90BF909D
:10385000AF909F908F907F906F905F904F903F9030
:103860002F9008952F923F924F925F926F927F9286
:103870008F929F92AF92BF92CF92DF92EF92FF9280
:103880000F931F93CF93DF93CDB7DEB7A0970FB6FB
:10389000F894DEBF0FBECDBF4C015A016B01390158
:1038A00028E02E0149E1440E511CF201422F1192F1
:1038B0004A95E9F789E190E09A8F898F9C8F8B8FE9
:1038C0001E8F0D8F18A30F8F1E0151E1250E311C85
:1038D000F10111922A95E9F7C80117FD0196959516
:1038E000879504969E8B8D8B17FF02C00F5F1F4F2D
:1038F0001595079511950195110904501109188F17
:103900000F8B8E010F5F1F4F80E1F80111928A9596
:10391000E9F780E090E0A4EBB2E489839A83AB837B
:10392000BC838D839E83AF83B88724ECA7012403D7
:10393000B001259F700D1124882777FD8095982F61
:103940000E9432362BED3FE049E450E40E94E63617
:1039500020E030E044E353E40E9497356D877E8792
:103960008F87988B760165019301A101B201C40193
:103970000E94D516A0960FB6F894DEBF0FBECDBF3D
:10398000DF91CF911F910F91FF90EF90DF90CF903B
:10399000BF90AF909F908F907F906F905F904F906F
:1039A0003F902F9008952F923F924F925F926F9287
:1039B0007F928F929F92AF92BF92CF92DF92EF92BF
:1039C000FF920F931F93CF93DF93CDB7DEB7A097EE
:1039D0000FB6F894DEBF0FBECDBF4C015A016B018C
:1039E000390128E02E0149E1440E511CF201422F19
:1039F00011924A95E9F78CE090E09A8F898F9C8F1D
:103A00008B8F1E8F0D8F18A30F8F1E0151E1250E76
:103A1000311CF10111922A95E9F7C8010A979E8B92
:103A20008D8B8AE090E0801B910B988F8F8B8E019D
:103A30000F5F1F4F80E1F80111928A95E9F78BED36
:103A40009FE0A9E4B0E48D839E83AF83B88726EA24
:103A5000A7012403B001259F700D1124882777FD4D
:103A60008095982F0E9432362BED3FE049E450E4D8
:103A70000E94E63620E030E044E353E40E949735AC
:103A800069877A878B879C878AE58E9DB0018F9D99
:103A9000700D1124882777FD8095982F0E9432366B
:103AA0002BED3FE049E450E40E94E63620E030E0B0
:103AB00044E353E40E9497356D877E878F87988B08
:103AC000760165019301A101B201C4010E94D516DE
:103AD000A0960FB6F894DEBF0FBECDBFDF91CF9199
:103AE0001F910F91FF90EF90DF90CF90BF90AF901C
:103AF0009F908F907F906F905F904F903F902F900E
:103B0000089584559F4F0C945C120F931F93CF938D
:103B1000DF93EC01C653DF4F88810E94542B8881CC
:103B20000E94542B8C0164E070E080E090E00E94E1
:103B3000E72A88810E94542B080F191F64E070E067
:103B400080E090E00E94E72AC80117FD0196959554
:103B50008795DF91CF911F910F910895CF92DF92BA
:103B6000EF92FF920F931F93CF93DF938C01095F26
:103B70001F4FC8010E940112CAE0D0E0C12CD12C15
:103B80007601C8010E9401129B01AC01C701B60178
:103B90000E942F356B017C0161E070E080E090E0D5
:103BA0000E94E72A219769F720E030E040E251E4E3
:103BB000C701B6010E949735DF91CF911F910F91F8
:103BC000FF90EF90DF90CF900895CF93DF93CDB724
:103BD000DEB7CC57D1090FB6F894DEBF0FBECDBF0C
:103BE0008CE7E2E9F1E0DE01119601900D928A95F1
:103BF000E1F7660F771F660F771F81E090E08C0F6B
:103C00009D1F680F791FFB01608171818281938103
:103C1000C458DF4F0FB6F894DEBF0FBECDBFDF91A3
:103C2000CF910895CF93DF93EC01BA010E94E51D77
:103C3000AB01BC01CE01DF91CF910C94D312CF9395
:103C4000DF93CDB7DEB7C057D1090FB6F894DEBF0A
:103C50000FBECDBF80E2EEE0F2E0DE01999601906A
:103C60000D928A95E1F780E1EEE2F2E0DE01AF59D4
:103C7000BF4F01900D928A95E1F788E1EEE3F2E003
:103C8000DE01A75BBF4F01900D928A95E1F788E2B4
:103C9000E6E5F2E0DE01119601900D928A95E1F7DA
:103CA0006130710509F194F4672BB1F5FA01EE0F5B
:103CB000FF1FEE0FFF1F81E090E08C0F9D1FE80FAC
:103CC000F91F60A571A582A593A526C06230710574
:103CD00099F06330710501F5FA01EE0FFF1FEE0F49
:103CE000FF1F81E090E00FC0FA01EE0FFF1FEE0F03
:103CF000FF1F81E690E007C0FA01EE0FFF1FEE0FF5
:103D0000FF1F89E490E08C0F9D1FE80FF91F608171
:103D100071818281938100C0C059DF4F0FB6F89442
:103D2000DEBF0FBECDBFDF91CF910895CF93DF935C
:103D3000EC01CB01BA01A901CE010E941F1EAB010B
:103D4000BC01CE01DF91CF910C94D31221110C94C0
:103D5000121E0C94D3120C94DA128F929F92AF928F
:103D6000BF92EF92FF920F931F93CF93DF93EC01DB
:103D700048015901E114F10419F4EE24E394F12C03
:103D8000CB01BA010E940436C853DF4FA50194014C
:103D900088810E94B230C501B4010E94E72AB701B0
:103DA000882777FD8095982FDF91CF911F910F91F4
:103DB000FF90EF90BF90AF909F908F900C94E72A68
:103DC0002F923F924F925F926F927F928F929F922B
:103DD000AF92BF92CF92DF92EF92FF920F931F9319
:103DE000CF93DF93CDB7DEB728970FB6F894DEBF39
:103DF0000FBECDBF1C012A013B0109831A832B830F
:103E00003C83CD82DE82EF82F886CD8CDE8CC114BD
:103E1000D10419F4CC24C394D12C29813A814B814B
:103E20005C81C301B2010E94933587FF25C0C301A5
:103E3000B2010E94FF35882777FD8095982F0E9458
:103E400032362B013C0129813A814B815C810E94F1
:103E5000933587FF36C0760195018401B301A20135
:103E6000C1010E94AD1E2D813E814F815885C30145
:103E7000B2010E94E636DDCFC301B2010E94FF35D8
:103E8000882777FD8095982F0E9432362B013C01C0
:103E900029813A814B815C810E94E23618168CF4AC
:103EA000760195018401B301A201C1010E94AD1EFA
:103EB0002D813E814F815885C301B2010E94973503
:103EC000DDCF28960FB6F894DEBF0FBECDBFDF91D1
:103ED000CF911F910F91FF90EF90DF90CF90BF9007
:103EE000AF909F908F907F906F905F904F903F909A
:103EF0002F9008957F928F929F92AF92BF92CF9210
:103F0000DF92EF92FF920F931F93CF93DF93EC0119
:103F10006331710508F047C3FB01E759FF4F0C946B
:103F200055385EE1E52EF12C02E310E020E030E0B0
:103F300044EA50ED64E274E40E94AD1E69E1E62EAD
:103F4000F12C07E310E020E030E042E550ED64EAB8
:103F500074E4CE010E94AD1E7AE0E72EF12C0CE352
:103F600010E020E030E040E050E06CED74E426C06A
:103F70002EE1E22EF12C02E310E020E030E044EAF2
:103F800050ED64E274E40E94AD1E39E1E32EF12CA1
:103F900007E310E020E030E040E050E06CED74E436
:103FA000CE010E94AD1E4AE0E42EF12C02E310E0A7
:103FB00020E030E042E550ED64EA74E4CE010E9476
:103FC000AD1EF1C21F92B2E07B2E7F9214E1812ED2
:103FD000912CA12CB12C0AE0C02E07EDD02E03E8C5
:103FE000E02E0FE3F02E0CE51FEF23EC34E442E566
:103FF00050ED64EA74E40E94E01E6EE170E080E03F
:1040000090E00E94E72A1F927F928AE0882E912CEE
:10401000A12CB12C98EBC92E9EE1D92E95E8E92E62
:104020009FE3F92E0FE115ED22E135E442E550ED75
:1040300064EA74E4B1C21F928AE08F93FEE18F2E8E
:10404000912CA12CB12CACE5CA2EAFE8DA2EA2E857
:10405000EA2EAFE3FA2E00E010E02CED34E442E566
:1040600050ED64EA74E46DC21F928AE08F937EE1A2
:10407000872E912CA12CB12CEAE0CE2EE7EDDE2E7E
:10408000E3E8EE2EEFE3FE2E0FE115ED22E135E43D
:104090004CE55FEF63EC74E454C254E6E52EF12C7A
:1040A00002E310E020E030E042E550ED64EA74E421
:1040B0000E94AD1E60E5E62EF12C02E310E020E048
:1040C00030E04CE55FEF63EC74E4CE010E94AD1E7E
:1040D000E12CF12C0CE211E020E030E04FE155ED55
:1040E00062E175E46BCF1F92772473947F929AE01C
:1040F000892E912CA12CB12C2CE5C22E2FE8D22E8A
:1041000022E8E22E2FE3F22E00E010E626E035E46E
:1041100040E050E068E474E4CE010E94E01E1F928B
:104120007F9237E0832E912CA12CB12C4AE0C42E33
:1041300047EDD42E43E8E42E4FE3F42E00E010E0E8
:1041400028E434E440E050E566E075E425C21F92BF
:1041500083E08F9318E0812E912CA12CB12C08EBD9
:10416000C02E0EE1D02E05E8E02E0FE3F02E00E089
:1041700010E02AEF34E440E050E06CE574E4CE0156
:104180000E94E01E68EC70E080E090E00E94E72A68
:104190000F900F9086E1C82ED12CBAE0EB2EF12CB7
:1041A00005E010E020E030E048E451EF66E774E419
:1041B000CE010E94AD1E81E0C81AD10871F7F3C18B
:1041C0001F9283E08F93E8E08E2E912CA12CB12CCE
:1041D000FAE0CF2EF7EDDF2EF3E8EF2EFFE3FF2E10
:1041E00000E010E82BE335E440E050E06BEE74E4CF
:1041F000CE010E94E01E68EC70E080E090E00E943A
:10420000E72A0F900F90A0E1CA2ED12C7AE0E72E7A
:10421000F12C0AE010E020E030E040E050ED62E8F0
:1042200074E4CE010E94AD1E81E0C81AD10871F776
:10423000BAC11F9284E08F9330E1832E912CA12C80
:10424000B12C4AE0C42E47EDD42E43E8E42E4FE3D0
:10425000F42E00E010E021E634E440E050E06FE2AC
:1042600074E4CE010E94E01E1F9287E08F9352E11A
:10427000852E912CA12CB12C6EEAC62E67E4D62E89
:1042800061E8E62E6FE3F62E00E010E822E234E467
:1042900040E050EC60E674E47FC11F928AE08F93A7
:1042A0009AE0892E912CA12CB12C28EBC22E2EE164
:1042B000D22E25E8E22E2FE3F22E00E010E02AEFC6
:1042C00033E440E050E068EC72E4CE010E94E01E6E
:1042D00064EF71E080E090E00E94E72A1F9281E0A5
:1042E0008F9300E010E028EC32E440E050E068EC0E
:1042F00073E452C11F92B8E07B2E7F9214E1812EAD
:10430000912CA12CB12C06E6C02EDC2C06E8E02E68
:104310000FE3F02E00E010E42CE135E440E050E83B
:104320006BEB74E40E94E01E1F927F9289E1882E5D
:10433000912CA12CB12C00E010E82BEB34E440E0F0
:1043400050E36CE175E428C11F9283E08F93E8E0AD
:104350008E2E912CA12CB12CF6E6CF2EDC2CF6E87B
:10436000EF2EFFE3FF2E00E010E82BEB35E440E0FA
:1043700050E06AEF74E4CE010E94E01E62E370E058
:1043800080E090E00E94E72A1F9282E08F93ADE0E8
:104390008A2E912CA12CB12C00E010E02AEF34E4FD
:1043A00040E058E76BEB75E4F7C01F9248E0742ECD
:1043B0007F925FE0852E912CA12CB12C66E6C62E53
:1043C000DC2C66E8E62E6FE3F62E00E010E02AEF24
:1043D00034E440E050E86BEB74E40E94E01E64E6D5
:1043E00070E080E090E00E94E72A1F927F927AE0DE
:1043F000872E912CA12CB12C00E010E42CE135E4A7
:1044000040E050E86DEE74E4C7C01F9288EC8F93D3
:1044100024E1822E912CA12CB12C3CE5C32E3FE847
:10442000D32E32E8E32E3FE3F32E00E010E427E240
:1044300034E440E050E06CE574E483C01F9282E015
:104440008F93B8E08B2E912CA12CB12C1AE0C12EA9
:1044500017EDD12E13E8E12E1FE3F12E00E010E856
:1044600024ED34E440E050E06AE774E4CE010E94B9
:10447000E01E1F9283E08F9308EBC02E0EE1D02E3A
:1044800005E8E02E0FE3F02E00E010E02AEF33E421
:1044900040E050E664ED74E4CE010E94E01E1F92FD
:1044A0008AE08F9389E0882E912CA12CB12C96E67E
:1044B000C92EDC2C96E8E92E9FE3F92E00E010E8E7
:1044C00024ED34E440E050E06AE774E4CE010E9459
:1044D000E01E0F900F900F900F900F900F9063C001
:1044E0001F928FE08F93F2E08F2E912CA12CB12C94
:1044F000ACE5CA2EAFE8DA2EA2E8EA2EAFE3FA2E38
:1045000000E010E82BE335E440E050E068EC74E4B0
:1045100018C01F9284E18F9372E0872E912CA12CFA
:10452000B12CECE5CE2EEFE8DE2EE2E8EE2EEFE346
:10453000FE2E00E010E82BEB35E440E050E06AEF9F
:1045400074E4CE010E94E01E0F900F902CC01F92C9
:1045500044E1742E7F9252E0852E912CA12CB12C37
:104560006CE5C62E6FE8D62E62E8E62E6FE3F62ED7
:1045700000E010E02AE735E440E050E068EC74E445
:104580000E94E01E1F927F9200E010E82BE335E4CA
:1045900040E050E06AE775E4CE010E94E01E0F9013
:1045A0000F900F900F90DF91CF911F910F91FF907F
:1045B000EF90DF90CF90BF90AF909F908F907F90C3
:1045C00008952F923F924F925F926F927F928F92B7
:1045D0009F92AF92BF92CF92DF92EF92FF920F9392
:1045E0001F93CF93DF93CDB7DEB7C258D1090FB673
:1045F000F894DEBF0FBECDBF3C0188E0EEE7F2E0ED
:10460000DE01AF58BF4F01900D928A95E1F788E027
:10461000E6E8F2E0DE01A759BF4F01900D928A95BE
:10462000E1F788E0EEE8F2E0DE01AF59BF4F01901C
:104630000D928A95E1F788E0E6E9F2E0DE01A75AFB
:10464000BF4F01900D928A95E1F788E0EEE9F2E024
:10465000DE01AF5ABF4F01900D928A95E1F788E0D5
:10466000E6EAF2E0DE01A75BBF4F01900D928A956A
:10467000E1F788E0EEEAF2E0DE01AF5BBF4F0190C8
:104680000D928A95E1F788E0E6EBF2E0DE01D9963B
:1046900001900D928A95E1F788E0EEEBF2E0DE0101
:1046A000D19601900D928A95E1F788E0E6ECF2E070
:1046B000DE01999601900D928A95E1F788E0EEEC83
:1046C000F2E0DE01919601900D928A95E1F788E083
:1046D000E6EDF2E0DE01599601900D928A95E1F740
:1046E00088E0EEEDF2E0DE01519601900D928A95A0
:1046F000E1F788E0E6EEF2E0DE01199601900D9216
:104700008A95E1F76D30710508F0CEC6FB01E458DB
:10471000FF4F0C94553882E090E0EF969FAF8EAF3C
:10472000EF973DC4E4E0F0E0EF96FFAFEEAFEF9718
:104730006BC3FEE1EF2EF12C02E310E020E030E04D
:1047400044EA50ED64E274E4C3010E94AD1E4AE005
:1047500050E060E070E0C3010E94121E6DE070E066
:10476000C3010E947A1F04E110E020E233E040E040
:1047700050E060E87FE3C3010E944F1A6DE070E0F3
:1047800076C14BE050E060E070E0C3010E94121E71
:104790006BE070E0C3010E947A1F4CE050E060E0E3
:1047A00070E0C3010E94121E04E110E024EF31E02A
:1047B00040E050E060E87FE3C3010E94A01A4BE0B4
:1047C00050E060E070E0C3010E94121E6CE070E0F7
:1047D000C3010E947A1F4CE050E060E070E0C3012A
:1047E0000E94121E24EF31E040E050E060E87FE3D9
:1047F000C3010E94A01A04C346E150E060E070E0EB
:10480000C3010E94121EAE014F585F4F6CEB72E065
:10481000C3010E94F4141F9268EC562E5F9274E15B
:10482000872E912CA12CB12CECE5CE2EEFE8DE2EBC
:10483000E2E8EE2EEFE3FE2E00E010E82FE434E491
:1048400040E050E06CE574E4C3010E94E01E48E1E2
:1048500050E060E070E0C3010E94121E1F925F9260
:1048600000E010E825E434E440E050E86FE474E44C
:10487000C3010E94E01E47E150E060E070E0C30128
:104880000E94121E1F925F9200E010E029E334E4C0
:1048900040E050E865E474E4C3010E94E01E48E192
:1048A00050E060E070E0C3010E94121E1F925F9210
:1048B00000E010E02FE234E440E050E069E374E40B
:1048C000C3010E94E01E47E150E060E070E0C301D8
:1048D0000E94121E1F925F9200E010E427E234E46F
:1048E00040E050E06FE274E4C3010E94E01E46E144
:1048F00050E060E070E0C3010E94121E64EF71E0BE
:1049000080E090E00E94E72AC3010E945D176CE2FC
:1049100071E080E090E00E94E72A07C2AE014759AB
:104920005F4F6CEB72E0C3010E94F41444E0442E2C
:10493000512C5AE0352E2224239420E030E041E02F
:1049400050E060E070E0C3010E94961E1F923F920B
:104950002AE0822E912CA12CB12C38EBC32E3EE103
:10496000D32E35E8E32E3FE3F32E00E010E028E4F9
:1049700033E440E050E068EC72E4C3010E94E01EC2
:1049800021E030E041E050E060E070E0C3010E94CF
:10499000961E1F923F9200E010E026E933E440E0CB
:1049A00050E068E473E4C3010E94E01E22E030E0BE
:1049B00041E050E060E070E0C3010E94961E1F924B
:1049C0003F9200E010E02AEF33E440E050E066E977
:1049D00073E4C3010E94E01E64EF71E080E090E0A8
:1049E0000E94E72A21E030E041E050E060E070E022
:1049F000C3010E94961E1F922F9200E010E02AE74A
:104A000033E440E050E068EC73E4C3010E94E01E30
:104A100020E030E041E050E060E070E0C3010E943F
:104A2000961E1F922F9200E010E028EC32E440E046
:104A300050E06AE773E4C3010E94E01E64EF71E096
:104A400080E090E00E94E72A91E0491A51080FB6F1
:104A5000F894DEBF0FBECDBF09F06FCF43E150E049
:104A600060E070E0C3010E94121E69E070E0C301C3
:104A70000E947A1FC5C1AE014F595F4F64EF71E0CC
:104A8000C3010E94F4146CE271E080E090E00E94A7
:104A9000E72A43E150E060E070E0C3010E94121E8B
:104AA00060E170E0C3010E947A1F40E150E060E0E5
:104AB00070E0C3010E94121E6AEF70E080E090E097
:104AC0000E94E72AAE01475A5F4F64EF71E0C301CD
:104AD0000E94F4146CE271E080E090E00E94E72A0A
:104AE00043E150E060E070E0C3010E94121E61E10A
:104AF00070E0C3010E947A1F40E150E060E070E086
:104B0000C3010E94121E6AEF70E080E090E00E94F4
:104B1000E72AAE014F5A5F4F64EF71E0C3010E9474
:104B2000F4146CE271E080E090E00E94E72A43E137
:104B300050E060E070E0C3010E94121E62E170E08C
:104B4000C3010E947A1F40E150E060E070E0C301C1
:104B50000E94121E6CE271E080E090E00E94E72A61
:104B6000C3010E945D1764EF71E080E090E052C3E2
:104B7000AE01475B5F4F6CE271E0C3010E94F41429
:104B800044E150E060E070E0C3010E94121E6FE05B
:104B900070E0C3010E947A1F2DC14DE050E060E03B
:104BA00070E0C3010E94121E69E070E0C3010E9420
:104BB0007A1FEE24E394F12C0FE010E02CED35E0A9
:104BC00040E050E060E070E4C3010E94321CC30189
:104BD0000E945D176DE070E0C3010E947A1FDBC385
:104BE000AE014F5B5F4F6CE271E0C3010E94F414B1
:104BF0004EE150E060E070E0C3010E94121EFEE151
:104C0000EF2EF12C04E610E020E030E040E050E030
:104C10006CE574E4C3010E94AD1E1F92A4E05A2EFD
:104C20005F92B7E08B2E912CA12CB12C1CE5C12EEC
:104C30001FE8D12E12E8E12E1FE3F12E0FE115ED52
:104C400022E934E440E050E06CE574E4C3010E94E2
:104C5000E01E1F92442443944F920AE0802E912C30
:104C6000A12CB12C0CE51FEF23EC34E44FE155ED02
:104C700062E974E4C3010E94E01E1F924F9200E0BB
:104C800010E02CE534E44CE55FEF63EC74E4C30121
:104C90000E94E01E6FE070E080E090E00E94E72A52
:104CA0001F925F9284E1882E912CA12CB12C04EAF2
:104CB00010ED24E234E440E050E06CE574E4C3011C
:104CC0000E94E01E60E971E080E090E00E94E72A27
:104CD000AE01475C5F4F68EC70E0C3010E94F414C2
:104CE0001F925F920FE115ED22E934E440E050E0BD
:104CF0006CE574E4C3010E94E01EAE014F5C5F4F9F
:104D000068EC70E0C3010E94F4141F925F9204EA01
:104D100010ED24E234E440E050E06CE574E4C301BB
:104D20000E94E01EC3010E945D174BE050E060E06E
:104D300070E0C3010E94121E0FB6F894DEBF0FBED2
:104D4000CDBFB2C34EE150E060E070E0C3010E940D
:104D5000121E1F9264E0562E5F9274E1872E912CF2
:104D6000A12CB12CECE5CE2EEFE8DE2EE2E8EE2E03
:104D7000EFE3FE2E0FE115ED22E934E440E050E0D0
:104D80006CE574E4C3010E94E01E1F925F9204EA86
:104D900010ED24E234E440E050E06CE574E4C3013B
:104DA0000E94E01E6CE271E080E090E00E94E72A41
:104DB00043E150E060E070E0C3010E94121E0F90DA
:104DC0000F900F900F9004E010E0AE01475D5F4F31
:104DD00064E670E0C3010E94F414C3010E945D17F1
:104DE0000150110991F74EE150E060E070E0C3011D
:104DF0000E94121E64EF71E080E090E00E94E72ABA
:104E0000C3010E945D17C7C2EB961FAE1EAEEB97A3
:104E100000E911E0EB962EAD3FADEB9742E050E09C
:104E200060E070E0C3010E94961E180194E6290E0E
:104E3000311CB801882777FD8095982F0E94323663
:104E4000C158DF4F688379838A839B83CF57D040D3
:104E5000B101882777FD8095982F0E9432368B010B
:104E60009C011F92EAE0EF934AE0842E912CA12C42
:104E7000B12C58EBC52E5EE1D52E55E8E52E5FE34B
:104E8000F52EC158DF4F488159816A817B81CF5708
:104E9000D040C3010E94E01EEB968EAD9FADEB9714
:104EA0000196EB969FAF8EAFEB970F900F9098EE19
:104EB000291693E0390611F08101ACCFC3010E949D
:104EC000DA121F92EAE0EF9300E010E829E834E4F8
:104ED000C158DF4F488159816A817B81CF57D040CB
:104EE000C3010E94E01E0F900F90412C512C9201A3
:104EF00042E050E060E070E0C3010E94961EB10104
:104F00006C597F4F882777FD8095982F0E94323605
:104F1000ED966CAF7DAF8EAF9FAFED97B101882757
:104F200077FD8095982F0E943236AB01BC011F920D
:104F3000FAE0FF932AE0822E912CA12CB12C38EBC1
:104F4000C32E3EE1D32E35E8E32E3FE3F32EED965C
:104F50000CAD1DAD2EAD3FADED97C3010E94E01E1F
:104F600084E6281A31089FEF491A590A0F900F90CA
:104F7000E0E92E16E1E03E0609F0B9CFEF968EADDE
:104F80009FADEF970197EF969FAF8EAFEF97892B6D
:104F900009F03ACF6CE271E080E090E03BC1212C57
:104FA000312C54EF452E55245394910143E050E0A9
:104FB00060E070E0C3010E94961EB2016C597F4F01
:104FC000882777FD8095982F0E943236ED966CAF3A
:104FD0007DAF8EAF9FAFED97B201882777FD8095AB
:104FE000982F0E943236AB01BC011F929AE09F932A
:104FF0008AE0882E912CA12CB12C9CE5C92E9FE82B
:10500000D92E92E8E92E9FE3F92EED960CAD1DAD59
:105010002EAD3FADED97C3010E94E01EE5E64E0EBA
:10502000511CFFEF2F1A3F0A0F900F9086EE481683
:1050300085E0580609F0B9CF212C312C910143E0CD
:1050400050E060E070E0C3010E94961EB2016C590E
:105050007F4F882777FD8095982F0E943236ED96F6
:105060006CAF7DAF8EAF9FAFED97B201882777FD14
:105070008095982F0E943236AB01BC011F929AE0B6
:105080009F931AE0812E912CA12CB12C0CE5C02EFF
:105090000FE8D02E02E8E02E0FE3F02EED960CADD7
:1050A0001DAD2EAD3FADED97C3010E94E01EE5E6BC
:1050B0004E0E511CFFEF2F1A3F0A0F900F9088EDF4
:1050C000481689E0580609F0B9CF212C312C9101FE
:1050D00043E050E060E070E0C3010E94961EB20120
:1050E00064567109882777FD8095982F0E94323683
:1050F000ED966CAF7DAF8EAF9FAFED97B201882775
:1051000077FD8095982F0E943236AB01BC011F922B
:105110009AE09F93AAE08A2E912CA12CB12CBCE599
:10512000CB2EBFE8DB2EB2E8EB2EBFE3FB2EED96D5
:105130000CAD1DAD2EAD3FADED97C3010E94E01E3D
:10514000E5E64E1A5108FFEF2F1A3F0A0F900F9015
:1051500086EE481685E0580609F0B9CF212C312C8F
:10516000910143E050E060E070E0C3010E94961EB0
:10517000B20164567109882777FD8095982F0E94A7
:105180003236ED966CAF7DAF8EAF9FAFED97B2012B
:10519000882777FD8095982F0E943236AB01BC019D
:1051A0001F929AE09F93EAE08E2E912CA12CB12CB5
:1051B000FCE5CF2EFFE8DF2EF2E8EF2EFFE3FF2E17
:1051C000ED960CAD1DAD2EAD3FADED97C3010E9428
:1051D000E01EE5E64E1A5108FFEF2F1A3F0A0F9026
:1051E0000F9084EF481681E0580609F0B9CFEF968A
:1051F000EEADFFADEF973197EF96FFAFEEAFEF97C4
:10520000EF2B09F0CCCEC3010E94DA1264E670E005
:1052100080E090E00E94E72ABEC04FE050E060E0EE
:1052200070E0C3010E94121E90E4C92E96E0D92EB0
:105230002AE5422E512CCE0101961C013AE5A32EFF
:10524000B12C44EB842E912CF10188E011928A95C7
:10525000E9F7BA82A982BC82AB825E824D82C40128
:105260008419950998878F83A1016AE070E0C301D2
:105270000E94F414B601882777FD8095982F0E942C
:105280003236AB01BC01EE24E394F12C0FE010E0C8
:1052900020E030E0C3010E94AD1E9FEF491A590A79
:1052A000E4E1CE0ED11CF6E94F16510469F64EE04A
:1052B00050E060E070E0C3010E94121EA0EFAA2E31
:1052C000AAE0BA2EB6E9CB2ED12C1AE5412E512CEC
:1052D00004EB802E912CF10188E011928A95E9F778
:1052E0005A8249825C824B82DE82CD82C4018C1953
:1052F0009D0998878F83A1016AE070E0C3010E9435
:10530000F414B501882777FD8095982F0E943236D6
:10531000AB01BC01EE24E394F12C0FE010E020E09F
:1053200030E0C3010E94AD1E91E0C91AD108E4E14A
:10533000AE0EB11CFAE5CF16D10469F64BE050E091
:1053400060E070E0C3010E94121E04E110E024EF4F
:1053500031E040E050E060E87FE3C3010E94A01A22
:105360006CE070E0C3010E947A1F4CE050E060E006
:1053700070E0C3010E94121E24EF31E040E050E0D3
:1053800060E87FE3C3010E94A01AC3010E945D1779
:10539000C3010E94DA124BE050E060E070E0C3010C
:1053A0000E94121E81C047E150E060E070E0C3013E
:1053B0000E94121EAE014F5D5F4F6CE271E0C301AF
:1053C0000E94F414EE24E394F12C08EC10E020E0A9
:1053D00030E040E050E061E674E4C3010E94AD1E9D
:1053E00048E150E060E070E0C3010E94121EAE018F
:1053F000475E5F4F6CE271E0C3010E94F41408EC59
:1054000010E020E030E040E050E066E174E4C301E9
:105410000E94AD1E44E150E060E070E0C3010E94D4
:10542000121EAE014F5E5F4F6CE271E0C3010E943D
:10543000F41408EC10E020E030E040E050E066E9D1
:1054400073E4C3010E94AD1EAE01475F5F4F6CE283
:1054500071E0C3010E94F4144AE150E060E070E0A2
:10546000C3010E94121EC3010E94AD1408E918E096
:1054700020E030E040E050E066E173E4C3010E94C8
:10548000AD1E68E572E080E090E00E94E72AC3016B
:105490000E94DA124BE050E060E070E0C3010E942D
:1054A000121EC3010E945D17CE57DF4F0FB6F8944E
:1054B000DEBF0FBECDBFDF91CF911F910F91FF9047
:1054C000EF90DF90CF90BF90AF909F908F907F90A4
:1054D0006F905F904F903F902F9008951F920F9282
:1054E0000FB60F9211242F933F938F939F93AF93F7
:1054F000BF938091C2069091C306A091C406B0915B
:10550000C5063091C10623E0230F2D3720F4019604
:10551000A11DB11D05C026E8230F0296A11DB11DD6
:105520002093C1068093C2069093C306A093C4063D
:10553000B093C5068091C6069091C706A091C80693
:10554000B091C9060196A11DB11D8093C606909326
:10555000C706A093C806B093C906BF91AF919F91AB
:105560008F913F912F910F900FBE0F901F90189524
:105570002FB7F8946091C2067091C3068091C4065B
:105580009091C5062FBF08953FB7F8948091C60645
:105590009091C706A091C806B091C90626B5A89BF0
:1055A00005C02F3F19F00196A11DB11D3FBF662711
:1055B000782F892F9A2F620F711D811D911D42E056
:1055C000660F771F881F991F4A95D1F70895CF92CC
:1055D000DF92EF92FF92CF93DF936B017C010E94E9
:1055E000C42AEB01C114D104E104F10489F00E9442
:1055F0002D350E94C42A6C1B7D0B683E734090F3CE
:1056000081E0C81AD108E108F108C851DC4FEACF9F
:10561000DF91CF91FF90EF90DF90CF9008950197A9
:1056200039F0880F991F880F991F02970197F1F79A
:105630000895789484B5826084BD84B5816084BD0A
:1056400085B5826085BD85B5816085BDEEE6F0E0FB
:10565000808181608083E1E8F0E010828081826057
:105660008083808181608083E0E8F0E080818160D8
:105670008083E1EBF0E0808184608083E0EBF0E008
:10568000808181608083EAE7F0E0808184608083AC
:105690008081826080838081816080838081806856
:1056A00080831092C10008958E3008F08E5087706C
:1056B0002091080190E4299F90011124822B80936E
:1056C0007C0080917A00806480937A0080917A00D7
:1056D00086FDFCCF809178002091790090E0922B9C
:1056E0000895833081F028F4813099F08230A1F060
:1056F00008958730A9F08830B9F08430D1F48091D2
:1057000080008F7D03C0809180008F778093800020
:10571000089584B58F7702C084B58F7D84BD0895C8
:105720008091B0008F7703C08091B0008F7D80930F
:10573000B0000895CF93DF9390E0FC01EB56FE4F4D
:105740002491FC01E755FE4F8491882349F190E0B4
:10575000880F991FFC01EF52FE4FA591B491895318
:105760009E4FFC01C591D4919FB7611108C0F89478
:105770008C91209582238C93888182230AC0623089
:1057800051F4F8948C91322F309583238C93888137
:10579000822B888304C0F8948C91822B8C939FBFBA
:1057A000DF91CF9108950F931F93CF93DF931F92B3
:1057B000CDB7DEB7282F30E0F901EF57FE4F8491C7
:1057C000F901EB56FE4F1491F901E755FE4F049194
:1057D0000023C9F0882321F069830E94712B69811D
:1057E000E02FF0E0EE0FFF1FE953FE4FA591B491BB
:1057F0009FB7F8948C91611103C01095812301C06B
:10580000812B8C939FBF0F90DF91CF911F910F91B0
:105810000895CF92DF92EF92FF920F931F93CF9351
:10582000DF9390E0FC01EB56FE4FD491FC01E7556D
:10583000FE4F7491611102C0C0E001C0CD2FDA01AA
:10584000C901BF70672F70E0660F771F63547E4FEA
:1058500000E010E09801FB01E590F490F701408131
:105860004D234C131EC0680179014FEFC41AD40AAE
:10587000E40AF40A081719072A073B0709F442C08B
:1058800097018601E8CF68017901FFEFCF1ADF0A9F
:10589000EF0AFF0A081719072A073B0799F1970132
:1058A0008601FB01E590F490F70140814D234C13F4
:1058B000EACF801B910BA20BB30B20E030E0A901D3
:1058C000FB01E590F490F701F080FD22FC120AC084
:1058D000281739074A075B07A9F02F5F3F4F4F4F43
:1058E0005F4FEECFA8E1B0E00E945B38605F7F4F72
:1058F0008F4F9F4F24E096958795779567952A95CA
:10590000D1F703C060E070E0CB01DF91CF911F9130
:105910000F91FF90EF90DF90CF900895FC01818D63
:10592000228D90E0805C9F4F821B91098F73992795
:105930000895FC01918D828D981731F0828DE80FCA
:10594000F11D858D90E008958FEF9FEF0895FC0184
:10595000918D828D981761F0828DDF01A80FB11DA6
:105960005D968C91928D9F5F9F73928F90E00895CA
:105970008FEF9FEF08958BE29EE2892B49F080E044
:1059800090E0892B29F00E942B2E81110C940000AD
:105990000895FC01848DDF01A80FB11DA35ABF4FEC
:1059A0002C91848D90E001968F739927848FA6891E
:1059B000B7892C93A089B1898C9180648C93938D45
:1059C000848D981306C00288F389E02D80818F7D35
:1059D00080830895CF93DF93EC01888D8823C9F0ED
:1059E000EA89FB89808185FD05C0A889B9898C91E8
:1059F00086FD0FC00FB607FCF5CF808185FFF2CF83
:105A0000A889B9898C9185FFEDCFCE010E94C92C60
:105A1000E7CFDF91CF910895CF92DF92FF920F935E
:105A20001F93CF93DF931F92CDB7DEB76C01DC01DC
:105A30005B969C915B975C968C915C97981307C0E2
:105A40005096ED91FC915197808185FD32C0F60111
:105A5000038D10E00F5F1F4F0F731127F02EF6011B
:105A6000848DF81211C00FB607FCF9CFD6015096FD
:105A7000ED91FC915197808185FFF1CFC60169833B
:105A80000E94C92C6981EBCF838DE80FF11DE35A89
:105A9000FF4F6083D6015B960C935B975296ED9116
:105AA000FC91539780818062808381E058968C932B
:105AB0000DC0D6015696ED91FC9157976083509694
:105AC000ED91FC91519780818064808381E090E02A
:105AD0000F90DF91CF911F910F91FF90DF90CF90AA
