:100000000C94D8000C94AE020C94D5020C94FC0213
:100010000C945F030C94C2030C9400010C94083000
:100020000C9400010C9400010C9400010C94D70E68
:100030000C9400010C9400010C9400010C9400013C
:100040000C9480270C9400010C94E52A0C94172B37
:100050000C9400010C9400010C9400010C9400011C
:100060000C9400010C9400015504580464046704C6
:100070007304810489049A04A804B004C104CE0462
:10008000D604E704F504F804040507051305210563
:10009000AC0EAF0EB20EB50EB80EBB0EBE0EC10E3C
:1000A000C40EC70ECA0ECD0ED00E121E391E641E0F
:1000B0009D1EB61ECF1EF51E291F621F9B1FCF1F40
:1000C000FC1F262057208720A020F2200B21292169
:1000D000F2211A225522E7229423112426244924AE
:1000E000FB24EB21E4215C275C2705A84CCDB2D48E
:1000F0004EB93836A9020C50B9918688083CA6AA98
:10010000AA2ABE000000803F2525004100262600C7
:10011000252500492000262600252500422000260E
:1001200026002525004E20002626002525004420F7
:100130000026260025250045200026260000010275
:10014000030405060700010203040500010203047D
:100150000500000008000201000003040700000081
:100160000000000000010204081020408001020489
:1001700008102001020408102004040404040404EC
:10018000040202020202020303030303030000004D
:100190000023002600290000000000250028002B75
:1001A0000000000000240027002A0002D006472B90
:1001B00011241FBECFEFD8E0DEBFCDBF13E0A0E01B
:1001C000B1E0E6EFFEE602C005900D92A631B10760
:1001D000D9F727E0A6E1B3E001C01D92A535B2072B
:1001E000E1F711E0C0EBD1E004C02297FE010E94CC
:1001F0004F35CC3AD107C9F70E948B2B0C94793735
:100200000C94000081E080932003909121039111D0
:100210000BC08093210321E04FE050E060E070E0EC
:1002200086E293E00C94351D089581E080931F03CE
:100230009091210391110BC08093210321E04FE0A5
:1002400050E060E070E086E293E00C94351D089584
:10025000EF92FF920F931F93CF93DF931F92CDB72F
:10026000DEB77C01FC0100811181C80169830E9415
:1002700058376981681719F0C8010E946037C701B3
:100280000F90DF91CF911F910F91FF90EF90089504
:100290000F931F93CF93DF9300D0CDB7DEB78B01C1
:1002A000FB0160819A838983CE0101960E94280117
:1002B000C8010F900F90DF91CF911F910F9108957A
:1002C000A82FAF7787FD05C08EEF8A0F823008F424
:1002D00099C0B0E0FD01EB59FE4F2491FD01E758B4
:1002E000FE4F8491942F9D7F9130B9F4823031F488
:1002F00090915F06922B90935F060FC0833031F48C
:1003000090915006922B9093500607C0843029F4A8
:1003100090913D06922B90933D0641504230B8F4A7
:10032000823031F490915E06922B90935E060FC05E
:10033000833031F490914F06922B90934F0607C073
:10034000843029F490913C06922B90933C06FD0159
:10035000E35CFE4FA4918230C1F4B0E0AA0FBB1F52
:10036000A05AB94F6D937C93E1E9F1E0A591B49166
:100370008C9180935D068BE690E09093710680935C
:10038000700680916800816033C08330C1F4B0E0B2
:10039000AA0FBB1FAF5AB94F6D937C93E3E9F1E00D
:1003A000A591B4918C9180934E068CE690E0909349
:1003B00071068093700680916800826019C0843055
:1003C000C9F4B0E0AA0FBB1FA25CB94F6D937C9338
:1003D000E5E9F1E0A591B4918C9180933B068DE61F
:1003E00090E090937106809370068091680084601D
:1003F00080936800A0917006B09171068C91822B59
:100400008C9316C09FB7F894A230B1F470936D0628
:1004100060936C06E898809169008C7F80936900F6
:1004200080916900842B80936900E09AE89A9FBFCD
:100430008FB780688FBF089570936F0660936E06C4
:10044000E99880916900837F8093690080916900B9
:1004500024E0429FA0011124842B80936900E19A3B
:10046000E99AE5CF3FB7F894982F9F7787FD05C0AD
:100470008EEF890F823008F45EC0892F90E0FC0176
:10048000EB59FE4F2491FC01E758FE4F84918230D6
:10049000D1F480916B002095822380936B00809132
:1004A0006B00811105C0809168008E7F8093680089
:1004B00080915F06822380935F0680915E0682238F
:1004C00080935E0641C08330D1F480916C0020950A
:1004D000822380936C0080916C00811105C0809113
:1004E00068008D7F809368008091500682238093FE
:1004F000500680914F06822380934F0625C084309A
:1005000019F580916D002095822380936D00809174
:100510006D00811105C0809168008B7F8093680019
:1005200080913D06822380933D0680913C06822384
:1005300080933C0609C0923049F4E89880916900A4
:100540008C7F80936900E09A3FBF0895E99880917D
:100550006900837F80936900E19AF6CF1F920F9222
:100560000FB60F9211242F933F934F935F936F9386
:100570007F938F939F93AF93BF93EF93FF93E091FC
:100580006C06F0916D060995FF91EF91BF91AF91C7
:100590009F918F917F916F915F914F913F912F919B
:1005A0000F900FBE0F901F9018951F920F920FB6CD
:1005B0000F9211242F933F934F935F936F937F93E9
:1005C0008F939F93AF93BF93EF93FF93E0916E064A
:1005D000F0916F060995FF91EF91BF91AF919F91B7
:1005E0008F917F916F915F914F913F912F910F90DC
:1005F0000FBE0F901F9018951F920F920FB60F927B
:1006000011242F933F934F935F936F937F938F9317
:100610009F93AF93BF93CF93EF93FF9393B1C09109
:100620005D0620915F0630915E06892F80958323B9
:100630002923822B20916B00C927C223C8239093C2
:100640005D06CC2351F1C0FF05C0E0916006F0913A
:1006500061060995C1FF05C0E0916206F09163064D
:100660000995C2FF05C0E0916406F0916506099501
:10067000C3FF05C0E0916606F09167060995C4FFC7
:1006800005C0E0916806F09169060995C5FF05C0AF
:10069000E0916A06F0916B060995FF91EF91CF9179
:1006A000BF91AF919F918F917F916F915F914F918A
:1006B0003F912F910F900FBE0F901F9018951F9292
:1006C0000F920FB60F9211242F933F934F935F9386
:1006D0006F937F938F939F93AF93BF93CF93EF933A
:1006E000FF9396B1C0914E062091500630914F066F
:1006F000892F809583232923822B20916C00C92781
:10070000C223C82390934E06CC2351F1C0FF05C0ED
:10071000E0915106F09152060995C1FF05C0E091A4
:100720005306F09154060995C2FF05C0E0915506A5
:10073000F09156060995C3FF05C0E0915706F09168
:1007400058060995C4FF05C0E0915906F0915A0674
:100750000995C5FF05C0E0915B06F0915C0609951F
:10076000FF91EF91CF91BF91AF919F918F917F9129
:100770006F915F914F913F912F910F900FBE0F900E
:100780001F9018951F920F920FB60F9211242F935E
:100790003F934F935F936F937F938F939F93AF9309
:1007A000BF93CF93EF93FF9399B1C0913B062091F4
:1007B0003D0630913C06892F809583232923822B87
:1007C00020916D00C927C223C82390933B06CC23F8
:1007D000C1F1C0FF05C0E0913E06F0913F060995CA
:1007E000C1FF05C0E0914006F09141060995C2FFA6
:1007F00005C0E0914206F09143060995C3FF05C08C
:10080000E0914406F09145060995C4FF05C0E091CA
:100810004606F09147060995C5FF05C0E0914806D8
:10082000F09149060995C6FF05C0E0914A06F0918E
:100830004B060995C7FF05C0E0914C06F0914D06A7
:100840000995FF91EF91CF91BF91AF919F918F91BA
:100850007F916F915F914F913F912F910F900FBEBC
:100860000F901F90189586E293E00E94111C0E9441
:10087000F7326F30710524F481E0809316030895F8
:10088000109216030895EF92FF920F931F93019712
:100890008431910508F0E2C08C5C9F4F40910801C3
:1008A00050910901FC010C944D3501E010E002C0AB
:1008B0000FEF1FEF9A0140E050E060E87FE386E22F
:1008C00093E00E943216CAC001E010E002C00FEFB0
:1008D0001FEF9A0140E050E060E87FE386E293E09A
:1008E0000E94A216BBC000910401109105019A015B
:1008F00040E050E060E87FE386E293E00E94FE166D
:10090000ADC00091040110910501EE24E394F12C97
:1009100007C00091040110910501EE24EA94FE2C19
:100920009A0140E050E060E87FE386E293E00E94B5
:10093000481794C000910401109105019A0140E00C
:1009400050E060E87FE386E293E00E94FA1786C0F9
:100950000091040110910501EE24E394F12C07C0ED
:100960000091040110910501EE24EA94FE2C9A01F5
:1009700040E050E060E87FE386E293E00E94911857
:100980006DC09A0140E050E060E87FE386E293E0CA
:100990001F910F91FF90EF900C9432190091040178
:1009A00010910501EE24E394F12C07C0009104019D
:1009B00010910501EE24EA94FE2C9A0140E050E0EB
:1009C00060E87FE386E293E00E946F1947C00091E0
:1009D0000401109105019A0140E050E060E87FE3D6
:1009E00086E293E00E944B1839C021E030E002C05B
:1009F0002FEF3FEF61E070E086E293E01F910F91EF
:100A0000FF90EF900C94D81A21E030E002C02FEF55
:100A10003FEF61E070E086E293E01F910F91FF905D
:100A2000EF900C941D1A00910401109105019A0198
:100A300040E050E060E87FE386E293E00E94771BAD
:100A40000DC000910401109105019A0140E050E0B1
:100A500060E87FE386E293E00E94BF1B1F910F9145
:100A6000FF90EF9008958F929F92AF92BF92CF9296
:100A7000DF92EF92FF920F931F93CF9386E293E062
:100A80000E943D1C20E030E048E452E40E948B329A
:100A900087FF54C0C3E08091210381114FC021E042
:100AA0004CE150E060E070E086E293E00E94351D8A
:100AB0001F92CF9318E0812E912CA12CB12C08EB22
:100AC000C02E0EE1D02E05E8E02E0FE3F02E00E060
:100AD00010E02AEF34E440E050E06CE574E486E294
:100AE00093E00E94691D6EE170E080E090E00E945A
:100AF000F9271F92CF938CE5C82E8FE8D82E82E875
:100B0000E82E8FE3F82E00E010E02CE534E440E01E
:100B100050E06AEF74E486E293E00E94691D86E289
:100B200093E00E943A1D64EF71E080E090E00E9443
:100B3000F9270F900F900F900F90ADCFCF911F918D
:100B40000F91FF90EF90DF90CF90BF90AF909F906C
:100B50008F9008954F925F926F927F928F929F92A3
:100B6000AF92BF92CF92DF92EF92FF920F931F93BB
:100B7000CF93DF93CDB7DEB728970FB6F894DEBFDB
:100B80000FBECDBF88E0ECE0F1E0DE0111960190F0
:100B90000D928A95E1F780912103811109C0AE0180
:100BA0004F5F5F4F60E273E086E293E00E94B7130D
:100BB00034E0632E712C4AE0542E442443948091F7
:100BC00021038823A1F0809121038111C1C021E07C
:100BD00043E150E060E070E086E293E00E94351D62
:100BE00069E070E086E293E00E94FB1DB1C020E066
:100BF00030E041E050E060E070E086E293E00E9487
:100C0000251D1F925F929AE0892E912CA12CB12C68
:100C100028EBC22E2EE1D22E25E8E22E2FE3F22E73
:100C200000E010E028E433E440E050E068EC72E4D7
:100C300086E293E00E94691D809121030F900F903E
:100C40008111C1CF21E030E041E050E060E070E090
:100C500086E293E00E94251D1F925F9200E010E063
:100C600026E933E440E050E068E473E486E293E090
:100C70000E94691D809121030F900F908111A3CFD5
:100C800022E030E041E050E060E070E086E293E096
:100C90000E94251D1F925F9200E010E02AEF33E4CE
:100CA00040E050E066E973E486E293E00E94691D4B
:100CB00064EF71E080E090E00E94F92780912103C9
:100CC0000F900F9081117FCF21E030E041E050E0A4
:100CD00060E070E086E293E00E94251D1F924F9233
:100CE00000E010E02AE733E440E050E068EC73E411
:100CF00086E293E00E94691D809121030F900F907E
:100D0000811161CF20E030E041E050E060E070E030
:100D100086E293E00E94251D1F924F9200E010E0B2
:100D200028EC32E440E050E06AE773E486E293E0C6
:100D30000E94691D64EF71E080E090E00E94F92755
:100D400081E0681A71080F900F9009F038CF3BCFFF
:100D500086E293E00E940F1680912103811109C061
:100D600021E04BE050E060E070E086E293E00E941A
:100D7000351D28960FB6F894DEBF0FBECDBFDF91AC
:100D8000CF911F910F91FF90EF90DF90CF90BF9088
:100D9000AF909F908F907F906F905F904F9008954D
:100DA000CF93DF9382E094E00E94ED112CE04DE0C0
:100DB0006BE086E293E00E94A9118DE293E00E942D
:100DC000CB10CEE2D3E0CE010E94930F188A1F868B
:100DD000A99683E0C23DD807B1F782ED93E0DF9199
:100DE000CF910C9426110F931F93CF93DF9381EA39
:100DF00096E00E94A029181619063CF4809122035F
:100E000090912303049709F0A6C1809121038823C0
:100E100041F186E293E00E940F1664E670E080E004
:100E200090E00E94F92762E070E086E293E00E9481
:100E3000FB1D68EC70E080E090E00E94F927809153
:100E40002003882309F49DC180911F03811199C15A
:100E500081E090E0909323038093220363E070E0AD
:100E6000D8C100912203109123030230110509F427
:100E700087C03CF40115110569F00130110559F1E5
:100E800063C10330110509F4ECC00430110509F405
:100E900046C15AC10E94CA2700911B0310911C032E
:100EA00020911D0330911E03601B710B820B930B6D
:100EB000603878438140910508F43AC20E94AA053F
:100EC0000E94CA2760931B0370931C0380931D0329
:100ED00090931E032DC225E130E040E050E065E034
:100EE00070E080E090E00E94903070931A0360936D
:100EF00019036F5071096430710538F410931803A9
:100F00000093170380E496E010C026E030E040E054
:100F100050E063E070E080E090E00E9490307093D9
:100F200018036093170388EE93E090930901809370
:100F3000080125E130E040E050E06AE070E080E048
:100F400090E00E949030AB01BC0121E086E293E08A
:100F50000E94351DC0E0D0E08091170390911803E6
:100F6000C817D9070CF0E4C18091190390911A03B6
:100F70000E944304809121038111DAC12196ECCFB4
:100F80000E94330480911603882309F45DC0809188
:100F90002103811119C021E04EE050E060E070E0D3
:100FA00086E293E00E94351D66E070E086E293E001
:100FB0000E94FB1D24EF31E040E050E060EA70E465
:100FC00086E293E00E9432198091210381110FC0C3
:100FD00021E044E150E060E070E086E293E00E94AE
:100FE000351D69E070E086E293E00E94FB1DC3E0DE
:100FF000D0E080912103882399F064E670E080E0DE
:1010000090E00E94F9270E94330464E670E080E0DB
:1010100090E00E94F92780911603811189C10FC0C9
:101020000FEF1FEF24E135E040E050E060E87FE3A0
:1010300086E293E00E9432162197D9F6DECF8091A6
:101040002103811175C1EAC001E010E028EE33E010
:1010500040E050E060E87FE386E293E00E943216D1
:1010600067C186E293E00E94151C843E92400CF416
:101070005FC162E370E080E090E00E94F927809118
:10108000210381113BC021E04EE050E060E070E0C0
:1010900086E293E00E94351D67E070E086E293E00F
:1010A0000E94FB1D80912103811142C125E130E0A6
:1010B00040E050E06AE070E080E090E00E94903014
:1010C000AB01BC0121E086E293E00E94351D24E1E2
:1010D00030E040E050E061E070E080E090E00E94AD
:1010E0009030CB010E94430486E293E00E940F16E9
:1010F00068EC70E080E090E00E94F9278091210385
:10110000811116C121E04BE050E060E070E086E222
:1011100093E0DF91CF911F910F910C94351D82E0E8
:1011200094E00E943A128091060190910701892B68
:1011300009F0FEC08091240390912503DF91CF91A7
:101140001F910F910C94430484E090E0909323034B
:1011500080932203EDC084E090E09093230380937A
:10116000220321E04BE050E060E070E086E293E093
:101170000E94351D86E00E94320287E00E94320202
:1011800044CE8091200381110DC080911F038823DC
:1011900049F082E090E0909323038093220364E07F
:1011A00070E037C080912003882321F080911F03D5
:1011B000811127C04091220350912303662757FDD8
:1011C0006095762F21E086E293E00E94351DC8EC01
:1011D000D0E06AE070E080E090E00E94F92721977B
:1011E000C1F721E04BE050E060E070E086E293E080
:1011F0000E94351D109221031092200310921F03AC
:1012000097C083E090E0909323038093220365E0EE
:1012100070E086E293E00E94FB1DCCCF21E04AE023
:1012200050E060E070E086E293E00E94351D62E3EA
:1012300070E080E090E00E94F9270E9433048091E2
:101240001603811175C080912103811171C001E0E5
:1012500010E028EE33E040E050E060E87FE386E213
:1012600093E00E94A21662E370E080E090E00E94AA
:10127000F9270E94330480911603811159C080918F
:101280002103811155C001E010E028EE33E040E079
:1012900050E060E87FE386E293E00E94A21662E3FA
:1012A00070E080E090E00E94F9270E943304809172
:1012B000160381113DC080912103811139C001E0E5
:1012C00010E028EE33E040E050E060E87FE386E2A3
:1012D00093E00E94A21662E370E080E090E00E943A
:1012E000F9270E94330480911603811121C0809157
:1012F000210381111DC086E293E00E940F1621E0B8
:101300004BE050E060E070E086E293E00E94351D23
:101310006DE070E086E293E00E94FB1D68EC70E0F7
:1013200080E090E0DF91CF911F910F910C94F9270D
:10133000DF91CF911F910F910895CF92DF92EF929D
:10134000FF920F931F93CF93DF93CDB7DEB72B9709
:101350000FB6F894DEBF0FBECDBF19821A821B8272
:101360001C82FE01359687E0DF011D928A95E9F720
:101370008E010F5F1F4F55E0E52EF12C6801C7016C
:101380000E945837F80181938F01FFEFEF1AFF0A8F
:1013900080E1E816F10499F76AE371E081EA96E0EA
:1013A0000E94D82B67E371E081EA96E00E94D82B77
:1013B000B60181EA96E00E94FD2B64E371E081EAC8
:1013C00096E00E941A2C81EA96E00E94FC292B9656
:1013D0000FB6F894DEBF0FBECDBFDF91CF911F9146
:1013E0000F91FF90EF90DF90CF900895CF92DF9212
:1013F000EF92FF9286E293E00E94111C6B017C0148
:1014000061E371E081EA96E00E94D82B6EE271E020
:1014100081EA96E00E94D82BC701B6010E94F732FC
:101420004AE050E081EA96E00E94CF2C6BE271E046
:1014300081EA96E00E941A2C81EA96E0FF90EF90F4
:10144000DF90CF900C94FC29CF93DF9386E293E05A
:101450000E94151CEC0168E271E081EA96E00E94AE
:10146000D82B65E271E081EA96E00E94D82B4AE031
:1014700050E0BE0181EA96E00E94CF2C62E271E06A
:1014800081EA96E00E941A2C81EA96E0DF91CF91E2
:101490000C94FC29CF92DF92EF92FF9286E293E0C8
:1014A0000E943D1C6B017C016FE171E081EA96E0D6
:1014B0000E94D82B6CE171E081EA96E00E94D82B63
:1014C00022E030E0B701A60181EA96E00E94C22D39
:1014D00069E171E081EA96E00E941A2C81EA96E0C7
:1014E000FF90EF90DF90CF900C94FC2966E171E0C3
:1014F00081EA96E00E94D82B63E171E081EA96E0F0
:101500000E94D82B6BEE72E081EA96E00E94FD2BE0
:1015100060E171E081EA96E00E941A2C81EA96E08F
:101520000C94FC298F929F92AF92BF92CF92DF9240
:10153000EF92FF920F931F93CF93DF931F92CDB73C
:10154000DEB726E040E052EC61E070E081EA96E030
:101550000E94832A60E086E00E94AC2860E087E079
:101560000E94AC281F9289E08F9378E0872E912CFF
:10157000EAE0AE2EB12CF4E1CF2ED12CEE24E39490
:1015800005E010E024E030E043E050E062E070E08D
:1015900086E293E00E94FB1284E10E9466280E948A
:1015A000643043E062E071E086E00E94600143E065
:1015B00065E171E087E00E94600140E45CE060ED7D
:1015C00072E082E094E00E9402124CE45CE062ED82
:1015D00072E082E094E00E94021240E85CE064ED78
:1015E00072E082E094E00E94021249E25EE066ED61
:1015F00072E082E094E00E94021245E85EE068ED4D
:1016000072E082E094E00E9402124DE45DE06AED37
:1016100072E082E094E00E94021242EB5DE06CED29
:1016200072E082E094E00E94021241EE5CE06EED16
:1016300072E082E094E00E9402124DE959E060EE0F
:1016400072E082E094E00E94021246EF59E062EEFE
:1016500072E082E094E00E94021244E25AE064EEFA
:1016600072E082E094E00E9402124AE45AE066EEE0
:1016700072E082E094E00E94021246E75AE068EECF
:1016800072E082E094E00E94021260E47CE082E07A
:1016900094E00E94341260E070E086E293E00E94E1
:1016A000FB1D86E293E00E940F1685E090E00E9409
:1016B00058370F900F908432F1F46AEE72E085E0B3
:1016C00090E00E9448011982BE016F5F7F4F86E063
:1016D00090E00E94480121E04DE150E060E070E0C0
:1016E00086E293E00E94351D68EE73E080E090E0B2
:1016F0000E94F927F9CF0E949D090E94760A0E9454
:101700004A0A0E94330562E0E62EF12C00E010E068
:1017100080912103882329F081E0E81AF108A9F0DB
:10172000F5CF980140E050E0BA0186E293E00E94D4
:10173000251D66E970E080E090E00E94F9270F5FC8
:101740001F4F0830110521F7E7CF80912103811148
:1017500015C021E04AE050E060E070E086E293E0EE
:101760000E94351D6BE070E086E293E00E94FB1D55
:1017700068EC70E080E090E00E94F92785E090E05E
:101780000E9458378332E9F580912103811110C0FE
:101790002CEB32E040E050E060E87FE386E293E04B
:1017A0000E94321968EC70E080E090E00E94F92716
:1017B0008091210381110CC04091080150910901D1
:1017C00021E030E061E070E086E293E00E941D1AC3
:1017D00080912103811115C021E04FE050E060E0CD
:1017E00070E086E293E00E94351D04E110E020E203
:1017F00033E040E050E060E070E486E293E00E9475
:10180000FA178091210381110DC086E293E00E94B6
:101810000F1621E04BE050E060E070E086E293E0DC
:101820000E94351D0E94CA2760931B0370931C03FE
:1018300080931D0390931E030F90DF91CF911F9112
:101840000F91FF90EF90DF90CF90BF90AF909F905F
:101850008F9008956DE071E081EA96E00E94D82BA8
:101860006BE071E081EA96E00E94D82B68E071E0BD
:1018700081EA96E00E941A2C81EA96E00C94FC29F9
:101880000E942A0C81E090E090930701809306016A
:1018900086E293E00C940F16CF93DF9300D0CDB780
:1018A000DEB70E94400C82E094E00E94F81100979D
:1018B00079F042E050E0BE016F5F7F4F0E94CA3571
:1018C000AB01BC0121E086E293E00E94351D13C00C
:1018D00021E04AE150E060E070E086E293E00E949F
:1018E000351D60ED77E080E090E00E94F92786E208
:1018F00093E00E943A1D0F900F90DF91CF910895D1
:101900008F929F92AF92BF92EF92FF920F931F938D
:10191000CF93DF930E94400C82E094E00E94F81184
:10192000009729F00E94DE36EC0110E001C011E0C2
:1019300082E094E00E94F811009721F00E94DE36C8
:101940001123E9F021E04AE150E060E070E086E236
:1019500093E00E94351D60ED77E080E090E00E940A
:10196000F92786E293E0DF91CF911F910F91FF90CD
:10197000EF90BF90AF909F908F900C943A1D4C01C8
:10198000AA2497FCA094BA2CBE01882777FD8095E5
:10199000982F0E942A33AB01BC01EE24E394F12C72
:1019A0009501840186E293E00E943C1DDF91CF9176
:1019B0001F910F91FF90EF90BF90AF909F908F90ED
:1019C0000895CF92DF92EF92FF920F931F93CF93E0
:1019D000DF93CDB7DEB72D970FB6F894DEBF0FBEFD
:1019E000CDBF0E94400C19821A821B821C82FE010C
:1019F000359687E0DF011D928A95E9F782E094E051
:101A00000E94F811009739F1DC01FE0131969E2FFA
:101A10002F2F6E018CE0C80ED11C8D91811106C054
:101A2000092F122FB5E0EB2EF12C05C0EC15FD05AA
:101A3000B9F38193F2CFD8016D918D01FD86EC86CB
:101A4000C6010E942801BFEFEB1AFB0AE0E1EE1687
:101A5000F10489F713C021E04AE150E060E070E052
:101A600086E293E00E94351D60ED77E080E090E033
:101A70000E94F92786E293E00E943A1D2D960FB648
:101A8000F894DEBF0FBECDBFDF91CF911F910F91B4
:101A9000FF90EF90DF90CF900895CF92DF92EF927A
:101AA000FF920F931F93CF93DF930E942A0C82E043
:101AB00094E00E94F811009729F00E94DE36EC01B4
:101AC00010E001C011E082E094E00E94F81100975C
:101AD00021F00E94DE367C0101C011E082E094E03A
:101AE0000E94F811009721F00E94DE366C0101C0BF
:101AF00011E082E094E00E94F811009721F00E942A
:101B0000DE361123D9F021E04AE150E060E070E0D8
:101B100086E293E00E94351D60ED77E080E090E082
:101B20000E94F92786E293E0DF91CF911F910F91F8
:101B3000FF90EF90DF90CF900C943A1D8C019601AE
:101B4000A701BE0186E293E00E94861386E293E03D
:101B5000DF91CF911F910F91FF90EF90DF90CF9089
:101B60000C949813BF92CF92DF92EF92FF920F9353
:101B70001F93CF93DF93CDB7DEB728970FB6F894B6
:101B8000DEBF0FBECDBF0E942A0C82E094E00E940F
:101B9000F811009729F00E94DE366C01B12C02C0CA
:101BA000BB24B39482E094E00E94F811009721F0E6
:101BB0000E94DE367C0102C0BB24B39482E094E034
:101BC0000E94F811009721F00E94DE368C0102C0BD
:101BD000BB24B39482E094E00E94F811009721F0B6
:101BE0000E94DE36BB20A1F021E04AE150E060E037
:101BF00070E086E293E00E94351D60ED77E080E0C2
:101C000090E00E94F92786E293E00E943A1D11C0FD
:101C1000DA82C982FC82EB821E830D8398878F83D0
:101C2000AE014F5F5F4F68EC70E086E293E00E9488
:101C3000B71328960FB6F894DEBF0FBECDBFDF9165
:101C4000CF911F910F91FF90EF90DF90CF90BF90B9
:101C500008950E942A0C82E094E00E94F8110097F7
:101C600039F00E94DE36909325038093240317C039
:101C700021E04AE150E060E070E086E293E00E94FB
:101C8000351D60ED77E080E090E00E94F92786E264
:101C900093E00E943A1D109225031092240382E0E3
:101CA00094E00E94F811009719F00E94DE3615C0EA
:101CB00021E04AE150E060E070E086E293E00E94BB
:101CC000351D60ED77E080E090E00E94F92786E224
:101CD00093E00E943A1D88EE93E09093090180936F
:101CE000080182E094E00E94F811009719F00E9428
:101CF000DE3602C08EE190E09093050180930401EE
:101D0000109207011092060108950E942A0C82E0A9
:101D100094E00E94F811009761F00E94DE3601976E
:101D20008D30910508F042C0885B9F4FFC010C94F8
:101D30004D3521E04AE150E060E070E086E293E05A
:101D40000E94351D60ED77E080E090E00E94F92769
:101D500086E293E00C943A1D60E070E023C061E0FD
:101D600070E020C062E070E01DC063E070E01AC067
:101D700064E070E017C065E070E014C066E070E0F9
:101D800011C067E070E00EC068E070E00BC069E071
:101D900070E008C06AE070E005C06BE070E002C06F
:101DA0006CE070E086E293E00C94632108951F924A
:101DB0000F920FB60F9211242F933F934F935F937F
:101DC0006F937F938F939F93AF93BF93EF93FF9303
:101DD0008091730687FF05C01092850010928400E1
:101DE0001AC020917306332727FD30958091720623
:101DF00090E0281739077CF480917306992787FDB6
:101E00009095FC01EE0FFF1FE80FF91FEC58F94FFA
:101E1000808186FD15C0809173068F5F8093730665
:101E200020917306332727FD30958091720690E04C
:101E300028173907BCF4809173068C305CF112C00E
:101E400080917306992787FD9095FC01EE0FFF1F87
:101E5000E80FF91FEC58F94F808160E08F730E9402
:101E6000E528D9CF80918400909185000496803434
:101E70009C4918F480E49CE905C08091840090910D
:101E80008500049690938900809388008FEF80935B
:101E9000730638C0209184003091850080917306CC
:101EA000992787FD9095FC01EE0FFF1FE80FF91FA2
:101EB000EC58F94F81819281820F931F9093890092
:101EC0008093880080917306992787FD9095FC0187
:101ED000EE0FFF1FE80FF91FEC58F94F808186FFC6
:101EE00011C080917306992787FD9095FC01EE0F34
:101EF000FF1FE80FF91FEC58F94F808161E08F73E5
:101F00000E94E528FF91EF91BF91AF919F918F9132
:101F10007F916F915F914F913F912F910F900FBEE5
:101F20000F901F901895209172062C30A0F431E08C
:101F3000320F30937206FC012083822F90E0FC0167
:101F4000EE0FFF1FE80FF91FEC58F94F88EB9BE0ED
:101F50009283818308952FEFFC0120830895DF92FF
:101F6000EF92FF920F931F93CF93DF93EC01D62E46
:101F70007A01890188818C3008F066C061E08D2D7E
:101F80000E94AC288881A82FB0E0FD01EE0FFF1F52
:101F9000EA0FFB1FEC58F94F2D2D2F739081907C89
:101FA000922B908360E272E06E197F0977FF02C086
:101FB0006D5F7F4F7595679575956795698340E669
:101FC00059E0401B510B57FF02C04D5F5F4F5595C5
:101FD0004795559547954A836CE00E94D8349CE01C
:101FE000899FB001112420E030E0A901460F571F5E
:101FF000FA01EE0FFF1FE40FF51FEC58F94F908127
:1020000096FD16C02F5F3F4F2C30310571F78111BF
:102010000FC01092800082E08093810010928500B2
:1020200010928400B19A80916F00826080936F005B
:10203000888190E0FC01EE0FFF1FE80FF91FEC58BC
:10204000F94F8081806480838881DF91CF911F91D7
:102050000F91FF90EF90DF90089520E639E040E285
:1020600052E00C94AF0FFC0180818C3070F59181AF
:1020700028E830E0291B310997FD3395220F331FE3
:10208000220F331F621773077CF0928128E532E03C
:10209000291B310997FD3395220F331F220F331F60
:1020A000621773070CF49B0122503109220F331F72
:1020B0004FB7F89490E0FC01EE0FFF1FE80FF91FF7
:1020C000EC58F94F328321834FBF08954F925F92AE
:1020D0006F927F92AF92BF92CF92DF92EF92FF9278
:1020E0000F931F93CF93DF93EC01603282E0780768
:1020F0000CF040C077FD06C0653B71052CF064EB29
:1021000070E002C060E070E0898128E830E0281BC0
:10211000310987FD3395220F331F220F331F5901D9
:10212000CC24B7FCC094DC2C882777FD8095982FB1
:102130002A8148E552E0421B510927FD5395440F7F
:10214000551F440F551F2A01662457FC6094762CB6
:102150007F926F925F924F9214EBE12EF12C00E090
:1021600010E020E030E0A9010E94AC300F900F9009
:102170000F900F90CE01DF91CF911F910F91FF90A3
:10218000EF90DF90CF90BF90AF907F906F905F9077
:102190004F900C94331008950F931F93CF93DF93B8
:1021A00085E10E94662825E0AC01249FC001259F9F
:1021B000900D1124BC01882777FD8095982F0E94EF
:1021C0002A3320E030E040E85AE30E94DE338B01FE
:1021D000D82FC92F26E636E646E850E40E94DA33C7
:1021E000181624F406E616E6D6E8C0E4B8018D2FEA
:1021F0009C2FDF91CF911F910F9108950F931F9303
:10220000CF93DF930E94CC102FEB36E842ED52E4DF
:102210000E94DE332CE73DE04BEA53E40E94263275
:102220008B01D82FC92F20E030E0A9010E948B320A
:1022300087FF04C000E010E0D0E0C0E0B8018D2FBF
:102240009C2FDF91CF911F910F9108950895CF9307
:10225000DF93EC01862F688379835B834A8361E097
:102260000E94AC2860E08A81DF91CF910C94AC2869
:10227000CF93DF93EC0160E088810E94E52882E043
:1022800090E00E94212861E088810E94E5288AE090
:1022900090E00E94212860E088810E94E52820E4E7
:1022A0003CE940E050E061E08A81DF91CF910C94FD
:1022B0001B290E9438112AE330E040E050E00E94E0
:1022C0002E35211531054105510521F427EE33E066
:1022D00040E050E0CA01B9010E942A3308950F93EB
:1022E0001F93CF93DF93EC0100E010E04881598108
:1022F0006A817B81002E04C0769567955795479536
:102300000A94D2F7642F61708C810E94E528000046
:102310000000000061E08D810E94E52800000000BF
:10232000000060E08D810E94E5280F5F1F4F0E3195
:102330001105E1F661E08E810E94E52800000000B1
:10234000000060E08E81DF91CF911F910F910C947E
:10235000E528CF93DF93EC01862F188219821A8229
:102360001B826C834D832E8361E00E94AC2861E068
:102370008D810E94AC2861E08E810E94AC2860E0D3
:102380008C810E94E52860E08D810E94E52860E054
:102390008E810E94E528CE01DF91CF910C946F11C0
:1023A000FC0140835183628373830C946F11FC01A1
:1023B00010821182128213820C946F1121E030E09E
:1023C000FC01E20FF31F10822F5F3F4F24323105D3
:1023D000B9F7FC0115A214A2089520E230E0FC0137
:1023E00037A326A32DE020A716A615A60C94DE1170
:1023F000AC01455D5F4FBC016A5D7F4F80E090E0BE
:102400000C942937FF920F931F93CF93DF93EC0126
:102410008A012DA53EA52E30310504F585E2F82E62
:10242000F29EC001F39E900D11248F9643E250E07E
:102430008C0F9D1F0E941A372DA53EA5F29EC0014C
:10244000F39E900D11248C0F9D1FFC01EE5AFF4F3F
:10245000118300832F5F3F4F3EA72DA7DF91CF91C0
:102460001F910F91FF9008958B5C9D4FFC0171832C
:10247000608308952F923F924F925F926F927F9266
:102480008F929F92AF92BF92CF92DF92EF92FF9284
:102490000F931F93CF93DF9300D000D0CDB7DEB75B
:1024A0009C838B831C012BE2220E311C2C0136E213
:1024B000430E511C6C018FEFC81AD80AAB80BC8048
:1024C0009FE2A90EB11C2B813C812B5C3D4F3A83CE
:1024D000298381EA96E00E94A029181619060CF0BB
:1024E00073C081EA96E00E94B929AB81BC818C93CC
:1024F00098969C919897891341C095961C921E922C
:102500009497A101B201C6010E9429373C01EB81D9
:10251000FC8192A781A7009709F456C085A496A4D0
:10252000750100E010E008151905FCF443E250E0E5
:10253000B701C3010E940C37F5E2EF0EF11C892BA5
:1025400089F425E2209FC001219F900D11242B8149
:102550003C81820F931FFC01EE5AFF4F0190F081E6
:10256000E02D07C00F5F1F4FDECFA981BA81ED912B
:10257000FC9109958B819C810E94DE11AB81BC810D
:102580001C91812F992787FD90950E94FE36892BFB
:1025900009F49FCFEB81FC8124A135A1C9010196EB
:1025A00095A384A3E20FF31F1183EB81FC81E80F55
:1025B000F91F118283970CF48CCFAB81BC81959667
:1025C0001C921E92949785CF0F900F900F900F90B2
:1025D000DF91CF911F910F91FF90EF90DF90CF90FF
:1025E000BF90AF909F908F907F906F905F904F9033
:1025F0003F902F9008952F923F924F925F926F924B
:102600007F928F929F92AF92BF92CF92DF92EF9282
:10261000FF920F931F93CF93DF931F92CDB7DEB737
:102620003C012A011901FC2CD982CE88DF8840E0C8
:1026300008960E94253140E0B201C301C1960E9474
:10264000253140E0B101C301865A9F4F0E942531D8
:1026500040E0B801C3018D579F4F0E942531E11022
:102660003BC0F301E854FF4F8AE590E091838083FB
:1026700032969183808332969183808332969183C0
:102680008083A601B401C30184559F4F0E94271186
:10269000F301E054FF4FA082B1823296F08289812B
:1026A000818361E08A2D0E94AC2860E08F2D0F901D
:1026B000DF91CF911F910F91FF90EF90DF90CF901E
:1026C000BF90AF909F908F907F906F905F904F9052
:1026D0003F902F900C94AC28412C512C00E010E03E
:1026E000C8010E94583790E0813891050CF09A9506
:1026F000F301E40DF51D908F878B0F5F1F4F89E26B
:10270000480E511C0430110559F7ABCF0F931F939E
:10271000FC01708F678BE05CFF4F51834083B9965B
:1027200031832083B996118300831F910F910895FF
:10273000EF92FF920F931F93CF93DF937C0100E002
:1027400010E0C0E0D0E0F701E00FF11F6789CE0193
:102750000E9460372196075D1F4FC430D10599F75D
:10276000DF91CF911F910F91FF90EF9008952F92DD
:102770003F924F925F926F927F928F929F92AF9211
:10278000BF92CF92DF92EF92FF920F931F93CF935E
:10279000DF93CDB7DEB72A970FB6F894DEBF0FBE32
:1027A000CDBF1C0149835A836B3071050CF4CEC038
:1027B0006B01EE24D7FCE094FE2CC701B6010E9409
:1027C0002A3320E030E040E251E40E948F322B01B6
:1027D0003C0129812B833A813C83510100E010E0C8
:1027E000AB81BC818D919D91BC83AB834501BCECD9
:1027F0008B0E911CF101E00FF11FE854FF4F208177
:102800003181821B930BBC01882777FD8095982F1F
:102810000E942A33A30192010E948F32F401608347
:102820007183828393830E5F1F4FF4E0AF0EB11C60
:1028300008301105A9F60E94CA2791012C533F4F79
:102840003C832B836C0D7D1D8E1D9F1DD9016D93C7
:102850007D938D939C93139744244394512CF101C1
:10286000E853FF4FFE83ED832C5B310938872F83BC
:102870000E94CA27EB81FC81008111812281338172
:10288000601771078207930708F076C00E94CA2775
:10289000665F7F4F8F4F9F4FAD81BE816D937D935C
:1028A0008D939C9313976F80788481011A86198683
:1028B0004201AA2497FCA094BA2CE985FA85E20D7E
:1028C000F31DE854FF4F80819181BC01882777FD7B
:1028D0008095982F0E942A336B017C01C501B401B9
:1028E0000E942A33F801E453FF4F20813181428155
:1028F00053810E94DE339B01AC01C701B6010E94E7
:1029000027320E94F732C3010E948E31E985FA8591
:102910003296FA87E9870C5F1F4FF9E26F0E711C40
:1029200029853A852830310541F60E94CA27AD81B4
:10293000BE810D911D912D913C9160177107820709
:10294000930798F3BFEF4B1A5B0A92CFC980DA80E6
:1029500000E010E07C01F8E0EF0EF11CD6016D9173
:102960007D916D01C701800F911F0E948E31075D1F
:102970001F4F043A110591F7E981FA8180E090E058
:1029800021913191D101A80FB91FA854BF4F2D93A8
:102990003C9302968830910599F72A960FB6F894E1
:1029A000DEBF0FBECDBFDF91CF911F910F91FF9082
:1029B000EF90DF90CF90BF90AF909F908F907F90DF
:1029C0006F905F904F903F902F9008952F923F927D
:1029D0004F925F926F927F928F929F92AF92BF922F
:1029E000CF92DF92EF92FF920F931F93CF93DF93DB
:1029F00000D000D0CDB7DEB75C01CA012901A70124
:102A000096013C014B01650188E0C80ED11C78019C
:102A100004E010E03C2C2D2CF301819191913F01B9
:102A2000F60196838583F401819191914F01F6011E
:102A300094838383B201C60129833A834B835C83E9
:102A40000E946D31F70181919191A191B1917F0126
:102A5000F60181879287A387B48701501109F9E2B3
:102A6000CF0ED11C29813A814B815C810115110562
:102A700099F60E94CA270E9428336B017C01B2019B
:102A8000882777FD8095982F0E942A3329813A81E3
:102A90004B815C810E94DE33A70196010E942732A0
:102AA0002B013C0185010F5C1F4F45018AE5880E13
:102AB000911CE3E8AE0EB11CA3019201C701B6015F
:102AC0000E948B321816A4F0832D922D0E9495310E
:102AD000C8010E949531C4010E949531C5010E9430
:102AE00095310E94CA270E9428336B017C01E4CFF4
:102AF0000F900F900F900F90DF91CF911F910F913A
:102B0000FF90EF90DF90CF90BF90AF909F908F900D
:102B10007F906F905F904F903F902F9008952F92ED
:102B20003F924F925F926F927F928F929F92AF925D
:102B3000BF92CF92DF92EF92FF920F931F93CF93AA
:102B4000DF93CDB7DEB72C970FB6F894DEBF0FBE7C
:102B5000CDBF9A8389837C836B835E834D83190108
:102B6000480126013701C701B6010E94F7326F8381
:102B7000788789879A87AF80B8841A141B04A4F1D8
:102B80002F813885B901882777FD8095982F0E947D
:102B90002A339B01AC01C301B2010E9426326B01B2
:102BA0007C01840191014D815E816B817C818981F1
:102BB0009A810E94E6142C960FB6F894DEBF0FBEE1
:102BC000CDBFDF91CF911F910F91FF90EF90DF90DC
:102BD000CF90BF90AF909F908F907F906F905F90BD
:102BE0004F903F902F9008951C861B86C12CD12CAE
:102BF00090E8E92E9FE3F92E840191014D815E81D9
:102C00006B817C8189819A810E94E6148B859C85E9
:102C100001969C878B878A159B0541F7B1CFCF938F
:102C2000DF93CDB7DEB728970FB6F894DEBF0FBE9F
:102C3000CDBF28E0E4E1F1E0DE01119601900D92B4
:102C40002A95E1F7AE014F5F5F4F64EF71E00E949C
:102C5000B71328960FB6F894DEBF0FBECDBFDF9135
:102C6000CF9108958F929F92AF92BF92CF92DF92B1
:102C7000EF92FF920F931F93CF93DF93CDB7DEB701
:102C8000A0970FB6F894DEBF0FBECDBF5C016A01FE
:102C90007B014901980188E0ECE1F1E0DE01599601
:102CA00001900D928A95E1F788E0E4E2F1E0DE011F
:102CB000519601900D928A95E1F78E010F5F1F4F9B
:102CC00080E1F80111928A95E9F746EA4203B001E2
:102CD000439F700D1124882777FD8095982F0E94BF
:102CE0002A332BED3FE049E450E40E94DE3320E03C
:102CF00030E044E353E40E948F3269877A878B8700
:102D00009C876D877E878F87988B9401AE014F5E7D
:102D10005F4FBE01675E7F4FC5010E948F15A09671
:102D20000FB6F894DEBF0FBECDBFDF91CF911F91DC
:102D30000F91FF90EF90DF90CF90BF90AF909F905A
:102D40008F900895CF92DF92EF92FF920F931F938F
:102D5000CF93DF93CDB7DEB7A0970FB6F894DEBF61
:102D60000FBECDBFE8E0FE2EECE1F1E0DE015996AA
:102D700001900D92FA94E1F7F8E0FF2EE4E2F1E021
:102D8000DE01519601900D92FA94E1F7A0E1FA2E3E
:102D9000ECE2F1E0DE01119601900D92FA94E1F778
:102DA0000130110539F4EEE1F0E0FA8FE98FEAE045
:102DB000F0E006C0EAE0F0E0FA8FE98FEEE1F0E043
:102DC000FC8FEB8F6A017B018E010F5F1F4FAE01FD
:102DD0004F5E5F4FBE01675E7F4F0E948F15A096CA
:102DE0000FB6F894DEBF0FBECDBFDF91CF911F911C
:102DF0000F91FF90EF90DF90CF900895CF92DF92E8
:102E0000EF92FF920F931F93CF93DF93CDB7DEB76F
:102E1000A0970FB6F894DEBF0FBECDBF6A017B014D
:102E2000E8E0BE01675E7F4FDB014E2F1D924A95A1
:102E3000E9F71E8F0D8F18A30F8FAE014F5E5F4F06
:102E4000DA011D92EA95E9F71E8B0D8B119501951C
:102E50001109188F0F8B10E1ECE3F1E0DE01119600
:102E600001900D921A95E1F78E010F5F1F4F0E949E
:102E70008F15A0960FB6F894DEBF0FBECDBFDF91C1
:102E8000CF911F910F91FF90EF90DF90CF90089519
:102E90002F923F924F925F926F927F928F929F926A
:102EA000AF92BF92CF92DF92EF92FF920F931F9358
:102EB000CF93DF93CDB7DEB7A2970FB6F894DEBFFE
:102EC0000FBECDBF4C011A012B01390188E09E01D4
:102ED000275E3F4F3AA329A3F901282F11922A9583
:102EE000E9F71E8F0D8F18A30F8F5E0131E1A30E3E
:102EF000B11CF50111928A95E9F7C80117FD0196F9
:102F00009595879502969E8B8D8B17FF02C00F5F5C
:102F10001F4F15950795119501951109025011093B
:102F2000188F0F8B26EAA70124036001259FD00C80
:102F300011248E010F5F1F4F80E1F80111928A95D5
:102F4000E9F7B601882777FD8095982F0E942A33EC
:102F50002BED3FE049E450E40E94DE3320E030E016
:102F600044E353E40E948F3269877A878B879C877A
:102F700024ECA7012403B001259F700D11246C0DD2
:102F80007D1D882777FD8095982F0E942A332BED91
:102F90003FE049E450E40E94DE3320E030E044E3C7
:102FA00053E40E948F326D877E878F87988B7201E2
:102FB00061019301A501BE01675E7F4FC4010E94BC
:102FC0008F15A2960FB6F894DEBF0FBECDBFDF916E
:102FD000CF911F910F91FF90EF90DF90CF90BF9016
:102FE000AF909F908F907F906F905F904F903F90A9
:102FF0002F900895CF92DF92EF92FF920F931F933D
:10300000CF93DF93CDB7DEB7A0970FB6F894DEBFAE
:103010000FBECDBF6A017B01E8E0BE01675E7F4F56
:10302000DB014E2F1D924A95E9F71E8F0D8F18A3D5
:103030000F8FAE014F5E5F4FDA011D92EA95E9F7FF
:10304000F80117FD3196F595E795FE8BED8B17FF8F
:1030500002C00F5F1F4F1595079511950195110936
:10306000188F0F8B8E010F5F1F4FE0E1D8011D926B
:10307000EA95E9F70E948F15A0960FB6F894DEBF87
:103080000FBECDBFDF91CF911F910F91FF90EF90B9
:10309000DF90CF900895CF92DF92EF92FF920F933F
:1030A0001F93CF93DF93CDB7DEB7A0970FB6F894F9
:1030B000DEBF0FBECDBF6A017B01E8E0BE01675EE7
:1030C0007F4FDB014E2F1D924A95E9F71E8F0D8F22
:1030D00018A30F8FAE014F5E5F4FDA011D92EA9584
:1030E000E9F71E8B0D8B119501951109188F0F8B28
:1030F0008E010F5F1F4FE0E1D8011D92EA95E9F7BD
:103100000E948F15A0960FB6F894DEBF0FBECDBFFC
:10311000DF91CF911F910F91FF90EF90DF90CF90B3
:1031200008952F923F924F925F926F927F928F926B
:103130009F92AF92BF92CF92DF92EF92FF920F9346
:103140001F93CF93DF93CDB7DEB7A0970FB6F89458
:10315000DEBF0FBECDBF4C015A016B01390128E023
:103160002E0149E1440E511CF201422F11924A9561
:10317000E9F789E190E09A8F898F9C8F8B8F1E8F62
:103180000D8F18A30F8F1E0151E1250E311CF10187
:1031900011922A95E9F7C80117FD01969595879533
:1031A00004969E8B8D8B17FF02C00F5F1F4F1595E6
:1031B000079511950195110904501109188F0F8B6E
:1031C0008E010F5F1F4F80E1F80111928A95E9F798
:1031D00080E090E0A4EBB2E489839A83AB83BC8364
:1031E0008D839E83AF83B88724ECA7012403B001AD
:1031F000259F700D1124882777FD8095982F0E94B8
:103200002A332BED3FE049E450E40E94DE3320E016
:1032100030E044E353E40E948F326D877E878F87CE
:10322000988B760165019301A101B201C4010E944E
:103230008F15A0960FB6F894DEBF0FBECDBFDF91FD
:10324000CF911F910F91FF90EF90DF90CF90BF90A3
:10325000AF909F908F907F906F905F904F903F9036
:103260002F900895EF92FF920F931F93CF93DF93C8
:10327000CDB7DEB760970FB6F894DEBF0FBECDBFF7
:103280008C01790188E0ECE4F1E0DE01199601900F
:103290000D928A95E1F7AE01475F5F4FB901C80112
:1032A0000E94B71388E0E4E1F1E0DE01119601909D
:1032B0000D928A95E1F7AE014F5F5F4FB701C801EC
:1032C0000E94B71360960FB6F894DEBF0FBECDBF55
:1032D000DF91CF911F910F91FF90EF9008952F9262
:1032E0003F924F925F926F927F928F929F92AF9296
:1032F000BF92CF92DF92EF92FF920F931F93CF93E3
:10330000DF93CDB7DEB7A0970FB6F894DEBF0FBE40
:10331000CDBF4C015A016B01390128E02E0149E172
:10332000440E511CF201422F11924A95E9F78CE0AC
:1033300090E09A8F898F9C8F8B8F1E8F0D8F18A393
:103340000F8F1E0151E1250E311CF10111922A95BA
:10335000E9F7C8010A979E8B8D8B8AE090E0801B6D
:10336000910B988F8F8B8E010F5F1F4F80E1F801BB
:1033700011928A95E9F78BED9FE0A9E4B0E48D8383
:103380009E83AF83B88726EAA7012403B001259F57
:10339000700D1124882777FD8095982F0E942A337D
:1033A0002BED3FE049E450E40E94DE3320E030E0C2
:1033B00044E353E40E948F3269877A878B879C8726
:1033C0008AE58E9DB0018F9D700D1124882777FDB1
:1033D0008095982F0E942A332BED3FE049E450E47A
:1033E0000E94DE3320E030E044E353E40E948F3259
:1033F0006D877E878F87988B760165019301A10188
:10340000B201C4010E948F15A0960FB6F894DEBFDA
:103410000FBECDBFDF91CF911F910F91FF90EF9025
:10342000DF90CF90BF90AF909F908F907F906F90E4
:103430005F904F903F902F9008958F929F92AF9200
:10344000BF92CF92DF92EF92FF920F931F93CF9391
:10345000DF93CDB7DEB7A0970FB6F894DEBF0FBEEF
:10346000CDBF8C014B0188E0E4E5F1E0DE01599627
:1034700001900D928A95E1F788E0ECE5F1E0DE013C
:10348000519601900D928A95E1F788E0E4E6F1E02B
:10349000DE01199601900D928A95E1F788E0E4E14A
:1034A000F1E0DE01119601900D928A95E1F721304D
:1034B0003105A1F481E990E09E8F8D8F8AE790E03D
:1034C00098A38F8F2CE330E03E8B2D8B988F8F8BC2
:1034D00028E730E03E872D87988B8F876A0188EE3A
:1034E000C81A83E0D80A80E9C81681E0D80624F417
:1034F00040E9C42EDD24D3947601F594E794F59445
:10350000E794A12CB12CA814B904C4F5AE01475E10
:103510005F4F64EF71E0C8010E94B713AE014F5EC8
:103520005F4F64EF71E0C8010E94B713AE01475FBF
:103530005F4FB701C8010E94B713AE014F5E5F4FE6
:10354000B701C8010E94B713AE01475F5F4FB701D3
:10355000C8010E94B713AE014F5E5F4FB701C801AB
:103560000E94B713AE014F5F5F4F64EF71E0C80177
:103570000E94B7138FEFA81AB80AC5CFB6018827E3
:1035800077FD8095982F0E94F927A0960FB6F894A2
:10359000DEBF0FBECDBFDF91CF911F910F91FF9086
:1035A000EF90DF90CF90BF90AF909F908F90089555
:1035B0004F925F926F927F928F929F92AF92BF9243
:1035C000CF92DF92EF92FF920F931F93CF93DF93EF
:1035D000CDB7DEB768970FB6F894DEBF0FBECDBF8C
:1035E0008C016B0188E0E4E5F1E0DE015196019089
:1035F0000D928A95E1F788E0ECE6F1E0DE0119969C
:1036000001900D928A95E1F788E0E4E1F1E0DE01B6
:10361000119601900D928A95E1F7FA01483582E002
:10362000580714F4E8E5F2E02F3F3F4F71F481E9C9
:1036300090E09E8B8D8B8AE790E0988F8F8B2BE4A8
:1036400030E03E872D87988B8F874F019594879424
:1036500095948794CF016AE070E00E94F8345B0192
:103660002F01440C551C4E0E5F1E559447945594E3
:103670004794662457FC6094762CE12CF12CEC14D2
:10368000FD04F4F4AE014F5E5F4FB401C8010E9427
:10369000B713AE01475F5F4FB501C8010E94B71372
:1036A000C301B2010E94F927AE014F5F5F4F64EF83
:1036B00071E0C8010E94B7138FEFE81AF80ADFCF54
:1036C00068960FB6F894DEBF0FBECDBFDF91CF91E5
:1036D0001F910F91FF90EF90DF90CF90BF90AF9030
:1036E0009F908F907F906F905F904F900895CF92B2
:1036F000DF92EF92FF920F931F93CF93DF93CDB79B
:10370000DEB7A0970FB6F894DEBF0FBECDBF6A013B
:103710007B010A31110514F009E110E0E8E0BE0177
:10372000675E7F4FDB014E2F1D924A95E9F71A8F96
:10373000098F1C8F0B8FAE014F5E5F4FDA011D9218
:10374000EA95E9F710E1E4E7F1E0DE011196019076
:103750000D921A95E1F78E010F5F1F4F0E94E6143C
:10376000A0960FB6F894DEBF0FBECDBFDF91CF910C
:103770001F910F91FF90EF90DF90CF900895CF921F
:10378000DF92EF92FF920F931F93CF93DF93CDB70A
:10379000DEB7A0970FB6F894DEBF0FBECDBF6A01AB
:1037A0007B010031110514F00FE010E01A8F098F32
:1037B0001C8F0B8F1E8F0D8F18A30F8FAE014F5EC6
:1037C0005F4F68E0FA0111926A95E9F7B8016C5F02
:1037D0007F4F7E8B6D8B64E070E0601B710B788F88
:1037E0006F8B60E1E4E8F1E0DE01119601900D924B
:1037F0006A95E1F78E010F5F1F4FBE01675E7F4F35
:103800000E948F15A0960FB6F894DEBF0FBECDBFF5
:10381000DF91CF911F910F91FF90EF90DF90CF90AC
:10382000089584559F4F0C9459110F931F93CF9374
:10383000DF938C010E531F4FF80180810E94662890
:10384000EC0162E070E080E090E00E94F927F8016E
:1038500080810E946628C80FD91F62E070E080E076
:1038600090E00E94F927CE01D7FD019695958795A6
:10387000DF91CF911F910F910895CF92DF92EF9238
:10388000FF920F931F93CF93DF938C01095F1F4F1C
:10389000C8010E94FE10CAE0D0E0C12CD12C7601F4
:1038A000C8010E94FE109B01AC01C701B6010E9435
:1038B00027326B017C0161E070E080E090E00E94C3
:1038C000F927219769F720E030E040E251E4C70191
:1038D000B6010E948F32DF91CF911F910F91FF901F
:1038E000EF90DF90CF900895CF93DF93CDB7DEB701
:1038F000CC57D1090FB6F894DEBF0FBECDBF8CE711
:10390000E4E9F1E0DE01119601900D928A95E1F76C
:10391000660F771F660F771F81E090E08C0F9D1F69
:10392000680F791FFB016081718182819381C45886
:10393000DF4F0FB6F894DEBF0FBECDBFDF91CF9142
:103940000895CF93DF93EC01BA010E94741CAB0180
:10395000BC01CE01DF91CF910C94D011CF93DF93B6
:10396000CDB7DEB7C057D1090FB6F894DEBF0FBE92
:10397000CDBF80E2E0E1F2E0DE01999601900D9288
:103980008A95E1F780E1E0E3F2E0DE01AF59BF4F55
:1039900001900D928A95E1F788E1E0E4F2E0DE0122
:1039A000A75BBF4F01900D928A95E1F788E2E8E5A9
:1039B000F2E0DE01119601900D928A95E1F76130F7
:1039C000710509F194F4672BB1F5FA01EE0FFF1FB1
:1039D000EE0FFF1F81E090E08C0F9D1FE80FF91F95
:1039E00060A571A582A593A526C06230710599F0E6
:1039F0006330710501F5FA01EE0FFF1FEE0FFF1F97
:103A000081E090E00FC0FA01EE0FFF1FEE0FFF1FE5
:103A100081E690E007C0FA01EE0FFF1FEE0FFF1FD7
:103A200089E490E08C0F9D1FE80FF91F6081718180
:103A30008281938100C0C059DF4F0FB6F894DEBF7A
:103A40000FBECDBFDF91CF910895CF93DF93EC01EF
:103A5000CB01BA01A901CE010E94AE1CAB01BC0191
:103A6000CE01DF91CF910C94D01121110C94A11CA7
:103A70000C94D0110C94D7118F929F92AF92BF9259
:103A8000EF92FF920F931F93CF93DF93EC014801C6
:103A90005901CB01BA010E94FC32C054DF4FA5018D
:103AA000940188810E94C42DC501B4010E94F927A8
:103AB000B701882777FD8095982FDF91CF911F91CF
:103AC0000F91FF90EF90BF90AF909F908F900C94CC
:103AD000F9272F923F924F925F926F927F928F922F
:103AE0009F92AF92BF92CF92DF92EF92FF920F938D
:103AF0001F93CF93DF93CDB7DEB728970FB6F89417
:103B0000DEBF0FBECDBF1C012A013B0109831A8312
:103B10002B833C83CD82DE82EF82F886CD8CDE8CD7
:103B2000A9019801C301B2010E948B3287FF25C011
:103B3000C301B2010E94F732882777FD8095982F44
:103B40000E942A332B013C0129813A814B815C81FF
:103B50000E948B3287FF36C0760195018401B30144
:103B6000A201C1010E943C1D2D813E814F815885DB
:103B7000C301B2010E94DE33DDCFC301B2010E9456
:103B8000F732882777FD8095982F0E942A332B01E2
:103B90003C0129813A814B815C810E94DA331816FD
:103BA0008CF4760195018401B301A201C1010E9448
:103BB0003C1D2D813E814F815885C301B2010E9479
:103BC0008F32DDCF28960FB6F894DEBF0FBECDBF83
:103BD000DF91CF911F910F91FF90EF90DF90CF90E9
:103BE000BF90AF909F908F907F906F905F904F901D
:103BF0003F902F9008957F928F929F92AF92BF92A5
:103C0000CF92DF92EF92FF920F931F93CF93DF93A8
:103C1000EC016331710508F048C3FB01EB5AFF4F1B
:103C20000C944D353EE1E32EF12C02E310E020E050
:103C300030E044EA50ED64E274E40E943C1D49E146
:103C4000E42EF12C07E310E020E030E042E550EDF7
:103C500064EA74E4CE010E943C1D5AE0E52EF12C8A
:103C60000CE310E020E030E040E050E06CED74E464
:103C700027C08EE1E82EF12C02E310E020E030E0D6
:103C800044EA50ED64E274E4CE010E943C1D99E1E7
:103C9000E92EF12C07E310E020E030E040E050E0B6
:103CA0006CED74E4CE010E943C1D2AE0E22EF12C62
:103CB00002E310E020E030E042E550ED64EA74E415
:103CC000CE010E943C1DF1C21F92F2E07F2E7F9236
:103CD000A4E18A2E912CA12CB12CBAE0CB2EB7ED09
:103CE000DB2EB3E8EB2EBFE3FB2E0CE51FEF23EC3E
:103CF00034E442E550ED64EA74E40E94691D6EE12B
:103D000070E080E090E00E94F9271F927F921AE015
:103D1000812E912CA12CB12C08EBC02E0EE1D02EBF
:103D200005E8E02E0FE3F02E0FE115ED22E135E47A
:103D300042E550ED64EA74E4B1C21F928AE08F93C9
:103D40007EE1872E912CA12CB12CECE5CE2EEFE854
:103D5000DE2EE2E8EE2EEFE3FE2E00E010E02CED8A
:103D600034E442E550ED64EA74E46DC21F928AE0E7
:103D70008F935EE1852E912CA12CB12C6AE0C62E8A
:103D800067EDD62E63E8E62E6FE3F62E0FE115ED14
:103D900022E135E44CE55FEF63EC74E454C234E6B1
:103DA000E32EF12C02E310E020E030E042E550ED9C
:103DB00064EA74E40E943C1D40E5E42EF12C02E329
:103DC00010E020E030E04CE55FEF63EC74E4CE01FE
:103DD0000E943C1DE12CF12C0CE211E020E030E0CF
:103DE0004FE155ED62E175E46BCF1F927724739438
:103DF0007F920AE0802E912CA12CB12C8CE5C82E4C
:103E00008FE8D82E82E8E82E8FE3F82E00E010E647
:103E100026E035E440E050E068E474E4CE010E941E
:103E2000691D1F927F9297E0892E912CA12CB12CB5
:103E30002AE0C22E27EDD22E23E8E22E2FE3F22E27
:103E400000E010E028E434E440E050E566E075E48A
:103E500025C21F9283E08F93A8E08A2E912CA12C7B
:103E6000B12CB8EBCB2EBEE1DB2EB5E8EB2EBFE3D9
:103E7000FB2E00E010E02AEF34E440E050E06CE577
:103E800074E4CE010E94691D68EC70E080E090E06F
:103E90000E94F9270F900F9016E1C12ED12CFAE065
:103EA000EF2EF12C05E010E020E030E048E451EF87
:103EB00066E774E4CE010E943C1D81E0C81AD10877
:103EC00071F7F3C11F9283E08F9368E0862E912CE7
:103ED000A12CB12C7AE0C72E77EDD72E73E8E72E10
:103EE0007FE3F72E00E010E82BE335E440E050E0FC
:103EF0006BEE74E4CE010E94691D68EC70E080E016
:103F000090E00E94F9270F900F90E0E1CE2ED12C87
:103F10005AE0E52EF12C0AE010E020E030E040E02D
:103F200050ED62E874E4CE010E943C1D81E0C81AA5
:103F3000D10871F7BAC11F9284E08F9390E1892E66
:103F4000912CA12CB12C2AE0C22E27EDD22E23E8F1
:103F5000E22E2FE3F22E00E010E021E634E440E010
:103F600050E06FE274E4CE010E94691D1F9287E069
:103F70008F9332E1832E912CA12CB12C4EEAC42ECA
:103F800047E4D42E41E8E42E4FE3F42E00E010E89D
:103F900022E234E440E050EC60E674E47FC11F921A
:103FA0008AE08F930AE0802E912CA12CB12C88EB13
:103FB000C82E8EE1D82E85E8E82E8FE3F82E00E09B
:103FC00010E02AEF33E440E050E068EC72E4CE0108
:103FD0000E94691D64EF71E080E090E00E94F92783
:103FE0001F9281E08F9300E010E028EC32E440E083
:103FF00050E068EC73E452C11F92F8E07F2E7F928C
:10400000A4E18A2E912CA12CB12CB6E6CB2EDC2C6F
:10401000B6E8EB2EBFE3FB2E00E010E42CE135E424
:1040200040E050E86BEB74E40E94691D1F927F92A0
:1040300019E1812E912CA12CB12C00E010E82BEB82
:1040400034E440E050E36CE175E428C11F9283E062
:104050008F9368E0862E912CA12CB12C76E6C72E8A
:10406000DC2C76E8E72E7FE3F72E00E010E82BEB60
:1040700035E440E050E06AEF74E4CE010E94691D2F
:1040800062E370E080E090E00E94F9271F9282E0F6
:104090008F93EDE08E2E912CA12CB12C00E010E03E
:1040A0002AEF34E440E058E76BEB75E4F7C01F9269
:1040B00028E0722E7F923FE0832E912CA12CB12C10
:1040C00046E6C42EDC2C46E8E42E4FE3F42E00E056
:1040D00010E02AEF34E440E050E86BEB74E40E9417
:1040E000691D64E670E080E090E00E94F9271F926D
:1040F0007F925AE0852E912CA12CB12C00E010E487
:104100002CE135E440E050E86DEE74E4C7C01F9246
:1041100088EC8F9384E1882E912CA12CB12C9CE506
:10412000C92E9FE8D92E92E8E92E9FE3F92E00E0F0
:1041300010E427E234E440E050E06CE574E483C02E
:104140001F9282E08F93F8E08F2E912CA12CB12C3E
:10415000AAE0CA2EA7EDDA2EA3E8EA2EAFE3FA2EE4
:1041600000E010E824ED34E440E050E06AE774E455
:10417000CE010E94691D1F9283E08F93B8EBCB2E76
:10418000BEE1DB2EB5E8EB2EBFE3FB2E00E010E036
:104190002AEF33E440E050E664ED74E4CE010E947F
:1041A000691D1F928AE08F9319E0812E912CA12C1A
:1041B000B12C06E6C02EDC2C06E8E02E0FE3F02E34
:1041C00000E010E824ED34E440E050E06AE774E4F5
:1041D000CE010E94691D0F900F900F900F900F90CD
:1041E0000F9063C01F928FE08F9372E0872E912C07
:1041F000A12CB12CECE5CE2EEFE8DE2EE2E8EE2E7F
:10420000EFE3FE2E00E010E82BE335E440E050E061
:1042100068EC74E418C01F9284E18F9352E0852EFD
:10422000912CA12CB12C6CE5C62E6FE8D62E62E83D
:10423000E62E6FE3F62E00E010E82BEB35E440E0CD
:1042400050E06AEF74E4CE010E94691D0F900F9058
:104250002CC01F9224E1722E7F9232E0832E912C8B
:10426000A12CB12C4CE5C42E4FE8D42E42E8E42E0C
:104270004FE3F42E00E010E02AE735E440E050E0A0
:1042800068EC74E40E94691D1F927F9200E010E8C0
:104290002BE335E440E050E06AE775E4CE010E948C
:1042A000691D0F900F900F900F90DF91CF911F918C
:1042B0000F91FF90EF90DF90CF90BF90AF909F90C5
:1042C0008F907F9008952F923F924F925F926F92BE
:1042D0007F928F929F92AF92BF92CF92DF92EF9296
:1042E000FF920F931F93CF93DF93CDB7DEB7CA55DD
:1042F000D1090FB6F894DEBF0FBECDBF3C0188E0F8
:10430000E0E8F2E0DE01A75BBF4F01900D928A95D5
:10431000E1F788E0E8E8F2E0DE01AF5BBF4F019033
:104320000D928A95E1F788E0E0E9F2E0DE01D996A6
:1043300001900D928A95E1F788E0E8E9F2E0DE016C
:10434000D19601900D928A95E1F788E0E0EAF2E0DB
:10435000DE01999601900D928A95E1F788E0E8EAEE
:10436000F2E0DE01919601900D928A95E1F788E0E6
:10437000E0EBF2E0DE01599601900D928A95E1F7AB
:1043800088E0E8EBF2E0DE01519601900D928A950B
:10439000E1F788E0E0ECF2E0DE01199601900D9281
:1043A0008A95E1F788E0E8ECF2E0DE0111960190F1
:1043B0000D928A95E1F76D30710508F087C5FB0114
:1043C000E859FF4F0C944D3582E090E067969FAF1F
:1043D0008EAF679733C484E090E067969FAF8EAF4F
:1043E0006797D5C3FEE1EF2EF12C02E310E020E049
:1043F00030E044EA50ED64E274E4C3010E943C1DE5
:104400004AE050E060E070E0C3010E94A11C6DE052
:1044100070E0C3010E94FB1D04E110E020E233E0E4
:1044200040E050E060E87FE3C3010E94FA176DE0CE
:1044300070E076C14BE050E060E070E0C3010E94A4
:10444000A11C6BE070E0C3010E94FB1D4CE050E03A
:1044500060E070E0C3010E94A11C04E110E024EFC1
:1044600031E040E050E060E87FE3C3010E944B1878
:104470004BE050E060E070E0C3010E94A11C6CE0E2
:1044800070E0C3010E94FB1D4CE050E060E070E072
:10449000C3010E94A11C24EF31E040E050E060E83D
:1044A0007FE3C3010E944B1804C346E150E060E083
:1044B00070E0C3010E94A11CAE01475B5F4F6CEB33
:1044C00072E0C3010E94B7131F9268EC562E5F92F0
:1044D00074E1872E912CA12CB12CECE5CE2EEFE8C7
:1044E000DE2EE2E8EE2EEFE3FE2E00E010E82FE4F1
:1044F00034E440E050E06CE574E4C3010E94691DBF
:1045000048E150E060E070E0C3010E94A11C1F92EE
:104510005F9200E010E825E434E440E050E86FE406
:1045200074E4C3010E94691D47E150E060E070E05F
:10453000C3010E94A11C1F925F9200E010E029E3DA
:1045400034E440E050E865E474E4C3010E94691D6E
:1045500048E150E060E070E0C3010E94A11C1F929E
:104560005F9200E010E02FE234E440E050E069E3C5
:1045700074E4C3010E94691D47E150E060E070E00F
:10458000C3010E94A11C1F925F9200E010E427E289
:1045900034E440E050E06FE274E4C3010E94691D1E
:1045A00046E150E060E070E0C3010E94A11C64EFAE
:1045B00071E080E090E00E94F927C3010E940F168D
:1045C0006CE271E080E090E00E94F92707C2AE0142
:1045D0004F5B5F4F60E273E0C3010E94B71344E09A
:1045E000442E512C5AE0352E2224239420E030E032
:1045F00041E050E060E070E0C3010E94251D1F9281
:104600003F922AE0822E912CA12CB12C38EBC32EA4
:104610003EE1D32E35E8E32E3FE3F32E00E010E039
:1046200028E433E440E050E068EC72E4C3010E9407
:10463000691D21E030E041E050E060E070E0C3013E
:104640000E94251D1F923F9200E010E026E933E40E
:1046500040E050E068E473E4C3010E94691D22E079
:1046600030E041E050E060E070E0C3010E94251DB1
:104670001F923F9200E010E02AEF33E440E050E068
:1046800066E973E4C3010E94691D64EF71E080E094
:1046900090E00E94F92721E030E041E050E060E046
:1046A00070E0C3010E94251D1F922F9200E010E0D0
:1046B0002AE733E440E050E068EC73E4C3010E9471
:1046C000691D20E030E041E050E060E070E0C301AF
:1046D0000E94251D1F922F9200E010E028EC32E48A
:1046E00040E050E06AE773E4C3010E94691D64EF93
:1046F00071E080E090E00E94F92791E0491A5108AA
:104700000FB6F894DEBF0FBECDBF09F06FCF43E107
:1047100050E060E070E0C3010E94A11C69E070E01D
:10472000C3010E94FB1DC5C1AE01475C5F4F64EF32
:1047300071E0C3010E94B7136CE271E080E090E089
:104740000E94F92743E150E060E070E0C3010E945D
:10475000A11C60E170E0C3010E94FB1D40E150E03C
:1047600060E070E0C3010E94A11C6AEF70E080E08D
:1047700090E00E94F927AE014F5C5F4F64EF71E05B
:10478000C3010E94B7136CE271E080E090E00E94E8
:10479000F92743E150E060E070E0C3010E94A11CF2
:1047A00061E170E0C3010E94FB1D40E150E060E068
:1047B00070E0C3010E94A11C6AEF70E080E090E00D
:1047C0000E94F927AE01475D5F4F64EF71E0C301BE
:1047D0000E94B7136CE271E080E090E00E94F9273C
:1047E00043E150E060E070E0C3010E94A11C62E17F
:1047F00070E0C3010E94FB1D40E150E060E070E00A
:10480000C3010E94A11C6CE271E080E090E00E9474
:10481000F927C3010E940F1664EF71E080E090E079
:1048200048C3AE014F5D5F4F6CE271E0C3010E946F
:10483000B71344E150E060E070E0C3010E94A11CA6
:104840006FE070E0C3010E94FB1D2DC14DE050E000
:1048500060E070E0C3010E94A11C69E070E0C30148
:104860000E94FB1DEE24E394F12C0FE010E02CEDF0
:1048700035E040E050E060E070E4C3010E94911830
:10488000C3010E940F166DE070E0C3010E94FB1D82
:1048900016C3AE01475E5F4F6CE271E0C3010E9438
:1048A000B7134EE150E060E070E0C3010E94A11C2C
:1048B000FEE1EF2EF12C04E610E020E030E040E0D5
:1048C00050E06CE574E4C3010E943C1D1F92A4E01B
:1048D0005A2E5F92B7E08B2E912CA12CB12C1CE5A7
:1048E000C12E1FE8D12E12E8E12E1FE3F12E0FE1B9
:1048F00015ED22E934E440E050E06CE574E4C301D6
:104900000E94691D1F92442443944F920AE0802E16
:10491000912CA12CB12C0CE51FEF23EC34E44FE1DA
:1049200055ED62E974E4C3010E94691D1F924F9224
:1049300000E010E02CE534E44CE55FEF63EC74E458
:10494000C3010E94691D6FE070E080E090E00E946A
:10495000F9271F925F9284E1882E912CA12CB12C13
:1049600004EA10ED24E234E440E050E06CE574E445
:10497000C3010E94691D60E971E080E090E00E943F
:10498000F927AE014F5E5F4F68EC70E0C3010E94F3
:10499000B7131F925F920FE115ED22E934E440E076
:1049A00050E06CE574E4C3010E94691DAE01475FED
:1049B0005F4F68EC70E0C3010E94B7131F925F92D3
:1049C00004EA10ED24E234E440E050E06CE574E4E5
:1049D000C3010E94691DC3010E940F164BE050E005
:1049E00060E070E0C3010E94A11C0FB6F894DEBF26
:1049F0000FBECDBF6BC24EE150E060E070E0C3017E
:104A00000E94A11C1F9264E0562E5F9274E1872ED3
:104A1000912CA12CB12CECE5CE2EEFE8DE2EE2E8B5
:104A2000EE2EEFE3FE2E0FE115ED22E934E440E037
:104A300050E06CE574E4C3010E94691D1F925F920F
:104A400004EA10ED24E234E440E050E06CE574E464
:104A5000C3010E94691D6CE271E080E090E00E9459
:104A6000F92743E150E060E070E0C3010E94A11C1F
:104A70000F900F900F900F9004E010E0AE014F5F89
:104A80005F4F64E670E0C3010E94B713C3010E9448
:104A90000F160150110991F74EE150E060E070E00F
:104AA000C3010E94A11C64EF71E080E090E00E94CD
:104AB000F927C3010E940F1602C2C3010E94D71139
:104AC0001F928AE08F9300E010E829E834E46B96A7
:104AD0004CAD5DAD6EAD7FAD6B97C3010E94691D9E
:104AE0000F900F90412C512C920142E050E060E079
:104AF00070E0C3010E94251DB1016C597F4F8827CA
:104B000077FD8095982F0E942A3365966CAF7DAF14
:104B10008EAF9FAF6597B101882777FD8095982F5D
:104B20000E942A33AB01BC011F929AE09F932AE0B6
:104B3000822E912CA12CB12C38EBC32E3EE1D32E2A
:104B400035E8E32E3FE3F32E65960CAD1DAD2EAD9B
:104B50003FAD6597C3010E94691D84E6281A31089C
:104B60009FEF491A590A0F900F9080E9281681E0AB
:104B7000380609F0B9CF67968EAD9FAD679701975C
:104B800067969FAF8EAF6797892B09F48EC16396A6
:104B90001FAE1EAE639700E911E063962EAD3FADE8
:104BA000639742E050E060E070E0C3010E94251D81
:104BB000180194E6290E311CB801882777FD8095ED
:104BC000982F0E942A336B966CAF7DAF8EAF9FAF4C
:104BD0006B97B101882777FD8095982F0E942A3323
:104BE0008B019C011F928AE08F934AE0842E912CC6
:104BF000A12CB12C58EBC52E5EE1D52E55E8E52E43
:104C00005FE3F52E6B964CAD5DAD6EAD7FAD6B97F2
:104C1000C3010E94691D63968EAD9FAD6397019697
:104C200063969FAF8EAF63970F900F9098EE291603
:104C300093E0390609F441CF8101AFCF212C312C0B
:104C400064EF462E55245394910143E050E060E018
:104C500070E0C3010E94251DB2016C597F4F882767
:104C600077FD8095982F0E942A3365966CAF7DAFB3
:104C70008EAF9FAF6597B201882777FD8095982FFB
:104C80000E942A33AB01BC011F929AE09F938AE0F5
:104C9000882E912CA12CB12C9CE5C92E9FE8D92EF1
:104CA00092E8E92E9FE3F92E65960CAD1DAD2EAD71
:104CB0003FAD6597C3010E94691D85E6480E511CF2
:104CC0009FEF291A390A0F900F9086EE481685E05B
:104CD000580609F0B9CF212C312C910143E050E066
:104CE00060E070E0C3010E94251DB2016C597F4F46
:104CF000882777FD8095982F0E942A3365966CAFA0
:104D00007DAF8EAF9FAF6597B201882777FD809505
:104D1000982F0E942A33AB01BC011F929AE09F9307
:104D20001AE0812E912CA12CB12C0CE5C02E0FE89D
:104D3000D02E02E8E02E0FE3F02E65960CAD1DADEF
:104D40002EAD3FAD6597C3010E94691D85E6480EF3
:104D5000511C9FEF291A390A0F900F9088ED4816C1
:104D600089E0580609F0B9CF212C312C910143E09C
:104D700050E060E070E0C3010E94251DB20164565E
:104D80007109882777FD8095982F0E942A336596B0
:104D90006CAF7DAF8EAF9FAF6597B201882777FD6F
:104DA0008095982F0E942A33AB01BC011F929AE094
:104DB0009F93AAE08A2E912CA12CB12CBCE5CB2E7E
:104DC000BFE8DB2EB2E8EB2EBFE3FB2E65960CAD01
:104DD0001DAD2EAD3FAD6597C3010E94691D85E6EF
:104DE000481A51089FEF291A390A0F900F9086EE42
:104DF000481685E0580609F0B9CF212C312C9101D5
:104E000043E050E060E070E0C3010E94251DB20164
:104E100064567109882777FD8095982F0E942A3360
:104E200065966CAF7DAF8EAF9FAF6597B201882757
:104E300077FD8095982F0E942A33AB01BC011F9209
:104E40009AE09F93EAE08E2E912CA12CB12CFCE5E8
:104E5000CF2EFFE8DF2EF2E8EF2EFFE3FF2E659660
:104E60000CAD1DAD2EAD3FAD6597C3010E94691D10
:104E700085E6481A51089FEF291A390A0F900F90BA
:104E800084EF481681E0580609F0B9CF67968EADD9
:104E90009FAD6797019767969FAF8EAF6797892BF6
:104EA00009F0CCCEC3010E94D7116CE271E080E022
:104EB00090E00E94F92703C0C3010E94D7114BE084
:104EC00050E060E070E0C3010E94A11CC65ADF4FB1
:104ED0000FB6F894DEBF0FBECDBFDF91CF911F910B
:104EE0000F91FF90EF90DF90CF90BF90AF909F9089
:104EF0008F907F906F905F904F903F902F9008958C
:104F00001F920F920FB60F9211242F933F938F93FE
:104F10009F93AF93BF938091990690919A06A09129
:104F20009B06B0919C063091980623E0230F2D3705
:104F300020F40196A11DB11D05C026E8230F02969D
:104F4000A11DB11D209398068093990690939A060F
:104F5000A0939B06B0939C0680919D0690919E061F
:104F6000A0919F06B091A0060196A11DB11D80934E
:104F70009D0690939E06A0939F06B093A006BF91B6
:104F8000AF919F918F913F912F910F900FBE0F90F6
:104F90001F9018952FB7F8946091990670919A0612
:104FA00080919B0690919C062FBF08953FB7F8947F
:104FB00080919D0690919E06A0919F06B091A006BB
:104FC00026B5A89B05C02F3F19F00196A11DB11D64
:104FD0003FBF6627782F892F9A2F620F711D811D81
:104FE000911D42E0660F771F881F991F4A95D1F7E0
:104FF0000895CF92DF92EF92FF92CF93DF936B01F0
:105000007C010E94D627EB01C114D104E104F10414
:1050100089F00E9425320E94D6276C1B7D0B683ECA
:10502000734090F381E0C81AD108E108F108C85133
:10503000DC4FEACFDF91CF91FF90EF90DF90CF90E0
:105040000895019739F0880F991F880F991F0297CB
:105050000197F1F70895789484B5826084BD84B592
:10506000816084BD85B5826085BD85B5816085BD63
:10507000EEE6F0E0808181608083E1E8F0E010827C
:10508000808182608083808181608083E0E8F0E0BD
:10509000808181608083E1EBF0E0808184608083A7
:1050A000E0EBF0E0808181608083EAE7F0E08081DE
:1050B000846080838081826080838081816080833E
:1050C0008081806880831092C10008958E3008F03E
:1050D0008E50877020910A0190E4299F900111243D
:1050E000822B80937C0080917A00806480937A0088
:1050F00080917A0086FDFCCF809178002091790024
:1051000090E0922B0895833081F028F4813099F05B
:105110008230A1F008958730A9F08830B9F084304A
:10512000D1F4809180008F7D03C0809180008F77C3
:1051300080938000089584B58F7702C084B58F7DF9
:1051400084BD08958091B0008F7703C08091B00036
:105150008F7D8093B0000895CF93DF9390E0FC01A2
:10516000EB59FE4F2491FC01E758FE4F84918823B0
:1051700049F190E0880F991FFC01EF55FE4FA59172
:10518000B49189569E4FFC01C591D4919FB761118E
:1051900008C0F8948C91209582238C938881822377
:1051A0000AC0623051F4F8948C91322F30958323E9
:1051B0008C938881822B888304C0F8948C91822BF5
:1051C0008C939FBFDF91CF9108950F931F93CF933F
:1051D000DF931F92CDB7DEB7282F30E0F901EF5AE9
:1051E000FE4F8491F901EB59FE4F1491F901E758F4
:1051F000FE4F04910023C9F0882321F069830E94A7
:1052000083286981E02FF0E0EE0FFF1FE956FE4F83
:10521000A591B4919FB7F8948C91611103C010953A
:10522000812301C0812B8C939FBF0F90DF91CF9181
:105230001F910F910895CF92DF92EF92FF920F93FB
:105240001F93CF93DF9390E0FC01EB59FE4FD49175
:10525000FC01E758FE4F7491611102C0C0E001C02B
:10526000CD2FDA01C901BF70672F70E0660F771F7D
:1052700063577E4F00E010E09801FB01E590F49049
:10528000F70140814D234C131EC0680179014FEF97
:10529000C41AD40AE40AF40A081719072A073B07B4
:1052A00009F442C097018601E8CF68017901FFEF58
:1052B000CF1ADF0AEF0AFF0A081719072A073B0768
:1052C00099F197018601FB01E590F490F701408187
:1052D0004D234C13EACF801B910BA20BB30B20E0A4
:1052E00030E0A901FB01E590F490F701F080FD2288
:1052F000FC120AC0281739074A075B07A9F02F5F7D
:105300003F4F4F4F5F4FEECFA8E1B0E00E945335C3
:10531000605F7F4F8F4F9F4F24E0969587957795DD
:1053200067952A95D1F703C060E070E0CB01DF916B
:10533000CF911F910F91FF90EF90DF90CF90089544
:10534000FC01818D228D90E0805C9F4F821B910932
:105350008F7399270895FC01918D828D981731F0F4
:10536000828DE80FF11D858D90E008958FEF9FEFFE
:105370000895FC01918D828D981761F0828DDF0177
:10538000A80FB11D5D968C91928D9F5F9F73928F38
:1053900090E008958FEF9FEF08958DE39BE2892BB6
:1053A00049F080E090E0892B29F00E943D2B81118B
:1053B0000C9400000895FC01848DDF01A80FB11D3D
:1053C000A35ABF4F2C91848D90E001968F7399273B
:1053D000848FA689B7892C93A089B1898C91806428
:1053E0008C93938D848D981306C00288F389E02DE9
:1053F00080818F7D80830895CF93DF93EC01888D2A
:105400008823C9F0EA89FB89808185FD05C0A889C8
:10541000B9898C9186FD0FC00FB607FCF5CF80814E
:1054200085FFF2CFA889B9898C9185FFEDCFCE0198
:105430000E94DB29E7CFDF91CF910895CF92DF92D1
:10544000FF920F931F93CF93DF931F92CDB7DEB7D9
:105450006C01DC015B969C915B975C968C915C97F0
:10546000981307C05096ED91FC915197808185FD6E
:1054700032C0F601038D10E00F5F1F4F0F7311272D
:10548000F02EF601848DF81211C00FB607FCF9CF8B
:10549000D6015096ED91FC915197808185FFF1CF17
:1054A000C60169830E94DB296981EBCF838DE80FF8
:1054B000F11DE35AFF4F6083D6015B960C935B9717
:1054C0005296ED91FC91539780818062808381E0B8
:1054D00058968C930DC0D6015696ED91FC91579736
:1054E00060835096ED91FC91519780818064808318
:1054F00081E090E00F90DF91CF911F910F91FF908D
:10550000DF90CF900895BF92CF92DF92EF92FF92FB
:10551000CF93DF93EC016A017B01B22EE889F98910
:1055200082E08083411581EE580761057105A1F085
:1055300060E079E08DE390E0A70196010E940C35D0
:1055400021503109410951095695479537952795BD
:10555000211580E1380798F0E889F989108260E820
:1055600074E88EE190E0A70196010E940C3521506D
:105570003109410951095695479537952795EC858D
:10558000FD853083EE85FF852083188EEC89FD89AB
:10559000B082EA89FB89808180618083EA89FB8906
:1055A000808188608083EA89FB898081806880832C
:1055B000EA89FB8980818F7D8083DF91CF91FF9085
:1055C000EF90DF90CF90BF9008951F920F920FB68B
:1055D0000F9211242F938F939F93EF93FF93E0915A
:1055E000B106F091B2068081E091B706F091B8065D
:1055F00082FD12C090818091BA068F5F8F732091D7
:10560000BB06821751F0E091BA06F0E0EF55F94F72
:10561000958F8093BA0601C08081FF91EF919F9191
:105620008F912F910F900FBE0F901F9018951F9282
:105630000F920FB60F9211242F933F934F935F93C6
:105640006F937F938F939F93AF93BF93EF93FF934A
:1056500081EA96E00E94DB29FF91EF91BF91AF9123
:105660009F918F917F916F915F914F913F912F917A
:105670000F900FBE0F901F90189581EA96E00E9440
:10568000A02921E0892B09F420E0822F08951092AF
:10569000A4061092A30688EE93E0A0E0B0E0809309
:1056A000A5069093A606A093A706B093A8068CEF34
:1056B00092E09093A2068093A10685EC90E09093EF
:1056C000AE068093AD0684EC90E09093B006809394
:1056D000AF0680EC90E09093B2068093B10681EC27
:1056E00090E09093B4068093B30682EC90E09093A0
:1056F000B6068093B50686EC90E09093B80680934A
:10570000B7061092BA061092BB061092BC06109211
:10571000BD06089508950E942B280E948A2B0E949E
:10572000920ACDECD9E20E94F3062097E1F30E94A1
:10573000CD29F9CFCF92DF92EF92FF920F931F9373
:10574000CF93DF936C017A01EB01E60EF71E00E0C8
:1057500010E0CE15DF0561F06991D601ED91FC9165
:105760000190F081E02DC6010995080F191FF1CFB6
:10577000C801DF91CF911F910F91FF90EF90DF90C3
:10578000CF9008956115710581F0DB010D90002027
:10579000E9F7AD0141505109461B570BDC01ED9172
:1057A000FC910280F381E02D099480E090E008955F
:1057B000EF92FF920F931F93CF93DF938C01FB0126
:1057C000C0E0D0E064917F018FEFE81AF80A662309
:1057D00061F0D801ED91FC910190F081E02DC801BC
:1057E0000995C80FD91FF701EDCFCE01DF91CF91F9
:1057F0001F910F91FF90EF9008950C94C22BDC0144
:10580000ED91FC910190F081E02D09940F931F938D
:10581000CF93DF93EC016DE00E94FF2B8C016AE0D7
:10582000CE010E94FF2B800F911FDF91CF911F911E
:105830000F9108950F931F93CF93DF93EC010E9474
:10584000D82B8C01CE010E94062C800F911FDF9176
:10585000CF911F910F9108958F929F92AF92BF9217
:10586000CF92DF92EF92FF920F931F93CF93DF932C
:10587000CDB7DEB7A1970FB6F894DEBF0FBECDBF90
:105880007C01C42EE52FCB01D22E19A221E02D15CB
:1058900010F02AE0D22E8E010F5D1F4F8D2C912C1F
:1058A000A12CB12C6C2D7E2FA50194010E940C35EA
:1058B0008C2DD29E80191124015011098A3014F4C4
:1058C000805D01C0895CF8018083211531054105A7
:1058D000510521F0C22EE32FCA01E4CFB801C70160
:1058E0000E94C22BA1960FB6F894DEBF0FBECDBFAB
:1058F000DF91CF911F910F91FF90EF90DF90CF90AC
:10590000BF90AF909F908F900895CF92DF92EF92CB
:10591000FF920F931F93CF93DF93EC016A017B01FA
:105920002115310579F4E881F9810190F081E02DAC
:10593000642FDF91CF911F910F91FF90EF90DF9037
:10594000CF9009942A303105E9F477FF1AC06DE24F
:105950000E94FF2B8C0144275527BA014C195D0981
:105960006E097F092AE0CE010E942C2C800F911F26
:10597000DF91CF911F910F91FF90EF90DF90CF902B
:1059800008952AE0B701A601CE01DF91CF911F91C2
:105990000F91FF90EF90DF90CF900C942C2C9A01F8
:1059A000AB01662757FD6095762F0C94852C4F929E
:1059B0005F926F927F928F929F92AF92BF92CF929F
:1059C000DF92EF92FF920F931F93CF93DF93EC013F
:1059D0006A017B01B22E9A01AB01C701B6010E9498
:1059E0004734882319F068E073E027C026013701A7
:1059F000E89477F82FEF3FEF4FE75FE7C301B2017D
:105A00000E94473481110DC02FEF3FEF4FE75FE752
:105A1000C301B2010E948B3218161CF46CE073E0D3
:105A20000CC02FEF3FEF4FE75FE4C701B6010E94C4
:105A3000DA331816ACF460E173E0CE01DF91CF9158
:105A40001F910F91FF90EF90DF90CF90BF90AF909C
:105A50009F908F907F906F905F904F900C94C22B8F
:105A60002FEF3FEF4FE75FECC701B6010E948B328B
:105A700087FDE1CF20E030E0A901C701B6010E9417
:105A80008B3287FF0AC06DE2CE010E94FF2B8C0192
:105A9000F7FAF094F7F8F09402C000E010E0A12CBF
:105AA00060E070E080E09FE3AB1441F020E030E084
:105AB00040E251E40E948F32A394F6CF9B01AC01E7
:105AC000C701B6010E9427326B017C010E94FC32A3
:105AD0002B013C010E9428339B01AC01C701B60198
