:100000000C94DC000C94B2020C94D9020C94000302
:100010000C9463030C94C6030C9404010C94743088
:100020000C9404010C9404010C9404010C94E70E4C
:100030000C9404010C9404010C9404010C9404012C
:100040000C94EC270C9404010C94512B0C94832BEE
:100050000C9404010C9404010C9404010C9404010C
:100060000C9404010C940401C40AC70AD30AD60AEA
:10007000E20AF00AF80A090B170B1F0B300B3A0BB8
:10008000420B530B610B640B6D0B700B790B870BE1
:10009000430E460E490E4C0E4F0E520E550E580E84
:1000A0005B0E5E0E610E640E670E7E1EA51ED01ED8
:1000B000091F221F3B1F611F951FCE1F07203B20DA
:1000C00068209220C320F3200C215E217721952106
:1000D0005E228622C122532300247D249224B5244B
:1000E000672557225022C827C82705A84CCDB2D46F
:1000F0004EB93836A9020C50B9918688083CA6AA98
:10010000AA2ABE000000803F2525004600262600C2
:100110002525004100262600252500492000262609
:10012000002525004220002626002525004E20001F
:1001300026260025250044200026260025250045EA
:100140002000262600000102030405060700010224
:100150000304050001020304050000000800020179
:10016000000003040700000000000000000102047A
:100170000810204080010204081020010204081029
:100180002004040404040404040202020202020320
:1001900003030303030000000023002600290000DE
:1001A000000000250028002B00000000002400278C
:1001B000002A0002E405B32B11241FBECFEFD8E0C4
:1001C000DEBFCDBF13E0A0E0B1E0E2E0F0E702C0A7
:1001D00005900D92A631B107D9F727E0A6E1B3E06B
:1001E00001C01D92AD35B207E1F711E0C8EBD1E0D7
:1001F00004C02297FE010E94D535C43BD107C9F740
:100200000E94F72B0C94FF370C94000081E0809340
:1002100020039091210391110BC08093210321E0D1
:100220004FE050E060E070E086E293E00C94A11DA6
:10023000089581E080931F039091210391110BC0D9
:100240008093210321E04FE050E060E070E086E21F
:1002500093E00C94A11D0895EF92FF920F931F93CA
:10026000CF93DF931F92CDB7DEB77C01FC010081F5
:100270001181C80169830E94DE376981681719F00E
:10028000C8010E94E637C7010F90DF91CF911F91FF
:100290000F91FF90EF9008950F931F93CF93DF93EB
:1002A00000D0CDB7DEB78B01FB0160819A838983D3
:1002B000CE0101960E942C01C8010F900F90DF9192
:1002C000CF911F910F910895A82FAF7787FD05C09B
:1002D0008EEF8A0F823008F499C0B0E0FD01E35937
:1002E000FE4F2491FD01EF57FE4F8491942F9D7F87
:1002F0009130B9F4823031F490916706922B90934B
:1003000067060FC0833031F490915806922B90937A
:10031000580607C0843029F490914506922B90939B
:10032000450641504230B8F4823031F4909166066F
:10033000922B909366060FC0833031F4909157064C
:10034000922B9093570607C0843029F4909144066D
:10035000922B90934406FD01EB5BFE4FA4918230FB
:10036000C1F4B0E0AA0FBB1FA859B94F6D937C939D
:10037000E9E9F1E0A591B4918C91809365068BE653
:1003800090E0909379068093780680916800816070
:1003900033C08330C1F4B0E0AA0FBB1FA75AB94FD6
:1003A0006D937C93EBE9F1E0A591B4918C918093EE
:1003B00056068CE690E090937906809378068091BB
:1003C0006800826019C08430C9F4B0E0AA0FBB1F76
:1003D000AA5BB94F6D937C93EDE9F1E0A591B491DF
:1003E0008C91809343068DE690E0909379068093FC
:1003F000780680916800846080936800A0917806F8
:10040000B09179068C91822B8C9316C09FB7F8948B
:10041000A230B1F47093750660937406E8988091E9
:1004200069008C7F8093690080916900842B8093A0
:100430006900E09AE89A9FBF8FB780688FBF0895E0
:100440007093770660937606E99880916900837FC0
:10045000809369008091690024E0429FA0011124EB
:10046000842B80936900E19AE99AE5CF3FB7F8942D
:10047000982F9F7787FD05C08EEF890F823008F493
:100480005EC0892F90E0FC01E359FE4F2491FC01EE
:10049000EF57FE4F84918230D1F480916B0020950C
:1004A000822380936B0080916B00811105C0809145
:1004B00068008E7F80936800809167068223809316
:1004C00067068091660682238093660641C083306A
:1004D000D1F480916C002095822380936C008091F0
:1004E0006C00811105C0809168008D7F8093680049
:1004F0008091580682238093580680915706822364
:100500008093570625C0843019F580916D002095A1
:10051000822380936D0080916D00811105C08091D0
:1005200068008B7F809368008091450682238093CA
:1005300045068091440682238093440609C0923088
:1005400049F4E898809169008C7F80936900E09A73
:100550003FBF0895E99880916900837F8093690087
:10056000E19AF6CF1F920F920FB60F9211242F939C
:100570003F934F935F936F937F938F939F93AF932B
:10058000BF93EF93FF93E0917406F0917506099580
:10059000FF91EF91BF91AF919F918F917F916F915B
:1005A0005F914F913F912F910F900FBE0F901F9031
:1005B00018951F920F920FB60F9211242F933F930D
:1005C0004F935F936F937F938F939F93AF93BF935B
:1005D000EF93FF93E0917606F09177060995FF91EE
:1005E000EF91BF91AF919F918F917F916F915F91AB
:1005F0004F913F912F910F900FBE0F901F90189524
:100600001F920F920FB60F9211242F933F934F9387
:100610005F936F937F938F939F93AF93BF93CF938A
:10062000EF93FF9393B1C0916506209167063091D7
:100630006606892F809583232923822B20916B00C6
:10064000C927C223C82390936506CC2351F1C0FF6C
:1006500005C0E0916806F09169060995C1FF05C0E3
:10066000E0916A06F0916B060995C2FF05C0E09122
:100670006C06F0916D060995C3FF05C0E0916E060A
:10068000F0916F060995C4FF05C0E0917006F091E6
:1006900071060995C5FF05C0E0917206F0917306D9
:1006A0000995FF91EF91CF91BF91AF919F918F915C
:1006B0007F916F915F914F913F912F910F900FBE5E
:1006C0000F901F9018951F920F920FB60F92112442
:1006D0002F933F934F935F936F937F938F939F934A
:1006E000AF93BF93CF93EF93FF9396B1C09156060C
:1006F0002091580630915706892F8095832329230E
:10070000822B20916C00C927C223C82390935606E0
:10071000CC2351F1C0FF05C0E0915906F0915A0673
:100720000995C1FF05C0E0915B06F0915C06099553
:10073000C2FF05C0E0915D06F0915E060995C3FF1A
:1007400005C0E0915F06F09160060995C4FF05C001
:10075000E0916106F09162060995C5FF05C0E09140
:100760006306F09164060995FF91EF91CF91BF91D7
:10077000AF919F918F917F916F915F914F913F9139
:100780002F910F900FBE0F901F9018951F920F92F0
:100790000FB60F9211242F933F934F935F936F9354
:1007A0007F938F939F93AF93BF93CF93EF93FF93D9
:1007B00099B1C09143062091450630914406892F96
:1007C000809583232923822B20916D00C927C22382
:1007D000C82390934306CC23C1F1C0FF05C0E0912C
:1007E0004606F09147060995C1FF05C0E09148060D
:1007F000F09149060995C2FF05C0E0914A06F091C3
:100800004B060995C3FF05C0E0914C06F0914D06DB
:100810000995C4FF05C0E0914E06F0914F06099579
:10082000C5FF05C0E0915006F09151060995C6FF3D
:1008300005C0E0915206F09153060995C7FF05C027
:10084000E0915406F09155060995FF91EF91CF91F3
:10085000BF91AF919F918F917F916F915F914F91D8
:100860003F912F910F900FBE0F901F90189586E229
:1008700093E00E947D1C0E947D336F30710524F44B
:1008800081E08093160308951092160308958F92C5
:100890009F92AF92BF92CF92DF92EF92FF920F930F
:1008A0001F93CF9386E293E00E94A91C20E030E0E2
:1008B00048E452E40E94113387FF54C0C3E08091A2
:1008C000210381114FC021E04CE150E060E070E075
:1008D00086E293E00E94A11D1F92CF9348E0842EF0
:1008E000912CA12CB12C58EBC52E5EE1D52E55E8EC
:1008F000E52E5FE3F52E00E010E02AEF34E440E05F
:1009000050E06CE574E486E293E00E94D51D6EE150
:1009100070E080E090E00E9465281F92CF936CE524
:10092000C62E6FE8D62E62E8E62E6FE3F62E00E0C4
:1009300010E02CE534E440E050E06AEF74E486E235
:1009400093E00E94D51D86E293E00E94A61D64EF0D
:1009500071E080E090E00E9465280F900F900F906A
:100960000F90ADCFCF911F910F91FF90EF90DF903F
:10097000CF90BF90AF909F908F9008954F925F92CD
:100980006F927F928F929F92AF92BF92CF92DF929F
:10099000EF92FF920F931F93CF93DF93CDB7DEB704
:1009A00028970FB6F894DEBF0FBECDBF88E0ECE00D
:1009B000F1E0DE01119601900D928A95E1F78091A8
:1009C0002103811109C0AE014F5F5F4F60E273E008
:1009D00086E293E00E941514F4E06F2E712CAAE0D9
:1009E0005A2E44244394809121038823A1F08091BE
:1009F00021038111C1C021E043E150E060E070E0DB
:100A000086E293E00E94A11D69E070E086E293E037
:100A10000E94671EB1C020E030E041E050E060E09D
:100A200070E086E293E00E94911D1F925F927AE04F
:100A3000872E912CA12CB12CE8EBCE2EEEE1DE2EF0
:100A4000E5E8EE2EEFE3FE2E00E010E028E433E4CC
:100A500040E050E068EC72E486E293E00E94D51D2D
:100A6000809121030F900F908111C1CF21E030E0E0
:100A700041E050E060E070E086E293E00E94911D6A
:100A80001F925F9200E010E026E933E440E050E07E
:100A900068E473E486E293E00E94D51D809121030F
:100AA0000F900F908111A3CF22E030E041E050E0A1
:100AB00060E070E086E293E00E94911D1F925F92D9
:100AC00000E010E02AEF33E440E050E066E973E430
:100AD00086E293E00E94D51D64EF71E080E090E033
:100AE0000E946528809121030F900F9081117FCF84
:100AF00021E030E041E050E060E070E086E293E029
:100B00000E94911D1F924F9200E010E02AE733E40B
:100B100040E050E068EC73E486E293E00E94D51D6B
:100B2000809121030F900F90811161CF20E030E080
:100B300041E050E060E070E086E293E00E94911DA9
:100B40001F924F9200E010E028EC32E440E050E0C9
:100B50006AE773E486E293E00E94D51D64EF71E0DA
:100B600080E090E00E94652881E0681A71080F908B
:100B70000F9009F038CF3BCF86E293E00E947216C7
:100B800080912103811109C021E04BE050E060E039
:100B900070E086E293E00E94A11D28960FB6F894BB
:100BA000DEBF0FBECDBFDF91CF911F910F91FF90A0
:100BB000EF90DF90CF90BF90AF909F908F907F90FD
:100BC0006F905F904F900895CF93DF938AE094E009
:100BD0000E941A122CE04DE06BE086E293E00E9446
:100BE000D6118DE293E00E94F810CEE2D3E0CE0160
:100BF0000E94A30F188A1F86A99683E0C23DD807DA
:100C0000B1F782ED93E0DF91CF910C945311CF9225
:100C1000DF92EF92FF920F931F93CF93DF93CDB7A5
:100C2000DEB72B970FB6F894DEBF0FBECDBF19828B
:100C30001A821B821C82FE01359687E0DF011D921D
:100C40008A95E9F78E010F5F1F4FB5E0EB2EF12C6F
:100C50006801C7010E94DE37F80181938F01FFEF21
:100C6000EF1AFF0A80E1E816F10499F762E471E0F7
:100C700089EA96E00E94442C6FE371E089EA96E0ED
:100C80000E94442CB60189EA96E00E94692C6CE32C
:100C900071E089EA96E00E94862C89EA96E00E943B
:100CA000682A2B960FB6F894DEBF0FBECDBFDF913A
:100CB000CF911F910F91FF90EF90DF90CF9008950B
:100CC000CF92DF92EF92FF9286E293E00E947D1C2A
:100CD0006B017C0169E371E089EA96E00E94442C93
:100CE00066E371E089EA96E00E94442CC701B601F0
:100CF0000E947D334AE050E089EA96E00E943B2D55
:100D000063E371E089EA96E00E94862C89EA96E026
:100D1000FF90EF90DF90CF900C94682ACF93DF93F1
:100D200086E293E00E94811CEC0160E371E089EAB5
:100D300096E00E94442C6DE271E089EA96E00E9400
:100D4000442C4AE050E0BE0189EA96E00E943B2D27
:100D50006AE271E089EA96E00E94862C89EA96E0D0
:100D6000DF91CF910C94682ACF92DF92EF92FF929D
:100D700086E293E00E94A91C6B017C0167E271E0AE
:100D800089EA96E00E94442C64E271E089EA96E0E8
:100D90000E94442C22E030E0B701A60189EA96E0E7
:100DA0000E942E2E61E271E089EA96E00E94862C74
:100DB00089EA96E0FF90EF90DF90CF900C94682A3C
:100DC0006EE171E089EA96E00E94442C6BE171E0EB
:100DD00089EA96E00E94442C6BEE72E089EA96E084
:100DE0000E94692C68E171E089EA96E00E94862CF5
:100DF00089EA96E00C94682A8F929F92AF92BF92F4
:100E0000CF92DF92EF92FF920F931F93CF93DF93D6
:100E10001F92CDB7DEB726E040E052EC61E070E013
:100E200089EA96E00E94EF2A60E086E00E94182995
:100E300060E087E00E9418291F9289E08F9308E004
:100E4000802E912C8AE0A82EB12C94E1C92ED12CB1
:100E5000EE24E39405E010E024E030E043E050E0CD
:100E600062E070E086E293E00E94561384E10E9403
:100E7000D2280E94D03043E066E071E086E00E9414
:100E8000640143E069E171E087E00E94640148E2A7
:100E900059E060ED72E08AE094E00E942F1246E390
:100EA00059E062ED72E08AE094E00E942F1246E77A
:100EB00059E064ED72E08AE094E00E942F1246EB64
:100EC00058E066ED72E08AE094E00E942F1241E162
:100ED0005EE068ED72E08AE094E00E942F1249ED36
:100EE00059E06AED72E08AE094E00E942F1249E333
:100EF0005AE06CED72E08AE094E00E942F124FE617
:100F00005EE06EED72E08AE094E00E942F1247E00E
:100F100056E060EE72E08AE094E00E942F1240E614
:100F200056E062EE72E08AE094E00E942F124EE8F2
:100F300056E064EE72E08AE094E00E942F1244EBE7
:100F400056E066EE72E08AE094E00E942F1240EED6
:100F500056E068EE72E08AE094E00E942F1268E2A8
:100F600079E08AE094E00E94611260E070E086E23D
:100F700093E00E94671E86E293E00E94721685E06D
:100F800090E00E94DE370F900F908432F1F46AEE09
:100F900072E085E090E00E944C011982BE016F5F13
:100FA0007F4F86E090E00E944C0121E04DE150E04F
:100FB00060E070E086E293E00E94A11D68EE73E0BD
:100FC00080E090E00E946528F9CF0E94070662E366
:100FD00070E080E090E00E9465280E94E00662E3F5
:100FE00070E080E090E00E9465280E94B4060E94B4
:100FF000470412E0E12EF12C00E010E08091210383
:10100000882329F081E0E81AF108A9F0F5CF9801CA
:1010100040E050E0BA0186E293E00E94911D66E94B
:1010200070E080E090E00E9465280F5F1F4F08305D
:10103000110521F7E7CF80912103811115C021E02F
:101040004AE050E060E070E086E293E00E94A11D7B
:101050006BE070E086E293E00E94671E68EC70E04F
:1010600080E090E00E94652885E090E00E94DE37F5
:101070008332E9F580912103811110C02CEB32E01D
:1010800040E050E060E87FE386E293E00E949E1932
:1010900068EC70E080E090E00E9465288091210378
:1010A00081110CC0409108015091090121E030E00C
:1010B00061E070E086E293E00E94891A809121034A
:1010C000811115C021E04FE050E060E070E086E261
:1010D00093E00E94A11D04E110E020E233E040E033
:1010E00050E060E070E486E293E00E946618809130
:1010F000210381110DC086E293E00E94721621E067
:101100004BE050E060E070E086E293E00E94A11DB9
:101110000E94362860931B0370931C0380931D0369
:1011200090931E030F90DF91CF911F910F91FF902D
:10113000EF90DF90CF90BF90AF909F908F900895E9
:1011400065E171E089EA96E00E94442C63E171E078
:1011500089EA96E00E94442C60E171E089EA96E019
:101160000E94862C89EA96E00C94682A0E94A008C6
:101170008AE094E00E942512009739F00E946437BB
:10118000909325038093240317C021E04AE150E0A7
:1011900060E070E086E293E00E94A11D60ED77E0E0
:1011A00080E090E00E94652886E293E00E94A61D00
:1011B00010922503109224038AE094E00E942512E5
:1011C000009719F00E94643715C021E04AE150E011
:1011D00060E070E086E293E00E94A11D60ED77E0A0
:1011E00080E090E00E94652886E293E00E94A61DC0
:1011F00088EE93E090930901809308018AE094E0DF
:101200000E942512009719F00E94643702C08EE1F7
:1012100090E09093050180930401109207011092D1
:10122000060108956DE071E089EA96E00E94442C81
:101230006BE071E089EA96E00E94442C68E071E07E
:1012400089EA96E00E94862C89EA96E00C94682A46
:101250000E94A00881E090E090930701809306012E
:1012600086E293E00E9472160C941209CF93DF93EA
:1012700000D0CDB7DEB70E94A00881E090E0909347
:1012800007018093060186E293E00E9472168AE0CD
:1012900094E00E942512009779F042E050E0BE01F0
:1012A0006F5F7F4F0E945036AB01BC0121E086E2A8
:1012B00093E00E94A11D13C021E04AE150E060E0EC
:1012C00070E086E293E00E94A11D60ED77E080E08F
:1012D00090E00E94652886E293E00E94A61D0E948D
:1012E00012090F900F90DF91CF9108958F929F92E6
:1012F000AF92BF92EF92FF920F931F93CF93DF9322
:101300000E94A00881E090E090930701809306017D
:1013100086E293E00E9472168AE094E00E94251211
:10132000009729F00E946437EC0110E001C011E041
:101330008AE094E00E942512009721F00E94643711
:101340001123A1F021E04AE150E060E070E086E284
:1013500093E00E94A11D60ED77E080E090E00E94A4
:10136000652886E293E00E94A61D17C04C01AA24BE
:1013700097FCA094BA2CBE01882777FD8095982F02
:101380000E94B033AB01BC01EE24E394F12C950133
:10139000840186E293E00E94A81DDF91CF911F9106
:1013A0000F91FF90EF90BF90AF909F908F900C9413
:1013B0001209CF92DF92EF92FF920F931F93CF9378
:1013C000DF930E94A0088AE094E00E942512009713
:1013D00029F00E946437EC0110E001C011E08AE0BE
:1013E00094E00E942512009721F00E9464377C014E
:1013F00001C011E08AE094E00E942512009721F0DC
:101400000E9464376C0101C011E08AE094E00E9400
:101410002512009721F00E9464371123A1F021E0EA
:101420004AE150E060E070E086E293E00E94A11D96
:1014300060ED77E080E090E00E94652886E293E02E
:101440000E94A61D0CC08C019601A701BE0186E278
:1014500093E00E94E41386E293E00E94F613DF918A
:10146000CF911F910F91FF90EF90DF90CF900C9450
:101470001209BF92CF92DF92EF92FF920F931F93C8
:10148000CF93DF93CDB7DEB728970FB6F894DEBFC2
:101490000FBECDBF0E94A0088AE094E00E942512F2
:1014A000009729F00E9464376C01B12C02C0BB2464
:1014B000B3948AE094E00E942512009721F00E94E4
:1014C00064377C0102C0BB24B3948AE094E00E949C
:1014D0002512009721F00E9464378C0102C0BB24C2
:1014E000B3948AE094E00E942512009721F00E94B4
:1014F0006437BB20A1F021E04AE150E060E070E0F9
:1015000086E293E00E94A11D60ED77E080E090E02C
:101510000E94652886E293E00E94A61D11C0DA822F
:10152000C982FC82EB821E830D8398878F83AE0174
:101530004F5F5F4F68EC70E086E293E00E94151405
:101540000E94120928960FB6F894DEBF0FBECDBFD9
:10155000DF91CF911F910F91FF90EF90DF90CF908F
:10156000BF900895EF92FF920F931F9301978431DC
:10157000910508F0D9C08C5C9F4F409108015091B3
:101580000901FC010C94D33501E010E002C00FEF1B
:101590001FEF9A0140E050E060E87FE386E293E0CD
:1015A0000E949E16C1C001E010E002C00FEF1FEFC5
:1015B0009A0140E050E060E87FE386E293E00E9419
:1015C0000E17B2C000910401109105019A0140E08C
:1015D00050E060E87FE386E293E00E946A17A4C0CF
:1015E0000091040110910501EE24E394F12C07C051
:1015F0000091040110910501EE24EA94FE2C9A0159
:1016000040E050E060E87FE386E293E00E94B41798
:101610008BC000910401109105019A0140E050E057
:1016200060E87FE386E293E00E9466187DC0009147
:10163000040110910501EE24E394F12C07C0009100
:10164000040110910501EE24EA94FE2C9A0140E079
:1016500050E060E87FE386E293E00E94FD1864C0FA
:101660009A0140E050E060E87FE386E293E00E9468
:101670009E195AC00091040110910501EE24E394D3
:10168000F12C07C00091040110910501EE24EA94A9
:10169000FE2C9A0140E050E060E87FE386E293E0B0
:1016A0000E94DB1941C000910401109105019A01CB
:1016B00040E050E060E87FE386E293E00E94B718E4
:1016C00033C021E030E002C02FEF3FEF61E070E077
:1016D00086E293E00E94441B27C021E030E002C074
:1016E0002FEF3FEF61E070E086E293E00E94891AFD
:1016F0001BC000910401109105019A0140E050E0E7
:1017000060E87FE386E293E00E94E31B0DC0009156
:101710000401109105019A0140E050E060E87FE388
:1017200086E293E00E942B1C1F910F91FF90EF9097
:101730000C9412090F931F93CF93DF9389EA96E0DD
:101740000E940C2A181619063CF4809122039091ED
:101750002303049709F0EBC180912103882341F111
:1017600086E293E00E94721664E670E080E090E00A
:101770000E94652862E070E086E293E00E94671EA6
:1017800068EC70E080E090E00E9465288091200382
:10179000882309F4E2C180911F038111DEC181E039
:1017A00090E0909323038093220363E070E01DC2D6
:1017B00000912203109123030230110509F487C020
:1017C0003CF40115110569F00130110559F1A8C16A
:1017D0000330110509F431C10430110509F48BC13E
:1017E0009FC10E94362800911B0310911C03209179
:1017F0001D0330911E03601B710B820B930B60382D
:1018000078438140910508F407C20E94BE040E94FB
:10181000362860931B0370931C0380931D039093E1
:101820001E03FAC125E130E040E050E065E070E0E1
:1018300080E090E00E94FC3070931A0360931903DB
:101840006F5071096430710538F4109318030093D8
:10185000170380E496E010C026E030E040E050E05E
:1018600063E070E080E090E00E94FC307093180329
:101870006093170388EE93E0909309018093080129
:1018800025E130E040E050E06AE070E080E090E088
:101890000E94FC30AB01BC0121E086E293E00E9493
:1018A000A11DC0E0D0E08091170390911803C817E4
:1018B000D9070CF0B1C18091190390911A030E94CD
:1018C000B20A809121038111A7C12196ECCF8091AA
:1018D0001603882309F49FC080912103811119C048
:1018E00021E04EE050E060E070E086E293E00E948C
:1018F000A11D66E070E086E293E00E94671E24EF7F
:1019000031E040E050E060EA70E486E293E00E945B
:101910009E198091210381110FC021E044E150E024
:1019200060E070E086E293E00E94A11D69E070E053
:1019300086E293E00E94671EC3E0D0E0809121031D
:10194000882399F064E670E080E090E00E946528CA
:101950000E94370464E670E080E090E00E94652811
:1019600080911603811158C10FC00FEF1FEF24E1C2
:1019700035E040E050E060E87FE386E293E00E94DB
:101980009E162197D9F6DECF80912103811144C1A3
:1019900021E04AE050E060E070E086E293E00E94DF
:1019A000A11D62E370E080E090E00E9465280E9443
:1019B0003704C3E0D0E080911603882329F080919A
:1019C0001603811129C106C080912103882309F4DF
:1019D00011C1F5CF8091210381111EC186E293E0F0
:1019E0000E94721621E04BE050E060E070E086E279
:1019F00093E00E94A11D6DE070E086E293E00E94FA
:101A0000671E68EC70E080E090E0DF91CF911F915D
:101A10000F910C94652801E010E028EE33E040E0DF
:101A200050E060E87FE386E293E00E949E16DF913B
:101A3000CF911F910F910C94370486E293E00E949E
:101A4000811C843E92400CF4E7C062E370E080E0C9
:101A500090E00E9465288091210381113BC021E024
:101A60004EE050E060E070E086E293E00E94A11D4D
:101A700067E070E086E293E00E94671E8091210398
:101A80008111CAC025E130E040E050E06AE070E03A
:101A900080E090E00E94FC30AB01BC0121E086E2D6
:101AA00093E00E94A11D24E130E040E050E061E0BD
:101AB00070E080E090E00E94FC30CB010E94B20A0E
:101AC00086E293E00E94721668EC70E080E090E09D
:101AD0000E9465288091210381119EC021E04BE086
:101AE00050E060E070E086E293E0DF91CF911F91DB
:101AF0000F910C94A11D8AE094E00E9467128091DE
:101B0000060190910701892B09F086C0809124037A
:101B100090912503DF91CF911F910F910C94B20A00
:101B200084E090E0909323038093220375C084E0C7
:101B300090E0909323038093220321E04BE050E058
:101B400060E070E086E293E00E94A11D86E00E94C2
:101B5000360287E00E943602FFCD8091200381117A
:101B60000DC080911F03882349F082E090E090939C
:101B700023038093220364E070E037C08091200348
:101B8000882321F080911F03811127C040912203F7
:101B900050912303662757FD6095762F21E086E25A
:101BA00093E00E94A11DC8ECD0E06AE070E080E004
:101BB00090E00E9465282197C1F721E04BE050E0BA
:101BC00060E070E086E293E00E94A11D1092210384
:101BD0001092200310921F031FC083E090E09093A7
:101BE00023038093220365E070E086E293E00E9485
:101BF000671ECCCF01E010E028EE33E040E050E07B
:101C000060E87FE386E293E00E940E170E943704AB
:101C1000219709F0D0CED3CEDF91CF911F910F91B4
:101C200008950E94A00881E090E0909307018093BE
:101C3000060186E293E00E9472168AE094E00E9418
:101C40002512009761F00E94643701978D3091054D
:101C500008F043C0885B9F4FFC010C94D33521E012
:101C60004AE150E060E070E086E293E00E94A11D4E
:101C700060ED77E080E090E00E94652886E293E0E6
:101C80000E94A61D2AC060E070E023C061E070E001
:101C900020C062E070E01DC063E070E01AC064E044
:101CA00070E017C065E070E014C066E070E011C03D
:101CB00067E070E00EC068E070E00BC069E070E0C3
:101CC00008C06AE070E005C06BE070E002C06CE044
:101CD00070E086E293E00E94CF210C941209CF922B
:101CE000DF92EF92FF920F931F93CF93DF93CDB7C5
:101CF000DEB72D970FB6F894DEBF0FBECDBF0E94A2
:101D0000A00881E090E0909307018093060186E2AD
:101D100093E00E94721619821A821B821C82FE01B5
:101D2000359687E0DF011D928A95E9F78AE094E015
:101D30000E942512009739F1DC01FE0131969E2F99
:101D40002F2F6E018CE0C80ED11C8D91811106C021
:101D5000092F122FB5E0EB2EF12C05C0EC15FD0577
:101D6000B9F38193F2CFD8016D918D01FD86EC8698
:101D7000C6010E942C01BFEFEB1AFB0AE0E1EE1650
:101D8000F10489F713C021E04AE150E060E070E01F
:101D900086E293E00E94A11D60ED77E080E090E094
:101DA0000E94652886E293E00E94A61D0E94120907
:101DB0002D960FB6F894DEBF0FBECDBFDF91CF9149
:101DC0001F910F91FF90EF90DF90CF9008951F9299
:101DD0000F920FB60F9211242F933F934F935F935F
:101DE0006F937F938F939F93AF93BF93EF93FF93E3
:101DF00080917B0687FF05C01092850010928400B9
:101E00001AC020917B06332727FD309580917A06F2
:101E100090E0281739077CF480917B06992787FD8D
:101E20009095FC01EE0FFF1FE80FF91FE458F94FE2
:101E3000808186FD15C080917B068F5F80937B0635
:101E400020917B06332727FD309580917A0690E01C
:101E500028173907BCF480917B068C305CF112C0E6
:101E600080917B06992787FD9095FC01EE0FFF1F5F
:101E7000E80FF91FE458F94F808160E08F730E94EA
:101E80005129D9CF809184009091850004968034A7
:101E90009C4918F480E49CE905C0809184009091ED
:101EA0008500049690938900809388008FEF80933B
:101EB0007B0638C0209184003091850080917B069C
:101EC000992787FD9095FC01EE0FFF1FE80FF91F82
:101ED000E458F94F81819281820F931F909389007A
:101EE0008093880080917B06992787FD9095FC015F
:101EF000EE0FFF1FE80FF91FE458F94F808186FFAE
:101F000011C080917B06992787FD9095FC01EE0F0B
:101F1000FF1FE80FF91FE458F94F808161E08F73CC
:101F20000E945129FF91EF91BF91AF919F918F91A5
:101F30007F916F915F914F913F912F910F900FBEC5
:101F40000F901F90189520917A062C30A0F431E064
:101F5000320F30937A06FC012083822F90E0FC013F
:101F6000EE0FFF1FE80FF91FE458F94F88EB9BE0D5
:101F70009283818308952FEFFC0120830895DF92DF
:101F8000EF92FF920F931F93CF93DF93EC01D62E26
:101F90007A01890188818C3008F066C061E08D2D5E
:101FA0000E9418298881A82FB0E0FD01EE0FFF1FC5
:101FB000EA0FFB1FE458F94F2D2D2F739081907C71
:101FC000922B908360E272E06E197F0977FF02C066
:101FD0006D5F7F4F7595679575956795698340E649
:101FE00059E0401B510B57FF02C04D5F5F4F5595A5
:101FF0004795559547954A836CE00E945E359CE075
:10200000899FB001112420E030E0A901460F571F3D
:10201000FA01EE0FFF1FE40FF51FE458F94F90810E
:1020200096FD16C02F5F3F4F2C30310571F781119F
:102030000FC01092800082E0809381001092850092
:1020400010928400B19A80916F00826080936F003B
:10205000888190E0FC01EE0FFF1FE80FF91FE458A4
:10206000F94F8081806480838881DF91CF911F91B7
:102070000F91FF90EF90DF90089520E639E040E265
:1020800052E00C94BF0FFC01808190E0FC01EE0F48
:10209000FF1FE80FF91FE458F94F80818F7B808381
:1020A0000895FC0180818C3070F5918128E830E042
:1020B000291B310997FD3395220F331F220F331F40
:1020C000621773077CF0928128E532E0291B310901
:1020D00097FD3395220F331F220F331F62177307AB
:1020E0000CF49B0122503109220F331F4FB7F89493
:1020F00090E0FC01EE0FFF1FE80FF91FE458F94FC5
:10210000328321834FBF08954F925F926F927F92E7
:10211000AF92BF92CF92DF92EF92FF920F931F93F5
:10212000CF93DF93EC01603282E078070CF040C07F
:1021300077FD06C0653B71052CF064EB70E002C0D2
:1021400060E070E0898128E830E0281B310987FDD4
:102150003395220F331F220F331F5901CC24B7FCB4
:10216000C094DC2C882777FD8095982F2A8148E53C
:1021700052E0421B510927FD5395440F551F440F50
:10218000551F2A01662457FC6094762C7F926F922B
:102190005F924F9214EBE12EF12C00E010E020E072
:1021A00030E0A9010E9418310F900F900F900F900E
:1021B000CE01DF91CF911F910F91FF90EF90DF90B3
:1021C000CF90BF90AF907F906F905F904F900C94A6
:1021D0005110FC01808190E0FC01EE0FFF1FE80F21
:1021E000F91FE458F94F808186FB882780F908950C
:1021F00008950F931F93CF93DF9385E10E94D22818
:1022000025E0AC01249FC001259F900D1124BC0145
:10221000882777FD8095982F0E94B03320E030E02A
:1022200040E85AE30E9464348B01D82FC92F26E678
:1022300036E646E850E40E946034181624F406E6B8
:1022400016E6D6E8C0E4B8018D2F9C2FDF91CF9120
:102250001F910F9108950F931F93CF93DF930E94C7
:10226000F9102FEB36E842ED52E40E9464342CE77B
:102270003DE04BEA53E40E94AC328B01D82FC92FCA
:1022800020E030E0A9010E94113387FF04C000E084
:1022900010E0D0E0C0E0B8018D2F9C2FDF91CF91EE
:1022A0001F910F9108950895CF93DF93EC01862F2E
:1022B000688379835B834A8361E00E94182960E028
:1022C0008A81DF91CF910C941829CF93DF93EC0191
:1022D00060E088810E94512982E090E00E948D2870
:1022E00061E088810E9451298AE090E00E948D2857
:1022F00060E088810E94512920E43CE940E050E000
:1023000061E08A81DF91CF910C9487290E94651149
:102310002AE330E040E050E00E94B4352115310559
:102320004105510521F427EE33E040E050E0CA01B9
:10233000B9010E94B03308950F931F93CF93DF9399
:10234000EC0100E010E0488159816A817B81002E18
:1023500004C076956795579547950A94D2F7642FF0
:1023600061708C810E94512900000000000061E032
:102370008D810E94512900000000000060E08D81E5
:102380000E9451290F5F1F4F0E311105E1F661E0E8
:102390008E810E94512900000000000060E08E81C3
:1023A000DF91CF911F910F910C945129CF93DF931F
:1023B000EC01862F188219821A821B826C834D834E
:1023C0002E8361E00E94182961E08D810E94182906
:1023D00061E08E810E94182960E08C810E94512961
:1023E00060E08D810E94512960E08E810E94512918
:1023F000CE01DF91CF910C949C11FC01408351835D
:10240000628373830C949C11FC01108211821282EE
:1024100013820C949C1121E030E0FC01E20FF31FC9
:1024200010822F5F3F4F24323105B9F7FC0115A20E
:1024300014A2089520E230E0FC0137A326A32DE08A
:1024400020A716A615A60C940B12AC01455D5F4F94
:10245000BC016A5D7F4F80E090E00C94AF37FF9243
:102460000F931F93CF93DF93EC018A012DA53EA517
:102470002E30310504F585E2F82EF29EC001F39E60
:10248000900D11248F9643E250E08C0F9D1F0E9407
:10249000A0372DA53EA5F29EC001F39E900D1124FC
:1024A0008C0F9D1FFC01EE5AFF4F118300832F5F9D
:1024B0003F4F3EA72DA7DF91CF911F910F91FF9026
:1024C00008958B5C9D4FFC017183608308952F926A
:1024D0003F924F925F926F927F928F929F92AF92B4
:1024E000BF92CF92DF92EF92FF920F931F93CF9301
:1024F000DF9300D000D0CDB7DEB79C838B831C0167
:102500002BE2220E311C2C0136E2430E511C6C01D1
:102510008FEFC81AD80AAB80BC809FE2A90EB11C0D
:102520002B813C812B5C3D4F3A83298389EA96E0DD
:102530000E940C2A181619060CF073C089EA96E05E
:102540000E94252AAB81BC818C9398969C91989788
:10255000891341C095961C921E929497A101B201D5
:10256000C6010E94AF373C01EB81FC8192A781A795
:10257000009709F456C085A496A4750100E010E008
:1025800008151905FCF443E250E0B701C3010E94AD
:102590009237F5E2EF0EF11C892B89F425E2209F9A
:1025A000C001219F900D11242B813C81820F931F2C
:1025B000FC01EE5AFF4F0190F081E02D07C00F5F44
:1025C0001F4FDECFA981BA81ED91FC9109958B81D6
:1025D0009C810E940B12AB81BC811C91812F992799
:1025E00087FD90950E948437892B09F49FCFEB815A
:1025F000FC8124A135A1C901019695A384A3E20F12
:10260000F31F1183EB81FC81E80FF91F118283977F
:102610000CF48CCFAB81BC8195961C921E92949742
:1026200085CF0F900F900F900F90DF91CF911F915A
:102630000F91FF90EF90DF90CF90BF90AF909F9061
:102640008F907F906F905F904F903F902F90089564
:10265000CF93DF93EC01FC01E055FF4F6081718166
:1026600040E008960E949131FE01EE54FF4F6081D8
:10267000718140E0CE01C1960E949131FE01EC547F
:10268000FF4F6081718140E0CE01865A9F4F0E94CA
:102690009131FE01EA54FF4F6081718140E0CE012B
:1026A0008D579F4FDF91CF910C9491314F925F9254
:1026B0006F927F928F929F92AF92BF92CF92DF9252
:1026C000EF92FF920F931F93CF93DF93CDB7DEB7B7
:1026D0003C014B885C88FC01E055FF4F71836083AF
:1026E0003296518340833296318320833296118310
:1026F00000830E942813E11037C0F301E054FF4F1C
:102700008AE590E09183808332969183808332962C
:1027100091838083329691838083A201B401C301A7
:1027200084559F4F0E945411F301E853FF4FA0823C
:10273000B1823296C082D18261E08A2D0E9418292E
:1027400060E08C2DDF91CF911F910F91FF90EF9062
:10275000DF90CF90BF90AF909F908F907F906F90C1
:102760005F904F900C941829E12CF12C00E010E0C0
:10277000C8010E94DE3790E0813891050CF09A95EF
:10278000F301EE0DFF1D908F878B0F5F1F4F89E2C6
:10279000E80EF11C0430110559F7AFCFCF93DF934A
:1027A000EC0108960E94E431CE01C1960E94E4310A
:1027B000CE01865A9F4F0E94E431CE018D579F4F24
:1027C000DF91CF910C94E4310F931F93FC01708F34
:1027D000678BE05CFF4F51834083B9963183208340
:1027E000B996118300831F910F910895EF92FF9284
:1027F0000F931F93CF93DF937C0100E010E0C0E0C4
:10280000D0E0F701E00FF11F6789CE010E94E637A3
:102810002196075D1F4FC430D10599F7DF91CF9105
:102820001F910F91FF90EF9008952F923F924F923A
:102830005F926F927F928F929F92AF92BF92CF9250
:10284000DF92EF92FF920F931F93CF93DF93CDB759
:10285000DEB72A970FB6F894DEBF0FBECDBF1C01BE
:102860006B0149835A830E9428132BE0C216D104BE
:102870000CF4CDC0EE24D7FCE094FE2CC701B601C9
:102880000E94B03320E030E040E251E40E94153372
:102890002B013C0139813B838A818C83510100E00B
:1028A00010E0AB81BC818D919D91BC83AB834501D0
:1028B000B4ED8B0E911CF101E00FF11FE054FF4FBE
:1028C00020813181821B930BBC01882777FD809585
:1028D000982F0E94B033A30192010E941533F40196
:1028E00060837183828393830E5F1F4FF4E0AF0E8A
:1028F000B11C08301105A9F60E9436289101245315
:102900003F4F3C832B836C0D7D1D8E1D9F1DD90178
:102910006D937D938D939C93139744244394512CF2
:10292000F101E053FF4FFE83ED83245C31093887CA
:102930002F830E943628EB81FC8100811181228146
:102940003381601771078207930708F076C00E94F1
:102950003628665F7F4F8F4F9F4FAD81BE816D934D
:102960007D938D939C9313976F80788481011A8651
:1029700019864201AA2497FCA094BA2CE985FA850D
:10298000E20DF31DE054FF4F80819181BC01882747
:1029900077FD8095982F0E94B0336B017C01C501B3
:1029A000B4010E94B033F801EC52FF4F2081318115
:1029B000428153810E9464349B01AC01C701B6017E
:1029C0000E94AD320E947D33C3010E941432E9851A
:1029D000FA853296FA87E9870C5F1F4FF9E26F0E8E
:1029E000711C29853A852830310541F60E94362828
:1029F000AD81BE810D911D912D913C9160177107A4
:102A00008207930798F3BFEF4B1A5B0A92CFC980F6
:102A1000DA8000E010E07101F8E0EF0EF11CD60161
:102A20006D917D916D01C701800F911F0E9414323D
:102A3000075D1F4F043A110591F7E981FA8180E0A3
:102A400090E021913191D101A80FB91FA054BF4F3F
:102A50002D933C9302968830910599F72A960FB6EC
:102A6000F894DEBF0FBECDBFDF91CF911F910F91C4
:102A7000FF90EF90DF90CF90BF90AF909F908F909E
:102A80007F906F905F904F903F902F9008952F927E
:102A90003F924F925F926F927F928F929F92AF92EE
:102AA000BF92CF92DF92EF92FF920F931F93CF933B
:102AB000DF9300D000D0CDB7DEB75C01CA01290199
:102AC000A70196013C014B01650188E0C80ED11CAD
:102AD000780104E010E03C2C2D2CF30181919191C0
:102AE0003F01F60196838583F401819191914F0115
:102AF000F60194838383B201C60129833A834B8311
:102B00005C830E94F331F70181919191A191B19180
:102B10007F01F60181879287A387B487015011094D
:102B2000F9E2CF0ED11C29813A814B815C810115DC
:102B3000110599F60E9436280E94AE336B017C0184
:102B4000B201882777FD8095982F0E94B0332981A4
:102B50003A814B815C810E946434A70196010E94F6
:102B6000AD322B013C0185010F5C1F4F45018AE509
:102B7000880E911CE3E8AE0EB11CA3019201C701BF
:102B8000B6010E9411331816A4F0832D922D0E94D5
:102B90001B32C8010E941B32C4010E941B32C501B6
:102BA0000E941B320E9436280E94AE336B017C01CA
:102BB000E4CF0F900F900F900F90DF91CF911F9166
:102BC0000F91FF90EF90DF90CF90BF90AF909F90CC
:102BD0008F907F906F905F904F903F902F900895CF
:102BE0002F923F924F925F926F927F928F929F921D
:102BF000AF92BF92CF92DF92EF92FF920F931F930B
:102C0000CF93DF93CDB7DEB72C970FB6F894DEBF26
:102C10000FBECDBF4C017A8369835C834B833E83B7
:102C20002D831801260137010E942813C701B60120
:102C30000E947D336F83788789879A87AF80B884B5
:102C40001A141B04A4F12F813885B901882777FD58
:102C50008095982F0E94B0339B01AC01C301B20153
:102C60000E94AC326B017C0181012D813E814B8140
:102C70005C8169817A81C4010E9447152C960FB648
:102C8000F894DEBF0FBECDBFDF91CF911F910F91A2
:102C9000FF90EF90DF90CF90BF90AF909F908F907C
:102CA0007F906F905F904F903F902F9008951C867B
:102CB0001B86C12CD12C90E8E92E9FE3F92E8101CF
:102CC0002D813E814B815C8169817A81C4010E94A2
:102CD00047158B859C8501969C878B878A159B055C
:102CE00041F7B1CF0F931F93CF93DF93CDB7DEB7EB
:102CF00028970FB6F894DEBF0FBECDBF8C0188E0D9
:102D0000E4E1F1E0DE01119601900D928A95E1F780
:102D1000AE014F5F5F4F64EF71E0C8010E94151470
:102D2000C8010E94CE1328960FB6F894DEBF0FBEDE
:102D3000CDBFDF91CF911F910F9108958F929F92F8
:102D4000AF92BF92CF92DF92EF92FF920F931F93B9
:102D5000CF93DF93CDB7DEB7A0970FB6F894DEBF61
:102D60000FBECDBF5C016A017B014901980188E07B
:102D7000ECE1F1E0DE01599601900D928A95E1F7C0
:102D800088E0E4E2F1E0DE01519601900D928A952F
:102D9000E1F78E010F5F1F4F80E1F80111928A95D4
:102DA000E9F746EA4203B001439F700D11248827DA
:102DB00077FD8095982F0E94B0332BED3FE049E4DA
:102DC00050E40E94643420E030E044E353E40E9485
:102DD000153369877A878B879C876D877E878F8776
:102DE000988B9401AE014F5E5F4FBE01675E7F4FCF
:102DF000C5010E94F015A0960FB6F894DEBF0FBE75
:102E0000CDBFDF91CF911F910F91FF90EF90DF9099
:102E1000CF90BF90AF909F908F900895CF92DF9208
:102E2000EF92FF920F931F93CF93DF93CDB7DEB74F
:102E3000A0970FB6F894DEBF0FBECDBFE8E0FE2E20
:102E4000ECE1F1E0DE01599601900D92FA94E1F780
:102E5000F8E0FF2EE4E2F1E0DE01519601900D92E0
:102E6000FA94E1F7A0E1FA2EECE2F1E0DE0111962E
:102E700001900D92FA94E1F70130110539F4EEE179
:102E8000F0E0FA8FE98FEAE0F0E006C0EAE0F0E077
:102E9000FA8FE98FEEE1F0E0FC8FEB8F6A017B01A6
:102EA0008E010F5F1F4FAE014F5E5F4FBE01675E29
:102EB0007F4F0E94F015A0960FB6F894DEBF0FBEAC
:102EC000CDBFDF91CF911F910F91FF90EF90DF90D9
:102ED000CF900895CF92DF92EF92FF920F931F93BE
:102EE000CF93DF93CDB7DEB7A0970FB6F894DEBFD0
:102EF0000FBECDBF6A017B01E8E0BE01675E7F4F78
:102F0000DB014E2F1D924A95E9F71E8F0D8F18A3F6
:102F10000F8FAE014F5E5F4FDA011D92EA95E9F720
:102F20001E8B0D8B119501951109188F0F8B10E1D8
:102F3000ECE3F1E0DE01119601900D921A95E1F7B4
:102F40008E010F5F1F4F0E94F015A0960FB6F894E8
:102F5000DEBF0FBECDBFDF91CF911F910F91FF90CC
:102F6000EF90DF90CF9008952F923F924F925F9213
:102F70006F927F928F929F92AF92BF92CF92DF9289
:102F8000EF92FF920F931F93CF93DF93CDB7DEB7EE
:102F9000A2970FB6F894DEBF0FBECDBF4C011A0149
:102FA0002B01390188E09E01275E3F4F3AA329A3F8
:102FB000F901282F11922A95E9F71E8F0D8F18A37A
:102FC0000F8F5E0131E1A30EB11CF50111928A95BC
:102FD000E9F7C80117FD01969595879502969E8B96
:102FE0008D8B17FF02C00F5F1F4F15950795119529
:102FF0000195110902501109188F0F8B26EAA701BC
:1030000024036001259FD00C11248E010F5F1F4FF8
:1030100080E1F80111928A95E9F7B601882777FDDA
:103020008095982F0E94B0332BED3FE049E450E4A7
:103030000E94643420E030E044E353E40E941533FE
:1030400069877A878B879C8724ECA7012403B001CA
:10305000259F700D11246C0D7D1D882777FD8095AF
:10306000982F0E94B0332BED3FE049E450E40E94DA
:10307000643420E030E044E353E40E9415336D876C
:103080007E878F87988B720161019301A501BE0134
:10309000675E7F4FC4010E94F015A2960FB6F894A8
:1030A000DEBF0FBECDBFDF91CF911F910F91FF907B
:1030B000EF90DF90CF90BF90AF909F908F907F90D8
:1030C0006F905F904F903F902F900895CF92DF9236
:1030D000EF92FF920F931F93CF93DF93CDB7DEB79D
:1030E000A0970FB6F894DEBF0FBECDBF6A017B017B
:1030F000E8E0BE01675E7F4FDB014E2F1D924A95CF
:10310000E9F71E8F0D8F18A30F8FAE014F5E5F4F33
:10311000DA011D92EA95E9F7F80117FD3196F59568
:10312000E795FE8BED8B17FF02C00F5F1F4F1595C4
:103130000795119501951109188F0F8B8E010F5F5F
:103140001F4FE0E1D8011D92EA95E9F70E94F015C2
:10315000A0960FB6F894DEBF0FBECDBFDF91CF9122
:103160001F910F91FF90EF90DF90CF900895CF9235
:10317000DF92EF92FF920F931F93CF93DF93CDB720
:10318000DEB7A0970FB6F894DEBF0FBECDBF6A01C1
:103190007B01E8E0BE01675E7F4FDB014E2F1D9291
:1031A0004A95E9F71E8F0D8F18A30F8FAE014F5E62
:1031B0005F4FDA011D92EA95E9F71E8B0D8B119591
:1031C00001951109188F0F8B8E010F5F1F4FE0E1E2
:1031D000D8011D92EA95E9F70E94F015A0960FB666
:1031E000F894DEBF0FBECDBFDF91CF911F910F913D
:1031F000FF90EF90DF90CF9008952F923F924F92E3
:103200005F926F927F928F929F92AF92BF92CF9276
:10321000DF92EF92FF920F931F93CF93DF93CDB77F
:10322000DEB7A0970FB6F894DEBF0FBECDBF4C013E
:103230005A016B01390128E02E0149E1440E511C6D
:10324000F201422F11924A95E9F789E190E09A8FB5
:10325000898F9C8F8B8F1E8F0D8F18A30F8F1E0150
:1032600051E1250E311CF10111922A95E9F7C801AF
:1032700017FD01969595879504969E8B8D8B17FF6C
:1032800002C00F5F1F4F1595079511950195110904
:1032900004501109188F0F8B8E010F5F1F4F80E1B3
:1032A000F80111928A95E9F780E090E0A4EBB2E48E
:1032B00089839A83AB83BC838D839E83AF83B887D6
:1032C00024ECA7012403B001259F700D1124882749
:1032D00077FD8095982F0E94B0332BED3FE049E4B5
:1032E00050E40E94643420E030E044E353E40E9460
:1032F00015336D877E878F87988B760165019301E3
:10330000A101B201C4010E94F015A0960FB6F89475
:10331000DEBF0FBECDBFDF91CF911F910F91FF9008
:10332000EF90DF90CF90BF90AF909F908F907F9065
:103330006F905F904F903F902F900895EF92FF9283
:103340000F931F93CF93DF93CDB7DEB760970FB680
:10335000F894DEBF0FBECDBF8C01790188E0ECE4AC
:10336000F1E0DE01199601900D928A95E1F7AE0128
:10337000475F5F4FB901C8010E94151488E0E4E17E
:10338000F1E0DE01119601900D928A95E1F7AE0110
:103390004F5F5F4FB701C8010E94151460960FB6CA
:1033A000F894DEBF0FBECDBFDF91CF911F910F917B
:1033B000FF90EF9008952F923F924F925F926F92FD
:1033C0007F928F929F92AF92BF92CF92DF92EF92B5
:1033D000FF920F931F93CF93DF93CDB7DEB7A097E4
:1033E0000FB6F894DEBF0FBECDBF4C015A016B0182
:1033F000390128E02E0149E1440E511CF201422F0F
:1034000011924A95E9F78CE090E09A8F898F9C8F12
:103410008B8F1E8F0D8F18A30F8F1E0151E1250E6C
:10342000311CF10111922A95E9F7C8010A979E8B88
:103430008D8B8AE090E0801B910B988F8F8B8E0193
:103440000F5F1F4F80E1F80111928A95E9F78BED2C
:103450009FE0A9E4B0E48D839E83AF83B88726EA1A
:10346000A7012403B001259F700D1124882777FD43
:103470008095982F0E94B0332BED3FE049E450E453
:103480000E94643420E030E044E353E40E941533AA
:1034900069877A878B879C878AE58E9DB0018F9D8F
:1034A000700D1124882777FD8095982F0E94B033E6
:1034B0002BED3FE049E450E40E94643420E030E02A
:1034C00044E353E40E9415336D877E878F87988B82
:1034D000760165019301A101B201C4010E94F015BA
:1034E000A0960FB6F894DEBF0FBECDBFDF91CF918F
:1034F0001F910F91FF90EF90DF90CF90BF90AF9012
:103500009F908F907F906F905F904F903F902F9003
:1035100008958F929F92AF92BF92CF92DF92EF92D7
:10352000FF920F931F93CF93DF93CDB7DEB7A09792
:103530000FB6F894DEBF0FBECDBF8C014B0188E003
:10354000E4E5F1E0DE01599601900D928A95E1F7EC
:1035500088E0ECE5F1E0DE01519601900D928A954C
:10356000E1F788E0E4E6F1E0DE01199601900D92C2
:103570008A95E1F788E0E4E1F1E0DE01119601903F
:103580000D928A95E1F721303105A1F481E990E0AF
:103590009E8F8D8F8AE790E098A38F8F2CE330E089
:1035A0003E8B2D8B988F8F8B28E730E03E872D87C1
:1035B000988B8F876A0188EEC81A83E0D80A80E961
:1035C000C81681E0D80624F440E9C42EDD24D39443
:1035D0007601F594E794F594E794A12CB12CA81406
:1035E000B904C4F5AE01475E5F4F64EF71E0C801F6
:1035F0000E941514AE014F5E5F4F64EF71E0C80189
:103600000E941514AE01475F5F4FB701C8010E94C9
:103610001514AE014F5E5F4FB701C8010E9415142B
:10362000AE01475F5F4FB701C8010E941514AE019C
:103630004F5E5F4FB701C8010E941514AE014F5F86
:103640005F4F64EF71E0C8010E9415148FEFA81A54
:10365000B80AC5CFB601882777FD8095982F0E94BC
:103660006528A0960FB6F894DEBF0FBECDBFDF91E0
:10367000CF911F910F91FF90EF90DF90CF90BF906F
:10368000AF909F908F9008954F925F926F927F922C
:103690008F929F92AF92BF92CF92DF92EF92FF9262
:1036A0000F931F93CF93DF93CDB7DEB768970FB615
:1036B000F894DEBF0FBECDBF8C016B0188E0E4E55E
:1036C000F1E0DE01519601900D928A95E1F788E0D4
:1036D000ECE6F1E0DE01199601900D928A95E1F792
:1036E00088E0E4E1F1E0DE01119601900D928A9507
:1036F000E1F7FA01483582E0580714F4E8E5F2E012
:103700002F3F3F4F71F481E990E09E8B8D8B8AE7CC
:1037100090E0988F8F8B2BE430E03E872D87988B3D
:103720008F874F019594879495948794CF016AE091
:1037300070E00E947E355B012F01440C551C4E0E3B
:103740005F1E5594479455944794662457FC6094A3
:10375000762CE12CF12CEC14FD04F4F4AE014F5E58
:103760005F4FB401C8010E941514AE01475F5F4F5F
:10377000B501C8010E941514C301B2010E94652859
:10378000AE014F5F5F4F64EF71E0C8010E941514F6
:103790008FEFE81AF80ADFCF68960FB6F894DEBF0D
:1037A0000FBECDBFDF91CF911F910F91FF90EF9092
:1037B000DF90CF90BF90AF909F908F907F906F9051
:1037C0005F904F900895CF92DF92EF92FF920F9308
:1037D0001F93CF93DF93CDB7DEB7A0970FB6F894C2
:1037E000DEBF0FBECDBF6A017B010A31110514F0A7
:1037F00009E110E0E8E0BE01675E7F4FDB014E2F7C
:103800001D924A95E9F71A8F098F1C8F0B8FAE0115
:103810004F5E5F4FDA011D92EA95E9F710E1E4E7A8
:10382000F1E0DE01119601900D921A95E1F78E01FB
:103830000F5F1F4F0E944715A0960FB6F894DEBF8A
:103840000FBECDBFDF91CF911F910F91FF90EF90F1
:10385000DF90CF900895CF92DF92EF92FF920F9377
:103860001F93CF93DF93CDB7DEB7A0970FB6F89431
:10387000DEBF0FBECDBF6A017B010031110514F020
:103880000FE010E01A8F098F1C8F0B8F1E8F0D8F8A
:1038900018A30F8FAE014F5E5F4F68E0FA011192DF
:1038A0006A95E9F7B8016C5F7F4F7E8B6D8B64E0A2
:1038B00070E0601B710B788F6F8B60E1E4E8F1E0E2
:1038C000DE01119601900D926A95E1F78E010F5F6E
:1038D0001F4FBE01675E7F4F0E94F015A0960FB686
:1038E000F894DEBF0FBECDBFDF91CF911F910F9136
:1038F000FF90EF90DF90CF90089584559F4F0C94E8
:1039000086110F931F93CF93DF938C0106531F4FA4
:10391000F80180810E94D228EC0162E070E080E032
:1039200090E00E946528F80180810E94D228C80F8B
:10393000D91F62E070E080E090E00E946528CE012F
:10394000D7FD019695958795DF91CF911F910F91A6
:103950000895CF92DF92EF92FF920F931F93CF9330
:10396000DF938C01095F1F4FC8010E942B11CAE031
:10397000D0E0C12CD12C7601C8010E942B119B01F3
:10398000AC01C701B6010E94AD326B017C0161E060
:1039900070E080E090E00E946528219769F720E0C0
:1039A00030E040E251E4C701B6010E941533DF91D7
:1039B000CF911F910F91FF90EF90DF90CF900895DE
:1039C000CF93DF93CDB7DEB7CC57D1090FB6F894BC
:1039D000DEBF0FBECDBF8CE7E4E9F1E0DE0111965A
:1039E00001900D928A95E1F7660F771F660F771F9A
:1039F00081E090E08C0F9D1F680F791FFB016081B3
:103A0000718182819381C458DF4F0FB6F894DEBF75
:103A10000FBECDBFDF91CF910895CF93DF93EC011F
:103A2000BA010E94E01CAB01BC01CE01DF91CF9135
:103A30000C94FD11CF93DF93CDB7DEB7C057D109FA
:103A40000FB6F894DEBF0FBECDBF80E2E0E1F2E03A
:103A5000DE01999601900D928A95E1F780E1E0E30D
:103A6000F2E0DE01AF59BF4F01900D928A95E1F768
:103A700088E1E0E4F2E0DE01A75BBF4F01900D9228
:103A80008A95E1F788E2E8E5F2E0DE01119601901F
:103A90000D928A95E1F76130710509F194F4672B75
:103AA000B1F5FA01EE0FFF1FEE0FFF1F81E090E06E
:103AB0008C0F9D1FE80FF91F60A571A582A593A526
:103AC00026C06230710599F06330710501F5FA0185
:103AD000EE0FFF1FEE0FFF1F81E090E00FC0FA0115
:103AE000EE0FFF1FEE0FFF1F81E690E007C0FA0107
:103AF000EE0FFF1FEE0FFF1F89E490E08C0F9D1F5C
:103B0000E80FF91F608171818281938100C0C059E3
:103B1000DF4F0FB6F894DEBF0FBECDBFDF91CF9160
:103B20000895CF93DF93EC01CB01BA01A901CE0137
:103B30000E941A1DAB01BC01CE01DF91CF910C9404
:103B4000FD1121110C940D1D0C94FD110C94041207
:103B50008F929F92AF92BF92EF92FF920F931F931B
:103B6000CF93DF93EC0148015901CB01BA010E94C8
:103B70008233C853DF4FA501940188810E94302E03
:103B8000C501B4010E946528B701882777FD80959B
:103B9000982FDF91CF911F910F91FF90EF90BF90E1
:103BA000AF909F908F900C9465282F923F924F92E8
:103BB0005F926F927F928F929F92AF92BF92CF92BD
:103BC000DF92EF92FF920F931F93CF93DF93CDB7C6
:103BD000DEB728970FB6F894DEBF0FBECDBF1C012D
:103BE0002A013B0109831A832B833C83CD82DE8229
:103BF000EF82F886CD8CDE8CA9019801C301B20159
:103C00000E94113387FF25C0C301B2010E947D339A
:103C1000882777FD8095982F0E94B0332B013C01B7
:103C200029813A814B815C810E94113387FF36C024
:103C3000760195018401B301A201C1010E94A81D72
:103C40002D813E814F815885C301B2010E946434A9
:103C5000DDCFC301B2010E947D33882777FD8095B7
:103C6000982F0E94B0332B013C0129813A814B816E
:103C70005C810E94603418168CF4760195018401F1
:103C8000B301A201C1010E94A81D2D813E814F8177
:103C90005885C301B2010E941533DDCF28960FB6B7
:103CA000F894DEBF0FBECDBFDF91CF911F910F9172
:103CB000FF90EF90DF90CF90BF90AF909F908F904C
:103CC0007F906F905F904F903F902F9008957F92DC
:103CD0008F929F92AF92BF92CF92DF92EF92FF921C
:103CE0000F931F93CF93DF93EC016331710508F0BD
:103CF00048C3FB01EB5AFF4F0C94D3353EE1E32E52
:103D0000F12C02E310E020E030E044EA50ED64E200
:103D100074E40E94A81D49E1E42EF12C07E310E0B1
:103D200020E030E042E550ED64EA74E4CE010E9408
:103D3000A81D5AE0E52EF12C0CE310E020E030E065
:103D400040E050E06CED74E427C08EE1E82EF12CE9
:103D500002E310E020E030E044EA50ED64E274E475
:103D6000CE010E94A81D99E1E92EF12C07E310E095
:103D700020E030E040E050E06CED74E4CE010E94C1
:103D8000A81D2AE0E22EF12C02E310E020E030E052
:103D900042E550ED64EA74E4CE010E94A81DF1C230
:103DA0001F92F2E07F2E7F92A4E18A2E912CA12C0B
:103DB000B12CBAE0CB2EB7EDDB2EB3E8EB2EBFE390
:103DC000FB2E0CE51FEF23EC34E442E550ED64EAF2
:103DD00074E40E94D51D6EE170E080E090E00E94E6
:103DE00065281F927F921AE0812E912CA12CB12C74
:103DF00008EBC02E0EE1D02E05E8E02E0FE3F02EEA
:103E00000FE115ED22E135E442E550ED64EA74E49A
:103E1000B1C21F928AE08F937EE1872E912CA12C54
:103E2000B12CECE5CE2EEFE8DE2EE2E8EE2EEFE34D
:103E3000FE2E00E010E02CED34E442E550ED64EAA3
:103E400074E46DC21F928AE08F935EE1852E912CFF
:103E5000A12CB12C6AE0C62E67EDD62E63E8E62EC3
:103E60006FE3F62E0FE115ED22E135E44CE55FEF4F
:103E700063EC74E454C234E6E32EF12C02E310E068
:103E800020E030E042E550ED64EA74E40E94A81DB1
:103E900040E5E42EF12C02E310E020E030E04CE5B8
:103EA0005FEF63EC74E4CE010E94A81DE12CF12CBD
:103EB0000CE211E020E030E04FE155ED62E175E405
:103EC0006BCF1F92772473947F920AE0802E912CFF
:103ED000A12CB12C8CE5C82E8FE8D82E82E8E82ED4
:103EE0008FE3F82E00E010E626E035E440E050E0F5
:103EF00068E474E4CE010E94D51D1F927F9297E082
:103F0000892E912CA12CB12C2AE0C22E27EDD22E85
:103F100023E8E22E2FE3F22E00E010E028E434E460
:103F200040E050E566E075E425C21F9283E08F9380
:103F3000A8E08A2E912CA12CB12CB8EBCB2EBEE19F
:103F4000DB2EB5E8EB2EBFE3FB2E00E010E02AEFFE
:103F500034E440E050E06CE574E4CE010E94D51DED
:103F600068EC70E080E090E00E9465280F900F9070
:103F700016E1C12ED12CFAE0EF2EF12C05E010E075
:103F800020E030E048E451EF66E774E4CE010E949F
:103F9000A81D81E0C81AD10871F7F3C11F9283E010
:103FA0008F9368E0862E912CA12CB12C7AE0C72E3D
:103FB00077EDD72E73E8E72E7FE3F72E00E010E8C9
:103FC0002BE335E440E050E06BEE74E4CE010E9458
:103FD000D51D68EC70E080E090E00E9465280F90AD
:103FE0000F90E0E1CE2ED12C5AE0E52EF12C0AE024
:103FF00010E020E030E040E050ED62E874E4CE01F3
:104000000E94A81D81E0C81AD10871F7BAC11F9299
:1040100084E08F9390E1892E912CA12CB12C2AE081
:10402000C22E27EDD22E23E8E22E2FE3F22E00E05F
:1040300010E021E634E440E050E06FE274E4CE01A9
:104040000E94D51D1F9287E08F9332E1832E912C21
:10405000A12CB12C4EEAC42E47E4D42E41E8E42E24
:104060004FE3F42E00E010E822E234E440E050ECAC
:1040700060E674E47FC11F928AE08F930AE0802E8D
:10408000912CA12CB12C88EBC82E8EE1D82E85E87E
:10409000E82E8FE3F82E00E010E02AEF33E440E052
:1040A00050E068EC72E4CE010E94D51D64EF71E02F
:1040B00080E090E00E9465281F9281E08F9300E0ED
:1040C00010E028EC32E440E050E068EC73E452C1C8
:1040D0001F92F8E07F2E7F92A4E18A2E912CA12CD2
:1040E000B12CB6E6CB2EDC2CB6E8EB2EBFE3FB2ED4
:1040F00000E010E42CE135E440E050E86BEB74E4C0
:104100000E94D51D1F927F9219E1812E912CA12C26
:10411000B12C00E010E82BEB34E440E050E36CE11C
:1041200075E428C11F9283E08F9368E0862E912C5E
:10413000A12CB12C76E6C72EDC2C76E8E72E7FE3A7
:10414000F72E00E010E82BEB35E440E050E06AEF9A
:1041500074E4CE010E94D51D62E370E080E090E03F
:104160000E9465281F9282E08F93EDE08E2E912CA5
:10417000A12CB12C00E010E02AEF34E440E058E735
:104180006BEB75E4F7C01F9228E0722E7F923FE040
:10419000832E912CA12CB12C46E6C42EDC2C46E8B3
:1041A000E42E4FE3F42E00E010E02AEF34E440E088
:1041B00050E86BEB74E40E94D51D64E670E080E08B
:1041C00090E00E9465281F927F925AE0852E912CE4
:1041D000A12CB12C00E010E42CE135E440E050E8E3
:1041E0006DEE74E4C7C01F9288EC8F9384E1882E33
:1041F000912CA12CB12C9CE5C92E9FE8D92E92E8D8
:10420000E92E9FE3F92E00E010E427E234E440E0D9
:1042100050E06CE574E483C01F9282E08F93F8E075
:104220008F2E912CA12CB12CAAE0CA2EA7EDDA2E4C
:10423000A3E8EA2EAFE3FA2E00E010E824ED34E420
:1042400040E050E06AE774E4CE010E94D51D1F9261
:1042500083E08F93B8EBCB2EBEE1DB2EB5E8EB2EDF
:10426000BFE3FB2E00E010E02AEF33E440E050E62D
:1042700064ED74E4CE010E94D51D1F928AE08F93F5
:1042800019E0812E912CA12CB12C06E6C02EDC2C3D
:1042900006E8E02E0FE3F02E00E010E824ED34E411
:1042A00040E050E06AE774E4CE010E94D51D0F9013
:1042B0000F900F900F900F900F9063C01F928FE0A0
:1042C0008F9372E0872E912CA12CB12CECE5CE2E91
:1042D000EFE8DE2EE2E8EE2EEFE3FE2E00E010E83F
:1042E0002BE335E440E050E068EC74E418C01F9222
:1042F00084E18F9352E0852E912CA12CB12C6CE59A
:10430000C62E6FE8D62E62E8E62E6FE3F62E00E0AA
:1043100010E82BEB35E440E050E06AEF74E4CE01A6
:104320000E94D51D0F900F902CC01F9224E1722E79
:104330007F9232E0832E912CA12CB12C4CE5C42E1F
:104340004FE8D42E42E8E42E4FE3F42E00E010E0D4
:104350002AE735E440E050E068EC74E40E94D51DA3
:104360001F927F9200E010E82BE335E440E050E03C
:104370006AE775E4CE010E94D51D0F900F900F9053
:104380000F90DF91CF911F910F91FF90EF90DF90F1
:10439000CF90BF90AF909F908F907F9008952F9275
:1043A0003F924F925F926F927F928F929F92AF92C5
:1043B000BF92CF92DF92EF92FF920F931F93CF9312
:1043C000DF93CDB7DEB7CA55D1090FB6F894DEBF7B
:1043D0000FBECDBF3C0188E0E0E8F2E0DE01A75B64
:1043E000BF4F01900D928A95E1F788E0E8E8F2E08E
:1043F000DE01AF5BBF4F01900D928A95E1F788E037
:10440000E0E9F2E0DE01D99601900D928A95E1F79C
:1044100088E0E8E9F2E0DE01D19601900D928A95FC
:10442000E1F788E0E0EAF2E0DE01999601900D9272
:104430008A95E1F788E0E8EAF2E0DE0191960190E2
:104440000D928A95E1F788E0E0EBF2E0DE01599603
:1044500001900D928A95E1F788E0E8EBF2E0DE0149
:10446000519601900D928A95E1F788E0E0ECF2E038
:10447000DE01199601900D928A95E1F788E0E8EC4B
:10448000F2E0DE01119601900D928A95E1F76D3010
:10449000710508F087C5FB01E859FF4F0C94D3352F
:1044A00082E090E067969FAF8EAF679733C484E059
:1044B00090E067969FAF8EAF6797D5C3FEE1EF2E72
:1044C000F12C02E310E020E030E044EA50ED64E239
:1044D00074E4C3010E94A81D4AE050E060E070E06F
:1044E000C3010E940D1D6DE070E0C3010E94671EB4
:1044F00004E110E020E233E040E050E060E87FE3D8
:10450000C3010E9466186DE070E076C14BE050E098
:1045100060E070E0C3010E940D1D6BE070E0C3011C
:104520000E94671E4CE050E060E070E0C3010E9412
:104530000D1D04E110E024EF31E040E050E060E8C0
:104540007FE3C3010E94B7184BE050E060E070E0E9
:10455000C3010E940D1D6CE070E0C3010E94671E44
:104560004CE050E060E070E0C3010E940D1D24EFBC
:1045700031E040E050E060E87FE3C3010E94B718FB
:1045800004C346E150E060E070E0C3010E940D1DED
:10459000AE01475B5F4F6CEB72E0C3010E941514E4
:1045A0001F9268EC562E5F9274E1872E912CA12CFD
:1045B000B12CECE5CE2EEFE8DE2EE2E8EE2EEFE3B6
:1045C000FE2E00E010E82FE434E440E050E06CE51B
:1045D00074E4C3010E94D51D48E150E060E070E042
:1045E000C3010E940D1D1F925F9200E010E825E4B8
:1045F00034E440E050E86FE474E4C3010E94D51D48
:1046000047E150E060E070E0C3010E940D1D1F9281
:104610005F9200E010E029E334E440E050E865E414
:1046200074E4C3010E94D51D48E150E060E070E0F1
:10463000C3010E940D1D1F925F9200E010E02FE267
:1046400034E440E050E069E374E4C3010E94D51D06
:1046500047E150E060E070E0C3010E940D1D1F9231
:104660005F9200E010E427E234E440E050E06FE2C3
:1046700074E4C3010E94D51D46E150E060E070E0A3
:10468000C3010E940D1D64EF71E080E090E00E9484
:104690006528C3010E9472166CE271E080E090E030
:1046A0000E94652807C2AE014F5B5F4F60E273E076
:1046B000C3010E94151444E0442E512C5AE0352EBB
:1046C0002224239420E030E041E050E060E070E0FC
:1046D000C3010E94911D1F923F922AE0822E912CCD
:1046E000A12CB12C38EBC32E3EE1D32E35E8E32EBE
:1046F0003FE3F32E00E010E028E433E440E050E034
:1047000068EC72E4C3010E94D51D21E030E041E075
:1047100050E060E070E0C3010E94911D1F923F9243
:1047200000E010E026E933E440E050E068E473E4A0
:10473000C3010E94D51D22E030E041E050E060E07E
:1047400070E0C3010E94911D1F923F9200E010E0B3
:104750002AEF33E440E050E066E973E4C3010E94CD
:10476000D51D64EF71E080E090E00E94652821E0B3
:1047700030E041E050E060E070E0C3010E94911D34
:104780001F922F9200E010E02AE733E440E050E06F
:1047900068EC73E4C3010E94D51D20E030E041E0E5
:1047A00050E060E070E0C3010E94911D1F922F92C3
:1047B00000E010E028EC32E440E050E06AE773E407
:1047C000C3010E94D51D64EF71E080E090E00E947B
:1047D000652891E0491A51080FB6F894DEBF0FBE64
:1047E000CDBF09F06FCF43E150E060E070E0C3015E
:1047F0000E940D1D69E070E0C3010E94671EC5C1E3
:10480000AE01475C5F4F64EF71E0C3010E94151475
:104810006CE271E080E090E00E94652843E150E0A6
:1048200060E070E0C3010E940D1D60E170E0C30113
:104830000E94671E40E150E060E070E0C3010E940A
:104840000D1D6AEF70E080E090E00E946528AE01E7
:104850004F5C5F4F64EF71E0C3010E9415146CE27E
:1048600071E080E090E00E94652843E150E060E064
:1048700070E0C3010E940D1D61E170E0C3010E9460
:10488000671E40E150E060E070E0C3010E940D1D32
:104890006AEF70E080E090E00E946528AE01475D1D
:1048A0005F4F64EF71E0C3010E9415146CE271E088
:1048B00080E090E00E94652843E150E060E070E015
:1048C000C3010E940D1D62E170E0C3010E94671EDA
:1048D00040E150E060E070E0C3010E940D1D6CE219
:1048E00071E080E090E00E946528C3010E9472168A
:1048F00064EF71E080E090E048C3AE014F5D5F4F30
:104900006CE271E0C3010E94151444E150E060E0E4
:1049100070E0C3010E940D1D6FE070E0C3010E94B2
:10492000671E2DC14DE050E060E070E0C3010E94C1
:104930000D1D69E070E0C3010E94671EEE24E39440
:10494000F12C0FE010E02CED35E040E050E060E0AD
:1049500070E4C3010E94FD18C3010E9472166DE04D
:1049600070E0C3010E94671E16C3AE01475E5F4F31
:104970006CE271E0C3010E9415144EE150E060E06A
:1049800070E0C3010E940D1DFEE1EF2EF12C04E644
:1049900010E020E030E040E050E06CE574E4C3015A
:1049A0000E94A81D1F92A4E05A2E5F92B7E08B2EA2
:1049B000912CA12CB12C1CE5C12E1FE8D12E12E8A0
:1049C000E12E1FE3F12E0FE115ED22E934E440E082
:1049D00050E06CE574E4C3010E94D51D1F9244248D
:1049E00043944F920AE0802E912CA12CB12C0CE51F
:1049F0001FEF23EC34E44FE155ED62E974E4C301A9
:104A00000E94D51D1F924F9200E010E02CE534E487
:104A10004CE55FEF63EC74E4C3010E94D51D6FE0C9
:104A200070E080E090E00E9465281F925F9284E130
:104A3000882E912CA12CB12C04EA10ED24E234E450
:104A400040E050E06CE574E4C3010E94D51D60E9CC
:104A500071E080E090E00E946528AE014F5E5F4FFC
:104A600068EC70E0C3010E9415141F925F920FE181
:104A700015ED22E934E440E050E06CE574E4C30154
:104A80000E94D51DAE01475F5F4F68EC70E0C30127
:104A90000E9415141F925F9204EA10ED24E234E4A0
:104AA00040E050E06CE574E4C3010E94D51DC301F1
:104AB0000E9472164BE050E060E070E0C3010E947B
:104AC0000D1D0FB6F894DEBF0FBECDBF6BC24EE119
:104AD00050E060E070E0C3010E940D1D1F9264E091
:104AE000562E5F9274E1872E912CA12CB12CECE50F
:104AF000CE2EEFE8DE2EE2E8EE2EEFE3FE2E0FE103
:104B000015ED22E934E440E050E06CE574E4C301C3
:104B10000E94D51D1F925F9204EA10ED24E234E456
:104B200040E050E06CE574E4C3010E94D51D6CE2E6
:104B300071E080E090E00E94652843E150E060E091
:104B400070E0C3010E940D1D0F900F900F900F9009
:104B500004E010E0AE014F5F5F4F64E670E0C30118
:104B60000E941514C3010E9472160150110991F799
:104B70004EE150E060E070E0C3010E940D1D64EF63
:104B800071E080E090E00E946528C3010E947216E7
:104B900002C2C3010E9404121F928AE08F9300E0B8
:104BA00010E829E834E46B964CAD5DAD6EAD7FAD99
:104BB0006B97C3010E94D51D0F900F90412C512C73
:104BC000920142E050E060E070E0C3010E94911D5C
:104BD000B1016C597F4F882777FD8095982F0E94EF
:104BE000B03365966CAF7DAF8EAF9FAF6597B10167
:104BF000882777FD8095982F0E94B033AB01BC01C8
:104C00001F929AE09F932AE0822E912CA12CB12C26
:104C100038EBC32E3EE1D32E35E8E32E3FE3F32EEF
:104C200065960CAD1DAD2EAD3FAD6597C3010E94DD
:104C3000D51D84E6281A31089FEF491A590A0F90AA
:104C40000F9080E9281681E0380609F0B9CF679601
:104C50008EAD9FAD6797019767969FAF8EAF6797B1
:104C6000892B09F48EC163961FAE1EAE639700E9CF
:104C700011E063962EAD3FAD639742E050E060E0F7
:104C800070E0C3010E94911D180194E6290E311CA9
:104C9000B801882777FD8095982F0E94B0336B96D6
:104CA0006CAF7DAF8EAF9FAF6B97B101882777FD5B
:104CB0008095982F0E94B0338B019C011F928AE04F
:104CC0008F934AE0842E912CA12CB12C58EBC52E49
:104CD0005EE1D52E55E8E52E5FE3F52E6B964CADE3
:104CE0005DAD6EAD7FAD6B97C3010E94D51D639620
:104CF0008EAD9FAD6397019663969FAF8EAF63971E
:104D00000F900F9098EE291693E0390609F441CFE1
:104D10008101AFCF212C312C64EF462E55245394C2
:104D2000910143E050E060E070E0C3010E94911DFA
:104D3000B2016C597F4F882777FD8095982F0E948C
:104D4000B03365966CAF7DAF8EAF9FAF6597B20104
:104D5000882777FD8095982F0E94B033AB01BC0166
:104D60001F929AE09F938AE0882E912CA12CB12C5F
:104D70009CE5C92E9FE8D92E92E8E92E9FE3F92EF3
:104D800065960CAD1DAD2EAD3FAD6597C3010E947C
:104D9000D51D85E6480E511C9FEF291A390A0F9040
:104DA0000F9086EE481685E0580609F0B9CF212C01
:104DB000312C910143E050E060E070E0C3010E94BB
:104DC000911DB2016C597F4F882777FD8095982FF0
:104DD0000E94B03365966CAF7DAF8EAF9FAF659785
:104DE000B201882777FD8095982F0E94B033AB01E0
:104DF000BC011F929AE09F931AE0812E912CA12C66
:104E0000B12C0CE5C02E0FE8D02E02E8E02E0FE307
:104E1000F02E65960CAD1DAD2EAD3FAD6597C3016F
:104E20000E94D51D85E6480E511C9FEF291A390AAC
:104E30000F900F9088ED481689E0580609F0B9CF19
:104E4000212C312C910143E050E060E070E0C3017F
:104E50000E94911DB20164567109882777FD8095E3
:104E6000982F0E94B03365966CAF7DAF8EAF9FAF29
:104E70006597B201882777FD8095982F0E94B033FF
:104E8000AB01BC011F929AE09F93AAE08A2E912C5D
:104E9000A12CB12CBCE5CB2EBFE8DB2EB2E8EB2E6B
:104EA000BFE3FB2E65960CAD1DAD2EAD3FAD6597F6
:104EB000C3010E94D51D85E6481A51089FEF291AA3
:104EC000390A0F900F9086EE481685E0580609F0D3
:104ED000B9CF212C312C910143E050E060E070E02B
:104EE000C3010E94911DB20164567109882777FDA4
:104EF0008095982F0E94B03365966CAF7DAF8EAFD2
:104F00009FAF6597B201882777FD8095982F0E9403
:104F1000B033AB01BC011F929AE09F93EAE08E2E62
:104F2000912CA12CB12CFCE5CF2EFFE8DF2EF2E86E
:104F3000EF2EFFE3FF2E65960CAD1DAD2EAD3FAD00
:104F40006597C3010E94D51D85E6481A51089FEF59
:104F5000291A390A0F900F9084EF481681E05806FD
:104F600009F0B9CF67968EAD9FAD679701976796A9
:104F70009FAF8EAF6797892B09F0CCCEC3010E94FB
:104F800004126CE271E080E090E00E94652803C0AA
:104F9000C3010E9404124BE050E060E070E0C301E6
:104FA0000E940D1DC65ADF4F0FB6F894DEBF0FBE2C
:104FB000CDBFDF91CF911F910F91FF90EF90DF90C8
:104FC000CF90BF90AF909F908F907F906F905F90A9
:104FD0004F903F902F9008951F920F920FB60F920F
:104FE00011242F933F938F939F93AF93BF938091FF
:104FF000A1069091A206A091A306B091A4063091BB
:10500000A00623E0230F2D3720F40196A11DB11D2A
:1050100005C026E8230F0296A11DB11D2093A0060E
:105020008093A1069093A206A093A306B093A40632
:105030008091A5069091A606A091A706B091A8061A
:105040000196A11DB11D8093A5069093A606A0937D
:10505000A706B093A806BF91AF919F918F913F9102
:105060002F910F900FBE0F901F9018952FB7F894A7
:105070006091A1067091A2068091A3069091A4066A
:105080002FBF08953FB7F8948091A5069091A6068A
:10509000A091A706B091A80626B5A89B05C02F3FF2
:1050A00019F00196A11DB11D3FBF6627782F892FEA
:1050B0009A2F620F711D811D911D42E0660F771FAF
:1050C000881F991F4A95D1F70895CF92DF92EF92EA
:1050D000FF92CF93DF936B017C010E944228EB018A
:1050E000C114D104E104F10489F00E94AB320E94A2
:1050F00042286C1B7D0B683E734090F381E0C81A18
:10510000D108E108F108C851DC4FEACFDF91CF9117
:10511000FF90EF90DF90CF900895019739F0880FBE
:10512000991F880F991F02970197F1F708957894B6
:1051300084B5826084BD84B5816084BD85B582609C
:1051400085BD85B5816085BDEEE6F0E0808181603A
:105150008083E1E8F0E0108280818260808380813A
:1051600081608083E0E8F0E0808181608083E1EB12
:10517000F0E0808184608083E0EBF0E080818160FA
:105180008083EAE7F0E080818460808380818260B0
:105190008083808181608083808180688083109299
:1051A000C10008958E3008F08E50877020910A015A
:1051B00090E4299F90011124822B80937C008091A0
:1051C0007A00806480937A0080917A0086FDFCCF1B
:1051D000809178002091790090E0922B089583309F
:1051E00081F028F4813099F08230A1F00895873061
:1051F000A9F08830B9F08430D1F4809180008F7D9F
:1052000003C0809180008F7780938000089584B5DB
:105210008F7702C084B58F7D84BD08958091B000E2
:105220008F7703C08091B0008F7D8093B000089588
:10523000CF93DF9390E0FC01E359FE4F2491FC01F2
:10524000EF57FE4F8491882349F190E0880F991F12
:10525000FC01E755FE4FA591B49181569E4FFC018C
:10526000C591D4919FB7611108C0F8948C91209595
:1052700082238C93888182230AC0623051F4F8948F
:105280008C91322F309583238C938881822B888355
:1052900004C0F8948C91822B8C939FBFDF91CF91A7
:1052A00008950F931F93CF93DF931F92CDB7DEB76F
:1052B000282F30E0F901E75AFE4F8491F901E359B4
:1052C000FE4F1491F901EF57FE4F04910023C9F0EE
:1052D000882321F069830E94EF286981E02FF0E0A4
:1052E000EE0FFF1FE156FE4FA591B4919FB7F894C2
:1052F0008C91611103C01095812301C0812B8C9387
:105300009FBF0F90DF91CF911F910F910895CF9282
:10531000DF92EF92FF920F931F93CF93DF9390E072
:10532000FC01E359FE4FD491FC01EF57FE4F7491FD
:10533000611102C0C0E001C0CD2FDA01C901BF7008
:10534000672F70E0660F771F6B567E4F00E010E00E
:105350009801FB01E590F490F70140814D234C1337
:105360001EC0680179014FEFC41AD40AE40AF40A96
:10537000081719072A073B0709F442C0970186015D
:10538000E8CF68017901FFEFCF1ADF0AEF0AFF0AC1
:10539000081719072A073B0799F197018601FB01B6
:1053A000E590F490F70140814D234C13EACF801B28
:1053B000910BA20BB30B20E030E0A901FB01E590BB
:1053C000F490F701F080FD22FC120AC0281739077B
:1053D0004A075B07A9F02F5F3F4F4F4F5F4FEECF5C
:1053E000A8E1B0E00E94D935605F7F4F8F4F9F4F9B
:1053F00024E096958795779567952A95D1F703C010
:1054000060E070E0CB01DF91CF911F910F91FF9091
:10541000EF90DF90CF900895FC01818D228D90E078
:10542000805C9F4F821B91098F7399270895FC011F
:10543000918D828D981731F0828DE80FF11D858D49
:1054400090E008958FEF9FEF0895FC01918D828D7C
:10545000981761F0828DDF01A80FB11D5D968C91C8
:10546000928D9F5F9F73928F90E008958FEF9FEFD3
:10547000089589EA9BE2892B49F080E090E0892B2E
:1054800029F00E94A92B81110C9400000895FC01C1
:10549000848DDF01A80FB11DA35ABF4F2C91848DBD
:1054A00090E001968F739927848FA689B7892C93F2
:1054B000A089B1898C9180648C93938D848D98138D
:1054C00006C00288F389E02D80818F7D8083089556
:1054D000CF93DF93EC01888D8823C9F0EA89FB899B
:1054E000808185FD05C0A889B9898C9186FD0FC092
:1054F0000FB607FCF5CF808185FFF2CFA889B98967
:105500008C9185FFEDCFCE010E94472AE7CFDF9136
:10551000CF910895CF92DF92FF920F931F93CF9375
:10552000DF931F92CDB7DEB76C01DC015B969C91D7
:105530005B975C968C915C97981307C05096ED91A1
:10554000FC915197808185FD32C0F601038D10E0FA
:105550000F5F1F4F0F731127F02EF601848DF81285
:1055600011C00FB607FCF9CFD6015096ED91FC9112
:105570005197808185FFF1CFC60169830E94472A38
:105580006981EBCF838DE80FF11DE35AFF4F6083F4
:10559000D6015B960C935B975296ED91FC915397D5
:1055A00080818062808381E058968C930DC0D60103
:1055B0005696ED91FC91579760835096ED91FC9132
:1055C000519780818064808381E090E00F90DF912B
:1055D000CF911F910F91FF90DF90CF900895BF92D0
:1055E000CF92DF92EF92FF92CF93DF93EC016A01AB
:1055F0007B01B22EE889F98982E08083411581EE32
:10560000580761057105A1F060E079E08DE390E055
:10561000A70196010E949235215031094109510993
:105620005695479537952795211580E1380798F0CD
:10563000E889F989108260E874E88EE190E0A701BA
:1056400096010E9492352150310941095109569520
:10565000479537952795EC85FD853083EE85FF8549
:105660002083188EEC89FD89B082EA89FB898081CC
:1056700080618083EA89FB89808188608083EA89F0
:10568000FB89808180688083EA89FB8980818F7DA6
:105690008083DF91CF91FF90EF90DF90CF90BF900C
:1056A00008951F920F920FB60F9211242F938F938C
:1056B0009F93EF93FF93E091B906F091BA06808132
:1056C000E091BF06F091C00682FD12C090818091EA
:1056D000C2068F5F8F732091C306821751F0E0914D
:1056E000C206F0E0E755F94F958F8093C20601C0DE
:1056F0008081FF91EF919F918F912F910F900FBE1D
:105700000F901F9018951F920F920FB60F921124B1
:105710002F933F934F935F936F937F938F939F93B9
:10572000AF93BF93EF93FF9389EA96E00E94472AD5
:10573000FF91EF91BF91AF919F918F917F916F9169
:105740005F914F913F912F910F900FBE0F901F903F
:10575000189589EA96E00E940C2A21E0892B09F429
:1057600020E0822F08951092AC061092AB0688EECE
:1057700093E0A0E0B0E08093AD069093AE06A093D6
:10578000AF06B093B0068CEF92E09093AA06809398
:10579000A90685EC90E09093B6068093B50684EC5C
:1057A00090E09093B8068093B70680EC90E09093D9
:1057B000BA068093B90681EC90E09093BC06809382
:1057C000BB0682EC90E09093BE068093BD0686EC0B
:1057D00090E09093C0068093BF061092C20610928C
:1057E000C3061092C4061092C506089508950E943B
:1057F00097280E94F62B0E94FC06C9E3DAE20E9479
:105800009A0B2097E1F30E94392AF9CFCF92DF92C9
:10581000EF92FF920F931F93CF93DF936C017A0166
:10582000EB01E60EF71E00E010E0CE15DF0561F09B
:105830006991D601ED91FC910190F081E02DC601B6
:105840000995080F191FF1CFC801DF91CF911F9162
:105850000F91FF90EF90DF90CF9008956115710543
:1058600081F0DB010D900020E9F7AD0141505109B5
:10587000461B570BDC01ED91FC910280F381E02D7A
:10588000099480E090E00895EF92FF920F931F93A8
:10589000CF93DF938C01FB01C0E0D0E064917F01E6
:1058A0008FEFE81AF80A662361F0D801ED91FC91B8
:1058B0000190F081E02DC8010995C80FD91FF701AB
:1058C000EDCFCE01DF91CF911F910F91FF90EF901F
:1058D00008950C942E2CDC01ED91FC910190F08147
:1058E000E02D09940F931F93CF93DF93EC016DE0AC
:1058F0000E946B2C8C016AE0CE010E946B2C800F01
:10590000911FDF91CF911F910F9108950F931F93D6
:10591000CF93DF93EC010E94442C8C01CE010E94B6
:10592000722C800F911FDF91CF911F910F910895DD
:105930008F929F92AF92BF92CF92DF92EF92FF929F
:105940000F931F93CF93DF93CDB7DEB7A1970FB619
:10595000F894DEBF0FBECDBF7C01C42EE52FCB0176
:10596000D22E19A221E02D1510F02AE0D22E8E01A0
:105970000F5D1F4F8D2C912CA12CB12C6C2D7E2FE7
:10598000A50194010E9492358C2DD29E801911247C
:10599000015011098A3014F4805D01C0895CF8015E
:1059A0008083211531054105510521F0C22EE32FD9
:1059B000CA01E4CFB801C7010E942E2CA1960FB6F0
:1059C000F894DEBF0FBECDBFDF91CF911F910F9135
:1059D000FF90EF90DF90CF90BF90AF909F908F900F
:1059E0000895CF92DF92EF92FF920F931F93CF9380
:1059F000DF93EC016A017B012115310579F4E8811F
:105A0000F9810190F081E02D642FDF91CF911F91FA
:105A10000F91FF90EF90DF90CF9009942A303105DD
:105A2000E9F477FF1AC06DE20E946B2C8C014427C9
:105A30005527BA014C195D096E097F092AE0CE018C
:105A40000E94982C800F911FDF91CF911F910F9191
:105A5000FF90EF90DF90CF9008952AE0B701A60164
:105A6000CE01DF91CF911F910F91FF90EF90DF90CA
:105A7000CF900C94982C9A01AB01662757FD609546
:105A8000762F0C94F12C4F925F926F927F928F92AF
:105A90009F92AF92BF92CF92DF92EF92FF920F93BD
:105AA0001F93CF93DF93EC016A017B01B22E9A0121
:105AB000AB01C701B6010E94CD34882319F068E01C
:105AC00073E027C026013701E89477F82FEF3FEF06
:105AD0004FE75FE7C301B2010E94CD3481110DC0D1
