:100000000C94DC000C94B2020C94D9020C94000302
:100010000C9463030C94C6030C9404010C940032FA
:100020000C9404010C9404010C9404010C94E60E4D
:100030000C9404010C9404010C9404010C9404012C
:100040000C9478290C9404010C94DD2C0C940F2D45
:100050000C9404010C9404010C9404010C9404010C
:100060000C9404010C940401CC0ACF0ADB0ADE0ACA
:10007000EA0AF80A000B110B1F0B270B380B420B77
:100080004A0B5B0B690B6C0B750B780B810B8F0BA1
:10009000480E4B0E4E0E510E540E570E5A0E5D0E5C
:1000A000600E630E660E690E6C0EB01ED71E011F29
:1000B0003A1F531F6C1F921FC61FFF1F38206C2052
:1000C0009920C320F42024213D218F21A821C6217D
:1000D000B822E0221B23AD235A24D724EC240F2579
:1000E000C125B122AA222C28DD2805A84CCDB2D4E6
:1000F0004EB93836A9020C50B9918688083CA6AA98
:10010000AA2ABE000000803F2525004600262600C2
:100110002525004100262600252500492000262609
:10012000002525004220002626002525004E20001F
:1001300026260025250044200026260025250045EA
:100140002000262600000102030405060700010224
:100150000304050001020304050000000800020179
:10016000000003040700000000000000000102047A
:100170000810204080010204081020010204081029
:100180002004040404040404040202020202020320
:1001900003030303030000000023002600290000DE
:1001A000000000250028002B00000000002400278C
:1001B000002A0002E4053F2D11241FBECFEFD8E036
:1001C000DEBFCDBF13E0A0E0B1E0EAE1F3E702C09B
:1001D00005900D92A433B107D9F727E0A4E3B3E06B
:1001E00001C01D92AC37B207E1F711E0C8EBD1E0D6
:1001F00004C02297FE010E946137C43BD107C9F7B2
:100200000E94832D0C948B390C94000081E0809324
:100210003E0390913F0391110BC080933F0321E077
:100220004FE050E060E070E084E493E00C94C51D82
:10023000089581E080933D0390913F0391110BC09D
:1002400080933F0321E04FE050E060E070E084E401
:1002500093E00C94C51D0895EF92FF920F931F93A6
:10026000CF93DF931F92CDB7DEB77C01FC010081F5
:100270001181C80169830E946A396981681719F080
:10028000C8010E947239C7010F90DF91CF911F9171
:100290000F91FF90EF9008950F931F93CF93DF93EB
:1002A00000D0CDB7DEB78B01FB0160819A838983D3
:1002B000CE0101960E942C01C8010F900F90DF9192
:1002C000CF911F910F910895A82FAF7787FD05C09B
:1002D0008EEF8A0F823008F499C0B0E0FD01E35937
:1002E000FE4F2491FD01EF57FE4F8491942F9D7F87
:1002F0009130B9F4823031F490918606922B90932C
:1003000086060FC0833031F490917706922B90933C
:10031000770607C0843029F490916406922B90935D
:10032000640641504230B8F4823031F49091850631
:10033000922B909385060FC0833031F4909176060E
:10034000922B9093760607C0843029F4909163062F
:10035000922B90936306FD01EB5BFE4FA4918230DC
:10036000C1F4B0E0AA0FBB1FA957B94F6D937C939E
:10037000E9E9F1E0A591B4918C91809384068BE634
:1003800090E0909398068093970680916800816032
:1003900033C08330C1F4B0E0AA0FBB1FA858B94FD7
:1003A0006D937C93EBE9F1E0A591B4918C918093EE
:1003B00075068CE690E0909398068093970680915E
:1003C0006800826019C08430C9F4B0E0AA0FBB1F76
:1003D000AB59B94F6D937C93EDE9F1E0A591B491E0
:1003E0008C91809362068DE690E0909398068093BE
:1003F000970680916800846080936800A0919706BA
:10040000B09198068C91822B8C9316C09FB7F8946C
:10041000A230B1F47093940660939306E8988091AB
:1004200069008C7F8093690080916900842B8093A0
:100430006900E09AE89A9FBF8FB780688FBF0895E0
:100440007093960660939506E99880916900837F82
:10045000809369008091690024E0429FA0011124EB
:10046000842B80936900E19AE99AE5CF3FB7F8942D
:10047000982F9F7787FD05C08EEF890F823008F493
:100480005EC0892F90E0FC01E359FE4F2491FC01EE
:10049000EF57FE4F84918230D1F480916B0020950C
:1004A000822380936B0080916B00811105C0809145
:1004B00068008E7F809368008091860682238093F7
:1004C00086068091850682238093850641C083300D
:1004D000D1F480916C002095822380936C008091F0
:1004E0006C00811105C0809168008D7F8093680049
:1004F0008091770682238093770680917606822307
:100500008093760625C0843019F580916D00209582
:10051000822380936D0080916D00811105C08091D0
:1005200068008B7F809368008091640682238093AB
:1005300064068091630682238093630609C092302B
:1005400049F4E898809169008C7F80936900E09A73
:100550003FBF0895E99880916900837F8093690087
:10056000E19AF6CF1F920F920FB60F9211242F939C
:100570003F934F935F936F937F938F939F93AF932B
:10058000BF93EF93FF93E0919306F0919406099542
:10059000FF91EF91BF91AF919F918F917F916F915B
:1005A0005F914F913F912F910F900FBE0F901F9031
:1005B00018951F920F920FB60F9211242F933F930D
:1005C0004F935F936F937F938F939F93AF93BF935B
:1005D000EF93FF93E0919506F09196060995FF91B0
:1005E000EF91BF91AF919F918F917F916F915F91AB
:1005F0004F913F912F910F900FBE0F901F90189524
:100600001F920F920FB60F9211242F933F934F9387
:100610005F936F937F938F939F93AF93BF93CF938A
:10062000EF93FF9393B1C091840620918606309199
:100630008506892F809583232923822B20916B00A7
:10064000C927C223C82390938406CC2351F1C0FF4D
:1006500005C0E0918706F09188060995C1FF05C0A5
:10066000E0918906F0918A060995C2FF05C0E091E4
:100670008B06F0918C060995C3FF05C0E0918D06AD
:10068000F0918E060995C4FF05C0E0918F06F091A8
:1006900090060995C5FF05C0E0919106F09192067C
:1006A0000995FF91EF91CF91BF91AF919F918F915C
:1006B0007F916F915F914F913F912F910F900FBE5E
:1006C0000F901F9018951F920F920FB60F92112442
:1006D0002F933F934F935F936F937F938F939F934A
:1006E000AF93BF93CF93EF93FF9396B1C0917506ED
:1006F0002091770630917606892F809583232923D0
:10070000822B20916C00C927C223C82390937506C1
:10071000CC2351F1C0FF05C0E0917806F091790635
:100720000995C1FF05C0E0917A06F0917B06099515
:10073000C2FF05C0E0917C06F0917D060995C3FFDC
:1007400005C0E0917E06F0917F060995C4FF05C0C3
:10075000E0918006F09181060995C5FF05C0E09102
:100760008206F09183060995FF91EF91CF91BF9199
:10077000AF919F918F917F916F915F914F913F9139
:100780002F910F900FBE0F901F9018951F920F92F0
:100790000FB60F9211242F933F934F935F936F9354
:1007A0007F938F939F93AF93BF93CF93EF93FF93D9
:1007B00099B1C09162062091640630916306892F39
:1007C000809583232923822B20916D00C927C22382
:1007D000C82390936206CC23C1F1C0FF05C0E0910D
:1007E0006506F09166060995C1FF05C0E0916706B0
:1007F000F09168060995C2FF05C0E0916906F09185
:100800006A060995C3FF05C0E0916B06F0916C067E
:100810000995C4FF05C0E0916D06F0916E0609953B
:10082000C5FF05C0E0916F06F09170060995C6FFFF
:1008300005C0E0917106F09172060995C7FF05C0E9
:10084000E0917306F09174060995FF91EF91CF91B5
:10085000BF91AF919F918F917F916F915F914F91D8
:100860003F912F910F900FBE0F901F90189584E429
:1008700093E00E94A11C0E9409356F30710524F499
:1008800081E08093340308951092340308958F9289
:100890009F92AF92BF92CF92DF92EF92FF920F930F
:1008A0001F93CF9384E493E00E94CD1C20E030E0BE
:1008B00048E452E40E949D3487FF54C0C3E0809115
:1008C0003F0381114FC021E04CE150E060E070E057
:1008D00084E493E00E94C51D1F92CF9348E0842ECC
:1008E000912CA12CB12C58EBC52E5EE1D52E55E8EC
:1008F000E52E5FE3F52E00E010E02AEF34E440E05F
:1009000050E06CE574E484E493E00E94FF1D6EE126
:1009100070E080E090E00E94F1291F92CF936CE597
:10092000C62E6FE8D62E62E8E62E6FE3F62E00E0C4
:1009300010E02CE534E440E050E06AEF74E484E435
:1009400093E00E94FF1D84E493E00E94CA1D64EFBF
:1009500071E080E090E00E94F1290F900F900F90DD
:100960000F90ADCFCF911F910F91FF90EF90DF903F
:10097000CF90BF90AF909F908F9008954F925F92CD
:100980006F927F928F929F92AF92BF92CF92DF929F
:10099000EF92FF920F931F93CF93DF93CDB7DEB704
:1009A00028970FB6F894DEBF0FBECDBF88E0EAE00F
:1009B000F1E0DE01119601900D928A95E1F78091A8
:1009C0003F03811109C0AE014F5F5F4F6CEB72E0D6
:1009D00084E493E00E941814F4E06F2E712CAAE0D6
:1009E0005A2E4424439480913F038823A1F08091A0
:1009F0003F038111C1C021E043E150E060E070E0BD
:100A000084E493E00E94C51D69E070E084E493E013
:100A10000E94991EB1C020E030E041E050E060E06B
:100A200070E084E493E00E94B51D1F925F927AE02B
:100A3000872E912CA12CB12CE8EBCE2EEEE1DE2EF0
:100A4000E5E8EE2EEFE3FE2E00E010E028E433E4CC
:100A500040E050E068EC72E484E493E00E94FF1D03
:100A600080913F030F900F908111C1CF21E030E0C2
:100A700041E050E060E070E084E493E00E94B51D46
:100A80001F925F9200E010E026E933E440E050E07E
:100A900068E473E484E493E00E94FF1D80913F03C7
:100AA0000F900F908111A3CF22E030E041E050E0A1
:100AB00060E070E084E493E00E94B51D1F925F92B5
:100AC00000E010E02AEF33E440E050E066E973E430
:100AD00084E493E00E94FF1D64EF71E080E090E009
:100AE0000E94F12980913F030F900F9081117FCFD9
:100AF00021E030E041E050E060E070E084E493E029
:100B00000E94B51D1F924F9200E010E02AE733E4E7
:100B100040E050E068EC73E484E493E00E94FF1D41
:100B200080913F030F900F90811161CF20E030E062
:100B300041E050E060E070E084E493E00E94B51D85
:100B40001F924F9200E010E028EC32E440E050E0C9
:100B50006AE773E484E493E00E94FF1D64EF71E0B0
:100B600080E090E00E94F12981E0681A71080F90FE
:100B70000F9009F038CF3BCF84E493E00E947D16BC
:100B800080913F03811109C021E04BE050E060E01B
:100B900070E084E493E00E94C51D28960FB6F89497
:100BA000DEBF0FBECDBFDF91CF911F910F91FF90A0
:100BB000EF90DF90CF90BF90AF909F908F907F90FD
:100BC0006F905F904F900895CF93DF9389E294E008
:100BD0000E9419122CE04DE06BE084E493E00E9447
:100BE000D5118BE493E00E94F710CCE4D3E0CE0162
:100BF0000E94A20F188A1F86A99683E0C03FD807DB
:100C0000B1F780EF93E0DF91CF910C945211CF9226
:100C1000DF92EF92FF920F931F93CF93DF93CDB7A5
:100C2000DEB72B970FB6F894DEBF0FBECDBF84E4BE
:100C300093E00E947D1619821A821B821C82FE019B
:100C4000359687E0DF011D928A95E9F78E010F5FE7
:100C50001F4FB5E0EB2EF12C6801C7010E946A39E5
:100C6000F80181938F01FFEFEF1AFF0A80E1E81688
:100C7000F10499F762E471E088EC96E00E94D02DCF
:100C80006FE371E088EC96E00E94D02DB60188EC0D
:100C900096E00E94F52D6CE371E088EC96E00E94EE
:100CA000122E88EC96E00E94F42B2B960FB6F89447
:100CB000DEBF0FBECDBFDF91CF911F910F91FF908F
:100CC000EF90DF90CF900895CF92DF92EF92FF9256
:100CD00084E493E00E947D1684E493E00E94A11CCA
:100CE0006B017C0169E371E088EC96E00E94D02DF5
:100CF00066E371E088EC96E00E94D02DC701B60152
:100D00000E9409354AE050E088EC96E00E94C72E28
:100D100063E371E088EC96E00E94122E88EC96E086
:100D2000FF90EF90DF90CF900C94F42BCF93DF9354
:100D300084E493E00E947D1684E493E00E94A51C65
:100D4000EC0160E371E088EC96E00E94D02D6DE24A
:100D500071E088EC96E00E94D02D4AE050E0BE01A0
:100D600088EC96E00E94C72E6AE271E088EC96E07B
:100D70000E94122E88EC96E0DF91CF910C94F42B18
:100D8000CF92DF92EF92FF9284E493E00E947D166F
:100D900084E493E00E94CD1C6B017C0167E271E06A
:100DA00088EC96E00E94D02D64E271E088EC96E039
:100DB0000E94D02D22E030E0B701A60188EC96E039
:100DC0000E94BA2F61E271E088EC96E00E94122E38
:100DD00088EC96E0FF90EF90DF90CF900C94F42B8E
:100DE00084E493E00E947D166EE171E088EC96E069
:100DF0000E94D02D6BE171E088EC96E00E94D02D2E
:100E000069E073E088EC96E00E94F52D68E171E0FE
:100E100088EC96E00E94122E88EC96E00C94F42B5D
:100E20008F929F92AF92BF92CF92DF92EF92FF92FA
:100E30000F931F93CF93DF931F92CDB7DEB726E0BA
:100E400040E052EC61E070E088EC96E00E947B2C80
:100E500060E086E00E94A42A60E087E00E94A42A65
:100E60001F9289E08F9308E0802E912C8AE0A82EB3
:100E7000B12C94E1C92ED12CEE24E39405E010E0CE
:100E800024E030E043E050E062E070E084E493E08E
:100E90000E94551384E10E945E2A0E945C3243E066
:100EA00066E071E086E00E94640143E069E171E080
:100EB00087E00E9464014EE359E06EEE72E089E241
:100EC00094E00E942E1246E459E060EF72E089E25D
:100ED00094E00E942E1240E859E062EF72E089E24D
:100EE00094E00E942E124BEC58E064EF72E089E22D
:100EF00094E00E942E124CE15EE066EF72E089E21F
:100F000094E00E942E124DED59E068EF72E089E204
:100F100094E00E942E1241E45AE06AEF72E089E206
:100F200094E00E942E1244E75EE06CEF72E089E2EA
:100F300094E00E942E1247E056E06EEF72E089E2E4
:100F400094E00E942E1244E656E060E073E089E2ED
:100F500094E00E942E1246E956E062E073E089E2D6
:100F600094E00E942E1240EC56E064E073E089E2C7
:100F700094E00E942E1240EF56E066E073E089E2B2
:100F800094E00E942E126EE379E089E294E00E94E0
:100F9000601260E070E084E493E00E94991E84E4B3
:100FA00093E00E947D1685E090E00E946A390F90E0
:100FB0000F908432F1F468E073E085E090E00E94E5
:100FC0004C011982BE016F5F7F4F86E090E00E9466
:100FD0004C0121E04DE150E060E070E084E493E0FA
:100FE0000E94C51D68EE73E080E090E00E94F12948
:100FF000F9CF0E94070662E370E080E090E00E9473
:10100000F1290E94F00662E370E080E090E00E9427
:10101000F1290E94C0060E94470412E0E12EF12C43
:1010200000E010E080913F03882329F081E0E81A76
:10103000F108A9F0F5CF980140E050E0BA0184E44E
:1010400093E00E94B51D66E970E080E090E00E94A8
:10105000F1290F5F1F4F0830110521F7E7CF80916D
:101060003F03811115C021E04AE050E060E070E0EC
:1010700084E493E00E94C51D6BE070E084E493E09B
:101080000E94991E68EC70E080E090E00E94F129D7
:1010900085E090E00E946A39833209F041C0809176
:1010A0003F03811110C02CEB32E040E050E060E8DB
:1010B0007FE384E493E00E94C21668EC70E080E075
:1010C00090E00E94F12980913F0381110CC0409172
:1010D00006015091070121E030E061E070E084E416
:1010E00093E00E946A1880913F03811119C021E0AA
:1010F0004FE050E060E070E084E493E00E94C51DA2
:1011000004E110E020E233E040E050E060E070E411
:1011100084E493E00E946F1984E493E00E947D16BA
:1011200080913F03811109C021E04BE050E060E075
:1011300070E084E493E00E94C51D0E94C229609380
:10114000390370933A0380933B0390933C030F90D1
:10115000DF91CF911F910F91FF90EF90DF90CF9093
:10116000BF90AF909F908F90089565E171E088ECFB
:1011700096E00E94D02D63E171E088EC96E00E9439
:10118000D02D60E171E088EC96E00E94122E88EC90
:1011900096E00C94F42B0E94B50860E084E493E0A0
:1011A0000E94BD1689E294E00E942412009739F053
:1011B0000E94F038909343038093420317C021E0CC
:1011C0004AE150E060E070E084E493E00E94C51DD5
:1011D00060ED77E080E090E00E94F12984E493E004
:1011E0000E94CA1D109243031092420389E294E0C8
:1011F0000E942412009719F00E94F03815C021E0D7
:101200004AE150E060E070E084E493E00E94C51D94
:1012100060ED77E080E090E00E94F12984E493E0C3
:101220000E94CA1D88EE93E0909307018093060107
:1012300089E294E00E942412009719F00E94F0388D
:1012400002C08FE090E0909305018093040108951F
:101250006DE071E088EC96E00E94D02D6BE071E0CB
:1012600088EC96E00E94D02D68E071E088EC96E072
:101270000E94122E88EC96E00C94F42B0E94B50884
:1012800084E493E00E947D160C942809CF93DF93A9
:1012900000D0CDB7DEB70E94B50884E493E00E9489
:1012A0007D1689E294E00E942412009779F042E0D2
:1012B00050E0BE016F5F7F4F0E94DC37AB01BC0185
:1012C00021E084E493E00E94C51D13C021E04AE1BF
:1012D00050E060E070E084E493E00E94C51D60EDA2
:1012E00077E080E090E00E94F12984E493E00E949E
:1012F000CA1D0E9428090F900F90DF91CF91089589
:101300008F929F92AF92BF92EF92FF920F931F9393
:10131000CF93DF930E94B50884E493E00E947D168A
:1013200089E294E00E942412009729F00E94F0388C
:10133000EC0110E001C011E089E294E00E94241267
:10134000009721F00E94F0381123A1F021E04AE13A
:1013500050E060E070E084E493E00E94C51D60ED21
:1013600077E080E090E00E94F12984E493E00E941D
:10137000CA1D17C04C01AA2497FCA094BA2CBE0128
:10138000882777FD8095982F0E943C35AB01BC01E2
:10139000EE24E394F12C9501840184E493E00E940F
:1013A000CC1DDF91CF911F910F91FF90EF90BF90D7
:1013B000AF909F908F900C942809CF92DF92EF927C
:1013C000FF920F931F93CF93DF930E94B50884E49D
:1013D00093E00E947D1689E294E00E942412009717
:1013E00029F00E94F038EC0110E001C011E089E220
:1013F00094E00E942412009721F00E94F0387C01B2
:1014000001C011E089E294E00E942412009721F0CB
:101410000E94F0386C0101C011E089E294E00E9462
:101420002412009721F00E94F0381123A1F021E04E
:101430004AE150E060E070E084E493E00E94C51D62
:1014400060ED77E080E090E00E94F12984E493E091
:101450000E94CA1D0CC08C019601A701BE0184E444
:1014600093E00E94E71384E493E00E94F913DF9174
:10147000CF911F910F91FF90EF90DF90CF900C9440
:101480002809BF92CF92DF92EF92FF920F931F93A2
:10149000CF93DF93CDB7DEB728970FB6F894DEBFB2
:1014A0000FBECDBF0E94B50889E294E00E942412CD
:1014B000009729F00E94F0386C01B12C02C0BB24C7
:1014C000B39489E294E00E942412009721F00E94D4
:1014D000F0387C0102C0BB24B39489E294E00E94FE
:1014E0002412009721F00E94F0388C0102C0BB2426
:1014F000B39489E294E00E942412009721F00E94A4
:10150000F038BB20A1F021E04AE150E060E070E05B
:1015100084E493E00E94C51D60ED77E080E090E0F8
:101520000E94F12984E493E00E94CA1D11C0DA826E
:10153000C982FC82EB821E830D8398878F83AE0164
:101540004F5F5F4F68EC70E084E493E00E941814F2
:101550000E94280928960FB6F894DEBF0FBECDBFB3
:10156000DF91CF911F910F91FF90EF90DF90CF907F
:10157000BF900895EF92FF920F931F9301978431CC
:10158000910508F0D9C08C5C9F4F409106015091A5
:101590000701FC010C945F3701E010E002C00FEF7F
:1015A0001FEF9A0140E050E060E87FE384E493E0BD
:1015B0000E94FF16C1C001E010E002C00FEF1FEF54
:1015C0009A0140E050E060E87FE384E493E00E9409
:1015D0006F17B2C000910401109105019A0140E01B
:1015E00050E060E87FE384E493E00E942519A4C002
:1015F0000091040110910501EE24E394F12C07C041
:101600000091040110910501EE24EA94FE2C9A0148
:1016100040E050E060E87FE384E493E00E94A01A99
:101620008BC000910401109105019A0140E050E047
:1016300060E87FE384E493E00E946F197DC000912D
:10164000040110910501EE24E394F12C07C00091F0
:10165000040110910501EE24EA94FE2C9A0140E069
:1016600050E060E87FE384E493E00E94521B64C092
:101670009A0140E050E060E87FE384E493E00E9458
:10168000C2165AC00091040110910501EE24E394A2
:10169000F12C07C00091040110910501EE24EA9499
:1016A000FE2C9A0140E050E060E87FE384E493E0A0
:1016B0000E94F31B41C000910401109105019A01A1
:1016C00040E050E060E87FE384E493E00E94C019CA
:1016D00033C021E030E002C02FEF3FEF61E070E067
:1016E00084E493E00E94CB1727C021E030E002C0E1
:1016F0002FEF3FEF61E070E084E493E00E946A180E
:101700001BC000910401109105019A0140E050E0D6
:1017100060E87FE384E493E00E94061A0DC0009124
:101720000401109105019A0140E050E060E87FE378
:1017300084E493E00E944E1A1F910F91FF90EF9066
:101740000C9428090F931F93CF93DF9388EC96E0B6
:101750000E94982B181619063CF480914003909132
:101760004103049709F0EEC180913F03882341F1C2
:1017700084E493E00E947D1664E670E080E090E0EF
:101780000E94F12962E070E084E493E00E94991ED7
:1017900068EC70E080E090E00E94F12980913E03C7
:1017A000882309F4E5C180913D038111E1C181E005
:1017B00090E0909341038093400363E070E020C287
:1017C00000914003109141030230110509F487C0D4
:1017D0003CF40115110569F00130110559F1ABC157
:1017E0000330110509F431C10430110509F48FC12A
:1017F000A2C10E94C2290091390310913A0320919D
:101800003B0330913C03601B710B820B930B6038E0
:1018100078438140910508F40AC20E94BE040E94E8
:10182000C2296093390370933A0380933B039093EA
:101830003C03FDC125E130E040E050E065E070E0B0
:1018400080E090E00E948832709338036093370301
:101850006F5071096430710538F4109336030093AA
:10186000350380E496E010C026E030E040E050E030
:1018700063E070E080E090E00E948832709336036D
:101880006093350388EE93E09093070180930601FF
:1018900025E130E040E050E06AE070E080E090E078
:1018A0000E948832AB01BC0121E084E493E00E94F5
:1018B000C51DC0E0D0E08091350390913603C81774
:1018C000D9070CF0B4C180913703909138030E947E
:1018D000BA0A80913F038111AAC12196ECCF809171
:1018E0003403882309F49FC080913F03811119C0FC
:1018F00021E04EE050E060E070E084E493E00E947C
:10190000C51D66E070E084E493E00E94991E24EF18
:1019100031E040E050E060EA70E484E493E00E944B
:10192000C21680913F0381110FC021E044E150E0D5
:1019300060E070E084E493E00E94C51D69E070E01F
:1019400084E493E00E94991EC3E0D0E080913F03BD
:10195000882399F064E670E080E090E00E94F1292D
:101960000E94370464E670E080E090E00E94F12974
:101970008091340381115BC10FC00FEF1FEF24E191
:1019800035E040E050E060E87FE384E493E00E94CB
:10199000FF162197D9F6DECF80913F03811147C111
:1019A00021E04AE050E060E070E084E493E00E94CF
:1019B000C51D62E370E080E090E00E94F1290E9482
:1019C0003704C3E0D0E080913403882329F080916C
:1019D000340381112CC106C080913F03882309F490
:1019E00014C1F5CF80913F03811121C184E493E0BC
:1019F0000E947D1621E04BE050E060E070E084E45E
:101A000093E00E94C51D6DE070E084E493E00E94C5
:101A1000991E68EC70E080E090E0DF91CF911F911B
:101A20000F910C94F12901E010E028EE33E040E042
:101A300050E060E87FE384E493E00E94FF16DF91CA
:101A4000CF911F910F910C94370484E493E00E948E
:101A5000A51C8A3892400CF4EAC062E370E080E092
:101A600090E00E94F12980913F0381113FC021E065
:101A70004EE050E060E070E084E493E00E94C51D19
:101A800067E070E084E493E00E94991E80913F0338
:101A90008111CDC025E130E040E050E06AE070E027
:101AA00080E090E00E948832AB01BC0121E084E438
:101AB00093E00E94C51D25E130E040E050E065E084
:101AC00070E080E090E00E94883270933803609369
:101AD0003703CB010E94BA0A84E493E00E947D168A
:101AE00064EF71E080E090E00E94F12980913F0373
:101AF00081119DC021E04BE050E060E070E084E4A3
:101B000093E0DF91CF911F910F910C94C51D89E255
:101B100094E00E94661284E493E00E94B81681115A
:101B200086C08091420390914303DF91CF911F9132
:101B30000F910C94BA0A84E090E090934103809353
:101B4000400375C084E090E090934103809340038C
:101B500021E04BE050E060E070E084E493E00E941C
:101B6000C51D86E00E94360287E00E943602FCCD49
:101B700080913E0381110DC080913D03882349F07F
:101B800082E090E0909341038093400364E070E032
:101B900037C080913E03882321F080913D0381115D
:101BA00027C04091400350914103662757FD60953F
:101BB000762F21E084E493E00E94C51DC8ECD0E0BC
:101BC0006AE070E080E090E00E94F1292197C1F77F
:101BD00021E04BE050E060E070E084E493E00E949C
:101BE000C51D10923F0310923E0310923D031FC08B
:101BF00083E090E0909341038093400365E070E0C0
:101C000084E493E00E94991ECCCF01E010E028EE1E
:101C100033E040E050E060E87FE384E493E00E943A
:101C20006F170E943704219709F0CDCED0CEDF91F7
:101C3000CF911F910F9108950E94B50884E493E01D
:101C40000E947D1689E294E00E942412009761F0C0
:101C50000E94F03801978D30910508F043C0885BF1
:101C60009F4FFC010C945F3721E04AE150E060E0B7
:101C700070E084E493E00E94C51D60ED77E080E0B1
:101C800090E00E94F12984E493E00E94CA1D2AC0DA
:101C900060E070E023C061E070E020C062E070E0CE
:101CA0001DC063E070E01AC064E070E017C065E03A
:101CB00070E014C066E070E011C067E070E00EC034
:101CC00068E070E00BC069E070E008C06AE070E0B6
:101CD00005C06BE070E002C06CE070E084E493E06B
:101CE0000E9400220C942809CF92DF92EF92FF927B
:101CF0000F931F93CF93DF93CDB7DEB72D970FB61A
:101D0000F894DEBF0FBECDBF0E94B50884E493E017
:101D10000E947D1619821A821B821C82FE01359652
:101D200087E0DF011D928A95E9F789E294E00E943D
:101D30002412009739F1DC01FE0131969E2F2F2FDE
:101D40006E018CE0C80ED11C8D91811106C0092F47
:101D5000122FB5E0EB2EF12C05C0EC15FD05B9F303
:101D60008193F2CFD8016D918D01FD86EC86C6017D
:101D70000E942C01BFEFEB1AFB0AE0E1EE16F10422
:101D800089F713C021E04AE150E060E070E084E4AC
:101D900093E00E94C51D60ED77E080E090E00E9436
:101DA000F12984E493E00E94CA1D0E9428092D961F
:101DB0000FB6F894DEBF0FBECDBFDF91CF911F915C
:101DC0000F91FF90EF90DF90CF9008951F920F92A8
:101DD0000FB60F9211242F933F934F935F936F93FE
:101DE0007F938F939F93AF93BF93EF93FF938091D4
:101DF0009A0687FF05C010928500109284001AC0D1
:101E000020919A06332727FD30958091990690E01E
:101E1000281739077CF480919A06992787FD9095B9
:101E2000FC01EE0FFF1FE80FF91FE556F94F808107
:101E300086FD15C080919A068F5F80939A06209147
:101E40009A06332727FD30958091990690E0281750
:101E50003907BCF480919A068C305CF112C08091F5
:101E60009A06992787FD9095FC01EE0FFF1FE80F5A
:101E7000F91FE556F94F808160E08F730E94DD2ADB
:101E8000D9CF8091840090918500049680349C493C
:101E900018F480E49CE905C080918400909185004D
:101EA000049690938900809388008FEF80939A0620
:101EB00038C0209184003091850080919A0699273E
:101EC00087FD9095FC01EE0FFF1FE80FF91FE55607
:101ED000F94F81819281820F931F909389008093A3
:101EE000880080919A06992787FD9095FC01EE0F56
:101EF000FF1FE80FF91FE556F94F808186FF11C0DB
:101F000080919A06992787FD9095FC01EE0FFF1F9F
:101F1000E80FF91FE556F94F808161E08F730E9449
:101F2000DD2AFF91EF91BF91AF919F918F917F91AA
:101F30006F915F914F913F912F910F900FBE0F9036
:101F40001F901895209199062C30A0F431E0320FA3
:101F500030939906FC012083822F90E0FC01EE0F64
:101F6000FF1FE80FF91FE556F94F88EB9BE09283BE
:101F7000818308952FEFFC0120830895DF92EF9273
:101F8000FF920F931F93CF93DF93EC01D62E7A012C
:101F9000890188818C3008F066C061E08D2D0E9437
:101FA000A42A8881A82FB0E0FD01EE0FFF1FEA0FE1
:101FB000FB1FE556F94F2D2D2F739081907C922BAE
:101FC000908360E272E06E197F0977FF02C06D5F57
:101FD0007F4F7595679575956795698340E659E0DC
:101FE000401B510B57FF02C04D5F5F4F5595479502
:101FF000559547954A836CE00E94EA369CE0899F9C
:10200000B001112420E030E0A901460F571FFA016A
:10201000EE0FFF1FE40FF51FE556F94F908196FD77
:1020200016C02F5F3F4F2C30310571F781110FC063
:102030001092800082E080938100109285001092BF
:102040008400B19A80916F00826080936F008881D4
:1020500090E0FC01EE0FFF1FE80FF91FE556F94F66
:102060008081806480838881DF91CF911F910F915F
:10207000FF90EF90DF90089520E639E040E252E0D3
:102080000C94BE0FFC01808190E0FC01EE0FFF1F5D
:10209000E80FF91FE556F94F80818F7B8083089503
:1020A000FC0180818C3070F5918128E830E0291B9B
:1020B000310997FD3395220F331F220F331F62170B
:1020C00073077CF0928128E532E0291B310997FDE6
:1020D0003395220F331F220F331F621773070CF43F
:1020E0009B0122503109220F331F4FB7F89490E023
:1020F000FC01EE0FFF1FE80FF91FE556F94F328381
:1021000021834FBF08954F925F926F927F92AF925B
:10211000BF92CF92DF92EF92FF920F931F93CF93D4
:10212000DF93EC01603282E078070CF040C077FD6D
:1021300006C0653B71052CF064EB70E002C060E006
:1021400070E0898128E830E0281B310987FD33954C
:10215000220F331F220F331F5901CC24B7FCC09428
:10216000DC2C882777FD8095982F2A8148E552E05E
:10217000421B510927FD5395440F551F440F551F0E
:102180002A01662457FC6094762C7F926F925F92AE
:102190004F9214EBE12EF12C00E010E020E030E053
:1021A000A9010E94A4320F900F900F900F90CE01C2
:1021B000DF91CF911F910F91FF90EF90DF90CF9023
:1021C000BF90AF907F906F905F904F900C945010A5
:1021D000FC01808190E0FC01EE0FFF1FE80FF91F6A
:1021E000E556F94F808186FB882780F90895089588
:1021F0000F931F93CF93DF9385E10E945E2A25E022
:10220000AC01249FC001259F900D1124BC0188279B
:1022100077FD8095982F0E943C3520E030E040E823
:102220005AE30E94F0358B01D82FC92F26E636E6F7
:1022300046E850E40E94EC35181624F406E616E64B
:10224000D6E8C0E4B8018D2F9C2FDF91CF911F916C
:102250000F9108950F931F93CF93DF930E94F8106F
:102260002FEB36E842ED52E40E94F0352CE73DE0DA
:102270004BEA53E40E9438348B01D82FC92F20E059
:1022800030E0A9010E949D3487FF04C000E010E007
:10229000D0E0C0E0B8018D2F9C2FDF91CF911F912E
:1022A0000F9108950895CF93DF93EC01862F6883F3
:1022B00079835B834A8361E00E94A42A60E08A817B
:1022C000DF91CF910C94A42ACF93DF93EC0160E0CF
:1022D00088810E94DD2A82E090E00E94192A61E054
:1022E00088810E94DD2A8AE090E00E94192A60E03D
:1022F00088810E94DD2A20E43CE940E050E061E072
:102300008A81DF91CF910C94132B0E9464112AE3F0
:1023100030E040E050E00E94403721153105410592
:10232000510521F427EE33E040E050E0CA01B90145
:102330000E943C3508950F931F93CF93DF93EC01D8
:1023400000E010E0488159816A817B81002E04C041
:1023500076956795579547950A94D2F7642F6170E3
:102360008C810E94DD2A00000000000061E08D8168
:102370000E94DD2A00000000000060E08D810E94C4
:10238000DD2A0F5F1F4F0E311105E1F661E08E81EE
:102390000E94DD2A00000000000060E08E81DF91D5
:1023A000CF911F910F910C94DD2ACF93DF93EC0115
:1023B000862F188219821A821B826C834D832E838A
:1023C00061E00E94A42A61E08D810E94A42A61E05C
:1023D0008E810E94A42A60E08C810E94DD2A60E048
:1023E0008D810E94DD2A60E08E810E94DD2ACE016F
:1023F000DF91CF910C949B11FC0140835183628348
:1024000073830C949B11FC0110821182128213823F
:102410000C949B1121E030E0FC01E20FF31F1082CD
:102420002F5F3F4F24323105B9F7FC0115A214A2EA
:10243000089520E230E0FC0137A326A32DE020A779
:1024400016A615A60C940A12AC01455D5F4FBC019F
:102450006A5D7F4F80E090E00C943B39FF920F93D0
:102460001F93CF93DF93EC018A012DA53EA52E305B
:10247000310504F585E2F82EF29EC001F39E900D21
:1024800011248F9643E250E08C0F9D1F0E942C393F
:102490002DA53EA5F29EC001F39E900D11248C0F38
:1024A0009D1FFC01EE5AFF4F118300832F5F3F4FAA
:1024B0003EA72DA7DF91CF911F910F91FF90089517
:1024C0008B5C9D4FFC017183608308952F923F9236
:1024D0004F925F926F927F928F929F92AF92BF9234
:1024E000CF92DF92EF92FF920F931F93CF93DF93E0
:1024F00000D000D0CDB7DEB79C838B831C012BE2CC
:10250000220E311C2C0136E2430E511C6C018FEF60
:10251000C81AD80AAB80BC809FE2A90EB11C2B81DF
:102520003C812B5C3D4F3A83298388EC96E00E94E6
:10253000982B181619060CF073C088EC96E00E94D0
:10254000B12BAB81BC818C9398969C919897891301
:1025500041C095961C921E929497A101B201C601AA
:102560000E943B393C01EB81FC8192A781A7009737
:1025700009F456C085A496A4750100E010E0081582
:102580001905FCF443E250E0B701C3010E941E3973
:10259000F5E2EF0EF11C892B89F425E2209FC001A2
:1025A000219F900D11242B813C81820F931FFC01F0
:1025B000EE5AFF4F0190F081E02D07C00F5F1F4FD3
:1025C000DECFA981BA81ED91FC9109958B819C8127
:1025D0000E940A12AB81BC811C91812F992787FD33
:1025E00090950E941039892B09F49FCFEB81FC81D3
:1025F00024A135A1C901019695A384A3E20FF31F7D
:102600001183EB81FC81E80FF91F118283970CF491
:102610008CCFAB81BC8195961C921E92949785CFEE
:102620000F900F900F900F90DF91CF911F910F910E
:10263000FF90EF90DF90CF90BF90AF909F908F90E2
:102640007F906F905F904F903F902F900895CF9321
:10265000DF93EC01FC01E055FF4F6081718140E0A8
:1026600008960E941D33FE01EE54FF4F6081718178
:1026700040E0CE01C1960E941D33FE01EC54FF4F95
:102680006081718140E0CE01865A9F4F0E941D33C8
:10269000FE01EA54FF4F6081718140E0CE018D5709
:1026A0009F4FDF91CF910C941D334F925F926F92A9
:1026B0007F928F929F92AF92BF92CF92DF92EF92D2
:1026C000FF920F931F93CF93DF93CDB7DEB73C01FB
:1026D0004B885C88FC01E055FF4F71836083329624
:1026E0005183408332963183208332961183008355
:1026F0000E942713F301EC51FF4F1082E11037C005
:10270000F301E054FF4F8AE590E091838083329695
:1027100091838083329691838083329691838083E4
:10272000A201B401C30184559F4F0E945311F301CC
:10273000E853FF4FA082B1823296C082D18261E01D
:102740008A2D0E94A42A60E08C2DDF91CF911F91E9
:102750000F91FF90EF90DF90CF90BF90AF909F9040
:102760008F907F906F905F904F900C94A42AE12CF3
:10277000F12C00E010E0C8010E946A3990E0813835
:1027800091050CF09A95F301EE0DFF1D908F878B4C
:102790000F5F1F4F89E2E80EF11C0430110559F755
:1027A000AFCFCF93DF93EC0108960E947033CE0138
:1027B000C1960E947033CE01865A9F4F0E9470339B
:1027C000CE018D579F4FDF91CF910C9470330F93B3
:1027D0001F93FC01708F678BE05CFF4F5183408338
:1027E000B99631832083B996118300831F910F918D
:1027F0000895EF92FF920F931F93CF93DF937C0185
:1028000000E010E0C0E0D0E0F701E00FF11F6789C1
:10281000CE010E9472392196075D1F4FC430D10549
:1028200099F7DF91CF911F910F91FF90EF9008954D
:102830002F923F924F925F926F927F928F929F92D0
:10284000AF92BF92CF92DF92EF92FF920F931F93BE
:10285000CF93DF93CDB7DEB72A970FB6F894DEBFDC
:102860000FBECDBF1C016B0149835A830E94271301
:10287000F101EC51FF4F10822BE0C216D1040CF491
:10288000CDC0EE24D7FCE094FE2CC701B6010E9417
:102890003C3520E030E040E251E40E94A1342B01BD
:1028A0003C0139813B838A818C83510100E010E037
:1028B000AB81BC818D919D91BC83AB834501B4ED0F
:1028C0008B0E911CF101E00FF11FE054FF4F2081AE
:1028D0003181821B930BBC01882777FD8095982F4F
:1028E0000E943C35A30192010E94A134F40160834F
:1028F0007183828393830E5F1F4FF4E0AF0EB11C90
:1029000008301105A9F60E94C229910124533F4FB6
:102910003C832B836C0D7D1D8E1D9F1DD9016D93F6
:102920007D938D939C93139744244394512CF101F0
:10293000E053FF4FFE83ED83245C310938872F83FA
:102940000E94C229EB81FC810081118122813381A7
:10295000601771078207930708F076C00E94C229AA
:10296000665F7F4F8F4F9F4FAD81BE816D937D938B
:102970008D939C9313976F80788481011A861986B2
:102980004201AA2497FCA094BA2CE985FA85E20DAD
:10299000F31DE054FF4F80819181BC01882777FDB2
:1029A0008095982F0E943C356B017C01C501B401D4
:1029B0000E943C35F801EC52FF4F20813181428169
:1029C00053810E94F0359B01AC01C701B6010E9402
:1029D00039340E940935C3010E94A033E985FA8584
:1029E0003296FA87E9870C5F1F4FF9E26F0E711C70
:1029F00029853A852830310541F60E94C229AD81EA
:102A0000BE810D911D912D913C9160177107820738
:102A1000930798F3BFEF4B1A5B0A92CFC980DA8015
:102A200000E010E07101F8E0EF0EF11CD6016D91AD
:102A30007D916D01C701800F911F0E94A033075D3A
:102A40001F4F043A110591F7E981FA8180E090E087
:102A500021913191D101A80FB91FA054BF4F2D93DF
:102A60003C9302968830910599F72A960FB6F89410
:102A7000DEBF0FBECDBFDF91CF911F910F91FF90B1
:102A8000EF90DF90CF90BF90AF909F908F907F900E
:102A90006F905F904F903F902F9008952F923F92AC
:102AA0004F925F926F927F928F929F92AF92BF925E
:102AB000CF92DF92EF92FF920F931F93CF93DF930A
:102AC00000D000D0CDB7DEB75C01CA012901A70153
:102AD00096013C014B01650188E0C80ED11C7801CC
:102AE00004E010E03C2C2D2CF301819191913F01E9
:102AF000F60196838583F401819191914F01F6014E
:102B000094838383B201C60129833A834B835C8318
:102B10000E947F33F70181919191A191B1917F0141
:102B2000F60181879287A387B48701501109F9E2E2
:102B3000CF0ED11C29813A814B815C810115110591
:102B400099F60E94C2290E943A356B017C01B201BC
:102B5000882777FD8095982F0E943C3529813A81FE
:102B60004B815C810E94F035A70196010E943934A7
:102B70002B013C0185010F5C1F4F45018AE5880E42
:102B8000911CE3E8AE0EB11CA3019201C701B6018E
:102B90000E949D341816A4F0832D922D0E94A73315
:102BA000C8010E94A733C4010E94A733C5010E9437
:102BB000A7330E94C2290E943A356B017C01E4CF01
:102BC0000F900F900F900F90DF91CF911F910F9169
:102BD000FF90EF90DF90CF90BF90AF909F908F903D
:102BE0007F906F905F904F903F902F9008952F921D
:102BF0003F924F925F926F927F928F929F92AF928D
:102C0000BF92CF92DF92EF92FF920F931F93CF93D9
:102C1000DF93CDB7DEB72C970FB6F894DEBF0FBEAB
:102C2000CDBF4C017A8369835C834B833E832D83C4
:102C30001801260137010E942713F401EC51FF4FC0
:102C40001082C701B6010E9409356F837887898792
:102C50009A87AF80B8841A141B04A4F12F81388599
:102C6000B901882777FD8095982F0E943C359B01FC
:102C7000AC01C301B2010E9438346B017C018101B7
:102C80002D813E814B815C8169817A81C4010E94E2
:102C90004E152C960FB6F894DEBF0FBECDBFDF9158
:102CA000CF911F910F91FF90EF90DF90CF90BF9049
:102CB000AF909F908F907F906F905F904F903F90DC
:102CC0002F9008951C861B86C12CD12C90E8E92EEC
:102CD0009FE3F92E81012D813E814B815C816981C9
:102CE0007A81C4010E944E158B859C8501969C8734
:102CF0008B878A159B0541F7B1CFEF92FF920F9317
:102D00001F93CF93DF93CDB7DEB728970FB6F89414
:102D1000DEBF0FBECDBF8C017C0184EEE80EF11C3E
:102D2000F7018081811117C088E0E2E1F1E0DE0166
:102D3000119601900D928A95E1F7AE014F5F5F4FBA
:102D400064EF71E0C8010E941814C8010E94D113F9
:102D500081E0F701808328960FB6F894DEBF0FBE9E
:102D6000CDBFDF91CF911F910F91FF90EF9008950C
:102D70008C519F4FFC01808108958C519F4FFC0125
:102D800060830895EF92FF920F931F93CF93DF9389
:102D9000CDB7DEB760970FB6F894DEBF0FBECDBFDC
:102DA0008C01790188E0EAE1F1E0DE0119960190F9
:102DB0000D928A95E1F7AE01475F5F4FB901C801F7
:102DC0000E94181488E0E2E1F1E0DE011196019022
:102DD0000D928A95E1F7AE014F5F5F4FB701C801D1
:102DE0000E94181460960FB6F894DEBF0FBECDBFD8
:102DF000DF91CF911F910F91FF90EF9008958F92E7
:102E00009F92AF92BF92CF92DF92EF92FF920F9379
:102E10001F93CF93DF93CDB7DEB7A0970FB6F8948B
:102E2000DEBF0FBECDBF5C016A017B014901980185
:102E300088E0E2E2F1E0DE01599601900D928A9578
:102E4000E1F788E0EAE2F1E0DE01519601900D92AF
:102E50008A95E1F78E010F5F1F4F80E1F801119213
:102E60008A95E9F746EA4203B001439F700D1124A9
:102E7000882777FD8095982F0E943C352BED3FE009
:102E800049E450E40E94F03520E030E044E353E4AC
:102E90000E94A13469877A878B879C876D877E879C
:102EA0008F87988B9401AE014F5E5F4FBE01675EC6
:102EB0007F4FC5010E94F715A0960FB6F894DEBFAC
:102EC0000FBECDBFDF91CF911F910F91FF90EF907B
:102ED000DF90CF90BF90AF909F908F900895CF924A
:102EE000DF92EF92FF920F931F93CF93DF93CDB7B3
:102EF000DEB7A0970FB6F894DEBF0FBECDBFE8E0F7
:102F0000FE2EE2E2F1E0DE01599601900D92FA9474
:102F1000E1F7F8E0FF2EEAE2F1E0DE0151960190E0
:102F20000D92FA94E1F7A0E1FA2EE2E3F1E0DE017E
:102F3000119601900D92FA94E1F70130110539F4E0
:102F4000EEE1F0E0FA8FE98FEAE0F0E006C0EAE0B7
:102F5000F0E0FA8FE98FEEE1F0E0FC8FEB8F6A0191
:102F60007B018E010F5F1F4FAE014F5E5F4FBE01B1
:102F7000675E7F4F0E94F715A0960FB6F894DEBFEC
:102F80000FBECDBFDF91CF911F910F91FF90EF90BA
:102F9000DF90CF9008954F925F926F927F928F92C1
:102FA0009F92AF92BF92CF92DF92EF92FF920F93D8
:102FB0001F93CF93DF93CDB7DEB768970FB6F89422
:102FC000DEBF0FBECDBF8C016B0188E0E2E4F1E013
:102FD000DE01519601900D928A95E1F788E0EAE4CE
:102FE000F1E0DE01199601900D928A95E1F788E0F3
:102FF000E2E1F1E0DE01119601900D928A95E1F790
:10300000FA01483582E0580714F4E8E5F2E02F3F72
:103010003F4F71F481E990E09E8B8D8B8AE790E0C1
:10302000988F8F8B2BE430E03E872D87988B8F878E
:103030004F019594879495948794CF016AE070E04E
:103040000E940A375B012F01440C551C4E0E5F1E77
:103050005594479455944794662457FC6094762C75
:10306000E12CF12CEC14FD04F4F4AE014F5E5F4F43
:10307000B401C8010E941814AE01475F5F4FB5014B
:10308000C8010E941814C301B2010E94F129AE01C7
:103090004F5F5F4F64EF71E0C8010E9418148FEF1B
:1030A000E81AF80ADFCF68960FB6F894DEBF0FBEB5
:1030B000CDBFDF91CF911F910F91FF90EF90DF90E7
:1030C000CF90BF90AF909F908F907F906F905F90C8
:1030D0004F9008958F929F92AF92BF92CF92DF92BE
:1030E000EF92FF920F931F93CF93DF93CDB7DEB78D
:1030F000A0970FB6F894DEBF0FBECDBF8C014B0179
:1031000088E0E2E4F1E0DE01599601900D928A95A3
:10311000E1F788E0E2E5F1E0DE01519601900D92E1
:103120008A95E1F788E0EAE5F1E0DE011996019081
:103130000D928A95E1F788E0E2E1F1E0DE01119677
:1031400001900D928A95E1F721303105A1F481E9D2
:1031500090E09E8F8D8F8AE790E098A38F8F2CE36D
:1031600030E03E8B2D8B988F8F8B28E730E03E87A9
:103170002D87988B8F876A0188EEC81A83E0D80A5A
:1031800080E9C81681E0D80624F430E9C32EDD2496
:10319000D3947601F594E794F594E794A12CB12C9F
:1031A000A814B904C4F5AE01475E5F4F64EF71E047
:1031B000C8010E941814AE014F5E5F4F64EF71E0CA
:1031C000C8010E941814AE01475F5F4FB701C801E4
:1031D0000E941814AE014F5E5F4FB701C8010E94F4
:1031E0001814AE01475F5F4FB701C8010E94181461
:1031F000AE014F5E5F4FB701C8010E941814AE01C7
:103200004F5F5F4F64EF71E0C8010E9418148FEFA9
:10321000A81AB80AC5CFB601882777FD8095982FE0
:103220000E94F129A0960FB6F894DEBF0FBECDBF65
:10323000DF91CF911F910F91FF90EF90DF90CF9092
:10324000BF90AF909F908F900895CF92DF92EF92B2
:10325000FF920F931F93CF93DF93CDB7DEB7A09765
:103260000FB6F894DEBF0FBECDBF6A017B01E8E068
:10327000BE01675E7F4FDB014E2F1D924A95E9F735
:103280001E8F0D8F18A30F8FAE014F5E5F4FDA01B7
:103290001D92EA95E9F71E8B0D8B11950195110989
:1032A000188F0F8B10E1E2E6F1E0DE01119601903C
:1032B0000D921A95E1F78E010F5F1F4F0E94F715CF
:1032C000A0960FB6F894DEBF0FBECDBFDF91CF91B1
:1032D0001F910F91FF90EF90DF90CF900895CF92C4
:1032E000DF92EF92FF920F931F93CF93DF93CDB7AF
:1032F000DEB7A0970FB6F894DEBF0FBECDBF6A0150
:103300007B01E8E0BE01675E7F4FDB014E2F1D921F
:103310004A95E9F71E8F0D8F18A30F8FAE014F5EF0
:103320005F4FDA011D92EA95E9F7F80117FD319632
:10333000F595E795FE8BED8B17FF02C00F5F1F4FD2
:1033400015950795119501951109188F0F8B8E0111
:103350000F5F1F4FE0E1D8011D92EA95E9F70E9447
:10336000F715A0960FB6F894DEBF0FBECDBFDF9164
:10337000CF911F910F91FF90EF90DF90CF90089524
:10338000CF92DF92EF92FF920F931F93CF93DF9331
:10339000CDB7DEB7A0970FB6F894DEBF0FBECDBF96
:1033A0006A017B01E8E0BE01675E7F4FDB014E2FC3
:1033B0001D924A95E9F71E8F0D8F18A30F8FAE014E
:1033C0004F5E5F4FDA011D92EA95E9F71E8B0D8B78
:1033D000119501951109188F0F8B8E010F5F1F4FEB
:1033E000E0E1D8011D92EA95E9F70E94F715A09651
:1033F0000FB6F894DEBF0FBECDBFDF91CF911F9106
:103400000F91FF90EF90DF90CF900895CF92DF92D1
:10341000EF92FF920F931F93CF93DF93CDB7DEB759
:10342000A0970FB6F894DEBF0FBECDBF6A017B0137
:103430000A31110514F009E110E0E8E0BE01675E11
:103440007F4FDB014E2F1D924A95E9F71A8F098FA6
:103450001C8F0B8FAE014F5E5F4FDA011D92EA9514
:10346000E9F710E1E2E7F1E0DE01119601900D923B
:103470001A95E1F78E010F5F1F4F0E94F715A09676
:103480000FB6F894DEBF0FBECDBFDF91CF911F9175
:103490000F91FF90EF90DF90CF900895CF92DF9241
:1034A000EF92FF920F931F93CF93DF93CDB7DEB7C9
:1034B000A0970FB6F894DEBF0FBECDBF6A017B01A7
:1034C0000E30110514F00DE010E01A8F098F1C8FDB
:1034D0000B8F1E8F0D8F18A30F8FAE014F5E5F4FA6
:1034E00068E0FA0111926A95E9F7B8016C5F7F4FC5
:1034F0007E8B6D8B64E070E0601B710B788F6F8B3F
:1035000060E1E2E8F1E0DE01119601900D926A952A
:10351000E1F78E010F5F1F4FBE01675E7F4F0E9474
:10352000F715A0960FB6F894DEBF0FBECDBFDF91A2
:10353000CF911F910F91FF90EF90DF90CF90089562
:103540002F923F924F925F926F927F928F929F92B3
:10355000AF92BF92CF92DF92EF92FF920F931F93A1
:10356000CF93DF93CDB7DEB7A2970FB6F894DEBF47
:103570000FBECDBF4C011A012B01390188E09E011D
:10358000275E3F4F3AA329A3F901282F11922A95CC
:10359000E9F71E8F0D8F18A30F8F5E0131E1A30E87
:1035A000B11CF50111928A95E9F7C80117FD019642
:1035B0009595879502969E8B8D8B17FF02C00F5FA6
:1035C0001F4F159507951195019511090250110985
:1035D000188F0F8B26EAA70124036001259FD00CCA
:1035E00011248E010F5F1F4F80E1F80111928A951F
:1035F000E9F7B601882777FD8095982F0E943C3522
:103600002BED3FE049E450E40E94F03520E030E04B
:1036100044E353E40E94A13469877A878B879C87AF
:1036200024ECA7012403B001259F700D11246C0D1B
:103630007D1D882777FD8095982F0E943C352BEDC6
:103640003FE049E450E40E94F03520E030E044E3FC
:1036500053E40E94A1346D877E878F87988B720117
:1036600061019301A501BE01675E7F4FC4010E9405
:10367000F715A2960FB6F894DEBF0FBECDBFDF914F
:10368000CF911F910F91FF90EF90DF90CF90BF905F
:10369000AF909F908F907F906F905F904F903F90F2
:1036A0002F9008952F923F924F925F926F927F9248
:1036B0008F929F92AF92BF92CF92DF92EF92FF9242
:1036C0000F931F93CF93DF93CDB7DEB7A0970FB6BD
:1036D000F894DEBF0FBECDBF4C015A016B0139011A
:1036E00028E02E0149E1440E511CF201422F1192B3
:1036F0004A95E9F789E190E09A8F898F9C8F8B8FAB
:103700001E8F0D8F18A30F8F1E0151E1250E311C46
:10371000F10111922A95E9F7C80117FD01969595D7
:10372000879504969E8B8D8B17FF02C00F5F1F4FEE
:103730001595079511950195110904501109188FD8
:103740000F8B8E010F5F1F4F80E1F80111928A9558
:10375000E9F780E090E0A4EBB2E489839A83AB833D
:10376000BC838D839E83AF83B88724ECA701240399
:10377000B001259F700D1124882777FD8095982F23
:103780000E943C352BED3FE049E450E40E94F035C7
:1037900020E030E044E353E40E94A1346D877E874B
:1037A0008F87988B760165019301A101B201C40155
:1037B0000E94F715A0960FB6F894DEBF0FBECDBFDE
:1037C000DF91CF911F910F91FF90EF90DF90CF90FD
:1037D000BF90AF909F908F907F906F905F904F9031
:1037E0003F902F9008952F923F924F925F926F9249
:1037F0007F928F929F92AF92BF92CF92DF92EF9281
:10380000FF920F931F93CF93DF93CDB7DEB7A097AF
:103810000FB6F894DEBF0FBECDBF4C015A016B014D
:10382000390128E02E0149E1440E511CF201422FDA
:1038300011924A95E9F78CE090E09A8F898F9C8FDE
:103840008B8F1E8F0D8F18A30F8F1E0151E1250E38
:10385000311CF10111922A95E9F7C8010A979E8B54
:103860008D8B8AE090E0801B910B988F8F8B8E015F
:103870000F5F1F4F80E1F80111928A95E9F78BEDF8
:103880009FE0A9E4B0E48D839E83AF83B88726EAE6
:10389000A7012403B001259F700D1124882777FD0F
:1038A0008095982F0E943C352BED3FE049E450E491
:1038B0000E94F03520E030E044E353E40E94A1345C
:1038C00069877A878B879C878AE58E9DB0018F9D5B
:1038D000700D1124882777FD8095982F0E943C3524
:1038E0002BED3FE049E450E40E94F03520E030E069
:1038F00044E353E40E94A1346D877E878F87988BC1
:10390000760165019301A101B201C4010E94F7157E
:10391000A0960FB6F894DEBF0FBECDBFDF91CF915A
:103920001F910F91FF90EF90DF90CF90BF90AF90DD
:103930009F908F907F906F905F904F903F902F90CF
:10394000089584559F4F0C9485110F931F93CF9327
:10395000DF938C0106531F4FF80180810E945E2A7D
:10396000EC0162E070E080E090E00E94F129F80153
:1039700080810E945E2AC80FD91F62E070E080E05B
:1039800090E00E94F129CE01D7FD0196959587958B
:10399000DF91CF911F910F910895CF92DF92EF9217
:1039A000FF920F931F93CF93DF938C01095F1F4FFB
:1039B000C8010E942A11CAE0D0E0C12CD12C7601A6
:1039C000C8010E942A119B01AC01C701B6010E94E7
:1039D00039346B017C0161E070E080E090E00E948E
:1039E000F129219769F720E030E040E251E4C70176
:1039F000B6010E94A134DF91CF911F910F91FF90EA
:103A0000EF90DF90CF900895CF93DF93CDB7DEB7DF
:103A1000CC57D1090FB6F894DEBF0FBECDBF8CE7EF
:103A2000E2E9F1E0DE01119601900D928A95E1F74D
:103A3000660F771F660F771F81E090E08C0F9D1F48
:103A4000680F791FFB016081718182819381C45865
:103A5000DF4F0FB6F894DEBF0FBECDBFDF91CF9121
:103A60000895CF93DF93EC01BA010E94041DAB01CE
:103A7000BC01CE01DF91CF910C94FC11CF93DF9369
:103A8000CDB7DEB7C057D1090FB6F894DEBF0FBE71
:103A9000CDBF80E2EEE0F2E0DE01999601900D925A
:103AA0008A95E1F780E1EEE2F2E0DE01AF59BF4F27
:103AB00001900D928A95E1F788E1EEE3F2E0DE01F4
:103AC000A75BBF4F01900D928A95E1F788E2E6E58A
:103AD000F2E0DE01119601900D928A95E1F76130D6
:103AE000710509F194F4672BB1F5FA01EE0FFF1F90
:103AF000EE0FFF1F81E090E08C0F9D1FE80FF91F74
:103B000060A571A582A593A526C06230710599F0C4
:103B10006330710501F5FA01EE0FFF1FEE0FFF1F75
:103B200081E090E00FC0FA01EE0FFF1FEE0FFF1FC4
:103B300081E690E007C0FA01EE0FFF1FEE0FFF1FB6
:103B400089E490E08C0F9D1FE80FF91F608171815F
:103B50008281938100C0C059DF4F0FB6F894DEBF59
:103B60000FBECDBFDF91CF910895CF93DF93EC01CE
:103B7000CB01BA01A901CE010E943E1DAB01BC01DF
:103B8000CE01DF91CF910C94FC1121110C94311DC9
:103B90000C94FC110C9403128F929F92AF92BF92DF
:103BA000EF92FF920F931F93CF93DF93EC014801A5
:103BB0005901E114F10419F4EE24E394F12CCB0142
:103BC000BA010E940E35C853DF4FA50194018881C8
:103BD0000E94BC2FC501B4010E94F129B7018827BA
:103BE00077FD8095982FDF91CF911F910F91FF90D6
:103BF000EF90BF90AF909F908F900C94F1292F92EF
:103C00003F924F925F926F927F928F929F92AF926C
:103C1000BF92CF92DF92EF92FF920F931F93CF93B9
:103C2000DF93CDB7DEB728970FB6F894DEBF0FBE8F
:103C3000CDBF1C012A013B0109831A832B833C83DE
:103C4000CD82DE82EF82F886CD8CDE8CC114D10469
:103C500019F4CC24C394D12C29813A814B815C8105
:103C6000C301B2010E949D3487FF25C0C301B20188
:103C70000E940935882777FD8095982F0E943C3552
:103C80002B013C0129813A814B815C810E949D344A
:103C900087FF36C0760195018401B301A201C101FD
:103CA0000E94CC1D2D813E814F815885C301B201F8
:103CB0000E94F035DDCFC301B2010E94093588278B
:103CC00077FD8095982F0E943C352B013C0129817E
:103CD0003A814B815C810E94EC3518168CF4760198
:103CE00095018401B301A201C1010E94CC1D2D8167
:103CF0003E814F815885C301B2010E94A134DDCFBE
:103D000028960FB6F894DEBF0FBECDBFDF91CF91DE
:103D10001F910F91FF90EF90DF90CF90BF90AF90E9
:103D20009F908F907F906F905F904F903F902F90DB
:103D300008957F928F929F92AF92BF92CF92DF921F
:103D4000EF92FF920F931F93CF93DF93EC016331B8
:103D5000710508F047C3FB01EB5AFF4F0C945F3726
:103D60005EE1E52EF12C02E310E020E030E044EAD1
:103D700050ED64E274E40E94CC1D69E1E62EF12C62
:103D800007E310E020E030E042E550ED64EA74E43F
:103D9000CE010E94CC1D7AE0E72EF12C0CE310E05E
:103DA00020E030E040E050E06CED74E426C02EE10D
:103DB000E22EF12C02E310E020E030E044EA50ED86
:103DC00064E274E40E94CC1D39E1E32EF12C07E398
:103DD00010E020E030E040E050E06CED74E4CE0113
:103DE0000E94CC1D4AE0E42EF12C02E310E020E01A
:103DF00030E042E550ED64EA74E4CE010E94CC1D4F
:103E0000F1C21F92B2E07B2E7F9214E1812E912CA1
:103E1000A12CB12C0AE0C02E07EDD02E03E8E02E35
:103E20000FE3F02E0CE51FEF23EC34E442E550EDF8
:103E300064EA74E40E94FF1D6EE170E080E090E0AF
:103E40000E94F1291F927F928AE0882E912CA12C4A
:103E5000B12C98EBC92E9EE1D92E95E8E92E9FE36F
:103E6000F92E0FE115ED22E135E442E550ED64EA6B
:103E700074E4B1C21F928AE08F93FEE18F2E912CE1
:103E8000A12CB12CACE5CA2EAFE8DA2EA2E8EA2EBE
:103E9000AFE3FA2E00E010E02CED34E442E550ED03
:103EA00064EA74E46DC21F928AE08F937EE1872EEC
:103EB000912CA12CB12CEAE0CE2EE7EDDE2EE3E82A
:103EC000EE2EEFE3FE2E0FE115ED22E135E44CE599
:103ED0005FEF63EC74E454C254E6E52EF12C02E388
:103EE00010E020E030E042E550ED64EA74E40E9426
:103EF000CC1D60E5E62EF12C02E310E020E030E07E
:103F00004CE55FEF63EC74E4CE010E94CC1DE12C24
:103F1000F12C0CE211E020E030E04FE155ED62E1E0
:103F200075E46BCF1F92772473947F929AE0892E69
:103F3000912CA12CB12C2CE5C22E2FE8D22E22E8F8
:103F4000E22E2FE3F22E00E010E626E035E440E01A
:103F500050E068E474E4CE010E94FF1D1F927F923E
:103F600037E0832E912CA12CB12C4AE0C42E47EDD2
:103F7000D42E43E8E42E4FE3F42E00E010E028E4D2
:103F800034E440E050E566E075E425C21F9283E02A
:103F90008F9318E0812E912CA12CB12C08EBC02E10
:103FA0000EE1D02E05E8E02E0FE3F02E00E010E049
:103FB0002AEF34E440E050E06CE574E4CE010E9466
:103FC000FF1D68EC70E080E090E00E94F1290F9006
:103FD0000F9086E1C82ED12CBAE0EB2EF12C05E033
:103FE00010E020E030E048E451EF66E774E4CE01F1
:103FF0000E94CC1D81E0C81AD10871F7F3C11F924D
:1040000083E08F93E8E08E2E912CA12CB12CFAE066
:10401000CF2EF7EDDF2EF3E8EF2EFFE3FF2E00E0CB
:1040200010E82BE335E440E050E06BEE74E4CE01A1
:104030000E94FF1D68EC70E080E090E00E94F12992
:104040000F900F90A0E1CA2ED12C7AE0E72EF12C30
:104050000AE010E020E030E040E050ED62E874E477
:10406000CE010E94CC1D81E0C81AD10871F7BAC1F7
:104070001F9284E08F9330E1832E912CA12CB12CE0
:104080004AE0C42E47EDD42E43E8E42E4FE3F42E4D
:1040900000E010E021E634E440E050E06FE274E438
:1040A000CE010E94FF1D1F9287E08F9352E1852E63
:1040B000912CA12CB12C6EEAC62E67E4D62E61E8B5
:1040C000E62E6FE3F62E00E010E822E234E440E052
:1040D00050EC60E674E47FC11F928AE08F939AE00F
:1040E000892E912CA12CB12C28EBC22E2EE1D22EA0
:1040F00025E8E22E2FE3F22E00E010E02AEF33E471
:1041000040E050E068EC72E4CE010E94FF1D64EFD5
:1041100071E080E090E00E94F1291F9281E08F938E
:1041200000E010E028EC32E440E050E068EC73E49A
:1041300052C11F92B8E07B2E7F9214E1812E912C08
:10414000A12CB12C06E6C02EDC2C06E8E02E0FE3F5
:10415000F02E00E010E42CE135E440E050E86BEB99
:1041600074E40E94FF1D1F927F9289E1882E912C9A
:10417000A12CB12C00E010E82BEB34E440E050E33C
:104180006CE175E428C11F9283E08F93E8E08E2EE6
:10419000912CA12CB12CF6E6CF2EDC2CF6E8EF2EDC
:1041A000FFE3FF2E00E010E82BEB35E440E050E0A9
:1041B0006AEF74E4CE010E94FF1D62E370E080E0CC
:1041C00090E00E94F1291F9282E08F93ADE08A2E49
:1041D000912CA12CB12C00E010E02AEF34E440E057
:1041E00058E76BEB75E4F7C01F9248E0742E7F929E
:1041F0005FE0852E912CA12CB12C66E6C62EDC2C1E
:1042000066E8E62E6FE3F62E00E010E02AEF34E4D5
:1042100040E050E86BEB74E40E94FF1D64E670E040
:1042200080E090E00E94F1291F927F927AE0872E31
:10423000912CA12CB12C00E010E42CE135E440E0FD
:1042400050E86DEE74E4C7C01F9288EC8F9324E1B0
:10425000822E912CA12CB12C3CE5C32E3FE8D32E0D
:1042600032E8E32E3FE3F32E00E010E427E234E4EB
:1042700040E050E06CE574E483C01F9282E08F93CD
:10428000B8E08B2E912CA12CB12C1AE0C12E17ED89
:10429000D12E13E8E12E1FE3F12E00E010E824ED0B
:1042A00034E440E050E06AE774E4CE010E94FF1D70
:1042B0001F9283E08F9308EBC02E0EE1D02E05E80D
:1042C000E02E0FE3F02E00E010E02AEF33E440E0B0
:1042D00050E664ED74E4CE010E94FF1D1F928AE057
:1042E0008F9389E0882E912CA12CB12C96E6C92EB3
:1042F000DC2C96E8E92E9FE3F92E00E010E824ED8F
:1043000034E440E050E06AE774E4CE010E94FF1D0F
:104310000F900F900F900F900F900F9063C01F920F
:104320008FE08F93F2E08F2E912CA12CB12CACE575
:10433000CA2EAFE8DA2EA2E8EA2EAFE3FA2E00E0AA
:1043400010E82BE335E440E050E068EC74E418C07A
:104350001F9284E18F9372E0872E912CA12CB12CB7
:10436000ECE5CE2EEFE8DE2EE2E8EE2EEFE3FE2EB9
:1043700000E010E82BEB35E440E050E06AEF74E435
:10438000CE010E94FF1D0F900F902CC01F9244E1A0
:10439000742E7F9252E0852E912CA12CB12C6CE5CD
:1043A000C62E6FE8D62E62E8E62E6FE3F62E00E00A
:1043B00010E02AE735E440E050E068EC74E40E9445
:1043C000FF1D1F927F9200E010E82BE335E440E0F0
:1043D00050E06AE775E4CE010E94FF1D0F900F9038
:1043E0000F900F90DF91CF911F910F91FF90EF9061
:1043F000DF90CF90BF90AF909F908F907F90089567
:104400002F923F924F925F926F927F928F929F92E4
:10441000AF92BF92CF92DF92EF92FF920F931F93D2
:10442000CF93DF93CDB7DEB7C258D1090FB6F8945A
:10443000DEBF0FBECDBF3C0188E0EEE7F2E0DE015B
:10444000AF58BF4F01900D928A95E1F788E0E6E8FA
:10445000F2E0DE01A759BF4F01900D928A95E1F776
:1044600088E0EEE8F2E0DE01AF59BF4F01900D9217
:104470008A95E1F788E0E6E9F2E0DE01A75ABF4F4E
:1044800001900D928A95E1F788E0EEE9F2E0DE0115
:10449000AF5ABF4F01900D928A95E1F788E0E6EAA6
:1044A000F2E0DE01A75BBF4F01900D928A95E1F724
:1044B00088E0EEEAF2E0DE01AF5BBF4F01900D92C3
:1044C0008A95E1F788E0E6EBF2E0DE01D99601900B
:1044D0000D928A95E1F788E0EEEBF2E0DE01D196ED
:1044E00001900D928A95E1F788E0E6ECF2E0DE01BA
:1044F000999601900D928A95E1F788E0EEECF2E052
:10450000DE01919601900D928A95E1F788E0E6ED43
:10451000F2E0DE01599601900D928A95E1F788E06C
:10452000EEEDF2E0DE01519601900D928A95E1F7F1
:1045300088E0E6EEF2E0DE01199601900D928A9590
:10454000E1F76D30710508F0B9C6FB01E859FF4F7E
:104550000C945F3782E090E0EF969FAF8EAFEF97BD
:104560003DC4E4E0F0E0EF96FFAFEEAFEF976BC332
:10457000FEE1EF2EF12C02E310E020E030E044EA0F
:1045800050ED64E274E4C3010E94CC1D4AE050E0A7
:1045900060E070E0C3010E94311D6DE070E0C30176
:1045A0000E94991E04E110E020E233E040E050E078
:1045B00060E87FE3C3010E946F196DE070E076C18F
:1045C0004BE050E060E070E0C3010E94311D6BE001
:1045D00070E0C3010E94991E4CE050E060E070E082
:1045E000C3010E94311D04E110E024EF31E040E0FE
:1045F00050E060E87FE3C3010E94C0194BE050E047
:1046000060E070E0C3010E94311D6CE070E0C30106
:104610000E94991E4CE050E060E070E0C3010E94EF
:10462000311D24EF31E040E050E060E87FE3C3015A
:104630000E94C01904C346E150E060E070E0C3018D
:104640000E94311DAE014F585F4F6CEB72E0C30109
:104650000E9418141F9268EC562E5F9274E1872E08
:10466000912CA12CB12CECE5CE2EEFE8DE2EE2E869
:10467000EE2EEFE3FE2E00E010E82FE434E440E0FD
:1046800050E06CE574E4C3010E94FF1D48E150E076
:1046900060E070E0C3010E94311D1F925F9200E054
:1046A00010E825E434E440E050E86FE474E4C3012A
:1046B0000E94FF1D47E150E060E070E0C3010E94EE
:1046C000311D1F925F9200E010E029E334E440E0E6
:1046D00050E865E474E4C3010E94FF1D48E150E026
:1046E00060E070E0C3010E94311D1F925F9200E004
:1046F00010E02FE234E440E050E069E374E4C301E9
:104700000E94FF1D47E150E060E070E0C3010E949D
:10471000311D1F925F9200E010E427E234E440E094
:1047200050E06FE274E4C3010E94FF1D46E150E0D7
:1047300060E070E0C3010E94311D64EF71E080E031
:1047400090E00E94F129C3010E947D166CE271E0A5
:1047500080E090E00E94F12907C2AE0147595F4F07
:104760006CEB72E0C3010E94181444E0442E512CFB
:104770005AE0352E2224239420E030E041E050E03E
:1047800060E070E0C3010E94B51D1F923F922AE0D5
:10479000822E912CA12CB12C38EBC32E3EE1D32ECE
:1047A00035E8E32E3FE3F32E00E010E028E433E4A5
:1047B00040E050E068EC72E4C3010E94FF1D21E07C
:1047C00030E041E050E060E070E0C3010E94B51DC0
:1047D0001F923F9200E010E026E933E440E050E011
:1047E00068E473E4C3010E94FF1D22E030E041E071
:1047F00050E060E070E0C3010E94B51D1F923F923F
:1048000000E010E02AEF33E440E050E066E973E4B2
:10481000C3010E94FF1D64EF71E080E090E00E9400
:10482000F12921E030E041E050E060E070E0C301B8
:104830000E94B51D1F922F9200E010E02AE733E49A
:1048400040E050E068EC73E4C3010E94FF1D20E0EB
:1048500030E041E050E060E070E0C3010E94B51D2F
:104860001F922F9200E010E028EC32E440E050E08C
:104870006AE773E4C3010E94FF1D64EF71E080E00A
:1048800090E00E94F12991E0491A51080FB6F8947E
:10489000DEBF0FBECDBF09F06FCF43E150E060E057
:1048A00070E0C3010E94311D69E070E0C3010E9405
:1048B000991EC5C1AE014F595F4F64EF71E0C3014E
:1048C0000E9418146CE271E080E090E00E94F129EF
:1048D00043E150E060E070E0C3010E94311D60E1FF
:1048E00070E0C3010E94991E40E150E060E070E07A
:1048F000C3010E94311D6AEF70E080E090E00E94E9
:10490000F129AE01475A5F4F64EF71E0C3010E9485
:1049100018146CE271E080E090E00E94F12943E11C
:1049200050E060E070E0C3010E94311D61E170E081
:10493000C3010E94991E40E150E060E070E0C301B5
:104940000E94311D6AEF70E080E090E00E94F12942
:10495000AE014F5A5F4F64EF71E0C3010E9418141B
:104960006CE271E080E090E00E94F12943E150E0C8
:1049700060E070E0C3010E94311D62E170E0C3019C
:104980000E94991E40E150E060E070E0C3010E9487
:10499000311D6CE271E080E090E00E94F129C301DA
:1049A0000E947D1664EF71E080E090E052C3AE019A
:1049B000475B5F4F6CE271E0C3010E94181444E151
:1049C00050E060E070E0C3010E94311D6FE070E0D4
:1049D000C3010E94991E2DC14DE050E060E070E0DF
:1049E000C3010E94311D69E070E0C3010E94991E5D
:1049F000EE24E394F12C0FE010E02CED35E040E0E4
:104A000050E060E070E4C3010E94521BC3010E94A9
:104A10007D166DE070E0C3010E94991EC6C3AE0111
:104A20004F5B5F4F6CE271E0C3010E9418144EE1CE
:104A300050E060E070E0C3010E94311DFEE1EF2E06
:104A4000F12C04E610E020E030E040E050E06CE5BE
:104A500074E4C3010E94CC1D1F92A4E05A2E5F9201
:104A6000B7E08B2E912CA12CB12C1CE5C12E1FE898
:104A7000D12E12E8E12E1FE3F12E0FE115ED22E910
:104A800034E440E050E06CE574E4C3010E94FF1D93
:104A90001F92442443944F920AE0802E912CA12C23
:104AA000B12C0CE51FEF23EC34E44FE155ED62E946
:104AB00074E4C3010E94FF1D1F924F9200E010E0BA
:104AC0002CE534E44CE55FEF63EC74E4C3010E9431
:104AD000FF1D6FE070E080E090E00E94F1291F92DE
:104AE0005F9284E1882E912CA12CB12C04EA10ED68
:104AF00024E234E440E050E06CE574E4C3010E9439
:104B0000FF1D60E971E080E090E00E94F129AE01B4
:104B1000475C5F4F68EC70E0C3010E9418141F925D
:104B20005F920FE115ED22E934E440E050E06CE5DE
:104B300074E4C3010E94FF1DAE014F5C5F4F68EC3F
:104B400070E0C3010E9418141F925F9204EA10EDF6
:104B500024E234E440E050E06CE574E4C3010E94D8
:104B6000FF1DC3010E947D164BE050E060E070E045
:104B7000C3010E94311D0FB6F894DEBF0FBECDBF3A
:104B80009DC34EE150E060E070E0C3010E94311D22
:104B90001F9264E0562E5F9274E1872E912CA12C17
:104BA000B12CECE5CE2EEFE8DE2EE2E8EE2EEFE3C0
:104BB000FE2E0FE115ED22E934E440E050E06CE513
:104BC00074E4C3010E94FF1D1F925F9204EA10ED7E
:104BD00024E234E440E050E06CE574E4C3010E9458
:104BE000FF1D6CE271E080E090E00E94F12943E15A
:104BF00050E060E070E0C3010E94311D0F900F9003
:104C00000F900F9004E010E0AE01475D5F4F64E647
:104C100070E0C3010E941814C3010E947D16015068
:104C2000110991F74EE150E060E070E0C3010E948D
:104C3000311D64EF71E080E090E00E94F129C30132
:104C40000E947D16B2C2EB961FAE1EAEEB9700E936
:104C500011E0EB962EAD3FADEB9742E050E060E007
:104C600070E0C3010E94B51D180194E6290E311CA5
:104C7000B801882777FD8095982F0E943C35C15850
:104C8000DF4F688379838A839B83CF57D040B101FC
:104C9000882777FD8095982F0E943C358B019C01D9
:104CA0001F92EAE0EF934AE0842E912CA12CB12CC4
:104CB00058EBC52E5EE1D52E55E8E52E5FE3F52EC7
:104CC000C158DF4F488159816A817B81CF57D040DD
:104CD000C3010E94FF1DEB968EAD9FADEB97019631
:104CE000EB969FAF8EAFEB970F900F9098EE291633
:104CF00093E0390611F08101ACCFC3010E94031289
:104D00001F92EAE0EF9300E010E829E834E4C1588C
:104D1000DF4F488159816A817B81CF57D040C301E1
:104D20000E94FF1D0F900F90412C512C920142E0E8
:104D300050E060E070E0C3010E94B51DB1016C5904
:104D40007F4F882777FD8095982F0E943C35ED9600
:104D50006CAF7DAF8EAF9FAFED97B101882777FD28
:104D60008095982F0E943C35AB01BC011F92FAE060
:104D7000FF932AE0822E912CA12CB12C38EBC32E6C
:104D80003EE1D32E35E8E32E3FE3F32EED960CAD56
:104D90001DAD2EAD3FADED97C3010E94FF1D84E612
:104DA000281A31089FEF491A590A0F900F90E0E92D
:104DB0002E16E1E03E0609F0B9CFEF968EAD9FAD1D
:104DC000EF970197EF969FAF8EAFEF97892B09F082
:104DD0003ACF6CE271E080E090E03BC1212C312CB5
:104DE00054EF452E55245394910143E050E060E088
:104DF00070E0C3010E94B51DB2016C597F4F882736
:104E000077FD8095982F0E943C35ED966CAF7DAF75
:104E10008EAF9FAFED97B201882777FD8095982FD1
:104E20000E943C35AB01BC011F929AE09F938AE03F
:104E3000882E912CA12CB12C9CE5C92E9FE8D92E4F
:104E400092E8E92E9FE3F92EED960CAD1DAD2EAD47
:104E50003FADED97C3010E94FF1DE5E64E0E511CCC
:104E6000FFEF2F1A3F0A0F900F9086EE481685E04D
:104E7000580609F0B9CF212C312C910143E050E0C4
:104E800060E070E0C3010E94B51DB2016C597F4F14
:104E9000882777FD8095982F0E943C35ED966CAF62
:104EA0007DAF8EAF9FAFED97B201882777FD8095DC
:104EB000982F0E943C35AB01BC011F929AE09F9352
:104EC0001AE0812E912CA12CB12C0CE5C02E0FE8FC
:104ED000D02E02E8E02E0FE3F02EED960CAD1DADC6
:104EE0002EAD3FADED97C3010E94FF1DE5E64E0ECE
:104EF000511CFFEF2F1A3F0A0F900F9088ED4816B4
:104F000089E0580609F0B9CF212C312C910143E0FA
:104F100050E060E070E0C3010E94B51DB20164562C
:104F20007109882777FD8095982F0E943C35ED9672
:104F30006CAF7DAF8EAF9FAFED97B201882777FD45
:104F40008095982F0E943C35AB01BC011F929AE0DE
:104F50009F93AAE08A2E912CA12CB12CBCE5CB2EDC
:104F6000BFE8DB2EB2E8EB2EBFE3FB2EED960CADD7
:104F70001DAD2EAD3FADED97C3010E94FF1DE5E6CF
:104F80004E1A5108FFEF2F1A3F0A0F900F9086EE2E
:104F9000481685E0580609F0B9CF212C312C910133
:104FA00043E050E060E070E0C3010E94B51DB20133
:104FB00064567109882777FD8095982F0E943C35AB
:104FC000ED966CAF7DAF8EAF9FAFED97B2018827A6
:104FD00077FD8095982F0E943C35AB01BC011F9254
:104FE0009AE09F93EAE08E2E912CA12CB12CFCE547
:104FF000CF2EFFE8DF2EF2E8EF2EFFE3FF2EED9637
:105000000CAD1DAD2EAD3FADED97C3010E94FF1D50
:10501000E5E64E1A5108FFEF2F1A3F0A0F900F9046
:1050200084EF481681E0580609F0B9CFEF96EEAD4F
:10503000FFADEF973197EF96FFAFEEAFEF97EF2B06
:1050400009F0CCCEC3010E94031264E670E080E058
:1050500090E00E94F129A9C090E4C92E96E0D92ED3
:105060002AE5422E512CCE0101961C013AE5A32ED1
:10507000B12C44EB842E912CF10188E011928A9599
:10508000E9F7BA82A982BC82AB825E824D82C401FA
:105090008419950998878F83A1016AE070E0C301A4
:1050A0000E941814B601882777FD8095982F0E94DA
:1050B0003C35AB01BC01EE24E394F12C0FE010E091
:1050C00020E030E0C3010E94CC1D9FEF491A590A2D
:1050D000E4E1CE0ED11CF6E94F16510469F6A0EFBB
:1050E000AA2EAAE0BA2EB6E9CB2ED12C1AE5412E73
:1050F000512C04EB802E912CF10188E011928A95BD
:10510000E9F75A8249825C824B82DE82CD82C401F9
:105110008C199D0998878F83A1016AE070E0C30113
:105120000E941814B501882777FD8095982F0E945A
:105130003C35AB01BC01EE24E394F12C0FE010E010
:1051400020E030E0C3010E94CC1D91E0C91AD108D3
:10515000E4E1AE0EB11CFAE5CF16D10469F604E124
:1051600010E024EF31E040E050E060E87FE3C3016D
:105170000E94C0196CE070E0C3010E94991E4CE0CF
:1051800050E060E070E0C3010E94311D24EF31E087
:1051900040E050E060E87FE3C3010E94C019C30112
:1051A0000E947D16C3010E9403124BE050E060E0B4
:1051B00070E0C3010E94311D81C047E150E060E012
:1051C00070E0C3010E94311DAE014F5D5F4F6CE284
:1051D00071E0C3010E941814EE24E394F12C08EC52
:1051E00010E020E030E040E050E061E674E4C3010C
:1051F0000E94CC1D48E150E060E070E0C3010E94D5
:10520000311DAE01475E5F4F6CE271E0C3010E9449
:10521000181408EC10E020E030E040E050E066E1D7
:1052200074E4C3010E94CC1D44E150E060E070E0F2
:10523000C3010E94311DAE014F5E5F4F6CE271E011
:10524000C3010E94181408EC10E020E030E040E0B8
:1052500050E066E973E4C3010E94CC1DAE01475FD4
:105260005F4F6CE271E0C3010E9418144AE150E004
:1052700060E070E0C3010E94311DC3010E94D113A0
:1052800008E918E020E030E040E050E066E173E437
:10529000C3010E94CC1D68E572E080E090E00E94AE
:1052A000F129C3010E9403124BE050E060E070E07E
:1052B000C3010E94311DC3010E947D16CE57DF4FEE
:1052C0000FB6F894DEBF0FBECDBFDF91CF911F9117
:1052D0000F91FF90EF90DF90CF90BF90AF909F9095
:1052E0008F907F906F905F904F903F902F90089598
:1052F0001F920F920FB60F9211242F933F938F930B
:105300009F93AF93BF938091C0069091C106A091E7
:10531000C206B091C3063091BF0623E0230F2D379C
:1053200020F40196A11DB11D05C026E8230F0296A9
:10533000A11DB11D2093BF068093C0069093C106A6
:10534000A093C206B093C3068091C4069091C5068F
:10535000A091C606B091C7060196A11DB11D80930C
:10536000C4069093C506A093C606B093C706BF9126
:10537000AF919F918F913F912F910F900FBE0F9002
:105380001F9018952FB7F8946091C0067091C106D0
:105390008091C2069091C3062FBF08953FB7F8943D
:1053A0008091C4069091C506A091C606B091C7062B
:1053B00026B5A89B05C02F3F19F00196A11DB11D70
:1053C0003FBF6627782F892F9A2F620F711D811D8D
:1053D000911D42E0660F771F881F991F4A95D1F7EC
:1053E0000895CF92DF92EF92FF92CF93DF936B01FC
:1053F0007C010E94CE29EB01C114D104E104F10427
:1054000089F00E9437340E94CE296C1B7D0B683EC8
:10541000734090F381E0C81AD108E108F108C8513F
:10542000DC4FEACFDF91CF91FF90EF90DF90CF90EC
:105430000895019739F0880F991F880F991F0297D7
:105440000197F1F70895789484B5826084BD84B59E
:10545000816084BD85B5826085BD85B5816085BD6F
:10546000EEE6F0E0808181608083E1E8F0E0108288
:10547000808182608083808181608083E0E8F0E0C9
:10548000808181608083E1EBF0E0808184608083B3
:10549000E0EBF0E0808181608083EAE7F0E08081EA
:1054A000846080838081826080838081816080834A
:1054B0008081806880831092C10008958E3008F04A
:1054C0008E5087702091080190E4299F900111244B
:1054D000822B80937C0080917A00806480937A0094
:1054E00080917A0086FDFCCF809178002091790030
:1054F00090E0922B0895833081F028F4813099F068
:105500008230A1F008958730A9F08830B9F0843056
:10551000D1F4809180008F7D03C0809180008F77CF
:1055200080938000089584B58F7702C084B58F7D05
:1055300084BD08958091B0008F7703C08091B00042
:105540008F7D8093B0000895CF93DF9390E0FC01AE
:10555000E359FE4F2491FC01EF57FE4F84918823BD
:1055600049F190E0880F991FFC01E755FE4FA59186
:10557000B49181569E4FFC01C591D4919FB76111A2
:1055800008C0F8948C91209582238C938881822383
:105590000AC0623051F4F8948C91322F30958323F5
:1055A0008C938881822B888304C0F8948C91822B01
:1055B0008C939FBFDF91CF9108950F931F93CF934B
:1055C000DF931F92CDB7DEB7282F30E0F901E75AFD
:1055D000FE4F8491F901E359FE4F1491F901EF5701
:1055E000FE4F04910023C9F0882321F069830E94B3
:1055F0007B2A6981E02FF0E0EE0FFF1FE156FE4F9E
:10560000A591B4919FB7F8948C91611103C0109546
:10561000812301C0812B8C939FBF0F90DF91CF918D
:105620001F910F910895CF92DF92EF92FF920F9307
:105630001F93CF93DF9390E0FC01E359FE4FD49189
:10564000FC01EF57FE4F7491611102C0C0E001C030
:10565000CD2FDA01C901BF70672F70E0660F771F89
:105660006B567E4F00E010E09801FB01E590F4904E
:10567000F70140814D234C131EC0680179014FEFA3
:10568000C41AD40AE40AF40A081719072A073B07C0
:1056900009F442C097018601E8CF68017901FFEF64
:1056A000CF1ADF0AEF0AFF0A081719072A073B0774
:1056B00099F197018601FB01E590F490F701408193
:1056C0004D234C13EACF801B910BA20BB30B20E0B0
:1056D00030E0A901FB01E590F490F701F080FD2294
:1056E000FC120AC0281739074A075B07A9F02F5F89
:1056F0003F4F4F4F5F4FEECFA8E1B0E00E946537BC
:10570000605F7F4F8F4F9F4F24E0969587957795E9
:1057100067952A95D1F703C060E070E0CB01DF9177
:10572000CF911F910F91FF90EF90DF90CF90089550
:10573000FC01818D228D90E0805C9F4F821B91093E
:105740008F7399270895FC01918D828D981731F000
:10575000828DE80FF11D858D90E008958FEF9FEF0A
:105760000895FC01918D828D981761F0828DDF0183
:10577000A80FB11D5D968C91928D9F5F9F73928F44
:1057800090E008958FEF9FEF089585E39DE2892BC8
:1057900049F080E090E0892B29F00E94352D81119D
:1057A0000C9400000895FC01848DDF01A80FB11D49
:1057B000A35ABF4F2C91848D90E001968F73992747
:1057C000848FA689B7892C93A089B1898C91806434
:1057D0008C93938D848D981306C00288F389E02DF5
:1057E00080818F7D80830895CF93DF93EC01888D36
:1057F0008823C9F0EA89FB89808185FD05C0A889D5
:10580000B9898C9186FD0FC00FB607FCF5CF80815A
:1058100085FFF2CFA889B9898C9185FFEDCFCE01A4
:105820000E94D32BE7CFDF91CF910895CF92DF92E3
:10583000FF920F931F93CF93DF931F92CDB7DEB7E5
:105840006C01DC015B969C915B975C968C915C97FC
:10585000981307C05096ED91FC915197808185FD7A
:1058600032C0F601038D10E00F5F1F4F0F73112739
:10587000F02EF601848DF81211C00FB607FCF9CF97
:10588000D6015096ED91FC915197808185FFF1CF23
:10589000C60169830E94D32B6981EBCF838DE80F0A
:1058A000F11DE35AFF4F6083D6015B960C935B9723
:1058B0005296ED91FC91539780818062808381E0C4
:1058C00058968C930DC0D6015696ED91FC91579742
:1058D00060835096ED91FC91519780818064808324
:1058E00081E090E00F90DF91CF911F910F91FF9099
:1058F000DF90CF900895BF92CF92DF92EF92FF9208
:10590000CF93DF93EC016A017B01B22EE889F9891C
:1059100082E08083411581EE580761057105A1F091
:1059200060E079E08DE390E0A70196010E941E37C8
:1059300021503109410951095695479537952795C9
:10594000211580E1380798F0E889F989108260E82C
:1059500074E88EE190E0A70196010E941E37215065
:105960003109410951095695479537952795EC8599
:10597000FD853083EE85FF852083188EEC89FD89B7
:10598000B082EA89FB89808180618083EA89FB8912
:10599000808188608083EA89FB8980818068808338
:1059A000EA89FB8980818F7D8083DF91CF91FF9091
:1059B000EF90DF90CF90BF9008951F920F920FB697
:1059C0000F9211242F938F939F93EF93FF93E09166
:1059D000D806F091D9068081E091DE06F091DF06CD
:1059E00082FD12C090818091E1068F5F8F732091BC
:1059F000E206821751F0E091E106F0E0E853F94F3A
:105A0000958F8093E10601C08081FF91EF919F9176
:105A10008F912F910F900FBE0F901F9018951F928E
:105A20000F920FB60F9211242F933F934F935F93D2
:105A30006F937F938F939F93AF93BF93EF93FF9356
:105A400088EC96E00E94D32BFF91EF91BF91AF912C
:105A50009F918F917F916F915F914F913F912F9186
:105A60000F900FBE0F901F90189588EC96E00E9443
:105A7000982B21E0892B09F420E0822F08951092C1
:105A8000CB061092CA0688EE93E0A0E0B0E08093C7
:105A9000CC069093CD06A093CE06B093CF068AE1B4
:105AA00093E09093C9068093C80685EC90E09093AC
:105AB000D5068093D40684EC90E09093D70680932B
:105AC000D60680EC90E09093D9068093D80681ECBE
:105AD00090E09093DB068093DA0682EC90E090935E
