:100000000C94F0000C94C6020C94ED020C941403B2
:100010000C9477030C94DA030C9418010C9452336B
:100020000C9418010C9418010C9418010C94F70FFF
:100030000C9418010C9418010C9418010C941801DC
:100040000C94CA2A0C9418010C942F2E0C94612E37
:100050000C9418010C9418010C9418010C941801BC
:100060000C9418010C941801220B270B2E0B3D0B3E
:10007000440B530B640B700B840B950BA10BB50B4E
:10008000C20BCE0BE20BF30BFA0B070C0E0C1B0C86
:100090002C0CEF0EF20EF50EF80EFB0EFE0E010FFD
:1000A000040F070F0A0F0D0F100F130F470F4A0F02
:1000B0004D0F500F530F560F590F5C0F5F0F620F0C
:1000C000650F680F6B0F6E0F710F740F770F7A0F3C
:1000D0007D0FED1F14203E2077209020A920CF20F7
:1000E00003213C217521A921D62100223122612240
:1000F0007A22CC22E5220323F5231D245824EA2466
:100100009725142629264C26FE26EE23E723692967
:100110002F2A05A84CCDB2D44EB93836A9020C50BE
:10012000B9918688083CA6AAAA2ABE000000803F92
:10013000252500460026260025250041002626000C
:1001400025250049200026260025250042200026DE
:1001500026002525004E20002626002525004420C7
:100160000026260025250045200026260000010245
:10017000030405060700010203040500010203044D
:100180000500000008000201000003040700000051
:100190000000000000010204081020408001020459
:1001A00008102001020408102004040404040404BC
:1001B000040202020202020303030303030000001D
:1001C0000023002600290000000000250028002B45
:1001D0000000000000240027002A0002F805912EEC
:1001E00011241FBECFEFD8E0DEBFCDBF13E0A0E0EB
:1001F000B1E0EEEBF5E702C005900D92A633B10732
:10020000D9F727E0A6E3B3E001C01D92AE37B207ED
:10021000E1F711E0C0EED1E004C02297FE010E9498
:10022000B338CC3DD107C9F70E94D52E0C94DD3AE6
:100230000C94000081E08093400390914103911160
:100240000BC08093410321E04FE050E060E070E09C
:1002500086E493E00C94021F089581E080933F03AD
:100260009091410391110BC08093410321E04FE035
:1002700050E060E070E086E493E00C94021F089583
:10028000EF92FF920F931F93CF93DF931F92CDB7FF
:10029000DEB77C01FC0100811181C80169830E94E5
:1002A000BC3A6981681719F0C8010E94C43AC701B5
:1002B0000F90DF91CF911F910F91FF90EF900895D4
:1002C0000F931F93CF93DF9300D0CDB7DEB78B0191
:1002D000FB0160819A838983CE0101960E944001CF
:1002E000C8010F900F90DF91CF911F910F9108954A
:1002F000A82FAF7787FD05C08EEF8A0F823008F4F4
:1003000099C0B0E0FD01EB56FE4F2491FD01E75589
:10031000FE4F8491942F9D7F9130B9F4823031F457
:1003200090918806922B909388060FC0833031F409
:1003300090917906922B9093790607C0843029F426
:1003400090916606922B9093660641504230B8F425
:10035000823031F490918706922B909387060FC0DC
:10036000833031F490917806922B9093780607C0F1
:10037000843029F490916506922B90936506FD01D7
:10038000E359FE4FA4918230C1F4B0E0AA0FBB1F25
:10039000A757B94F6D937C93E1ECF1E0A591B4912F
:1003A0008C91809386068BE690E090939A068093DA
:1003B000990680916800816033C08330C1F4B0E059
:1003C000AA0FBB1FA658B94F6D937C93E3ECF1E0E5
:1003D000A591B4918C91809377068CE690E09093F0
:1003E0009A068093990680916800826019C08430D3
:1003F000C9F4B0E0AA0FBB1FA959B94F6D937C9304
:10040000E5ECF1E0A591B4918C91809364068DE6C2
:1004100090E090939A06809399068091680084609A
:1004200080936800A0919906B0919A068C91822BD6
:100430008C9316C09FB7F894A230B1F470939606CF
:1004400060939506E898809169008C7F809369009D
:1004500080916900842B80936900E09AE89A9FBF9D
:100460008FB780688FBF0895709398066093970642
:10047000E99880916900837F809369008091690089
:1004800024E0429FA0011124842B80936900E19A0B
:10049000E99AE5CF3FB7F894982F9F7787FD05C07D
:1004A0008EEF890F823008F45EC0892F90E0FC0146
:1004B000EB56FE4F2491FC01E755FE4F84918230AC
:1004C000D1F480916B002095822380936B00809102
:1004D0006B00811105C0809168008E7F8093680059
:1004E00080918806822380938806809187068223E4
:1004F0008093870641C08330D1F480916C002095B1
:10050000822380936C0080916C00811105C08091E2
:1005100068008D7F809368008091790682238093A4
:1005200079068091780682238093780625C08430EE
:1005300019F580916D002095822380936D00809144
:100540006D00811105C0809168008B7F80936800E9
:1005500080916606822380936606809165068223D9
:100560008093650609C0923049F4E898809169004B
:100570008C7F80936900E09A3FBF0895E99880914D
:100580006900837F80936900E19AF6CF1F920F92F2
:100590000FB60F9211242F933F934F935F936F9356
:1005A0007F938F939F93AF93BF93EF93FF93E091CC
:1005B0009506F09196060995FF91EF91BF91AF9145
:1005C0009F918F917F916F915F914F913F912F916B
:1005D0000F900FBE0F901F9018951F920F920FB69D
:1005E0000F9211242F933F934F935F936F937F93B9
:1005F0008F939F93AF93BF93EF93FF93E0919706F1
:10060000F09198060995FF91EF91BF91AF919F915D
:100610008F917F916F915F914F913F912F910F90AB
:100620000FBE0F901F9018951F920F920FB60F924A
:1006300011242F933F934F935F936F937F938F93E7
:100640009F93AF93BF93CF93EF93FF9393B1C091D9
:1006500086062091880630918706892F809583230E
:100660002923822B20916B00C927C223C823909392
:100670008606CC2351F1C0FF05C0E0918906F091B8
:100680008A060995C1FF05C0E0918B06F0918C06A2
:100690000995C2FF05C0E0918D06F0918E0609957F
:1006A000C3FF05C0E0918F06F09190060995C4FF45
:1006B00005C0E0919106F09192060995C5FF05C02D
:1006C000E0919306F09194060995FF91EF91CF91F7
:1006D000BF91AF919F918F917F916F915F914F915A
:1006E0003F912F910F900FBE0F901F9018951F9262
:1006F0000F920FB60F9211242F933F934F935F9356
:100700006F937F938F939F93AF93BF93CF93EF9309
:10071000FF9396B1C09177062091790630917806C3
:10072000892F809583232923822B20916C00C92750
:10073000C223C82390937706CC2351F1C0FF05C094
:10074000E0917A06F0917B060995C1FF05C0E09122
:100750007C06F0917D060995C2FF05C0E0917E06FA
:10076000F0917F060995C3FF05C0E0918006F091E6
:1007700081060995C4FF05C0E0918206F0918306C9
:100780000995C5FF05C0E0918406F091850609959D
:10079000FF91EF91CF91BF91AF919F918F917F91F9
:1007A0006F915F914F913F912F910F900FBE0F90DE
:1007B0001F9018951F920F920FB60F9211242F932E
:1007C0003F934F935F936F937F938F939F93AF93D9
:1007D000BF93CF93EF93FF9399B1C091640620919B
:1007E000660630916506892F809583232923822B05
:1007F00020916D00C927C223C82390936406CC239F
:10080000C1F1C0FF05C0E0916706F0916806099547
:10081000C1FF05C0E0916906F0916A060995C2FF23
:1008200005C0E0916B06F0916C060995C3FF05C009
:10083000E0916D06F0916E060995C4FF05C0E09148
:100840006F06F09170060995C5FF05C0E09171062D
:10085000F09172060995C6FF05C0E0917306F0910C
:1008600074060995C7FF05C0E0917506F0917606FC
:100870000995FF91EF91CF91BF91AF919F918F918A
:100880007F916F915F914F913F912F910F900FBE8C
:100890000F901F90189586E493E00E94DE1D0E9441
:1008A0005B366F30710524F481E080933603089540
:1008B0001092360308958F929F92AF92BF92CF927B
:1008C000DF92EF92FF920F931F93CF9386E493E012
:1008D0000E940A1E20E030E044E352E40E94EF351B
:1008E00087FF54C0C3E08091410381114FC021E0D4
:1008F0004CE150E060E070E086E493E00E94021F6B
:100900001F92CF9348E0842E912CA12CB12C58EB50
:10091000C52E5EE1D52E55E8E52E5FE3F52E00E00D
:1009200010E02AEF34E440E050E06CE574E486E443
:1009300093E00E943C1F6EE170E080E090E00E9436
:10094000432B1F92CF936CE5C62E6FE8D62E62E83C
:10095000E62E6FE3F62E00E010E02CE534E440E0F4
:1009600050E06AEF74E486E493E00E943C1F86E462
:1009700093E00E94071F64EF71E080E090E00E9426
:10098000432B0F900F900F900F90ADCFCF911F91F1
:100990000F91FF90EF90DF90CF90BF90AF909F901E
:1009A0008F9008954F925F926F927F928F929F9255
:1009B000AF92BF92CF92DF92EF92FF920F931F936D
:1009C000CF93DF93CDB7DEB728970FB6F894DEBF8D
:1009D0000FBECDBF88E0EAE0F1E0DE0111960190A4
:1009E0000D928A95E1F780914103811109C0AE0112
:1009F0004F5F5F4F6CEB72E086E493E00E9451150D
:100A0000F4E06F2E712CAAE05A2E44244394809176
:100A100041038823A1F0809141038111C1C021E0ED
:100A200043E150E060E070E086E493E00E94021F42
:100A300069E070E086E493E00E94D61FB1C020E038
:100A400030E041E050E060E070E086E493E00E9436
:100A5000F21E1F925F927AE0872E912CA12CB12C6E
:100A6000E8EBCE2EEEE1DE2EE5E8EE2EEFE3FE2EF5
:100A700000E010E028E433E440E050E068EC72E489
:100A800086E493E00E943C1F809141030F900F90F9
:100A90008111C1CF21E030E041E050E060E070E042
:100AA00086E493E00E94F21E1F925F9200E010E045
:100AB00026E933E440E050E068E473E486E493E040
:100AC0000E943C1F809141030F900F908111A3CF92
:100AD00022E030E041E050E060E070E086E493E046
:100AE0000E94F21E1F925F9200E010E02AEF33E4B2
:100AF00040E050E066E973E486E493E00E943C1F26
:100B000064EF71E080E090E00E94432B809141030C
:100B10000F900F9081117FCF21E030E041E050E055
:100B200060E070E086E493E00E94F21E1F924F9214
:100B300000E010E02AE733E440E050E068EC73E4C2
:100B400086E493E00E943C1F809141030F900F9038
:100B5000811161CF20E030E041E050E060E070E0E2
:100B600086E493E00E94F21E1F924F9200E010E094
:100B700028EC32E440E050E06AE773E486E493E076
:100B80000E943C1F64EF71E080E090E00E94432BE4
:100B900081E0681A71080F900F9009F038CF3BCFB1
:100BA00086E493E00E94BA1780914103811109C045
:100BB00021E04BE050E060E070E086E493E00E94CA
:100BC000021F28960FB6F894DEBF0FBECDBFDF918F
:100BD000CF911F910F91FF90EF90DF90CF90BF903A
:100BE000AF909F908F907F906F905F904F900895FF
:100BF000CF93DF938BE294E00E942A132CE04DE028
:100C00006BE086E493E00E94E6128DE493E00E949C
:100C10000812CEE4D3E0CE010E94B310188A1F86DA
:100C2000A99683E0C23FD807B1F782EF93E0DF9146
:100C3000CF910C946312CF92DF92EF92FF920F93B9
:100C40001F93CF93DF93CDB7DEB72B970FB6F894F2
:100C5000DEBF0FBECDBF86E493E00E94BA171982B3
:100C60001A821B821C82FE01359687E0DF011D92ED
:100C70008A95E9F78E010F5F1F4FB5E0EB2EF12C3F
:100C80006801C7010E94BC3AF80181938F01FFEF10
:100C9000EF1AFF0A80E1E816F10499F76AE671E0BD
:100CA0008AEC96E00E94222F67E671E08AEC96E0DB
:100CB0000E94222FB6018AEC96E00E94472F64E63C
:100CC00071E08AEC96E00E94642F8AEC96E00E9424
:100CD000462D2B960FB6F894DEBF0FBECDBFDF9129
:100CE000CF911F910F91FF90EF90DF90CF900895DB
:100CF000CF92DF92EF92FF9286E493E00E94BA17C0
:100D000086E493E00E94DE1D6B017C0161E671E0E8
:100D10008AEC96E00E94222F6EE571E08AEC96E064
:100D20000E94222FC701B6010E945B364AE050E0C4
:100D30008AEC96E00E9419306BE571E08AEC96E04F
:100D40000E94642F8AEC96E0FF90EF90DF90CF90A6
:100D50000C94462DCF93DF9386E493E00E94BA175C
:100D600086E493E00E94E21DEC0168E571E08AEC04
:100D700096E00E94222F65E571E08AEC96E00E94E1
:100D8000222F4AE050E0BE018AEC96E00E94193022
:100D900062E571E08AEC96E00E94642F8AEC96E0AE
:100DA000DF91CF910C94462DCF92DF92EF92FF927C
:100DB00086E493E00E94BA1786E493E00E940A1E3C
:100DC0006B017C016FE471E08AEC96E00E94222FB7
:100DD0006CE471E08AEC96E00E94222F22E030E081
:100DE000B701A6018AEC96E00E940C3169E471E03B
:100DF0008AEC96E00E94642F8AEC96E0FF90EF90D8
:100E0000DF90CF900C94462D86E493E00E94BA17B1
:100E100066E471E08AEC96E00E94222F63E471E0C0
:100E20008AEC96E00E94222F6BE073E08AEC96E059
:100E30000E94472F60E471E08AEC96E00E94642FE4
:100E40008AEC96E00C94462D8F929F92AF92BF92BF
:100E5000CF92DF92EF92FF920F931F93CF93DF9386
:100E600000D0CDB7DEB78AE290E00E94BC3A8F3F57
:100E700009F4DDC026E040E052EC61E070E08AEC6D
:100E800096E00E94CD2D60E086E00E94F62B60E0A7
:100E900087E00E94F62B1F9289E08F9308E0802E56
:100EA000912C8AE0A82EB12C94E1C92ED12CEE24ED
:100EB000E39405E010E024E030E043E050E062E03D
:100EC00070E086E493E00E946B1484E10E94B02BF2
:100ED0000E94AE3343E06AE171E086E00E9478014F
:100EE00043E06DE271E087E00E94780143E959E058
:100EF0006EEE72E08BE294E00E943F134BE959E002
:100F000060EF72E08BE294E00E943F1345ED59E000
:100F100062EF72E08BE294E00E943F1347E259E0F7
:100F200064EF72E08BE294E00E943F1343EC5EE0DA
:100F300066EF72E08BE294E00E943F134BE15FE0CA
:100F400068EF72E08BE294E00E943F1342E35AE0C4
:100F50006AEF72E08BE294E00E943F1346E95AE0A8
:100F60006CEF72E08BE294E00E943F1345E85FE093
:100F70006EEF72E08BE294E00E943F134BE156E08B
:100F800060E073E08BE294E00E943F1348E756E094
:100F900062E073E08BE294E00E943F134AEA56E07D
:100FA00064E073E08BE294E00E943F1344ED56E06E
:100FB00066E073E08BE294E00E943F1344E057E068
:100FC00068E073E08BE294E00E943F1363E979E00C
:100FD0008BE294E00E94711360E070E086E493E09D
:100FE0000E94D61F86E493E00E94BA1785E090E045
:100FF0000E94BC3A0F900F90843209F04FC06AE013
:1010000073E085E090E00E9460011982BE016F5F8D
:101010007F4F86E090E00E94600121E04DE150E0CA
:1010200060E070E086E493E00E94021F30C08AE234
:1010300090E09A83898361E0CE0101960E9440018D
:101040008BE290E09A83898360E0CE0101960E9452
:10105000400100E010E0C8010E94BC3AF82E682F61
:10106000C8018C599F4F0E94C43A6F2DC801885304
:101070009F4F0E94C43A6F2DC801845D9E4F0E940D
:10108000C43A0F5F1F4F0430110529F7F3CE68EE05
:1010900073E080E090E00E94432BF9CF0E941B0692
:1010A00062E370E080E090E00E94432B0E9404071E
:1010B00062E370E080E090E00E94432B0E94D4063F
:1010C0000E945B0412E0E12EF12C00E010E0809120
:1010D0004103882329F081E0E81AF108A9F0F5CF4F
:1010E000980140E050E0BA0186E493E00E94F21ECD
:1010F00066E970E080E090E00E94432B0F5F1F4F95
:101100000830110521F7E7CF80914103811115C007
:1011100021E04AE050E060E070E086E493E00E9465
:10112000021F6BE070E086E493E00E94D61F68EC3B
:1011300070E080E090E00E94432B85E090E00E9408
:10114000BC3A833209F041C080914103811110C043
:101150002CEB32E040E050E060E87FE386E493E08F
:101160000E94FF1768EC70E080E090E00E94432B43
:101170008091410381110CC04091060150910701FB
:1011800021E030E061E070E086E493E00E94A7197E
:1011900080914103811119C021E04FE050E060E0EF
:1011A00070E086E493E00E94021F04E110E020E278
:1011B00033E040E050E060E070E486E493E00E94B9
:1011C000AC1A86E493E00E94BA1780914103811122
:1011D00009C021E04BE050E060E070E086E493E07D
:1011E0000E94021F0E94142B60933B0370933C03E8
:1011F00080933D0390933E030F900F90DF91CF912A
:101200001F910F91FF90EF90DF90CF90BF90AF9024
:101210009F908F9008956EE170E080E090E00E94D2
:10122000432B6DE371E08AEC96E00E94222F6BE382
:1012300071E08AEC96E00E94222F68E371E08AEC6C
:1012400096E00E94642F8AEC96E00C94462D0E9452
:101250000B0986E493E00E94F517882329F060E0EB
:1012600086E493E00E94FA178BE294E00E94351323
:10127000009739F00E94423A9093450380934403CB
:1012800017C021E04AE150E060E070E086E493E0BE
:101290000E94021F60ED77E080E090E00E94432B07
:1012A00086E493E00E94071F1092450310924403C6
:1012B0008BE294E00E943513009719F00E94423AA5
:1012C00002C088EE93E090930701809306018BE2C1
:1012D00094E00E943513009719F00E94423A02C030
:1012E0008FE090E0909305018093040108956EE1F2
:1012F00070E080E090E00E94432B65E371E08AECAF
:1013000096E00E94222F63E371E08AEC96E00E944F
:10131000222F60E371E08AEC96E00E94642F8AEC51
:1013200096E00C94462D0E940B0986E493E00E94FF
:10133000BA170C947709CF93DF9300D0CDB7DEB7FF
:101340000E940B0986E493E00E94BA178BE294E0B6
:101350000E943513009779F042E050E0BE016F5FC4
:101360007F4F0E942E39AB01BC0120E086E493E060
:101370000E94021F13C021E04AE150E060E070E0EB
:1013800086E493E00E94021F60ED77E080E090E049
:101390000E94432B86E493E00E94071F0E94770976
:1013A0000F900F90DF91CF9108958F929F92AF92FF
:1013B000BF92EF92FF920F931F93CF93DF930E9400
:1013C0000B0986E493E00E94BA178BE294E00E9436
:1013D0003513009729F00E94423AEC0110E001C059
:1013E00011E08BE294E00E943513009721F00E94F7
:1013F000423A1123A1F021E04AE150E060E070E0C0
:1014000086E493E00E94021F60ED77E080E090E0C8
:101410000E94432B86E493E00E94071F17C04C01F3
:10142000AA2497FCA094BA2CBE01882777FD80954A
:10143000982F0E948E36AB01BC01EE24E394F12C70
:101440009501840186E493E00E94091FDF91CF910A
:101450001F910F91FF90EF90BF90AF909F908F9052
:101460000C947709CF92DF92EF92FF920F931F9324
:10147000CF93DF930E940B0986E493E00E94BA1792
:101480008BE294E00E943513009729F00E94423AC3
:10149000EC0110E001C011E08BE294E00E943513F2
:1014A000009721F00E94423A7C0101C011E08BE2DA
:1014B00094E00E943513009721F00E94423A6C019B
:1014C00001C011E08BE294E00E943513009721F0F7
:1014D0000E94423A1123A1F021E04AE150E060E08D
:1014E00070E086E493E00E94021F60ED77E080E008
:1014F00090E00E94432B86E493E00E94071F0CC0FB
:101500008C019601A701BE0186E493E00E941815A4
:1015100086E493E00E942A15DF91CF911F910F91ED
:10152000FF90EF90DF90CF900C947709BF92CF920D
:10153000DF92EF92FF920F931F93CF93DF93CDB77C
:10154000DEB728970FB6F894DEBF0FBECDBF0E945E
:101550000B098EE190E090934503809344038BE266
:1015600094E00E943513009729F00E94423A6C01E2
:10157000B12C02C0BB24B3948BE294E00E943513DB
:10158000009721F00E94423A7C0102C0BB24B39430
:101590008BE294E00E943513009721F00E94423ABA
:1015A0008C0102C0BB24B3948BE294E00E943513FB
:1015B000009721F00E94423ABB20A1F021E04AE1CD
:1015C00050E060E070E086E493E00E94021F60ED6E
:1015D00077E080E090E00E94432B86E493E00E9455
:1015E000071F11C0DA82C982FC82EB821E830D8341
:1015F00098878F83AE014F5F5F4F68EC70E086E4A1
:1016000093E00E9451150E94770928960FB6F8942E
:10161000DEBF0FBECDBFDF91CF911F910F91FF9025
:10162000EF90DF90CF90BF900895EF92FF920F93CD
:101630001F938531910508F025C1FC01EC5CFF4F3B
:101640000C94B13886E493E00E94BA1715C120913A
:1016500006013091070101E010E006C0209106016B
:10166000309107010FEF1FEF40E050E060E87FE3AB
:1016700086E493E00E943C18FFC02091060130915F
:10168000070101E010E006C020910601309107013A
:101690000FEF1FEF40E050E060E87FE386E493E067
:1016A0000E94AC18E9C0009104011091050120913D
:1016B00006013091070140E050E060E87FE386E4F6
:1016C00093E00E94621AD8C00091040110910501B4
:1016D0002091060130910701EE24E394F12C0BC018
:1016E000009104011091050120910601309107013C
:1016F000EE24EA94FE2C40E050E060E87FE386E4CC
:1017000093E00E94DD1BB8C0009104011091050117
:10171000209106013091070140E050E060E87FE34E
:1017200086E493E00E94AC1AA7C0009104011091D6
:1017300005012091060130910701EE24E394F12C7C
:101740000BC0009104011091050120910601309118
:101750000701EE24EA94FE2C40E050E060E87FE3CD
:1017600086E493E00E948F1C87C02091060130918F
:10177000070140E050E060E87FE386E493E00E94E8
:10178000FF177AC000910401109105012091060114
:1017900030910701EE24E394F12C0BC00091040179
:1017A000109105012091060130910701EE24EA9481
:1017B000FE2C40E050E060E87FE386E493E00E9486
:1017C000301D5AC0009104011091050120910601BD
:1017D0003091070140E050E060E87FE386E493E069
:1017E0000E94FD1A49C0409106015091070121E075
:1017F00030E006C040910601509107012FEF3FEF06
:1018000061E070E086E493E00E94081935C04091E1
:1018100006015091070121E030E006C04091060129
:10182000509107012FEF3FEF61E070E086E493E015
:101830000E94A71921C00091040110910501209177
:1018400006013091070140E050E060E87FE386E464
:1018500093E00E94431B10C0009104011091050108
:10186000209106013091070140E050E060E87FE3FD
:1018700086E493E00E948B1B1F910F91FF90EF90E5
:101880000C9477091F910F91FF90EF9008950F939B
:101890001F93CF93DF938AEC96E00E94EA2C1816F0
:1018A00019063CF48091420390914303049709F098
:1018B000EEC180914103882341F186E493E00E94C8
:1018C000BA1764E670E080E090E00E94432B62E08B
:1018D00070E086E493E00E94D61F68EC70E080E040
:1018E00090E00E94432B80914003882309F4E7C1D4
:1018F00080913F038111E3C181E090E09093430325
:101900008093420363E070E022C200914203109191
:1019100043030230110509F487C03CF40115110599
:1019200069F00130110559F1ABC10330110509F41B
:1019300031C10430110509F48FC1A2C10E94142BDA
:1019400000913B0310913C0320913D0330913E03F5
:10195000601B710B820B930B6038784381409105BB
:1019600008F40CC20E94D2040E94142B60933B0323
:1019700070933C0380933D0390933E03FFC125E1A8
:1019800030E040E050E065E070E080E090E00E94F0
:10199000DA3370933A03609339036F5071096430FE
:1019A000710538F4109338030093370380E496E010
:1019B00010C026E030E040E050E063E070E080E0FE
:1019C00090E00E94DA33709338036093370388EE17
:1019D00093E0909307018093060125E130E040E019
:1019E00050E06AE070E080E090E00E94DA33AB0102
:1019F000BC0121E086E493E00E94021FC0E0D0E039
:101A00008091370390913803C817D9070CF0B6C1FD
:101A10008091390390913A030E94150B8091410304
:101A20008111ACC12196ECCF80913603882309F453
:101A30009FC080914103811119C021E04EE050E028
:101A400060E070E086E493E00E94021F66E070E0D0
:101A500086E493E00E94D61F24EF31E040E050E09E
:101A600060EA70E486E493E00E94FF1780914103EE
:101A700081110FC021E044E150E060E070E086E4B5
:101A800093E00E94021F69E070E086E493E00E9408
:101A9000D61FC3E0D0E080914103882399F064E62B
:101AA00070E080E090E00E94432B0E944B0464E6CB
:101AB00070E080E090E00E94432B8091360381111A
:101AC0005DC10FC00FEF1FEF24E135E040E050E0B3
:101AD00060E87FE386E493E00E943C182197D9F602
:101AE000DECF80914103811149C121E04AE050E0FD
:101AF00060E070E086E493E00E94021F62E370E021
:101B000080E090E00E94432B0E944B04C3E0D0E0B1
:101B100080913603882329F08091360381112EC1EC
:101B200006C080914103882309F416C1F5CF809146
:101B30004103811123C186E493E00E94BA1721E09A
:101B40004BE050E060E070E086E493E00E94021F0A
:101B50006DE070E086E493E00E94D61F68EC70E0D0
:101B600080E090E0DF91CF911F910F910C94432B77
:101B700001E010E028EE33E040E050E060E87FE371
:101B800086E493E00E943C18DF91CF911F910F9162
:101B90000C944B0486E493E00E94E21D8A38924044
:101BA0000CF4ECC062E370E080E090E00E94432B14
:101BB0008091410381113FC021E04EE050E060E0A0
:101BC00070E086E493E00E94021F67E070E086E424
:101BD00093E00E94D61F809141038111CFC025E17F
:101BE00030E040E050E06AE070E080E090E00E9489
:101BF000DA33AB01BC0121E086E493E00E94021FCE
:101C000025E130E040E050E065E070E080E090E009
:101C10000E94DA3370933A0360933903CB010E9438
:101C2000150B86E493E00E94BA1764EF71E080E040
:101C300090E00E94432B8091410381119FC021E0DD
:101C40004BE050E060E070E086E493E0DF91CF91FC
:101C50001F910F910C94021F8BE294E00E94771366
:101C600086E493E00E94F517811188C080914403B7
:101C700090914503DF91CF911F910F910C94150B1B
:101C800084E090E0909343038093420377C084E024
:101C900090E0909343038093420321E04BE050E0B7
:101CA00060E070E086E493E00E94021F86E00E94FC
:101CB0004A0287E00E944A0210924103FACD8091C5
:101CC000400381110DC080913F03882349F082E0D9
:101CD00090E0909343038093420364E070E037C048
:101CE00080914003882321F080913F03811127C018
:101CF0004091420350914303662757FD6095762F2C
:101D000021E086E493E00E94021FC8ECD0E06AE084
:101D100070E080E090E00E94432B2197C1F721E022
:101D20004BE050E060E070E086E493E00E94021F28
:101D3000109241031092400310923F031FC083E0B2
:101D400090E0909343038093420365E070E086E463
:101D500093E00E94D61FCCCF01E010E028EE33E0E4
:101D600040E050E060E87FE386E493E00E94AC1836
:101D70000E944B04219709F0CBCECECEDF91CF91BC
:101D80001F910F9108950E940B0986E493E00E9431
:101D9000BA178BE294E00E943513009761F00E941D
:101DA000423A01978D30910508F043C0875B9F4F01
:101DB000FC010C94B13821E04AE150E060E070E0B1
:101DC00086E493E00E94021F60ED77E080E090E0FF
:101DD0000E94432B86E493E00E94071F2AC060E024
:101DE00070E023C061E070E020C062E070E01DC0E0
:101DF00063E070E01AC064E070E017C065E070E076
:101E000014C066E070E011C067E070E00EC068E0EA
:101E100070E00BC069E070E008C06AE070E005C0E7
:101E20006BE070E002C06CE070E086E493E00E943A
:101E30003D230C9477090E940B0986E493E00E94ED
:101E4000BA178BE294E00E943513009761F00E946C
:101E5000423A01978331910508F055C08A5A9F4F45
:101E6000FC010C94B13821E04AE150E060E070E000
:101E700086E493E00E94021F60ED77E080E090E04E
:101E80000E94432B86E493E00E94071F3CC060E061
:101E900070E035C061E070E032C066E070E02FC0F5
:101EA00067E070E02CC068E070E029C069E070E095
:101EB00026C06AE070E023C06BE070E020C06CE0F8
:101EC00070E01DC06DE070E01AC06EE070E017C0F9
:101ED0006FE070E014C060E170E011C061E170E09B
:101EE0000EC062E170E00BC063E070E008C064E027
:101EF00070E005C065E070E002C062E070E086E47A
:101F000093E00E94D61F0C947709CF92DF92EF9254
:101F1000FF920F931F93CF93DF93CDB7DEB72D972B
:101F20000FB6F894DEBF0FBECDBF0E940B0986E44A
:101F300093E00E94BA1719821A821B821C82FE014A
:101F4000359687E0DF011D928A95E9F78BE294E0F0
:101F50000E943513009739F1DC01FE0131969E2F66
:101F60002F2F6E018CE0C80ED11C8D91811106C0FF
:101F7000092F122FA5E0EA2EF12C05C0EC15FD0566
:101F8000B9F38193F2CFD8016D918D01FD86EC8676
:101F9000C6010E944001BFEFEB1AFB0AE0E1EE161A
:101FA000F10489F713C021E04AE150E060E070E0FD
:101FB00086E493E00E94021F60ED77E080E090E00D
:101FC0000E94432B86E493E00E94071F0E9477093A
:101FD0002D960FB6F894DEBF0FBECDBFDF91CF9127
:101FE0001F910F91FF90EF90DF90CF9008951F9277
:101FF0000F920FB60F9211242F933F934F935F933D
:102000006F937F938F939F93AF93BF93EF93FF93C0
:1020100080919C0687FF05C0109285001092840075
:102020001AC020919C06332727FD309580919B068E
:1020300090E0281739077CF480919C06992787FD4A
:102040009095FC01EE0FFF1FE80FF91FE356F94FC3
:10205000808186FD15C080919C068F5F80939C06D1
:1020600020919C06332727FD309580919B0690E0B8
:1020700028173907BCF480919C068C305CF112C0A3
:1020800080919C06992787FD9095FC01EE0FFF1F1C
:10209000E80FF91FE356F94F808160E08F730E94CB
:1020A0002F2CD9CF809184009091850004968034A4
:1020B0009C4918F480E49CE905C0809184009091CB
:1020C0008500049690938900809388008FEF809319
:1020D0009C0638C0209184003091850080919C0638
:1020E000992787FD9095FC01EE0FFF1FE80FF91F60
:1020F000E356F94F81819281820F931F909389005B
:102100008093880080919C06992787FD9095FC011B
:10211000EE0FFF1FE80FF91FE356F94F808186FF8E
:1021200011C080919C06992787FD9095FC01EE0FC8
:10213000FF1FE80FF91FE356F94F808161E08F73AD
:102140000E942F2CFF91EF91BF91AF919F918F91A2
:102150007F916F915F914F913F912F910F900FBEA3
:102160000F901F90189520919B062C30A0F431E021
:10217000320F30939B06FC012083822F90E0FC01FC
:10218000EE0FFF1FE80FF91FE356F94F88EB9BE0B6
:102190009283818308952FEFFC0120830895DF92BD
:1021A000EF92FF920F931F93CF93DF93EC01D62E04
:1021B0007A01890188818C3008F066C061E08D2D3C
:1021C0000E94F62B8881A82FB0E0FD01EE0FFF1FC3
:1021D000EA0FFB1FE356F94F2D2D2F739081907C52
:1021E000922B908360E272E06E197F0977FF02C044
:1021F0006D5F7F4F7595679575956795698340E627
:1022000059E0401B510B57FF02C04D5F5F4F559582
:102210004795559547954A836CE00E943C389CE071
:10222000899FB001112420E030E0A901460F571F1B
:10223000FA01EE0FFF1FE40FF51FE356F94F9081EF
:1022400096FD16C02F5F3F4F2C30310571F781117D
:102250000FC01092800082E0809381001092850070
:1022600010928400B19A80916F00826080936F0019
:10227000888190E0FC01EE0FFF1FE80FF91FE35685
:10228000F94F8081806480838881DF91CF911F9195
:102290000F91FF90EF90DF90089520E639E040E243
:1022A00052E00C94CF10FC01808190E0FC01EE0F15
:1022B000FF1FE80FF91FE356F94F80818F7B808362
:1022C0000895FC0180818C3070F5918128E830E020
:1022D000291B310997FD3395220F331F220F331F1E
:1022E000621773077CF0928128E532E0291B3109DF
:1022F00097FD3395220F331F220F331F6217730789
:102300000CF49B0122503109220F331F4FB7F89470
:1023100090E0FC01EE0FFF1FE80FF91FE356F94FA5
:10232000328321834FBF08954F925F926F927F92C5
:10233000AF92BF92CF92DF92EF92FF920F931F93D3
:10234000CF93DF93EC01603282E078070CF040C05D
:1023500077FD06C0653B71052CF064EB70E002C0B0
:1023600060E070E0898128E830E0281B310987FDB2
:102370003395220F331F220F331F5901CC24B7FC92
:10238000C094DC2C882777FD8095982F2A8148E51A
:1023900052E0421B510927FD5395440F551F440F2E
:1023A000551F2A01662457FC6094762C7F926F9209
:1023B0005F924F9214EBE12EF12C00E010E020E050
:1023C00030E0A9010E94F6330F900F900F900F900C
:1023D000CE01DF91CF911F910F91FF90EF90DF9091
:1023E000CF90BF90AF907F906F905F904F900C9484
:1023F0006111FC01808190E0FC01EE0FFF1FE80FEE
:10240000F91FE356F94F808186FB882780F90895EC
:1024100008950F931F93CF93DF9385E10E94B02B14
:1024200025E0AC01249FC001259F900D1124BC0123
:10243000882777FD8095982F0E948E3620E030E027
:1024400040E85AE30E9442378B01D82FC92F26E675
:1024500036E646E850E40E943E37181624F406E6B5
:1024600016E6D6E8C0E4B8018D2F9C2FDF91CF91FE
:102470001F910F9108950F931F93CF93DF930E94A5
:1024800009122FEB36E842ED52E40E9442372CE766
:102490003DE04BEA53E40E948A358B01D82FC92FC7
:1024A00020E030E0A9010E94EF3587FF04C000E082
:1024B00010E0D0E0C0E0B8018D2F9C2FDF91CF91CC
:1024C0001F910F9108950895CF93DF93EC01862F0C
:1024D000688379835B834A8361E00E94F62B60E026
:1024E0008A81DF91CF910C94F62BCF93DF93EC018F
:1024F00060E088810E942F2C82E090E00E946B2B8C
:1025000061E088810E942F2C8AE090E00E946B2B72
:1025100060E088810E942F2C20E43CE940E050E0FC
:1025200061E08A81DF91CF910C94652C0E94751235
:102530002AE330E040E050E00E9492382115310556
:102540004105510521F427EE33E040E050E0CA0197
:10255000B9010E948E3608950F931F93CF93DF9396
:10256000EC0100E010E0488159816A817B81002EF6
:1025700004C076956795579547950A94D2F7642FCE
:1025800061708C810E942F2C00000000000061E02F
:102590008D810E942F2C00000000000060E08D81E2
:1025A0000E942F2C0F5F1F4F0E311105E1F661E0E5
:1025B0008E810E942F2C00000000000060E08E81C0
:1025C000DF91CF911F910F910C942F2CCF93DF931C
:1025D000EC01862F188219821A821B826C834D832C
:1025E0002E8361E00E94F62B61E08D810E94F62B24
:1025F00061E08E810E94F62B60E08C810E942F2C7E
:1026000060E08D810E942F2C60E08E810E942F2C33
:10261000CE01DF91CF910C94AC12FC014083518329
:10262000628373830C94AC12FC01108211821282BB
:1026300013820C94AC1221E030E0FC01E20FF31F96
:1026400010822F5F3F4F24323105B9F7FC0115A2EC
:1026500014A2089520E230E0FC0137A326A32DE068
:1026600020A716A615A60C941B13AC01455D5F4F61
:10267000BC016A5D7F4F80E090E00C948D3AFF9240
:102680000F931F93CF93DF93EC018A012DA53EA5F5
:102690002E30310504F585E2F82EF29EC001F39E3E
:1026A000900D11248F9643E250E08C0F9D1F0E94E5
:1026B0007E3A2DA53EA5F29EC001F39E900D1124F9
:1026C0008C0F9D1FFC01EE5AFF4F118300832F5F7B
:1026D0003F4F3EA72DA7DF91CF911F910F91FF9004
:1026E00008958B5C9D4FFC017183608308952F9248
:1026F0003F924F925F926F927F928F929F92AF9292
:10270000BF92CF92DF92EF92FF920F931F93CF93DE
:10271000DF9300D000D0CDB7DEB79C838B8311E070
:102720005C012BE2A20EB11C1C0136E2230E311C0F
:102730002C018FEF481A580ACB80DC809FE2C90E2B
:10274000D11C2B813C812B5C3D4F3A8329838AEC41
:1027500096E00E94EA2C181619060CF077C0112397
:1027600009F474C08AEC96E00E94032DEB81FC8191
:10277000808390A5891344C0AB81BC8195961C923F
:102780001E929497A501B101C2010E948D3A3C01AD
:10279000EB81FC8192A781A7009709F457C085A41B
:1027A00096A4760100E010E008151905FCF443E258
:1027B00050E0B701C3010E94703AF5E2EF0EF11C40
:1027C000892B89F425E2209FC001219F900D1124BF
:1027D0002B813C81820F931FFC01EE5AFF4F019029
:1027E000F081E02D07C00F5F1F4FDECFA981BA81B6
:1027F000ED91FC9109958B819C810E941B1310E047
:10280000AB81BC810C91802F992787FD90950E9408
:10281000623A892B09F49BCFEB81FC8124A135A17D
:10282000C901019695A384A3E20FF31F0183EB81F5
:10283000FC81E80FF91F118283970CF488CFAB81DC
:10284000BC8195961C921E92949781CF0F900F9009
:102850000F900F90DF91CF911F910F91FF90EF900C
:10286000DF90CF90BF90AF909F908F907F906F90B0
:102870005F904F903F902F900895CF93DF93EC019E
:10288000FC01E055FF4F6081718140E008960E9495
:102890006F34FE01EE54FF4F6081718140E0CE0144
:1028A000C1960E946F34FE01EC54FF4F608171812C
:1028B00040E0CE01865A9F4F0E946F34FE01EA54D9
:1028C000FF4F6081718140E0CE018D579F4FDF91B6
:1028D000CF910C946F342F923F924F925F926F92F0
:1028E0007F928F929F92AF92BF92CF92DF92EF92A0
:1028F000FF920F931F93CF93DF931F92CDB7DEB755
:102900003C012E883F88FC01E055FF4F71836083B6
:1029100032965183408332963183208332961183DD
:1029200000830E943D14F301EC51FF4F1082E1102F
:102930003AC0F301E054FF4F8AE590E09183808331
:1029400032969183808332969183808332969183ED
:102950008083A101B401C30184559F4F0E9464127A
:10296000F301E853FF4FA082B1823296C082D18238
:1029700061E08A2D0E94F62B60E08C2D0F90DF9194
:10298000CF911F910F91FF90EF90DF90CF90BF906C
:10299000AF909F908F907F906F905F904F903F90FF
:1029A0002F900C94F62B412C512C04E610E0C8011A
:1029B0000E94BC3AE82EF12CC8018C599F4F0E940E
:1029C000BC3A282FC80188539F4F29830E94BC3AE4
:1029D000298130E0E216F30611F0E82EF12C81E8AF
:1029E000E816F1040CF0FA94F301E40DF51DF08EF5
:1029F000E78A0F5F1F4F89E2480E511C0836110508
:102A0000B1F697CFCF93DF93EC0108960E94C234C2
:102A1000CE01C1960E94C234CE01865A9F4F0E94B9
:102A2000C234CE018D579F4FDF91CF910C94C234A9
:102A30000F931F93FC01708F678BE05CFF4F5183F6
:102A40004083B99631832083B996118300831F9107
:102A50000F9108950F931F93CF93DF938C01095E1D
:102A60001F4FC4E6D0E0F8016081CE010E94C43A55
:102A7000F8016081CE018C599F4F0E94C43AF80141
:102A80006081CE0188539F4F0E94C43A075D1F4F5B
:102A90002196C836D10539F7DF91CF911F910F915B
:102AA00008952F923F924F925F926F927F928F92F2
:102AB0009F92AF92BF92CF92DF92EF92FF920F93CD
:102AC0001F93CF93DF93CDB7DEB72A970FB6F89455
:102AD000DEBF0FBECDBF1C016B0149835A830E942C
:102AE0003D14F101EC51FF4F8081811110822BE0E8
:102AF000C216D1040CF4CDC0EE24D7FCE094FE2C19
:102B0000C701B6010E948E3620E030E040E251E479
:102B10000E94F3352B013C0139813B838A818C83F0
:102B2000510100E010E0AB81BC818D919D91BC838F
:102B3000AB834501B4ED8B0E911CF101E00FF11F49
:102B4000E054FF4F20813181821B930BBC01882709
:102B500077FD8095982F0E948E36A30192010E94E6
:102B6000F335F40160837183828393830E5F1F4F7B
:102B7000F4E0AF0EB11C08301105A9F60E94142B29
:102B8000910124533F4F3C832B836C0D7D1D8E1D83
:102B90009F1DD9016D937D938D939C93139744242E
:102BA0004394512CF101E053FF4FFE83ED83245CED
:102BB000310938872F830E94142BEB81FC8100811F
:102BC000118122813381601771078207930708F012
:102BD00076C00E94142B665F7F4F8F4F9F4FAD8151
:102BE000BE816D937D938D939C9313976F807884B2
:102BF00081011A8619864201AA2497FCA094BA2C56
:102C0000E985FA85E20DF31DE054FF4F8081918143
:102C1000BC01882777FD8095982F0E948E366B0126
:102C20007C01C501B4010E948E36F801EC52FF4FC1
:102C300020813181428153810E9442379B01AC0146
:102C4000C701B6010E948B350E945B36C3010E940A
:102C5000F234E985FA853296FA87E9870C5F1F4FCF
:102C6000F9E26F0E711C29853A852830310541F64D
:102C70000E94142BAD81BE810D911D912D913C912F
:102C8000601771078207930798F3BFEF4B1A5B0A2F
:102C900092CFC980DA8000E010E07101F8E0EF0E19
:102CA000F11CD6016D917D916D01C701800F911FBF
:102CB0000E94F234075D1F4F043A110591F7E98134
:102CC000FA8180E090E021913191D101A80FB91FE4
:102CD000A054BF4F2D933C9302968830910599F7ED
:102CE0002A960FB6F894DEBF0FBECDBFDF91CF910D
:102CF0001F910F91FF90EF90DF90CF90BF90AF901A
:102D00009F908F907F906F905F904F903F902F900B
:102D100008952F923F924F925F926F927F928F927F
:102D20009F92AF92BF92CF92DF92EF92FF920F935A
:102D30001F93CF93DF9300D000D0CDB7DEB75C01F7
:102D4000CA012901A70196013C014B01650188E0F8
:102D5000C80ED11C780104E010E03C2C2D2CF301AE
:102D6000819191913F01F60196838583F4018191D0
:102D700091914F01F60194838383B201C6012983A7
:102D80003A834B835C830E94D134F7018191919106
:102D9000A191B1917F01F60181879287A387B487C2
:102DA00001501109F9E2CF0ED11C29813A814B81E2
:102DB0005C810115110599F60E94142B0E948C3636
:102DC0006B017C01B201882777FD8095982F0E94C6
:102DD0008E3629813A814B815C810E944237A7015E
:102DE00096010E948B352B013C0185010F5C1F4F22
:102DF00045018AE5880E911CE3E8AE0EB11CA301E3
:102E00009201C701B6010E94EF351816A4F0832D78
:102E1000922D0E94F934C8010E94F934C4010E9425
:102E2000F934C5010E94F9340E94142B0E948C369B
:102E30006B017C01E4CF0F900F900F900F90DF910A
:102E4000CF911F910F91FF90EF90DF90CF90BF90A7
:102E5000AF909F908F907F906F905F904F903F903A
:102E60002F9008952F923F924F925F926F927F9290
:102E70008F929F92AF92BF92CF92DF92EF92FF928A
:102E80000F931F93CF93DF93CDB7DEB72C970FB679
:102E9000F894DEBF0FBECDBF4C017A8369835C839B
:102EA0004B833E832D831801260137010E943D1478
:102EB000F401EC51FF4F808181111082C301B201F6
:102EC0000E945B366F83788789879A87AF80B88442
:102ED0001A141B04A4F12F813885B901882777FDC6
:102EE0008095982F0E948E369B01AC01C301B201E0
:102EF0000E948A356B017C0181012D813E814B81CD
:102F00005C8169817A81C4010E9489162C960FB672
:102F1000F894DEBF0FBECDBFDF91CF911F910F910F
:102F2000FF90EF90DF90CF90BF90AF909F908F90E9
:102F30007F906F905F904F903F902F9008951C86E8
:102F40001B86C12CD12C90E8E92E9FE3F92E81013C
:102F50002D813E814B815C8169817A81C4010E940F
:102F600089168B859C8501969C878B878A159B0586
:102F700041F7B1CFEF92FF920F931F93CF93DF935F
:102F8000CDB7DEB728970FB6F894DEBF0FBECDBF22
:102F90008C017C0184EEE80EF11CF7018081811127
:102FA00017C088E0E2E1F1E0DE01119601900D9298
:102FB0008A95E1F7AE014F5F5F4F64EF71E0C801A2
:102FC0000E945115C8010E94021581E0F70180831B
:102FD00028960FB6F894DEBF0FBECDBFDF91CF911C
:102FE0001F910F91FF90EF9008958C519F4FFC011E
:102FF000808108958C519F4FFC0160830895EF926A
:10300000FF920F931F93CF93DF93CDB7DEB76097F7
:103010000FB6F894DEBF0FBECDBF8C01790188E0FA
:10302000EAE1F1E0DE01199601900D928A95E1F74F
:10303000AE01475F5F4FB901C8010E94511588E09A
:10304000E2E1F1E0DE01119601900D928A95E1F73F
:10305000AE014F5F5F4FB701C8010E9451156096E6
:103060000FB6F894DEBF0FBECDBFDF91CF911F9199
:103070000F91FF90EF9008958F929F92AF92BF9221
:10308000CF92DF92EF92FF920F931F93CF93DF9334
:10309000CDB7DEB7A0970FB6F894DEBF0FBECDBF99
:1030A0005C016A017B014901980188E0E2E2F1E0FC
:1030B000DE01599601900D928A95E1F788E0EAE2E7
:1030C000F1E0DE01519601900D928A95E1F78E01B3
:1030D0000F5F1F4F80E1F80111928A95E9F746EAE8
:1030E0004203B001439F700D1124882777FD80951E
:1030F000982F0E948E362BED3FE049E450E40E9469
:10310000423720E030E044E353E40E94F33569871E
:103110007A878B879C876D877E878F87988B9401B2
:10312000AE014F5E5F4FBE01675E7F4FC5010E94DB
:103130003217A0960FB6F894DEBF0FBECDBFDF9159
:10314000CF911F910F91FF90EF90DF90CF90BF90A4
:10315000AF909F908F900895CF92DF92EF92FF9261
:103160000F931F93CF93DF93CDB7DEB7A0970FB622
:10317000F894DEBF0FBECDBFE8E0FE2EE2E2F1E044
:10318000DE01599601900D92FA94E1F7F8E0FF2ED6
:10319000EAE2F1E0DE01519601900D92FA94E1F736
:1031A000A0E1FA2EE2E3F1E0DE01119601900D922A
:1031B000FA94E1F70130110539F4EEE1F0E0FA8F0D
:1031C000E98FEAE0F0E006C0EAE0F0E0FA8FE98F8C
:1031D000EEE1F0E0FC8FEB8F6A017B018E010F5F67
:1031E0001F4FAE014F5E5F4FBE01675E7F4F0E9473
:1031F0003217A0960FB6F894DEBF0FBECDBFDF9199
:10320000CF911F910F91FF90EF90DF90CF90089595
:103210004F925F926F927F928F929F92AF92BF92E6
:10322000CF92DF92EF92FF920F931F93CF93DF9392
:10323000CDB7DEB768970FB6F894DEBF0FBECDBF2F
:103240008C016B0188E0E2E4F1E0DE01519601902F
:103250000D928A95E1F788E0EAE4F1E0DE01199643
:1032600001900D928A95E1F788E0E2E1F1E0DE015C
:10327000119601900D928A95E1F7FA01483582E0A6
:10328000580714F4E8E5F2E02F3F3F4F71F481E96D
:1032900090E09E8B8D8B8AE790E0988F8F8B2BE44C
:1032A00030E03E872D87988B8F874F0195948794C8
:1032B00095948794CF016AE070E00E945C385B01CE
:1032C0002F01440C551C4E0E5F1E55944794559487
:1032D0004794662457FC6094762CE12CF12CEC1476
:1032E000FD04F4F4AE014F5E5F4FB401C8010E94CB
:1032F0005115AE01475F5F4FB501C8010E945115DE
:10330000C301B2010E94432BAE014F5F5F4F64EFD8
:1033100071E0C8010E9451158FEFE81AF80ADFCF5B
:1033200068960FB6F894DEBF0FBECDBFDF91CF9188
:103330001F910F91FF90EF90DF90CF90BF90AF90D3
:103340009F908F907F906F905F904F9008958F9295
:103350009F92AF92BF92CF92DF92EF92FF920F9324
:103360001F93CF93DF93CDB7DEB7A0970FB6F89436
:10337000DEBF0FBECDBF8C014B0188E0E2E4F1E07F
:10338000DE01599601900D928A95E1F788E0E2E519
:10339000F1E0DE01519601900D928A95E1F788E007
:1033A000EAE5F1E0DE01199601900D928A95E1F7C8
:1033B00088E0E2E1F1E0DE01119601900D928A953C
:1033C000E1F721303105A1F481E990E09E8F8D8FE6
:1033D0008AE790E098A38F8F2CE330E03E8B2D8B13
:1033E000988F8F8B28E730E03E872D87988B8F87CB
:1033F0006A0188EEC81A83E0D80A80E9C81681E01D
:10340000D80624F430E9C32EDD24D3947601F59454
:10341000E794F594E794A12CB12CA814B904C4F551
:10342000AE01475E5F4F64EF71E0C8010E94511525
:10343000AE014F5E5F4F64EF71E0C8010E9451150D
:10344000AE01475F5F4FB701C8010E945115AE0141
:103450004F5E5F4FB701C8010E945115AE01475F33
:103460005F4FB701C8010E945115AE014F5E5F4F1B
:10347000B701C8010E945115AE014F5F5F4F64EF65
:1034800071E0C8010E9451158FEFA81AB80AC5CF84
:10349000B601882777FD8095982F0E94432BA09630
:1034A0000FB6F894DEBF0FBECDBFDF91CF911F9155
:1034B0000F91FF90EF90DF90CF90BF90AF909F90D3
:1034C0008F900895CF92DF92EF92FF920F931F9308
:1034D000CF93DF93CDB7DEB7A0970FB6F894DEBFDA
:1034E0000FBECDBF6A017B01E8E0BE01675E7F4F82
:1034F000DB014E2F1D924A95E9F71E8F0D8F18A301
:103500000F8FAE014F5E5F4FDA011D92EA95E9F72A
:103510001E8B0D8B119501951109188F0F8B10E1E2
:10352000E2E6F1E0DE01119601900D921A95E1F7C5
:103530008E010F5F1F4F0E943217A0960FB6F894AE
:10354000DEBF0FBECDBFDF91CF911F910F91FF90D6
:10355000EF90DF90CF900895CF92DF92EF92FF929D
:103560000F931F93CF93DF93CDB7DEB7A0970FB61E
:10357000F894DEBF0FBECDBF6A017B01E8E0BE015B
:10358000675E7F4FDB014E2F1D924A95E9F71E8F34
:103590000D8F18A30F8FAE014F5E5F4FDA011D92A2
:1035A000EA95E9F7F80117FD3196F595E795FE8B59
:1035B000ED8B17FF02C00F5F1F4F159507951195F3
:1035C00001951109188F0F8B8E010F5F1F4FE0E1DE
:1035D000D8011D92EA95E9F70E943217A0960FB61E
:1035E000F894DEBF0FBECDBFDF91CF911F910F9139
:1035F000FF90EF90DF90CF900895CF92DF92EF92FF
:10360000FF920F931F93CF93DF93CDB7DEB7A097B1
:103610000FB6F894DEBF0FBECDBF6A017B01E8E0B4
:10362000BE01675E7F4FDB014E2F1D924A95E9F781
:103630001E8F0D8F18A30F8FAE014F5E5F4FDA0103
:103640001D92EA95E9F71E8B0D8B119501951109D5
:10365000188F0F8B8E010F5F1F4FE0E1D8011D9275
:10366000EA95E9F70E943217A0960FB6F894DEBFEC
:103670000FBECDBFDF91CF911F910F91FF90EF90C3
:10368000DF90CF900895CF92DF92EF92FF920F9349
:103690001F93CF93DF93CDB7DEB7A0970FB6F89403
:1036A000DEBF0FBECDBF6A017B010A31110514F0E8
:1036B00009E110E0E8E0BE01675E7F4FDB014E2FBD
:1036C0001D924A95E9F71A8F098F1C8F0B8FAE0157
:1036D0004F5E5F4FDA011D92EA95E9F710E1E2E7EC
:1036E000F1E0DE01119601900D921A95E1F78E013D
:1036F0000F5F1F4F0E943217A0960FB6F894DEBFDF
:103700000FBECDBFDF91CF911F910F91FF90EF9032
:10371000DF90CF900895CF92DF92EF92FF920F93B8
:103720001F93CF93DF93CDB7DEB7A0970FB6F89472
:10373000DEBF0FBECDBF6A017B010E30110514F054
:103740000DE010E01A8F098F1C8F0B8F1E8F0D8FCD
:1037500018A30F8FAE014F5E5F4F68E0FA01119220
:103760006A95E9F7B8016C5F7F4F7E8B6D8B64E0E3
:1037700070E0601B710B788F6F8B60E1E2E8F1E025
:10378000DE01119601900D926A95E1F78E010F5FAF
:103790001F4FBE01675E7F4F0E943217A0960FB683
:1037A000F894DEBF0FBECDBFDF91CF911F910F9177
:1037B000FF90EF90DF90CF9008952F923F924F921D
:1037C0005F926F927F928F929F92AF92BF92CF92B1
:1037D000DF92EF92FF920F931F93CF93DF93CDB7BA
:1037E000DEB7A2970FB6F894DEBF0FBECDBF4C0177
:1037F0001A012B01390188E09E01275E3F4F3AA351
:1038000029A3F901282F11922A95E9F71E8F0D8F10
:1038100018A30F8F5E0131E1A30EB11CF5011192C7
:103820008A95E9F7C80117FD019695958795029647
:103830009E8B8D8B17FF02C00F5F1F4F159507954D
:1038400011950195110902501109188F0F8B26EA65
:10385000A70124036001259FD00C11248E010F5F66
:103860001F4F80E1F80111928A95E9F7B601882788
:1038700077FD8095982F0E948E362BED3FE049E42E
:1038800050E40E94423720E030E044E353E40E94D9
:10389000F33569877A878B879C8724ECA7012403FB
:1038A000B001259F700D11246C0D7D1D882777FDBB
:1038B0008095982F0E948E362BED3FE049E450E42E
:1038C0000E94423720E030E044E353E40E94F335A5
:1038D0006D877E878F87988B720161019301A501A7
:1038E000BE01675E7F4FC4010E943217A2960FB6D9
:1038F000F894DEBF0FBECDBFDF91CF911F910F9126
:10390000FF90EF90DF90CF90BF90AF909F908F90FF
:103910007F906F905F904F903F902F9008952F92DF
:103920003F924F925F926F927F928F929F92AF924F
:10393000BF92CF92DF92EF92FF920F931F93CF939C
:10394000DF93CDB7DEB7A0970FB6F894DEBF0FBEFA
:10395000CDBF4C015A016B01390128E02E0149E12C
:10396000440E511CF201422F11924A95E9F789E168
:1039700090E09A8F898F9C8F8B8F1E8F0D8F18A34D
:103980000F8F1E0151E1250E311CF10111922A9574
:10399000E9F7C80117FD01969595879504969E8BCA
:1039A0008D8B17FF02C00F5F1F4F1595079511955F
:1039B0000195110904501109188F0F8B8E010F5FAB
:1039C0001F4F80E1F80111928A95E9F780E090E0BD
:1039D000A4EBB2E489839A83AB83BC838D839E83FB
:1039E000AF83B88724ECA7012403B001259F700D95
:1039F0001124882777FD8095982F0E948E362BED15
:103A00003FE049E450E40E94423720E030E044E3E4
:103A100053E40E94F3356D877E878F87988B7601FC
:103A200065019301A101B201C4010E943217A09661
:103A30000FB6F894DEBF0FBECDBFDF91CF911F91BF
:103A40000F91FF90EF90DF90CF90BF90AF909F903D
:103A50008F907F906F905F904F903F902F90089540
:103A60002F923F924F925F926F927F928F929F928E
:103A7000AF92BF92CF92DF92EF92FF920F931F937C
:103A8000CF93DF93CDB7DEB7A0970FB6F894DEBF24
:103A90000FBECDBF4C015A016B01390128E02E0148
:103AA00049E1440E511CF201422F11924A95E9F767
:103AB0008CE090E09A8F898F9C8F8B8F1E8F0D8F5B
:103AC00018A30F8F1E0151E1250E311CF101119237
:103AD0002A95E9F7C8010A979E8B8D8B8AE090E0C2
:103AE000801B910B988F8F8B8E010F5F1F4F80E192
:103AF000F80111928A95E9F78BED9FE0A9E4B0E413
:103B00008D839E83AF83B88726EAA7012403B00183
:103B1000259F700D1124882777FD8095982F0E948E
:103B20008E362BED3FE049E450E40E94423720E01E
:103B300030E044E353E40E94F33569877A878B874A
:103B40009C878AE58E9DB0018F9D700D112488277A
:103B500077FD8095982F0E948E362BED3FE049E44B
:103B600050E40E94423720E030E044E353E40E94F6
:103B7000F3356D877E878F87988B7601650193017A
:103B8000A101B201C4010E943217A0960FB6F894A9
:103B9000DEBF0FBECDBFDF91CF911F910F91FF9080
:103BA000EF90DF90CF90BF90AF909F908F907F90DD
:103BB0006F905F904F903F902F90089584559F4F46
:103BC0000C9496120F931F93CF93DF938C0106539F
:103BD0001F4FF80180810E94B02BEC0162E070E081
:103BE00080E090E00E94432BF80180810E94B02B7E
:103BF000C80FD91F62E070E080E090E00E94432B84
:103C0000CE01D7FD019695958795DF91CF911F91B4
:103C10000F910895CF92DF92EF92FF920F931F932F
:103C2000CF93DF938C01095F1F4FC8010E943B12A5
:103C3000CAE0D0E0C12CD12C7601C8010E943B1211
:103C40009B01AC01C701B6010E948B356B017C0161
:103C500061E070E080E090E00E94432B219769F7DB
:103C600020E030E040E251E4C701B6010E94F335A4
:103C7000DF91CF911F910F91FF90EF90DF90CF9048
:103C80000895CF93DF93CDB7DEB7CC57D1090FB6E8
:103C9000F894DEBF0FBECDBF8CE7E2E9F1E0DE01B4
:103CA000119601900D928A95E1F7660F771F660FC6
:103CB000771F81E090E08C0F9D1F680F791FFB013B
:103CC0006081718182819381C458DF4F0FB6F8946F
:103CD000DEBF0FBECDBFDF91CF910895CF93DF93AD
:103CE000EC01BA010E94411EAB01BC01CE01DF9183
:103CF000CF910C940D13CF93DF93CDB7DEB7C057A0
:103D0000D1090FB6F894DEBF0FBECDBF80E2EEE062
:103D1000F2E0DE01999601900D928A95E1F780E13B
:103D2000EEE2F2E0DE01AF59BF4F01900D928A95AD
:103D3000E1F788E1EEE3F2E0DE01A75BBF4F01901F
:103D40000D928A95E1F788E2E6E5F2E0DE01119650
:103D500001900D928A95E1F76130710509F194F4B3
:103D6000672BB1F5FA01EE0FFF1FEE0FFF1F81E089
:103D700090E08C0F9D1FE80FF91F60A571A582A52B
:103D800093A526C06230710599F06330710501F585
:103D9000FA01EE0FFF1FEE0FFF1F81E090E00FC052
:103DA000FA01EE0FFF1FEE0FFF1F81E690E007C044
:103DB000FA01EE0FFF1FEE0FFF1F89E490E08C0F5A
:103DC0009D1FE80FF91F608171818281938100C07E
:103DD000C059DF4F0FB6F894DEBF0FBECDBFDF91E5
:103DE000CF910895CF93DF93EC01CB01BA01A901E4
:103DF000CE010E947B1EAB01BC01CE01DF91CF91B1
:103E00000C940D1321110C946E1E0C940D130C9434
:103E100014138F929F92AF92BF92EF92FF920F93E3
:103E20001F93CF93DF93EC0148015901E114F10492
:103E300019F4EE24E394F12CCB01BA010E94603610
:103E4000C853DF4FA501940188810E940E31C5013E
:103E5000B4010E94432BB701882777FD8095982FE6
:103E6000DF91CF911F910F91FF90EF90BF90AF9096
:103E70009F908F900C94432B2F923F924F925F9282
:103E80006F927F928F929F92AF92BF92CF92DF926A
:103E9000EF92FF920F931F93CF93DF93CDB7DEB7CF
:103EA00028970FB6F894DEBF0FBECDBF1C012A01C4
:103EB0003B0109831A832B833C83CD82DE82EF8210
:103EC000F886CD8CDE8CC114D10419F4CC24C394B3
:103ED000D12C29813A814B815C81C301B2010E94BE
:103EE000EF3587FF25C0C301B2010E945B368827EA
:103EF00077FD8095982F0E948E362B013C012981F9
:103F00003A814B815C810E94EF3587FF36C0760194
:103F100095018401B301A201C1010E94091F2D81F5
:103F20003E814F815885C301B2010E944237DDCFE7
:103F3000C301B2010E945B36882777FD8095982FD8
:103F40000E948E362B013C0129813A814B815C8194
:103F50000E943E3718168CF4760195018401B30156
:103F6000A201C1010E94091F2D813E814F81588508
:103F7000C301B2010E94F335DDCF28960FB6F89445
:103F8000DEBF0FBECDBFDF91CF911F910F91FF908C
:103F9000EF90DF90CF90BF90AF909F908F907F90E9
:103FA0006F905F904F903F902F9008957F928F92E7
:103FB0009F92AF92BF92CF92DF92EF92FF920F93B8
:103FC0001F93CF93DF93EC016331710508F047C372
:103FD000FB01E759FF4F0C94B1385EE1E52EF12C5F
:103FE00002E310E020E030E044EA50ED64E274E4E3
:103FF0000E94091F69E1E62EF12C07E310E020E0A2
:1040000030E042E550ED64EA74E4CE010E94091FFD
:104010007AE0E72EF12C0CE310E020E030E040E005
:1040200050E06CED74E426C02EE1E22EF12C02E3A8
:1040300010E020E030E044EA50ED64E274E40E94D5
:10404000091F39E1E32EF12C07E310E020E030E016
:1040500040E050E06CED74E4CE010E94091F4AE09C
:10406000E42EF12C02E310E020E030E042E550EDD8
:1040700064EA74E4CE010E94091FF1C21F92B2E00B
:104080007B2E7F9214E1812E912CA12CB12C0AE081
:10409000C02E07EDD02E03E8E02E0FE3F02E0CE546
:1040A0001FEF23EC34E442E550ED64EA74E40E942F
:1040B0003C1F6EE170E080E090E00E94432B1F9275
:1040C0007F928AE0882E912CA12CB12C98EBC92EDE
:1040D0009EE1D92E95E8E92E9FE3F92E0FE115ED2B
:1040E00022E135E442E550ED64EA74E4B1C21F9286
:1040F0008AE08F93FEE18F2E912CA12CB12CACE5A0
:10410000CA2EAFE8DA2EA2E8EA2EAFE3FA2E00E0DC
:1041100010E02CED34E442E550ED64EA74E46DC245
:104120001F928AE08F937EE1872E912CA12CB12CD7
:10413000EAE0CE2EE7EDDE2EE3E8EE2EEFE3FE2EF4
:104140000FE115ED22E135E44CE55FEF63EC74E43B
:1041500054C254E6E52EF12C02E310E020E030E0FA
:1041600042E550ED64EA74E40E94091F60E5E62E22
:10417000F12C02E310E020E030E04CE55FEF63EC6F
:1041800074E4CE010E94091FE12CF12C0CE211E035
:1041900020E030E04FE155ED62E175E46BCF1F9216
:1041A000772473947F929AE0892E912CA12CB12CC4
:1041B0002CE5C22E2FE8D22E22E8E22E2FE3F22E9B
:1041C00000E010E626E035E440E050E068E474E406
:1041D000CE010E943C1F1F927F9237E0832E912CCC
:1041E000A12CB12C4AE0C42E47EDD42E43E8E42E96
:1041F0004FE3F42E00E010E028E434E440E050E522
:1042000066E075E425C21F9283E08F9318E0812E4B
:10421000912CA12CB12C08EBC02E0EE1D02E05E87C
:10422000E02E0FE3F02E00E010E02AEF34E440E04F
:1042300050E06CE574E4CE010E943C1F68EC70E035
:1042400080E090E00E94432B0F900F9086E1C82EF3
:10425000D12CBAE0EB2EF12C05E010E020E030E0AC
:1042600048E451EF66E774E4CE010E94091F81E043
:10427000C81AD10871F7F3C11F9283E08F93E8E069
:104280008E2E912CA12CB12CFAE0CF2EF7EDDF2E43
:10429000F3E8EF2EFFE3FF2E00E010E82BE335E418
:1042A00040E050E06BEE74E4CE010E943C1F68ECED
:1042B00070E080E090E00E94432B0F900F90A0E10F
:1042C000CA2ED12C7AE0E72EF12C0AE010E020E093
:1042D00030E040E050ED62E874E4CE010E94091F36
:1042E00081E0C81AD10871F7BAC11F9284E08F9398
:1042F00030E1832E912CA12CB12C4AE0C42E47ED45
:10430000D42E43E8E42E4FE3F42E00E010E021E643
:1043100034E440E050E06FE274E4CE010E943C1FC0
:104320001F9287E08F9352E1852E912CA12CB12C06
:104330006EEAC62E67E4D62E61E8E62E6FE3F62E0F
:1043400000E010E822E234E440E050EC60E674E47F
:104350007FC11F928AE08F939AE0892E912CA12C25
:10436000B12C28EBC22E2EE1D22E25E8E22E2FE32F
:10437000F22E00E010E02AEF33E440E050E068EC79
:1043800072E4CE010E943C1F64EF71E080E090E097
:104390000E94432B1F9281E08F9300E010E028ECF5
:1043A00032E440E050E068EC73E452C11F92B8E0A0
:1043B0007B2E7F9214E1812E912CA12CB12C06E64C
:1043C000C02EDC2C06E8E02E0FE3F02E00E010E417
:1043D0002CE135E440E050E86BEB74E40E943C1FB4
:1043E0001F927F9289E1882E912CA12CB12C00E0A4
:1043F00010E82BEB34E440E050E36CE175E428C1B5
:104400001F9283E08F93E8E08E2E912CA12CB12C8B
:10441000F6E6CF2EDC2CF6E8EF2EFFE3FF2E00E0D1
:1044200010E82BEB35E440E050E06AEF74E4CE0195
:104430000E943C1F62E370E080E090E00E94432B0A
:104440001F9282E08F93ADE08A2E912CA12CB12C8B
:1044500000E010E02AEF34E440E058E76BEB75E44D
:10446000F7C01F9248E0742E7F925FE0852E912C5A
:10447000A12CB12C66E6C62EDC2C66E8E62E6FE396
:10448000F62E00E010E02AEF34E440E050E86BEB59
:1044900074E40E943C1F64E670E080E090E00E94BB
:1044A000432B1F927F927AE0872E912CA12CB12C66
:1044B00000E010E42CE135E440E050E86DEE74E4F7
:1044C000C7C01F9288EC8F9324E1822E912CA12CDF
:1044D000B12C3CE5C32E3FE8D32E32E8E32E3FE378
:1044E000F32E00E010E427E234E440E050E06CE515
:1044F00074E483C01F9282E08F93B8E08B2E912CDE
:10450000A12CB12C1AE0C12E17EDD12E13E8E12E0B
:104510001FE3F12E00E010E824ED34E440E050E029
:104520006AE774E4CE010E943C1F1F9283E08F93E0
:1045300008EBC02E0EE1D02E05E8E02E0FE3F02EA2
:1045400000E010E02AEF33E440E050E664ED74E46C
:10455000CE010E943C1F1F928AE08F9389E0882E33
:10456000912CA12CB12C96E6C92EDC2C96E8E92ED4
:104570009FE3F92E00E010E824ED34E440E050E041
:104580006AE774E4CE010E943C1F0F900F900F90D9
:104590000F900F900F9063C01F928FE08F93F2E007
:1045A0008F2E912CA12CB12CACE5CA2EAFE8DA2EBF
:1045B000A2E8EA2EAFE3FA2E00E010E82BE335E4A0
:1045C00040E050E068EC74E418C01F9284E18F93DF
:1045D00072E0872E912CA12CB12CECE5CE2EEFE8C9
:1045E000DE2EE2E8EE2EEFE3FE2E00E010E82BEBED
:1045F00035E440E050E06AEF74E4CE010E943C1FD5
:104600000F900F902CC01F9244E1742E7F9252E0C5
:10461000852E912CA12CB12C6CE5C62E6FE8D62EE0
:1046200062E8E62E6FE3F62E00E010E02AE735E4BC
:1046300040E050E068EC74E40E943C1F1F927F92BF
:1046400000E010E82BE335E440E050E06AE775E471
:10465000CE010E943C1F0F900F900F900F90DF91A2
:10466000CF911F910F91FF90EF90DF90CF90BF906F
:10467000AF909F908F907F9008952F923F924F928E
:104680005F926F927F928F929F92AF92BF92CF92E2
:10469000DF92EF92FF920F931F93CF93DF93CDB7EB
:1046A000DEB7C258D1090FB6F894DEBF0FBECDBF3A
:1046B0003C0188E0EEE7F2E0DE01AF58BF4F019029
:1046C0000D928A95E1F788E0E6E8F2E0DE01A7596D
:1046D000BF4F01900D928A95E1F788E0EEE8F2E095
:1046E000DE01AF59BF4F01900D928A95E1F788E046
:1046F000E6E9F2E0DE01A75ABF4F01900D928A95DC
:10470000E1F788E0EEE9F2E0DE01AF5ABF4F019039
:104710000D928A95E1F788E0E6EAF2E0DE01A75B18
:10472000BF4F01900D928A95E1F788E0EEEAF2E042
:10473000DE01AF5BBF4F01900D928A95E1F788E0F3
:10474000E6EBF2E0DE01D99601900D928A95E1F751
:1047500088E0EEEBF2E0DE01D19601900D928A95B1
:10476000E1F788E0E6ECF2E0DE01999601900D9227
:104770008A95E1F788E0EEECF2E0DE019196019097
:104780000D928A95E1F788E0E6EDF2E0DE015996B8
:1047900001900D928A95E1F788E0EEEDF2E0DE01FE
:1047A000519601900D928A95E1F788E0E6EEF2E0ED
:1047B000DE01199601900D928A95E1F76D30710531
:1047C00008F0CEC6FB01E458FF4F0C94B13882E0EC
:1047D00090E0EF969FAF8EAFEF973DC4E4E0F0E03E
:1047E000EF96FFAFEEAFEF976BC3FEE1EF2EF12C2C
:1047F00002E310E020E030E044EA50ED64E274E4CB
:10480000C3010E94091F4AE050E060E070E0C3016C
:104810000E946E1E6DE070E0C3010E94D61F04E18D
:1048200010E020E233E040E050E060E87FE3C301C5
:104830000E94AC1A6DE070E076C14BE050E060E0A1
:1048400070E0C3010E946E1E6BE070E0C3010E9425
:10485000D61F4CE050E060E070E0C3010E946E1E85
:1048600004E110E024EF31E040E050E060E87FE355
:10487000C3010E94FD1A4BE050E060E070E0C3010C
:104880000E946E1E6CE070E0C3010E94D61F4CE0D7
:1048900050E060E070E0C3010E946E1E24EF31E042
:1048A00040E050E060E87FE3C3010E94FD1A04C3CA
:1048B00046E150E060E070E0C3010E946E1EAE0170
:1048C0004F585F4F6CEB72E0C3010E9451151F926D
:1048D00068EC562E5F9274E1872E912CA12CB12C9E
:1048E000ECE5CE2EEFE8DE2EE2E8EE2EEFE3FE2E34
:1048F00000E010E82FE434E440E050E06CE574E4BC
:10490000C3010E943C1F48E150E060E070E0C30139
:104910000E946E1E1F925F9200E010E825E434E4CE
:1049200040E050E86FE474E4C3010E943C1F47E19B
:1049300050E060E070E0C3010E946E1E1F925F9223
:1049400000E010E029E334E440E050E865E474E47A
:10495000C3010E943C1F48E150E060E070E0C301E9
:104960000E946E1E1F925F9200E010E02FE234E47E
:1049700040E050E069E374E4C3010E943C1F47E15A
:1049800050E060E070E0C3010E946E1E1F925F92D3
:1049900000E010E427E234E440E050E06FE274E429
:1049A000C3010E943C1F46E150E060E070E0C3019B
:1049B0000E946E1E64EF71E080E090E00E94432B45
:1049C000C3010E94BA176CE271E080E090E00E949F
:1049D000432B07C2AE0147595F4F6CEB72E0C30136
:1049E0000E94511544E0442E512C5AE0352E2224C9
:1049F000239420E030E041E050E060E070E0C3014B
:104A00000E94F21E1F923F922AE0822E912CA12C2E
:104A1000B12C38EBC32E3EE1D32E35E8E32E3FE335
:104A2000F32E00E010E028E433E440E050E068ECCE
:104A300072E4C3010E943C1F21E030E041E050E0FD
:104A400060E070E0C3010E94F21E1F923F9200E0FE
:104A500010E026E933E440E050E068E473E4C30189
:104A60000E943C1F22E030E041E050E060E070E056
:104A7000C3010E94F21E1F923F9200E010E02AEF55
:104A800033E440E050E066E973E4C3010E943C1F58
:104A900064EF71E080E090E00E94432B21E030E081
:104AA00041E050E060E070E0C3010E94F21E1F92FE
:104AB0002F9200E010E02AE733E440E050E068EC99
:104AC00073E4C3010E943C1F20E030E041E050E06D
:104AD00060E070E0C3010E94F21E1F922F9200E07E
:104AE00010E028EC32E440E050E06AE773E4C301F0
:104AF0000E943C1F64EF71E080E090E00E94432B35
:104B000091E0491A51080FB6F894DEBF0FBECDBF31
:104B100009F06FCF43E150E060E070E0C3010E9414
:104B20006E1E69E070E0C3010E94D61FC5C1AE01D0
:104B30004F595F4F64EF71E0C3010E9451156CE261
:104B400071E080E090E00E94432B43E150E060E0A0
:104B500070E0C3010E946E1E60E170E0C3010E941C
:104B6000D61F40E150E060E070E0C3010E946E1E7D
:104B70006AEF70E080E090E00E94432BAE01475A5C
:104B80005F4F64EF71E0C3010E9451156CE271E068
:104B900080E090E00E94432B43E150E060E070E051
:104BA000C3010E946E1E61E170E0C3010E94D61F26
:104BB00040E150E060E070E0C3010E946E1E6AEFC9
:104BC00070E080E090E00E94432BAE014F5A5F4FAF
:104BD00064EF71E0C3010E9451156CE271E080E066
:104BE00090E00E94432B43E150E060E070E0C3019D
:104BF0000E946E1E62E170E0C3010E94D61F40E178
:104C000050E060E070E0C3010E946E1E6CE271E053
:104C100080E090E00E94432BC3010E94BA1764EF2A
:104C200071E080E090E052C3AE01475B5F4F6CE201
:104C300071E0C3010E94511544E150E060E070E072
:104C4000C3010E946E1E6FE070E0C3010E94D61F78
:104C50002DC14DE050E060E070E0C3010E946E1E87
:104C600069E070E0C3010E94D61FEE24E394F12CAA
:104C70000FE010E02CED35E040E050E060E070E443
:104C8000C3010E948F1CC3010E94BA176DE070E03F
:104C9000C3010E94D61FDBC3AE014F5B5F4F6CE2C6
:104CA00071E0C3010E9451154EE150E060E070E0F8
:104CB000C3010E946E1EFEE1EF2EF12C04E610E00F
:104CC00020E030E040E050E06CE574E4C3010E9475
:104CD000091F1F92A4E05A2E5F92B7E08B2E912CF1
:104CE000A12CB12C1CE5C12E1FE8D12E12E8E12E1B
:104CF0001FE3F12E0FE115ED22E934E440E050E02E
:104D00006CE574E4C3010E943C1F1F924424439449
:104D10004F920AE0802E912CA12CB12C0CE51FEFB4
:104D200023EC34E44FE155ED62E974E4C3010E94E1
:104D30003C1F1F924F9200E010E02CE534E44CE55C
:104D40005FEF63EC74E4C3010E943C1F6FE070E00E
:104D500080E090E00E94432B1F925F9284E1882EB6
:104D6000912CA12CB12C04EA10ED24E234E440E0B3
:104D700050E06CE574E4C3010E943C1F60E971E0FF
:104D800080E090E00E94432BAE01475C5F4F68ECEF
:104D900070E0C3010E9451151F925F920FE115ED63
:104DA00022E934E440E050E06CE574E4C3010E9481
:104DB0003C1FAE014F5C5F4F68EC70E0C3010E9486
:104DC00051151F925F9204EA10ED24E234E440E0B2
:104DD00050E06CE574E4C3010E943C1FC3010E94D3
:104DE000BA174BE050E060E070E0C3010E946E1E15
:104DF0000FB6F894DEBF0FBECDBFB2C34EE150E098
:104E000060E070E0C3010E946E1E1F9264E0562EA7
:104E10005F9274E1872E912CA12CB12CECE5CE2E63
:104E2000EFE8DE2EE2E8EE2EEFE3FE2E0FE115EDC9
:104E300022E934E440E050E06CE574E4C3010E94F0
:104E40003C1F1F925F9204EA10ED24E234E440E03C
:104E500050E06CE574E4C3010E943C1F6CE271E019
:104E600080E090E00E94432B43E150E060E070E07E
:104E7000C3010E946E1E0F900F900F900F9004E0E0
:104E800010E0AE01475D5F4F64E670E0C3010E9431
:104E90005115C3010E94BA170150110991F74EE153
:104EA00050E060E070E0C3010E946E1E64EF71E0AC
:104EB00080E090E00E94432BC3010E94BA17C7C252
:104EC000EB961FAE1EAEEB9700E911E0EB962EAD10
:104ED0003FADEB9742E050E060E070E0C3010E941C
:104EE000F21E180194E6290E311CB801882777FDBF
:104EF0008095982F0E948E36C158DF4F6883798342
:104F00008A839B83CF57D040B101882777FD809556
:104F1000982F0E948E368B019C011F92EAE0EF933E
:104F20004AE0842E912CA12CB12C58EBC52E5EE1C9
:104F3000D52E55E8E52E5FE3F52EC158DF4F4881A9
:104F400059816A817B81CF57D040C3010E943C1FA9
:104F5000EB968EAD9FADEB970196EB969FAF8EAF24
:104F6000EB970F900F9098EE291693E0390611F009
:104F70008101ACCFC3010E9414131F92EAE0EF93AA
:104F800000E010E829E834E4C158DF4F4881598136
:104F90006A817B81CF57D040C3010E943C1F0F9094
:104FA0000F90412C512C920142E050E060E070E003
:104FB000C3010E94F21EB1016C597F4F882777FD13
:104FC0008095982F0E948E36ED966CAF7DAF8EAF98
:104FD0009FAFED97B101882777FD8095982F0E94AC
:104FE0008E36AB01BC011F92FAE0FF932AE0822EBD
:104FF000912CA12CB12C38EBC32E3EE1D32E35E8F9
:10500000E32E3FE3F32EED960CAD1DAD2EAD3FAD7F
:10501000ED97C3010E943C1F84E6281A31089FEFD8
:10502000491A590A0F900F90E0E92E16E1E03E066A
:1050300009F0B9CFEF968EAD9FADEF970197EF9640
:105040009FAF8EAFEF97892B09F03ACF6CE271E0FA
:1050500080E090E03BC1212C312C54EF452E5524AB
:105060005394910143E050E060E070E0C3010E947E
:10507000F21EB2016C597F4F882777FD8095982FDB
:105080000E948E36ED966CAF7DAF8EAF9FAFED97E1
:10509000B201882777FD8095982F0E948E36AB014C
:1050A000BC011F929AE09F938AE0882E912CA12C3C
:1050B000B12C9CE5C92E9FE8D92E92E8E92E9FE3FA
:1050C000F92EED960CAD1DAD2EAD3FADED97C301A4
:1050D0000E943C1FE5E64E0E511CFFEF2F1A3F0ABF
:1050E0000F900F9086EE481685E0580609F0B9CF6C
:1050F000212C312C910143E050E060E070E0C301CD
:105100000E94F21EB2016C597F4F882777FD80956F
:10511000982F0E948E36ED966CAF7DAF8EAF9FAF0D
:10512000ED97B201882777FD8095982F0E948E36E3
:10513000AB01BC011F929AE09F931AE0812E912C43
:10514000A12CB12C0CE5C02E0FE8D02E02E8E02EE9
:105150000FE3F02EED960CAD1DAD2EAD3FADED97EE
:10516000C3010E943C1FE5E64E0E511CFFEF2F1AB3
:105170003F0A0F900F9088ED481689E0580609F015
:10518000B9CF212C312C910143E050E060E070E078
:10519000C3010E94F21EB20164567109882777FD8F
:1051A0008095982F0E948E36ED966CAF7DAF8EAFB6
:1051B0009FAFED97B201882777FD8095982F0E94C9
:1051C0008E36AB01BC011F929AE09F93AAE08A2E13
:1051D000912CA12CB12CBCE5CB2EBFE8DB2EB2E884
:1051E000EB2EBFE3FB2EED960CAD1DAD2EAD3FAD0E
:1051F000ED97C3010E943C1FE5E64E1A5108FFEFF0
:105200002F1A3F0A0F900F9086EE481685E0580639
:1052100009F0B9CF212C312C910143E050E060E03E
:1052200070E0C3010E94F21EB20164567109882722
:1052300077FD8095982F0E948E36ED966CAF7DAFEE
:105240008EAF9FAFED97B201882777FD8095982F9D
:105250000E948E36AB01BC011F929AE09F93EAE058
:105260008E2E912CA12CB12CFCE5CF2EFFE8DF2E49
:10527000F2E8EF2EFFE3FF2EED960CAD1DAD2EAD47
:105280003FADED97C3010E943C1FE5E64E1A510861
:10529000FFEF2F1A3F0A0F900F9084EF481681E01E
:1052A000580609F0B9CFEF96EEADFFADEF97319705
:1052B000EF96FFAFEEAFEF97EF2B09F0CCCEC30127
:1052C0000E94141364E670E080E090E00E94432B9B
:1052D000BEC04FE050E060E070E0C3010E946E1E6F
:1052E00090E4C92E96E0D92E2AE5422E512CCE010B
:1052F00001961C013AE5A32EB12C44EB842E912C8F
:10530000F10188E011928A95E9F7BA82A982BC82FC
:10531000AB825E824D82C4018419950998878F8380
:10532000A1016AE070E0C3010E945115B60188270F
:1053300077FD8095982F0E948E36AB01BC01EE243C
:10534000E394F12C0FE010E020E030E0C3010E9474
:10535000091F9FEF491A590AE4E1CE0ED11CF6E964
:105360004F16510469F64EE050E060E070E0C30172
:105370000E946E1EA0EFAA2EAAE0BA2EB6E9CB2E8E
:10538000D12C1AE5412E512C04EB802E912CF101E9
:1053900088E011928A95E9F75A8249825C824B82B1
:1053A000DE82CD82C4018C199D0998878F83A1016B
:1053B0006AE070E0C3010E945115B501882777FDAE
:1053C0008095982F0E948E36AB01BC01EE24E394A9
:1053D000F12C0FE010E020E030E0C3010E94091F33
:1053E00091E0C91AD108E4E1AE0EB11CFAE5CF167E
:1053F000D10469F64BE050E060E070E0C3010E9428
:105400006E1E04E110E024EF31E040E050E060E87F
:105410007FE3C3010E94FD1A6CE070E0C3010E94AB
:10542000D61F4CE050E060E070E0C3010E946E1EA9
:1054300024EF31E040E050E060E87FE3C3010E94E8
:10544000FD1AC3010E94BA17C3010E9414134BE056
:1054500050E060E070E0C3010E946E1E81C047E131
:1054600050E060E070E0C3010E946E1EAE014F5D2F
:105470005F4F6CE271E0C3010E945115EE24E3948A
:10548000F12C08EC10E020E030E040E050E061E674
:1054900074E4C3010E94091F48E150E060E070E03D
:1054A000C3010E946E1EAE01475E5F4F6CE271E069
:1054B000C3010E94511508EC10E020E030E040E00C
:1054C00050E066E174E4C3010E94091F44E150E02A
:1054D00060E070E0C3010E946E1EAE014F5E5F4F40
:1054E0006CE271E0C3010E94511508EC10E020E06D
:1054F00030E040E050E066E973E4C3010E94091F18
:10550000AE01475F5F4F6CE271E0C3010E9451152D
:105510004AE150E060E070E0C3010E946E1EC301EA
:105520000E94021508E918E020E030E040E050E079
:1055300066E173E4C3010E94091F68E572E080E040
:1055400090E00E94432BC3010E9414134BE050E0F3
:1055500060E070E0C3010E946E1EC3010E94BA1792
:10556000CE57DF4F0FB6F894DEBF0FBECDBFDF9131
:10557000CF911F910F91FF90EF90DF90CF90BF9050
:10558000AF909F908F907F906F905F904F903F90E3
:105590002F9008951F920F920FB60F9211242F9300
:1055A0003F938F939F93AF93BF938091C206909147
:1055B000C306A091C406B091C5063091C10623E090
:1055C000230F2D3720F40196A11DB11D05C026E83B
:1055D000230F0296A11DB11D2093C1068093C20620
:1055E0009093C306A093C406B093C5068091C606E7
:1055F0009091C706A091C806B091C9060196A11D59
:10560000B11D8093C6069093C706A093C806B093B9
:10561000C906BF91AF919F918F913F912F910F90AC
:105620000FBE0F901F9018952FB7F8946091C20687
:105630007091C3068091C4069091C5062FBF08954E
:105640003FB7F8948091C6069091C706A091C8060E
:10565000B091C90626B5A89B05C02F3F19F0019649
:10566000A11DB11D3FBF6627782F892F9A2F620F8A
:10567000711D811D911D42E0660F771F881F991FC4
:105680004A95D1F70895CF92DF92EF92FF92CF9390
:10569000DF936B017C010E94202BEB01C114D1042C
:1056A000E104F10489F00E9489350E94202B6C1BD3
:1056B0007D0B683E734090F381E0C81AD108E10881
:1056C000F108C851DC4FEACFDF91CF91FF90EF9006
:1056D000DF90CF900895019739F0880F991F880FB8
:1056E000991F02970197F1F70895789484B5826025
:1056F00084BD84B5816084BD85B5826085BD85B576
:10570000816085BDEEE6F0E0808181608083E1E824
:10571000F0E010828081826080838081816080835C
:10572000E0E8F0E0808181608083E1EBF0E080815F
:1057300084608083E0EBF0E0808181608083EAE731
:10574000F0E08081846080838081826080838081BA
:10575000816080838081806880831092C100089579
:105760008E3008F08E5087702091080190E4299FB8
:1057700090011124822B80937C0080917A008064B8
:1057800080937A0080917A0086FDFCCF809178002A
:105790002091790090E0922B0895833081F028F4D5
:1057A000813099F08230A1F008958730A9F08830D7
:1057B000B9F08430D1F4809180008F7D03C0809156
:1057C00080008F7780938000089584B58F7702C022
:1057D00084B58F7D84BD08958091B0008F7703C01C
:1057E0008091B0008F7D8093B0000895CF93DF93B8
:1057F00090E0FC01EB56FE4F2491FC01E755FE4F73
:105800008491882349F190E0880F991FFC01EF52A1
:10581000FE4FA591B49189539E4FFC01C591D4913F
:105820009FB7611108C0F8948C91209582238C93C6
:10583000888182230AC0623051F4F8948C91322F0F
:10584000309583238C938881822B888304C0F894BD
:105850008C91822B8C939FBFDF91CF9108950F93F2
:105860001F93CF93DF931F92CDB7DEB7282F30E081
:10587000F901EF57FE4F8491F901EB56FE4F149159
:10588000F901E755FE4F04910023C9F0882321F068
:1058900069830E94CD2B6981E02FF0E0EE0FFF1F9E
:1058A000E953FE4FA591B4919FB7F8948C91611183
:1058B00003C01095812301C0812B8C939FBF0F9053
:1058C000DF91CF911F910F910895CF92DF92EF92C8
:1058D000FF920F931F93CF93DF9390E0FC01EB5661
:1058E000FE4FD491FC01E755FE4F7491611102C047
:1058F000C0E001C0CD2FDA01C901BF70672F70E091
:10590000660F771F63547E4F00E010E09801FB01A3
:10591000E590F490F70140814D234C131EC06801BF
:1059200079014FEFC41AD40AE40AF40A08171907D8
:105930002A073B0709F442C097018601E8CF6801B6
:105940007901FFEFCF1ADF0AEF0AFF0A08171907DC
:105950002A073B0799F197018601FB01E590F49036
:10596000F70140814D234C13EACF801B910BA20B12
:10597000B30B20E030E0A901FB01E590F490F701C2
:10598000F080FD22FC120AC0281739074A075B077E
:10599000A9F02F5F3F4F4F4F5F4FEECFA8E1B0E030
:1059A0000E94B738605F7F4F8F4F9F4F24E09695DE
:1059B0008795779567952A95D1F703C060E070E0E9
:1059C000CB01DF91CF911F910F91FF90EF90DF906E
:1059D000CF900895FC01818D228D90E0805C9F4FD7
:1059E000821B91098F7399270895FC01918D828DF7
:1059F000981731F0828DE80FF11D858D90E00895A4
:105A00008FEF9FEF0895FC01918D828D981761F0C3
:105A1000828DDF01A80FB11D5D968C91928D9F5FE5
:105A20009F73928F90E008958FEF9FEF089587E81E
:105A30009EE2892B49F080E090E0892B29F00E94BA
:105A4000872E81110C9400000895FC01848DDF01E4
:105A5000A80FB11DA35ABF4F2C91848D90E00196E1
:105A60008F739927848FA689B7892C93A089B189D0
:105A70008C9180648C93938D848D981306C00288DA
:105A8000F389E02D80818F7D80830895CF93DF930C
:105A9000EC01888D8823C9F0EA89FB89808185FD26
:105AA00005C0A889B9898C9186FD0FC00FB607FC87
:105AB000F5CF808185FFF2CFA889B9898C9185FFC8
:105AC000EDCFCE010E94252DE7CFDF91CF91089534
:105AD000CF92DF92FF920F931F93CF93DF931F928A
