:100000000C94DC000C94B2020C94D9020C94000302
:100010000C9463030C94C6030C9404010C94F73005
:100020000C9404010C9404010C9404010C94D50E5E
:100030000C9404010C9404010C9404010C9404012C
:100040000C946F280C9404010C94D42B0C94062C63
:100050000C9404010C9404010C9404010C9404010C
:100060000C9404010C940401C50AC80AD40AD70AE6
:10007000E30AF10AF90A0A0B180B200B310B3B0BB0
:10008000430B540B620B650B6E0B710B7A0B880BD9
:10009000390E3C0E3F0E420E450E480E4B0E4E0ED4
:1000A000510E540E570E5A0E5D0E6C1E931EBE1E40
:1000B000F71E101F291F4F1F831FBC1FF51F29206C
:1000C00056208020B120E120FA204C216521832197
:1000D00074229C22D722692316249324A824CB249B
:1000E0007D256D2266224B28DE2705A84CCDB2D493
:1000F0004EB93836A9020C50B9918688083CA6AA98
:10010000AA2ABE000000803F2525004600262600C2
:100110002525004100262600252500492000262609
:10012000002525004220002626002525004E20001F
:1001300026260025250044200026260025250045EA
:100140002000262600000102030405060700010224
:100150000304050001020304050000000800020179
:10016000000003040700000000000000000102047A
:100170000810204080010204081020010204081029
:100180002004040404040404040202020202020320
:1001900003030303030000000023002600290000DE
:1001A000000000250028002B00000000002400278C
:1001B000002A0002F005362C11241FBECFEFD8E034
:1001C000DEBFCDBF13E0A0E0B1E0E8E0F1E702C0A0
:1001D00005900D92A633B107D9F727E0A6E3B3E067
:1001E00001C01D92AD37B207E1F711E0C8EBD1E0D5
:1001F00004C02297FE010E945836C43BD107C9F7BC
:100200000E947A2C0C9482380C94000081E0809338
:1002100040039091410391110BC08093410321E071
:100220004FE050E060E070E086E493E00C948F1DB6
:10023000089581E080933F039091410391110BC099
:100240008093410321E04FE050E060E070E086E4FD
:1002500093E00C948F1D0895EF92FF920F931F93DC
:10026000CF93DF931F92CDB7DEB77C01FC010081F5
:100270001181C80169830E9461386981681719F08A
:10028000C8010E946938C7010F90DF91CF911F917B
:100290000F91FF90EF9008950F931F93CF93DF93EB
:1002A00000D0CDB7DEB78B01FB0160819A838983D3
:1002B000CE0101960E942C01C8010F900F90DF9192
:1002C000CF911F910F910895A82FAF7787FD05C09B
:1002D0008EEF8A0F823008F499C0B0E0FD01E35937
:1002E000FE4F2491FD01EF57FE4F8491942F9D7F87
:1002F0009130B9F4823031F490918706922B90932B
:1003000087060FC0833031F490917806922B90933A
:10031000780607C0843029F490916506922B90935B
:10032000650641504230B8F4823031F4909186062F
:10033000922B909386060FC0833031F4909177060C
:10034000922B9093770607C0843029F4909164062D
:10035000922B90936406FD01EB5BFE4FA4918230DB
:10036000C1F4B0E0AA0FBB1FA857B94F6D937C939F
:10037000E9E9F1E0A591B4918C91809385068BE633
:1003800090E0909399068093980680916800816030
:1003900033C08330C1F4B0E0AA0FBB1FA758B94FD8
:1003A0006D937C93EBE9F1E0A591B4918C918093EE
:1003B00076068CE690E0909399068093980680915B
:1003C0006800826019C08430C9F4B0E0AA0FBB1F76
:1003D000AA59B94F6D937C93EDE9F1E0A591B491E1
:1003E0008C91809363068DE690E0909399068093BC
:1003F000980680916800846080936800A0919806B8
:10040000B09199068C91822B8C9316C09FB7F8946B
:10041000A230B1F47093950660939406E8988091A9
:1004200069008C7F8093690080916900842B8093A0
:100430006900E09AE89A9FBF8FB780688FBF0895E0
:100440007093970660939606E99880916900837F80
:10045000809369008091690024E0429FA0011124EB
:10046000842B80936900E19AE99AE5CF3FB7F8942D
:10047000982F9F7787FD05C08EEF890F823008F493
:100480005EC0892F90E0FC01E359FE4F2491FC01EE
:10049000EF57FE4F84918230D1F480916B0020950C
:1004A000822380936B0080916B00811105C0809145
:1004B00068008E7F809368008091870682238093F6
:1004C00087068091860682238093860641C083300A
:1004D000D1F480916C002095822380936C008091F0
:1004E0006C00811105C0809168008D7F8093680049
:1004F0008091780682238093780680917706822304
:100500008093770625C0843019F580916D00209581
:10051000822380936D0080916D00811105C08091D0
:1005200068008B7F809368008091650682238093AA
:1005300065068091640682238093640609C0923028
:1005400049F4E898809169008C7F80936900E09A73
:100550003FBF0895E99880916900837F8093690087
:10056000E19AF6CF1F920F920FB60F9211242F939C
:100570003F934F935F936F937F938F939F93AF932B
:10058000BF93EF93FF93E0919406F0919506099540
:10059000FF91EF91BF91AF919F918F917F916F915B
:1005A0005F914F913F912F910F900FBE0F901F9031
:1005B00018951F920F920FB60F9211242F933F930D
:1005C0004F935F936F937F938F939F93AF93BF935B
:1005D000EF93FF93E0919606F09197060995FF91AE
:1005E000EF91BF91AF919F918F917F916F915F91AB
:1005F0004F913F912F910F900FBE0F901F90189524
:100600001F920F920FB60F9211242F933F934F9387
:100610005F936F937F938F939F93AF93BF93CF938A
:10062000EF93FF9393B1C091850620918706309197
:100630008606892F809583232923822B20916B00A6
:10064000C927C223C82390938506CC2351F1C0FF4C
:1006500005C0E0918806F09189060995C1FF05C0A3
:10066000E0918A06F0918B060995C2FF05C0E091E2
:100670008C06F0918D060995C3FF05C0E0918E06AA
:10068000F0918F060995C4FF05C0E0919006F091A6
:1006900091060995C5FF05C0E0919206F091930679
:1006A0000995FF91EF91CF91BF91AF919F918F915C
:1006B0007F916F915F914F913F912F910F900FBE5E
:1006C0000F901F9018951F920F920FB60F92112442
:1006D0002F933F934F935F936F937F938F939F934A
:1006E000AF93BF93CF93EF93FF9396B1C0917606EC
:1006F0002091780630917706892F809583232923CE
:10070000822B20916C00C927C223C82390937606C0
:10071000CC2351F1C0FF05C0E0917906F0917A0633
:100720000995C1FF05C0E0917B06F0917C06099513
:10073000C2FF05C0E0917D06F0917E060995C3FFDA
:1007400005C0E0917F06F09180060995C4FF05C0C1
:10075000E0918106F09182060995C5FF05C0E09100
:100760008306F09184060995FF91EF91CF91BF9197
:10077000AF919F918F917F916F915F914F913F9139
:100780002F910F900FBE0F901F9018951F920F92F0
:100790000FB60F9211242F933F934F935F936F9354
:1007A0007F938F939F93AF93BF93CF93EF93FF93D9
:1007B00099B1C09163062091650630916406892F36
:1007C000809583232923822B20916D00C927C22382
:1007D000C82390936306CC23C1F1C0FF05C0E0910C
:1007E0006606F09167060995C1FF05C0E0916806AD
:1007F000F09169060995C2FF05C0E0916A06F09183
:100800006B060995C3FF05C0E0916C06F0916D067B
:100810000995C4FF05C0E0916E06F0916F06099539
:10082000C5FF05C0E0917006F09171060995C6FFFD
:1008300005C0E0917206F09173060995C7FF05C0E7
:10084000E0917406F09175060995FF91EF91CF91B3
:10085000BF91AF919F918F917F916F915F914F91D8
:100860003F912F910F900FBE0F901F90189586E427
:1008700093E00E946B1C0E9400346F30710524F4D9
:1008800081E0809336030895109236030895809195
:100890000601811107C086E493E00E94601681E0A2
:1008A0008093060108958F929F92AF92BF92CF924C
:1008B000DF92EF92FF920F931F93CF9386E493E022
:1008C0000E94971C20E030E048E452E40E949433F8
:1008D00087FF54C0C3E08091410381114FC021E0E4
:1008E0004CE150E060E070E086E493E00E948F1DF0
:1008F0001F92CF9348E0842E912CA12CB12C58EB61
:10090000C52E5EE1D52E55E8E52E5FE3F52E00E01D
:1009100010E02AEF34E440E050E06CE574E486E453
:1009200093E00E94C31D6EE170E080E090E00E94C1
:10093000E8281F92CF936CE5C62E6FE8D62E62E8AA
:10094000E62E6FE3F62E00E010E02CE534E440E004
:1009500050E06AEF74E486E493E00E94C31D86E4ED
:1009600093E00E94941D64EF71E080E090E00E94AB
:10097000E8280F900F900F900F90ADCFCF911F915F
:100980000F91FF90EF90DF90CF90BF90AF909F902E
:100990008F9008954F925F926F927F928F929F9265
:1009A000AF92BF92CF92DF92EF92FF920F931F937D
:1009B000CF93DF93CDB7DEB728970FB6F894DEBF9D
:1009C0000FBECDBF88E0EBE0F1E0DE0111960190B3
:1009D0000D928A95E1F780914103811109C0AE0122
:1009E0004F5F5F4F6CEB72E086E493E00E9403146C
:1009F000F4E06F2E712CAAE05A2E44244394809187
:100A000041038823A1F0809141038111C1C021E0FD
:100A100043E150E060E070E086E493E00E948F1DC7
:100A200069E070E086E493E00E94551EB1C020E0CA
:100A300030E041E050E060E070E086E493E00E9446
:100A40007F1D1F925F927AE0872E912CA12CB12CF2
:100A5000E8EBCE2EEEE1DE2EE5E8EE2EEFE3FE2E05
:100A600000E010E028E433E440E050E068EC72E499
:100A700086E493E00E94C31D809141030F900F9084
:100A80008111C1CF21E030E041E050E060E070E052
:100A900086E493E00E947F1D1F925F9200E010E0C9
:100AA00026E933E440E050E068E473E486E493E050
:100AB0000E94C31D809141030F900F908111A3CF1D
:100AC00022E030E041E050E060E070E086E493E056
:100AD0000E947F1D1F925F9200E010E02AEF33E436
:100AE00040E050E066E973E486E493E00E94C31DB1
:100AF00064EF71E080E090E00E94E828809141037B
:100B00000F900F9081117FCF21E030E041E050E065
:100B100060E070E086E493E00E947F1D1F924F9298
:100B200000E010E02AE733E440E050E068EC73E4D2
:100B300086E493E00E94C31D809141030F900F90C3
:100B4000811161CF20E030E041E050E060E070E0F2
:100B500086E493E00E947F1D1F924F9200E010E018
:100B600028EC32E440E050E06AE773E486E493E086
:100B70000E94C31D64EF71E080E090E00E94E828CD
:100B800081E0681A71080F900F9009F038CF3BCFC1
:100B900086E493E00E94601680914103811109C0B0
:100BA00021E04BE050E060E070E086E493E00E94DA
:100BB0008F1D28960FB6F894DEBF0FBECDBFDF9114
:100BC000CF911F910F91FF90EF90DF90CF90BF904A
:100BD000AF909F908F907F906F905F904F9008950F
:100BE000CF93DF938AE294E00E9408122CE04DE05C
:100BF0006BE086E493E00E94C4118DE493E00E94D0
:100C0000E610CEE4D3E0CE010E94910F188A1F8631
:100C1000A99683E0C23FD807B1F782EF93E0DF9156
:100C2000CF910C944111CF92DF92EF92FF920F93EC
:100C30001F93CF93DF93CDB7DEB72B970FB6F89402
:100C4000DEBF0FBECDBF0E94470419821A821B82ED
:100C50001C82FE01359687E0DF011D928A95E9F737
:100C60008E010F5F1F4FB5E0EB2EF12C6801C7011D
:100C70000E946138F80181938F01FFEFEF1AFF0A9C
:100C800080E1E816F10499F762E471E089EC96E0FE
:100C90000E94C72C6FE371E089EC96E00E94C72C9C
:100CA000B60189EC96E00E94EC2C6CE371E089ECD3
:100CB00096E00E94092D89EC96E00E94EB2A2B9683
:100CC0000FB6F894DEBF0FBECDBFDF91CF911F915D
:100CD0000F91FF90EF90DF90CF900895CF92DF9229
:100CE000EF92FF920E94470486E493E00E946B1CFF
:100CF0006B017C0169E371E089EC96E00E94C72CEE
:100D000066E371E089EC96E00E94C72CC701B6014A
:100D10000E9400344AE050E089EC96E00E94BE2D2B
:100D200063E371E089EC96E00E94092D89EC96E07E
:100D3000FF90EF90DF90CF900C94EB2ACF93DF934E
:100D40000E94470486E493E00E946F1CEC0160E37C
:100D500071E089EC96E00E94C72C6DE271E089ECAD
:100D600096E00E94C72C4AE050E0BE0189EC96E074
:100D70000E94BE2D6AE271E089EC96E00E94092D86
:100D800089EC96E0DF91CF910C94EB2ACF92DF9221
:100D9000EF92FF920E94470486E493E00E94971C22
:100DA0006B017C0167E271E089EC96E00E94C72C40
:100DB00064E271E089EC96E00E94C72C22E030E00A
:100DC000B701A60189EC96E00E94B12E61E271E0C4
:100DD00089EC96E00E94092D89EC96E0FF90EF9057
:100DE000DF90CF900C94EB2A0E9447046EE171E0F3
:100DF00089EC96E00E94C72C6BE171E089EC96E0EB
:100E00000E94C72C6AE073E089EC96E00E94EC2C0B
:100E100068E171E089EC96E00E94092D89EC96E08A
:100E20000C94EB2A8F929F92AF92BF92CF92DF9257
:100E3000EF92FF920F931F93CF93DF931F92CDB743
:100E4000DEB726E040E052EC61E070E089EC96E02D
:100E50000E94722B60E086E00E949B2960E087E0A0
:100E60000E949B291F9289E08F9308E0802E912C8D
:100E70008AE0A82EB12C94E1C92ED12CEE24E39463
:100E800005E010E024E030E043E050E062E070E094
:100E900086E493E00E94441384E10E9455290E9455
:100EA000533143E066E071E086E00E94640143E074
:100EB00069E171E087E00E9464014DE359E06FEE63
:100EC00072E08AE294E00E941D1243E459E061EF6F
:100ED00072E08AE294E00E941D124BE759E063EF52
:100EE00072E08AE294E00E941D124DEC58E065EF3A
:100EF00072E08AE294E00E941D124FE05EE067EF2C
:100F000072E08AE294E00E941D1246ED59E069EF1A
:100F100072E08AE294E00E941D1248E35AE06BEF0F
:100F200072E08AE294E00E941D1245E65EE06DEFF9
:100F300072E08AE294E00E941D1243E156E06FEFF6
:100F400072E08AE294E00E941D124EE656E061E0F3
:100F500073E08AE294E00E941D124EE956E063E0DD
:100F600073E08AE294E00E941D1246EC56E065E0D0
:100F700073E08AE294E00E941D1244EF56E067E0BD
:100F800073E08AE294E00E941D126DE379E08AE248
:100F900094E00E944F1260E070E086E493E00E94CB
:100FA000551E86E493E00E94601685E090E00E9462
:100FB00061380F900F908432F1F469E073E085E0BE
:100FC00090E00E944C011982BE016F5F7F4F86E066
:100FD00090E00E944C0121E04DE150E060E070E0C3
:100FE00086E493E00E948F1D68EE73E080E090E05D
:100FF0000E94E828F9CF0E94130662E370E080E0C7
:1010000090E00E94E8280E94F40662E370E080E02D
:1010100090E00E94E8280E94C6060E94530412E055
:10102000E12EF12C00E010E080914103882329F0AB
:1010300081E0E81AF108A9F0F5CF980140E050E00E
:10104000BA0186E493E00E947F1D66E970E080E0CB
:1010500090E00E94E8280F5F1F4F0830110521F72C
:10106000E7CF80914103811115C021E04AE050E0B3
:1010700060E070E086E493E00E948F1D6BE070E01A
:1010800086E493E00E94551E68EC70E080E090E0FA
:101090000E94E82885E090E00E946138833209F0E0
:1010A00041C080914103811110C02CEB32E040E03F
:1010B00050E060E87FE386E493E00E948C1968ECDE
:1010C00070E080E090E00E94E82880914103811167
:1010D0000CC0409107015091080121E030E061E02F
:1010E00070E086E493E00E94771A809141038111B9
:1010F00019C021E04FE050E060E070E086E493E04A
:101100000E948F1D04E110E020E233E040E050E057
:1011100060E070E486E493E00E94541886E493E073
:101120000E94601680914103811109C021E04BE0CB
:1011300050E060E070E086E493E00E948F1D0E9422
:10114000B92860933B0370933C0380933D039093D5
:101150003E030F90DF91CF911F910F91FF90EF9081
:10116000DF90CF90BF90AF909F908F90089565E1F2
:1011700071E089EC96E00E94C72C63E171E089EC94
:1011800096E00E94C72C60E171E089EC96E00E9435
:10119000092D89EC96E00C94EB2A0E94B708109276
:1011A00006018AE294E00E941312009739F00E942F
:1011B000E737909345038093440317C021E04AE149
:1011C00050E060E070E086E493E00E948F1D60EDE7
:1011D00077E080E090E00E94E82886E493E00E94B7
:1011E000941D10924503109244038AE294E00E94F9
:1011F0001312009719F00E94E73715C021E04AE169
:1012000050E060E070E086E493E00E948F1D60EDA6
:1012100077E080E090E00E94E82886E493E00E9476
:10122000941D88EE93E090930801809307018AE271
:1012300094E00E941312009719F00E94E73702C051
:101240008EE190E0909305018093040108956DE094
:1012500071E089EC96E00E94C72C6BE071E089ECAC
:1012600096E00E94C72C68E071E089EC96E00E944D
:10127000092D89EC96E00C94EB2A0E94B7080E9495
:1012800047040C942709CF93DF9300D0CDB7DEB786
:101290000E94B7080E9447048AE294E00E94131259
:1012A000009779F042E050E0BE016F5F7F4F0E94EF
:1012B000D336AB01BC0121E086E493E00E948F1D90
:1012C00013C021E04AE150E060E070E086E493E082
:1012D0000E948F1D60ED77E080E090E00E94E8289A
:1012E00086E493E00E94941D0E9427090F900F90BE
:1012F000DF91CF9108958F929F92AF92BF92EF921C
:10130000FF920F931F93CF93DF930E94B7080E9421
:1013100047048AE294E00E941312009729F00E9489
:10132000E737EC0110E001C011E08AE294E00E948E
:101330001312009721F00E94E7371123A1F021E05A
:101340004AE150E060E070E086E493E00E948F1D87
:1013500060ED77E080E090E00E94E82886E493E08A
:101360000E94941D17C04C01AA2497FCA094BA2C8B
:10137000BE01882777FD8095982F0E943334AB01FA
:10138000BC01EE24E394F12C9501840186E493E002
:101390000E94961DDF91CF911F910F91FF90EF90CA
:1013A000BF90AF909F908F900C942709CF92DF92BF
:1013B000EF92FF920F931F93CF93DF930E94B70892
:1013C0000E9447048AE294E00E941312009729F0D9
:1013D0000E94E737EC0110E001C011E08AE294E0DE
:1013E0000E941312009721F00E94E7377C0101C090
:1013F00011E08AE294E00E941312009721F00E940B
:10140000E7376C0101C011E08AE294E00E941312F8
:10141000009721F00E94E7371123A1F021E04AE173
:1014200050E060E070E086E493E00E948F1D60ED84
:1014300077E080E090E00E94E82886E493E00E9454
:10144000941D0CC08C019601A701BE0186E493E0B7
:101450000E94D21386E493E00E94E413DF91CF91BF
:101460001F910F91FF90EF90DF90CF900C94270980
:10147000BF92CF92DF92EF92FF920F931F93CF9381
:10148000DF93CDB7DEB728970FB6F894DEBF0FBE57
:10149000CDBF0E94B7080E9447048AE294E00E94F0
:1014A0001312009729F00E94E7376C01B12C02C09B
:1014B000BB24B3948AE294E00E941312009721F0B7
:1014C0000E94E7377C0102C0BB24B3948AE294E017
:1014D0000E941312009721F00E94E7378C0102C08E
:1014E000BB24B3948AE294E00E941312009721F087
:1014F0000E94E737BB20A1F021E04AE150E060E024
:1015000070E086E493E00E948F1D60ED77E080E05C
:1015100090E00E94E82886E493E00E94941D11C0A8
:10152000DA82C982FC82EB821E830D8398878F83C7
:10153000AE014F5F5F4F68EC70E086E493E00E947D
:1015400003140E94270928960FB6F894DEBF0FBE39
:10155000CDBFDF91CF911F910F91FF90EF90DF9062
:10156000CF90BF900895EF92FF920F931F93019732
:101570008431910508F0D9C08C5C9F4F40910701E0
:1015800050910801FC010C94563601E010E002C0B5
:101590000FEF1FEF9A0140E050E060E87FE386E440
:1015A00093E00E948C16C1C001E010E002C00FEF72
:1015B0001FEF9A0140E050E060E87FE386E493E0AB
:1015C0000E94FC16B2C000910401109105019A011D
:1015D00040E050E060E87FE386E493E00E94581723
:1015E000A4C00091040110910501EE24E394F12CB4
:1015F00007C00091040110910501EE24EA94FE2C2D
:101600009A0140E050E060E87FE386E493E00E94C6
:10161000A2178BC000910401109105019A0140E0CE
:1016200050E060E87FE386E493E00E9454187DC0B8
:101630000091040110910501EE24E394F12C07C000
:101640000091040110910501EE24EA94FE2C9A0108
:1016500040E050E060E87FE386E493E00E94EB180E
:1016600064C09A0140E050E060E87FE386E493E0E4
:101670000E948C195AC00091040110910501EE24BA
:10168000E394F12C07C00091040110910501EE24B0
:10169000EA94FE2C9A0140E050E060E87FE386E4A3
:1016A00093E00E94C91941C0009104011091050105
:1016B0009A0140E050E060E87FE386E493E00E9416
:1016C000A51833C021E030E002C02FEF3FEF61E00A
:1016D00070E086E493E00E94321B27C021E030E0F6
:1016E00002C02FEF3FEF61E070E086E493E00E94DC
:1016F000771A1BC000910401109105019A0140E086
:1017000050E060E87FE386E493E00E94D11B0DC0C7
:1017100000910401109105019A0140E050E060E859
:101720007FE386E493E00E94191C1F910F91FF90C4
:10173000EF900C9427090F931F93CF93DF9389ECBD
:1017400096E00E948F2A181619063CF480914203F5
:1017500090914303049709F0E8C1809141038823E5
:1017600041F186E493E00E94601664E670E080E058
:1017700090E00E94E82862E070E086E493E00E9436
:10178000551E68EC70E080E090E00E94E8288091AF
:101790004003882309F4DFC180913F038111DBC13D
:1017A00081E090E0909343038093420363E070E014
:1017B0001AC200914203109143030230110509F44B
:1017C00087C03CF40115110569F00130110559F18C
:1017D000A5C10330110509F431C10430110509F424
:1017E0008BC19CC10E94B92800913B0310913C031E
:1017F00020913D0330913E03601B710B820B930BD4
:10180000603878438140910508F404C20E94CA04FC
:101810000E94B92860933B0370933C0380933D037F
:1018200090933E03F7C125E130E040E050E065E0F1
:1018300070E080E090E00E947F3170933A03609303
:1018400039036F5071096430710538F4109338030F
:101850000093370380E496E010C026E030E040E0DB
:1018600050E063E070E080E090E00E947F31709390
:1018700038036093370388EE93E0909308018093D8
:10188000070125E130E040E050E06AE070E080E0F0
:1018900090E00E947F31AB01BC0121E086E493E03F
:1018A0000E948F1DC0E0D0E08091370390913803F3
:1018B000C817D9070CF0AEC18091390390913A0353
:1018C0000E94B30A809141038111A4C12196ECCFFB
:1018D00080913603882309F49FC0809141038111D0
:1018E00019C021E04EE050E060E070E086E493E053
:1018F0000E948F1D66E070E086E493E00E94551E12
:1019000024EF31E040E050E060EA70E486E493E0E8
:101910000E948C198091410381110FC021E044E1A4
:1019200050E060E070E086E493E00E948F1D69E083
:1019300070E086E493E00E94551EC3E0D0E0809101
:101940004103882399F064E670E080E090E00E9413
:10195000E8280E94370464E670E080E090E00E948E
:10196000E82880913603811155C10FC00FEF1FEF9A
:1019700024E135E040E050E060E87FE386E493E076
:101980000E948C162197D9F6DECF809141038111F8
:1019900041C121E04AE050E060E070E086E493E07D
:1019A0000E948F1D62E370E080E090E00E94E828D2
:1019B0000E943704C3E0D0E080913603882329F0E9
:1019C00080913603811126C106C08091410388238E
:1019D00009F40EC1F5CF8091410381111BC186E44A
:1019E00093E00E94601621E04BE050E060E070E080
:1019F00086E493E00E948F1D6DE070E086E493E042
:101A00000E94551E68EC70E080E090E0DF91CF917D
:101A10001F910F910C94E82801E010E028EE33E0CC
:101A200040E050E060E87FE386E493E00E948C169B
:101A3000DF91CF911F910F910C94370486E493E0CE
:101A40000E946F1C843E92400CF4E4C062E370E09C
:101A500080E090E00E94E8288091410381113BC022
:101A600021E04EE050E060E070E086E493E00E9408
:101A70008F1D67E070E086E493E00E94551E809120
:101A800041038111C7C025E130E040E050E06AE049
:101A900070E080E090E00E947F31AB01BC0121E06A
:101AA00086E493E00E948F1D24E130E040E050E0A6
:101AB00061E070E080E090E00E947F31CB010E9405
:101AC000B30A86E493E00E94601664EF71E080E060
:101AD00090E00E94E8288091410381119BC021E0A1
:101AE0004BE050E060E070E086E493E0DF91CF915E
:101AF0001F910F910C948F1D8AE294E00E94551261
:101B000080910601811186C0809144039091450324
:101B1000DF91CF911F910F910C94B30A84E090E074
:101B2000909343038093420375C084E090E09093C8
:101B300043038093420321E04BE050E060E070E01B
:101B400086E493E00E948F1D86E00E94360287E0C3
:101B50000E94360202CE8091400381110DC0809117
:101B60003F03882349F082E090E090934303809301
:101B7000420364E070E037C080914003882321F085
:101B800080913F03811127C040914203509143034C
:101B9000662757FD6095762F21E086E493E00E944A
:101BA0008F1DC8ECD0E06AE070E080E090E00E9419
:101BB000E8282197C1F721E04BE050E060E070E0B9
:101BC00086E493E00E948F1D10924103109240031F
:101BD00010923F031FC083E090E0909343038093F3
:101BE000420365E070E086E493E00E94551ECCCF8E
:101BF00001E010E028EE33E040E050E060E87FE3F1
:101C000086E493E00E94FC160E943704219709F0B5
:101C1000D3CED6CEDF91CF911F910F9108950E9420
:101C2000B7080E9447048AE294E00E9413120097CA
:101C300061F00E94E73701978D30910508F043C0AD
:101C4000885B9F4FFC010C94563621E04AE150E03E
:101C500060E070E086E493E00E948F1D60ED77E025
:101C600080E090E00E94E82886E493E00E94941DC2
:101C70002AC060E070E023C061E070E020C062E054
:101C800070E01DC063E070E01AC064E070E017C04F
:101C900065E070E014C066E070E011C067E070E0DD
:101CA0000EC068E070E00BC069E070E008C06AE058
:101CB00070E005C06BE070E002C06CE070E086E4AC
:101CC00093E00E94BD210C942709CF92DF92EF92FE
:101CD000FF920F931F93CF93DF93CDB7DEB72D976E
:101CE0000FB6F894DEBF0FBECDBF0E94B7080E94AA
:101CF000470419821A821B821C82FE01359687E0F6
:101D0000DF011D928A95E9F78AE294E00E9413129E
:101D1000009739F1DC01FE0131969E2F2F2F6E01C5
:101D20008CE0C80ED11C8D91811106C0092F122F95
:101D3000B5E0EB2EF12C05C0EC15FD05B9F3819350
:101D4000F2CFD8016D918D01FD86EC86C6010E940F
:101D50002C01BFEFEB1AFB0AE0E1EE16F10489F764
:101D600013C021E04AE150E060E070E086E493E0D7
:101D70000E948F1D60ED77E080E090E00E94E828EF
:101D800086E493E00E94941D0E9427092D960FB6C9
:101D9000F894DEBF0FBECDBFDF91CF911F910F91A1
:101DA000FF90EF90DF90CF9008951F920F920FB6A3
:101DB0000F9211242F933F934F935F936F937F93D1
:101DC0008F939F93AF93BF93EF93FF9380919B0665
:101DD00087FF05C010928500109284001AC02091E0
:101DE0009B06332727FD309580919A0690E02817AF
:101DF00039077CF480919B06992787FD9095FC011B
:101E0000EE0FFF1FE80FF91FE456F94F808186FDA2
:101E100015C080919B068F5F80939B0620919B0647
:101E2000332727FD309580919A0690E028173907CF
:101E3000BCF480919B068C305CF112C080919B06B3
:101E4000992787FD9095FC01EE0FFF1FE80FF91F02
:101E5000E456F94F808160E08F730E94D429D9CF76
:101E60008091840090918500049680349C4918F4F8
:101E700080E49CE905C080918400909185000496DF
:101E800090938900809388008FEF80939B0638C0E1
:101E9000209184003091850080919B06992787FDD1
:101EA0009095FC01EE0FFF1FE80FF91FE456F94F64
:101EB00081819281820F931F909389008093880083
:101EC00080919B06992787FD9095FC01EE0FFF1FDF
:101ED000E80FF91FE456F94F808186FF11C0809109
:101EE0009B06992787FD9095FC01EE0FFF1FE80FD9
:101EF000F91FE456F94F808161E08F730E94D42965
:101F0000FF91EF91BF91AF919F918F917F916F91D1
:101F10005F914F913F912F910F900FBE0F901F90A7
:101F2000189520919A062C30A0F431E0320F3093AE
:101F30009A06FC012083822F90E0FC01EE0FFF1F28
:101F4000E80FF91FE456F94F88EB9BE092838183F9
:101F500008952FEFFC0120830895DF92EF92FF9206
:101F60000F931F93CF93DF93EC01D62E7A01890153
:101F700088818C3008F066C061E08D2D0E949B291D
:101F80008881A82FB0E0FD01EE0FFF1FEA0FFB1FB5
:101F9000E456F94F2D2D2F739081907C922B9083D6
:101FA00060E272E06E197F0977FF02C06D5F7F4FBC
:101FB0007595679575956795698340E659E0401B6F
:101FC000510B57FF02C04D5F5F4F55954795559593
:101FD00047954A836CE00E94E1359CE0899FB001FF
:101FE000112420E030E0A901460F571FFA01EE0F3F
:101FF000FF1FE40FF51FE456F94F908196FD16C0C0
:102000002F5F3F4F2C30310571F781110FC01092B7
:10201000800082E0809381001092850010928400FD
:10202000B19A80916F00826080936F00888190E008
:10203000FC01EE0FFF1FE80FF91FE456F94F8081F6
:10204000806480838881DF91CF911F910F91FF90F1
:10205000EF90DF90089520E639E040E252E00C94E2
:10206000AD0FFC01808190E0FC01EE0FFF1FE80F37
:10207000F91FE456F94F80818F7B80830895FC011E
:1020800080818C3070F5918128E830E0291B31097E
:1020900097FD3395220F331F220F331F62177307EB
:1020A0007CF0928128E532E0291B310997FD3395B8
:1020B000220F331F220F331F621773070CF49B018B
:1020C00022503109220F331F4FB7F89490E0FC01E2
:1020D000EE0FFF1FE80FF91FE456F94F32832183FB
:1020E0004FBF08954F925F926F927F92AF92BF92CF
:1020F000CF92DF92EF92FF920F931F93CF93DF93D4
:10210000EC01603282E078070CF040C077FD06C039
:10211000653B71052CF064EB70E002C060E070E09C
:10212000898128E830E0281B310987FD3395220F8B
:10213000331F220F331F5901CC24B7FCC094DC2C71
:10214000882777FD8095982F2A8148E552E0421B29
:10215000510927FD5395440F551F440F551F2A0160
:10216000662457FC6094762C7F926F925F924F9218
:1021700014EBE12EF12C00E010E020E030E0A901AA
:102180000E949B310F900F900F900F90CE01DF9126
:10219000CF911F910F91FF90EF90DF90CF90BF9064
:1021A000AF907F906F905F904F900C943F10FC0128
:1021B000808190E0FC01EE0FFF1FE80FF91FE4564D
:1021C000F94F808186FB882780F9089508950F9341
:1021D0001F93CF93DF9385E10E94552925E0AC0141
:1021E000249FC001259F900D1124BC01882777FDF5
:1021F0008095982F0E94333420E030E040E85AE385
:102200000E94E7348B01D82FC92F26E636E646E830
:1022100050E40E94E334181624F406E616E6D6E8E5
:10222000C0E4B8018D2F9C2FDF91CF911F910F91AA
:1022300008950F931F93CF93DF930E94E7102FEB26
:1022400036E842ED52E40E94E7342CE73DE04BEAE9
:1022500053E40E942F338B01D82FC92F20E030E0A8
:10226000A9010E94943387FF04C000E010E0D0E091
:10227000C0E0B8018D2F9C2FDF91CF911F910F915E
:1022800008950895CF93DF93EC01862F68837983B7
:102290005B834A8361E00E949B2960E08A81DF9131
:1022A000CF910C949B29CF93DF93EC0160E0888160
:1022B0000E94D42982E090E00E94102961E0888188
:1022C0000E94D4298AE090E00E94102960E0888171
:1022D0000E94D42920E43CE940E050E061E08A819A
:1022E000DF91CF910C940A2A0E9453112AE330E027
:1022F00040E050E00E943736211531054105510577
:1023000021F427EE33E040E050E0CA01B9010E9419
:10231000333408950F931F93CF93DF93EC0100E0C4
:1023200010E0488159816A817B81002E04C0769536
:102330006795579547950A94D2F7642F61708C8101
:102340000E94D42900000000000061E08D810E94FD
:10235000D42900000000000060E08D810E94D42993
:102360000F5F1F4F0E311105E1F661E08E810E9473
:10237000D42900000000000060E08E81DF91CF9141
:102380001F910F910C94D429CF93DF93EC01862FEA
:10239000188219821A821B826C834D832E8361E01E
:1023A0000E949B2961E08D810E949B2961E08E81C2
:1023B0000E949B2960E08C810E94D42960E08D817D
:1023C0000E94D42960E08E810E94D429CE01DF9141
:1023D000CF910C948A11FC014083518362837383F3
:1023E0000C948A11FC0110821182128213820C94C7
:1023F0008A1121E030E0FC01E20FF31F10822F5F11
:102400003F4F24323105B9F7FC0115A214A20895FB
:1024100020E230E0FC0137A326A32DE020A716A67A
:1024200015A60C94F911AC01455D5F4FBC016A5DC6
:102430007F4F80E090E00C943238FF920F931F930F
:10244000CF93DF93EC018A012DA53EA52E303105F7
:1024500004F585E2F82EF29EC001F39E900D112442
:102460008F9643E250E08C0F9D1F0E9423382DA5CC
:102470003EA5F29EC001F39E900D11248C0F9D1F6E
:10248000FC01EE5AFF4F118300832F5F3F4F3EA7A1
:102490002DA7DF91CF911F910F91FF9008958B5C35
:1024A0009D4FFC017183608308952F923F924F925C
:1024B0005F926F927F928F929F92AF92BF92CF92D4
:1024C000DF92EF92FF920F931F93CF93DF9300D091
:1024D00000D0CDB7DEB79C838B831C012BE2220E8C
:1024E000311C2C0136E2430E511C6C018FEFC81ACF
:1024F000D80AAB80BC809FE2A90EB11C2B813C8125
:102500002B5C3D4F3A83298389EC96E00E948F2A09
:10251000181619060CF073C089EC96E00E94A82AE0
:10252000AB81BC818C9398969C919897891341C0FC
:1025300095961C921E929497A101B201C6010E9429
:1025400032383C01EB81FC8192A781A7009709F406
:1025500056C085A496A4750100E010E00815190581
:10256000FCF443E250E0B701C3010E941538F5E2E4
:10257000EF0EF11C892B89F425E2209FC001219FD9
:10258000900D11242B813C81820F931FFC01EE5A88
:10259000FF4F0190F081E02D07C00F5F1F4FDECF8E
:1025A000A981BA81ED91FC9109958B819C810E9452
:1025B000F911AB81BC811C91812F992787FD9095E2
:1025C0000E940738892B09F49FCFEB81FC8124A15D
:1025D00035A1C901019695A384A3E20FF31F1183CE
:1025E000EB81FC81E80FF91F118283970CF48CCFEB
:1025F000AB81BC8195961C921E92949785CF0F90CB
:102600000F900F900F90DF91CF911F910F91FF903E
:10261000EF90DF90CF90BF90AF909F908F907F9082
:102620006F905F904F903F902F900895CF93DF93DE
:10263000EC01FC01E055FF4F6081718140E008969C
:102640000E941432FE01EE54FF4F6081718140E020
:10265000CE01C1960E941432FE01EC54FF4F6081FE
:10266000718140E0CE01865A9F4F0E941432FE01D4
:10267000EA54FF4F6081718140E0CE018D579F4F3A
:10268000DF91CF910C9414324F925F926F927F92B0
:102690008F929F92AF92BF92CF92DF92EF92FF9272
:1026A0000F931F93CF93DF93CDB7DEB73C014B88D9
:1026B0005C88FC01E055FF4F718360833296518343
:1026C00040833296318320833296118300830E94A7
:1026D0001613E11037C0F301E054FF4F8AE590E094
:1026E0009183808332969183808332969183808315
:1026F000329691838083A201B401C30184559F4F18
:102700000E944211F301E853FF4FA082B18232963A
:10271000C082D18261E08A2D0E949B2960E08C2DCD
:10272000DF91CF911F910F91FF90EF90DF90CF90AD
:10273000BF90AF909F908F907F906F905F904F90E1
:102740000C949B29E12CF12C00E010E0C8010E94C0
:10275000613890E0813891050CF09A95F301EE0D07
:10276000FF1D908F878B0F5F1F4F89E2E80EF11CD2
:102770000430110559F7AFCFCF93DF93EC010896E2
:102780000E946732CE01C1960E946732CE01865AFE
:102790009F4F0E946732CE018D579F4FDF91CF919F
:1027A0000C9467320F931F93FC01708F678BE05C72
:1027B000FF4F51834083B99631832083B9961183AB
:1027C00000831F910F910895EF92FF920F931F9333
:1027D000CF93DF937C0100E010E0C0E0D0E0F70190
:1027E000E00FF11F6789CE010E9469382196075DCD
:1027F0001F4FC430D10599F7DF91CF911F910F91F1
:10280000FF90EF9008952F923F924F925F926F92B8
:102810007F928F929F92AF92BF92CF92DF92EF9270
:10282000FF920F931F93CF93DF93CDB7DEB72A9715
:102830000FB6F894DEBF0FBECDBF1C016B014983FC
:102840005A830E9416132BE0C216D1040CF4CDC09B
:10285000EE24D7FCE094FE2CC701B6010E9433346D
:1028600020E030E040E251E40E9498332B013C012B
:1028700039813B838A818C83510100E010E0AB8178
:10288000BC818D919D91BC83AB834501B4ED8B0ED2
:10289000911CF101E00FF11FE054FF4F20813181C5
:1028A000821B930BBC01882777FD8095982F0E948F
:1028B0003334A30192010E949833F4016083718341
:1028C000828393830E5F1F4FF4E0AF0EB11C08307C
:1028D0001105A9F60E94B928910124533F4F3C836A
:1028E0002B836C0D7D1D8E1D9F1DD9016D937D93D6
:1028F0008D939C93139744244394512CF101E053FE
:10290000FF4FFE83ED83245C310938872F830E94BB
:10291000B928EB81FC81008111812281338160170C
:1029200071078207930708F076C00E94B928665F96
:102930007F4F8F4F9F4FAD81BE816D937D938D9360
:102940009C9313976F80788481011A8619864201BF
:10295000AA2497FCA094BA2CE985FA85E20DF31D10
:10296000E054FF4F80819181BC01882777FD8095DD
:10297000982F0E9433346B017C01C501B4010E9481
:102980003334F801EC52FF4F208131814281538171
:102990000E94E7349B01AC01C701B6010E943033AD
:1029A0000E940034C3010E949732E985FA8532966D
:1029B000FA87E9870C5F1F4FF9E26F0E711C2985BA
:1029C0003A852830310541F60E94B928AD81BE8193
:1029D0000D911D912D913C9160177107820793070E
:1029E00098F3BFEF4B1A5B0A92CFC980DA8000E000
:1029F00010E07101F8E0EF0EF11CD6016D917D91B0
:102A00006D01C701800F911F0E949732075D1F4F14
:102A1000043A110591F7E981FA8180E090E0219173
:102A20003191D101A80FB91FA054BF4F2D933C93F2
:102A300002968830910599F72A960FB6F894DEBF72
:102A40000FBECDBFDF91CF911F910F91FF90EF90FF
:102A5000DF90CF90BF90AF909F908F907F906F90BE
:102A60005F904F903F902F9008952F923F924F92FA
:102A70005F926F927F928F929F92AF92BF92CF920E
:102A8000DF92EF92FF920F931F93CF93DF9300D0CB
:102A900000D0CDB7DEB75C01CA012901A7019601BC
:102AA0003C014B01650188E0C80ED11C780104E0AF
:102AB00010E03C2C2D2CF301819191913F01F60106
:102AC00096838583F401819191914F01F60194835E
:102AD0008383B201C60129833A834B835C830E94BE
:102AE0007632F70181919191A191B1917F01F60127
:102AF00081879287A387B48701501109F9E2CF0E2D
:102B0000D11C29813A814B815C810115110599F60F
:102B10000E94B9280E9431346B017C01B2018827E0
:102B200077FD8095982F0E94333429813A814B811B
:102B30005C810E94E734A70196010E9430332B018B
:102B40003C0185010F5C1F4F45018AE5880E911CF1
:102B5000E3E8AE0EB11CA3019201C701B6010E94C9
:102B600094331816A4F0832D922D0E949E32C80132
:102B70000E949E32C4010E949E32C5010E949E3274
:102B80000E94B9280E9431346B017C01E4CF0F9080
:102B90000F900F900F90DF91CF911F910F91FF90A9
:102BA000EF90DF90CF90BF90AF909F908F907F90ED
:102BB0006F905F904F903F902F9008952F923F928B
:102BC0004F925F926F927F928F929F92AF92BF923D
:102BD000CF92DF92EF92FF920F931F93CF93DF93E9
:102BE000CDB7DEB72C970FB6F894DEBF0FBECDBFC2
:102BF0004C017A8369835C834B833E832D83180168
:102C0000260137010E941613C701B6010E94003445
:102C10006F83788789879A87AF80B8841A141B04DA
:102C2000A4F12F813885B901882777FD8095982FE9
:102C30000E9433349B01AC01C301B2010E942F33C7
:102C40006B017C0181012D813E814B815C81698119
:102C50007A81C4010E9435152C960FB6F894DEBF18
:102C60000FBECDBFDF91CF911F910F91FF90EF90DD
:102C7000DF90CF90BF90AF909F908F907F906F909C
:102C80005F904F903F902F9008951C861B86C12C1B
:102C9000D12C90E8E92E9FE3F92E81012D813E8110
:102CA0004B815C8169817A81C4010E9435158B85D5
:102CB0009C8501969C878B878A159B0541F7B1CF30
:102CC0000F931F93CF93DF93CDB7DEB728970FB63F
:102CD000F894DEBF0FBECDBF8C0188E0E3E1F1E0E8
:102CE000DE01119601900D928A95E1F7AE014F5FDA
:102CF0005F4F64EF71E0C8010E940314C8010E9495
:102D0000BC1328960FB6F894DEBF0FBECDBFDF917F
:102D1000CF911F910F9108958F929F92AF92BF9282
:102D2000CF92DF92EF92FF920F931F93CF93DF9397
:102D3000CDB7DEB7A0970FB6F894DEBF0FBECDBFFC
:102D40005C016A017B014901980188E0EBE1F1E057
:102D5000DE01599601900D928A95E1F788E0E3E251
:102D6000F1E0DE01519601900D928A95E1F78E0116
:102D70000F5F1F4F80E1F80111928A95E9F746EA4B
:102D80004203B001439F700D1124882777FD809581
:102D9000982F0E9433342BED3FE049E450E40E9429
:102DA000E73420E030E044E353E40E94983369873D
:102DB0007A878B879C876D877E878F87988B940116
:102DC000AE014F5E5F4FBE01675E7F4FC5010E943F
:102DD000DE15A0960FB6F894DEBF0FBECDBFDF9113
:102DE000CF911F910F91FF90EF90DF90CF90BF9008
:102DF000AF909F908F900895CF92DF92EF92FF92C5
:102E00000F931F93CF93DF93CDB7DEB7A0970FB685
:102E1000F894DEBF0FBECDBFE8E0FE2EEBE1F1E09F
:102E2000DE01599601900D92FA94E1F7F8E0FF2E39
:102E3000E3E2F1E0DE01519601900D92FA94E1F7A0
:102E4000A0E1FA2EEBE2F1E0DE01119601900D9285
:102E5000FA94E1F70130110539F4EEE1F0E0FA8F70
:102E6000E98FEAE0F0E006C0EAE0F0E0FA8FE98FEF
:102E7000EEE1F0E0FC8FEB8F6A017B018E010F5FCA
:102E80001F4FAE014F5E5F4FBE01675E7F4F0E94D6
:102E9000DE15A0960FB6F894DEBF0FBECDBFDF9152
:102EA000CF911F910F91FF90EF90DF90CF900895F9
:102EB000CF92DF92EF92FF920F931F93CF93DF9306
:102EC000CDB7DEB7A0970FB6F894DEBF0FBECDBF6B
:102ED0006A017B01E8E0BE01675E7F4FDB014E2F98
:102EE0001D924A95E9F71E8F0D8F18A30F8FAE0123
:102EF0004F5E5F4FDA011D92EA95E9F71E8B0D8B4D
:102F0000119501951109188F0F8B10E1EBE3F1E09A
:102F1000DE01119601900D921A95E1F78E010F5F77
:102F20001F4F0E94DE15A0960FB6F894DEBF0FBEAD
:102F3000CDBFDF91CF911F910F91FF90EF90DF9068
:102F4000CF9008952F923F924F925F926F927F920F
:102F50008F929F92AF92BF92CF92DF92EF92FF92A9
:102F60000F931F93CF93DF93CDB7DEB7A2970FB622
:102F7000F894DEBF0FBECDBF4C011A012B01390101
:102F800088E09E01275E3F4F3AA329A3F901282F2D
:102F900011922A95E9F71E8F0D8F18A30F8F5E01EE
:102FA00031E1A30EB11CF50111928A95E9F7C80130
:102FB00017FD01969595879502969E8B8D8B17FF31
:102FC00002C00F5F1F4F15950795119501951109C7
:102FD00002501109188F0F8B26EAA7012403600104
:102FE000259FD00C11248E010F5F1F4F80E1F80147
:102FF00011928A95E9F7B601882777FD8095982F79
:103000000E9433342BED3FE049E450E40E94E73462
:1030100020E030E044E353E40E94983369877A87E4
:103020008B879C8724ECA7012403B001259F700D9A
:1030300011246C0D7D1D882777FD8095982F0E94A7
:1030400033342BED3FE049E450E40E94E73420E0C4
:1030500030E044E353E40E9498336D877E878F8786
:10306000988B720161019301A501BE01675E7F4FDC
:10307000C4010E94DE15A2960FB6F894DEBF0FBE03
:10308000CDBFDF91CF911F910F91FF90EF90DF9017
:10309000CF90BF90AF909F908F907F906F905F90F8
:1030A0004F903F902F900895CF92DF92EF92FF9232
:1030B0000F931F93CF93DF93CDB7DEB7A0970FB6D3
:1030C000F894DEBF0FBECDBF6A017B01E8E0BE0110
:1030D000675E7F4FDB014E2F1D924A95E9F71E8FE9
:1030E0000D8F18A30F8FAE014F5E5F4FDA011D9257
:1030F000EA95E9F7F80117FD3196F595E795FE8B0E
:10310000ED8B17FF02C00F5F1F4F159507951195A7
:1031100001951109188F0F8B8E010F5F1F4FE0E192
:10312000D8011D92EA95E9F70E94DE15A0960FB628
:10313000F894DEBF0FBECDBFDF91CF911F910F91ED
:10314000FF90EF90DF90CF900895CF92DF92EF92B3
:10315000FF920F931F93CF93DF93CDB7DEB7A09766
:103160000FB6F894DEBF0FBECDBF6A017B01E8E069
:10317000BE01675E7F4FDB014E2F1D924A95E9F736
:103180001E8F0D8F18A30F8FAE014F5E5F4FDA01B8
:103190001D92EA95E9F71E8B0D8B1195019511098A
:1031A000188F0F8B8E010F5F1F4FE0E1D8011D922A
:1031B000EA95E9F70E94DE15A0960FB6F894DEBFF7
:1031C0000FBECDBFDF91CF911F910F91FF90EF9078
:1031D000DF90CF9008952F923F924F925F926F921F
:1031E0007F928F929F92AF92BF92CF92DF92EF9297
:1031F000FF920F931F93CF93DF93CDB7DEB7A097C6
:103200000FB6F894DEBF0FBECDBF4C015A016B0163
:10321000390128E02E0149E1440E511CF201422FF0
:1032200011924A95E9F789E190E09A8F898F9C8FF6
:103230008B8F1E8F0D8F18A30F8F1E0151E1250E4E
:10324000311CF10111922A95E9F7C80117FD019689
:103250009595879504969E8B8D8B17FF02C00F5F07
:103260001F4F1595079511950195110904501109E6
:10327000188F0F8B8E010F5F1F4F80E1F8011192A5
:103280008A95E9F780E090E0A4EBB2E489839A8321
:10329000AB83BC838D839E83AF83B88724ECA70167
:1032A0002403B001259F700D1124882777FD809598
:1032B000982F0E9433342BED3FE049E450E40E9404
:1032C000E73420E030E044E353E40E9498336D8714
:1032D0007E878F87988B760165019301A101B201EA
:1032E000C4010E94DE15A0960FB6F894DEBF0FBE93
:1032F000CDBFDF91CF911F910F91FF90EF90DF90A5
:10330000CF90BF90AF909F908F907F906F905F9085
:103310004F903F902F900895EF92FF920F931F933D
:10332000CF93DF93CDB7DEB760970FB6F894DEBFCB
:103330000FBECDBF8C01790188E0EBE4F1E0DE0146
:10334000199601900D928A95E1F7AE01475F5F4FA4
:10335000B901C8010E94031488E0E3E1F1E0DE0155
:10336000119601900D928A95E1F7AE014F5F5F4F84
:10337000B701C8010E94031460960FB6F894DEBF2F
:103380000FBECDBFDF91CF911F910F91FF90EF90B6
:1033900008952F923F924F925F926F927F928F92F9
:1033A0009F92AF92BF92CF92DF92EF92FF920F93D4
:1033B0001F93CF93DF93CDB7DEB7A0970FB6F894E6
:1033C000DEBF0FBECDBF4C015A016B01390128E0B1
:1033D0002E0149E1440E511CF201422F11924A95EF
:1033E000E9F78CE090E09A8F898F9C8F8B8F1E8FEE
:1033F0000D8F18A30F8F1E0151E1250E311CF10115
:1034000011922A95E9F7C8010A979E8B8D8B8AE065
:1034100090E0801B910B988F8F8B8E010F5F1F4F59
:1034200080E1F80111928A95E9F78BED9FE0A9E41C
:10343000B0E48D839E83AF83B88726EAA701240377
:10344000B001259F700D1124882777FD8095982F56
:103450000E9433342BED3FE049E450E40E94E7340E
:1034600020E030E044E353E40E94983369877A8790
:103470008B879C878AE58E9DB0018F9D700D1124EE
:10348000882777FD8095982F0E9433342BED3FE0FD
:1034900049E450E40E94E73420E030E044E353E4A0
:1034A0000E9498336D877E878F87988B76016501A0
:1034B0009301A101B201C4010E94DE15A0960FB6CE
:1034C000F894DEBF0FBECDBFDF91CF911F910F915A
:1034D000FF90EF90DF90CF90BF90AF909F908F9034
:1034E0007F906F905F904F903F902F9008958F92B4
:1034F0009F92AF92BF92CF92DF92EF92FF920F9383
:103500001F93CF93DF93CDB7DEB7A0970FB6F89494
:10351000DEBF0FBECDBF8C014B0188E0E3E5F1E0DB
:10352000DE01599601900D928A95E1F788E0EBE56E
:10353000F1E0DE01519601900D928A95E1F788E065
:10354000E3E6F1E0DE01199601900D928A95E1F72C
:1035500088E0E3E1F1E0DE01119601900D928A9599
:10356000E1F721303105A1F481E990E09E8F8D8F44
:103570008AE790E098A38F8F2CE330E03E8B2D8B71
:10358000988F8F8B28E730E03E872D87988B8F8729
:103590006A0188EEC81A83E0D80A80E9C81681E07B
:1035A000D80624F440E9C42EDD24D3947601F594A2
:1035B000E794F594E794A12CB12CA814B904C4F5B0
:1035C000AE01475E5F4F64EF71E0C8010E940314D3
:1035D000AE014F5E5F4F64EF71E0C8010E940314BB
:1035E000AE01475F5F4FB701C8010E940314AE01EF
:1035F0004F5E5F4FB701C8010E940314AE01475FE1
:103600005F4FB701C8010E940314AE014F5E5F4FC8
:10361000B701C8010E940314AE014F5F5F4F64EF12
:1036200071E0C8010E9403148FEFA81AB80AC5CF31
:10363000B601882777FD8095982F0E94E828A096EC
:103640000FB6F894DEBF0FBECDBFDF91CF911F91B3
:103650000F91FF90EF90DF90CF90BF90AF909F9031
:103660008F9008954F925F926F927F928F929F9268
:10367000AF92BF92CF92DF92EF92FF920F931F9380
:10368000CF93DF93CDB7DEB768970FB6F894DEBF60
:103690000FBECDBF8C016B0188E0E3E5F1E0DE01F8
:1036A000519601900D928A95E1F788E0EBE6F1E002
:1036B000DE01199601900D928A95E1F788E0E3E129
:1036C000F1E0DE01119601900D928A95E1F7FA0181
:1036D000483582E0580714F4E8E5F2E02F3F3F4F09
:1036E00071F481E990E09E8B8D8B8AE790E0988F52
:1036F0008F8B2BE430E03E872D87988B8F874F018F
:103700009594879495948794CF016AE070E00E9425
:1037100001365B012F01440C551C4E0E5F1E559463
:10372000479455944794662457FC6094762CE12C7A
:10373000F12CEC14FD04F4F4AE014F5E5F4FB401C4
:10374000C8010E940314AE01475F5F4FB501C80175
:103750000E940314C301B2010E94E828AE014F5F2A
:103760005F4F64EF71E0C8010E9403148FEFE81A05
:10377000F80ADFCF68960FB6F894DEBF0FBECDBF54
:10378000DF91CF911F910F91FF90EF90DF90CF903D
:10379000BF90AF909F908F907F906F905F904F9071
:1037A0000895CF92DF92EF92FF920F931F93CF93E2
:1037B000DF93CDB7DEB7A0970FB6F894DEBF0FBE8C
:1037C000CDBF6A017B010A31110514F009E110E057
:1037D000E8E0BE01675E7F4FDB014E2F1D924A95E8
:1037E000E9F71A8F098F1C8F0B8FAE014F5E5F4F69
:1037F000DA011D92EA95E9F710E1E3E7F1E0DE0175
:10380000119601900D921A95E1F78E010F5F1F4FEF
:103810000E943515A0960FB6F894DEBF0FBECDBF3F
:10382000DF91CF911F910F91FF90EF90DF90CF909C
:103830000895CF92DF92EF92FF920F931F93CF9351
:10384000DF93CDB7DEB7A0970FB6F894DEBF0FBEFB
:10385000CDBF6A017B010031110514F00FE010E0CB
:103860001A8F098F1C8F0B8F1E8F0D8F18A30F8F30
:10387000AE014F5E5F4F68E0FA0111926A95E9F779
:10388000B8016C5F7F4F7E8B6D8B64E070E0601BD6
:10389000710B788F6F8B60E1E3E8F1E0DE01119648
:1038A00001900D926A95E1F78E010F5F1F4FBE01E7
:1038B000675E7F4F0E94DE15A0960FB6F894DEBFBC
:1038C0000FBECDBFDF91CF911F910F91FF90EF9071
:1038D000DF90CF90089584559F4F0C9474110F93EF
:1038E0001F93CF93DF938C0106531F4FF801808104
:1038F0000E945529EC0162E070E080E090E00E94B7
:10390000E828F80180810E945529C80FD91F62E07C
:1039100070E080E090E00E94E828CE01D7FD01969B
:1039200095958795DF91CF911F910F910895CF9233
:10393000DF92EF92FF920F931F93CF93DF938C014F
:10394000095F1F4FC8010E941911CAE0D0E0C12CC5
:10395000D12C7601C8010E9419119B01AC01C7014D
:10396000B6010E9430336B017C0161E070E080E0C1
:1039700090E00E94E828219769F720E030E040E2DB
:1039800051E4C701B6010E949833DF91CF911F9196
:103990000F91FF90EF90DF90CF900895CF93DF933A
:1039A000CDB7DEB7CC57D1090FB6F894DEBF0FBE46
:1039B000CDBF8CE7E3E9F1E0DE01119601900D92B5
:1039C0008A95E1F7660F771F660F771F81E090E019
:1039D0008C0F9D1F680F791FFB01608171818281AF
:1039E0009381C458DF4F0FB6F894DEBF0FBECDBF32
:1039F000DF91CF910895CF93DF93EC01BA010E943C
:103A0000CE1CAB01BC01CE01DF91CF910C94EB1128
:103A1000CF93DF93CDB7DEB7C057D1090FB6F89477
:103A2000DEBF0FBECDBF80E2EFE0F2E0DE0199968F
:103A300001900D928A95E1F780E1EFE2F2E0DE017C
:103A4000AF59BF4F01900D928A95E1F788E1EFE3FE
:103A5000F2E0DE01A75BBF4F01900D928A95E1F77E
:103A600088E2E7E5F2E0DE01119601900D928A9579
:103A7000E1F76130710509F194F4672BB1F5FA01B2
:103A8000EE0FFF1FEE0FFF1F81E090E08C0F9D1FD8
:103A9000E80FF91F60A571A582A593A526C0623025
:103AA000710599F06330710501F5FA01EE0FFF1F02
:103AB000EE0FFF1F81E090E00FC0FA01EE0FFF1F35
:103AC000EE0FFF1F81E690E007C0FA01EE0FFF1F27
:103AD000EE0FFF1F89E490E08C0F9D1FE80FF91F88
:103AE000608171818281938100C0C059DF4F0FB620
:103AF000F894DEBF0FBECDBFDF91CF910895CF9375
:103B0000DF93EC01CB01BA01A901CE010E94081D8F
:103B1000AB01BC01CE01DF91CF910C94EB112111CF
:103B20000C94FB1C0C94EB110C94F2118F929F924D
:103B3000AF92BF92EF92FF920F931F93CF93DF93B9
:103B4000EC0148015901CB01BA010E940534C85368
:103B5000DF4FA501940188810E94B32EC501B401F5
:103B60000E94E828B701882777FD8095982FDF917C
:103B7000CF911F910F91FF90EF90BF90AF909F90CA
:103B80008F900C94E8282F923F924F925F926F9201
:103B90007F928F929F92AF92BF92CF92DF92EF92DD
:103BA000FF920F931F93CF93DF93CDB7DEB7289784
:103BB0000FB6F894DEBF0FBECDBF1C012A013B013A
:103BC00009831A832B833C83CD82DE82EF82F886C1
:103BD000CD8CDE8CA9019801C301B2010E949433FF
:103BE00087FF25C0C301B2010E940034882777FDFA
:103BF0008095982F0E9433342B013C0129813A8112
:103C00004B815C810E94943387FF36C07601950119
:103C10008401B301A201C1010E94961D2D813E8144
:103C20004F815885C301B2010E94E734DDCFC30143
:103C3000B2010E940034882777FD8095982F0E945A
:103C400033342B013C0129813A814B815C810E94F4
:103C5000E33418168CF4760195018401B301A201B6
:103C6000C1010E94961D2D813E814F815885C3015F
:103C7000B2010E949833DDCF28960FB6F894DEBFCC
:103C80000FBECDBFDF91CF911F910F91FF90EF90AD
:103C9000DF90CF90BF90AF909F908F907F906F906C
:103CA0005F904F903F902F9008957F928F929F92B8
:103CB000AF92BF92CF92DF92EF92FF920F931F933A
:103CC000CF93DF93EC016331710508F048C3FB012A
:103CD000EB5AFF4F0C9456363EE1E32EF12C02E3F3
:103CE00010E020E030E044EA50ED64E274E40E9429
:103CF000961D49E1E42EF12C07E310E020E030E0CE
:103D000042E550ED64EA74E4CE010E94961D5AE04B
:103D1000E52EF12C0CE310E020E030E040E050E034
:103D20006CED74E427C08EE1E82EF12C02E310E084
:103D300020E030E044EA50ED64E274E4CE010E94F9
:103D4000961D99E1E92EF12C07E310E020E030E028
:103D500040E050E06CED74E4CE010E94961D2AE034
:103D6000E22EF12C02E310E020E030E042E550EDDD
:103D700064EA74E4CE010E94961DF1C21F92F2E043
:103D80007F2E7F92A4E18A2E912CA12CB12CBAE037
:103D9000CB2EB7EDDB2EB3E8EB2EBFE3FB2E0CE50D
:103DA0001FEF23EC34E442E550ED64EA74E40E9432
:103DB000C31D6EE170E080E090E00E94E8281F9251
:103DC0007F921AE0812E912CA12CB12C08EBC02EF1
:103DD0000EE1D02E05E8E02E0FE3F02E0FE115EDF9
:103DE00022E135E442E550ED64EA74E4B1C21F9289
:103DF0008AE08F937EE1872E912CA12CB12CECE5EB
:103E0000CE2EEFE8DE2EE2E8EE2EEFE3FE2E00E00F
:103E100010E02CED34E442E550ED64EA74E46DC248
:103E20001F928AE08F935EE1852E912CA12CB12CFC
:103E30006AE0C62E67EDD62E63E8E62E6FE3F62E17
:103E40000FE115ED22E135E44CE55FEF63EC74E43E
:103E500054C234E6E32EF12C02E310E020E030E01F
:103E600042E550ED64EA74E40E94961D40E5E42EBC
:103E7000F12C02E310E020E030E04CE55FEF63EC72
:103E800074E4CE010E94961DE12CF12C0CE211E0AD
:103E900020E030E04FE155ED62E175E46BCF1F9219
:103EA000772473947F920AE0802E912CA12CB12C60
:103EB0008CE5C82E8FE8D82E82E8E82E8FE3F82E06
:103EC00000E010E626E035E440E050E068E474E409
:103ED000CE010E94C31D1F927F9297E0892E912CE4
:103EE000A12CB12C2AE0C22E27EDD22E23E8E22EFF
:103EF0002FE3F22E00E010E028E434E440E050E547
:103F000066E075E425C21F9283E08F93A8E08A2EB5
:103F1000912CA12CB12CB8EBCB2EBEE1DB2EB5E859
:103F2000EB2EBFE3FB2E00E010E02AEF34E440E08C
:103F300050E06CE574E4CE010E94C31D68EC70E0B3
:103F400080E090E00E94E8280F900F9016E1C12ECB
:103F5000D12CFAE0EF2EF12C05E010E020E030E06B
:103F600048E451EF66E774E4CE010E94961D81E0BB
:103F7000C81AD10871F7F3C11F9283E08F9368E0EC
:103F8000862E912CA12CB12C7AE0C72E77EDD72E5E
:103F900073E8E72E7FE3F72E00E010E82BE335E42B
:103FA00040E050E06BEE74E4CE010E94C31D68EC6B
:103FB00070E080E090E00E94E8280F900F90E0E130
:103FC000CE2ED12C5AE0E52EF12C0AE010E020E0B4
:103FD00030E040E050ED62E874E4CE010E94961DAE
:103FE00081E0C81AD10871F7BAC11F9284E08F939B
:103FF00090E1892E912CA12CB12C2AE0C22E27ED24
:10400000D22E23E8E22E2FE3F22E00E010E021E68C
:1040100034E440E050E06FE274E4CE010E94C31D3E
:104020001F9287E08F9332E1832E912CA12CB12C2B
:104030004EEAC42E47E4D42E41E8E42E4FE3F42E9A
:1040400000E010E822E234E440E050EC60E674E482
:104050007FC11F928AE08F930AE0802E912CA12CC1
:10406000B12C88EBC82E8EE1D82E85E8E82E8FE3A0
:10407000F82E00E010E02AEF33E440E050E068EC76
:1040800072E4CE010E94C31D64EF71E080E090E015
:104090000E94E8281F9281E08F9300E010E028EC56
:1040A00032E440E050E068EC73E452C11F92F8E063
:1040B0007F2E7F92A4E18A2E912CA12CB12CB6E602
:1040C000CB2EDC2CB6E8EB2EBFE3FB2E00E010E499
:1040D0002CE135E440E050E86BEB74E40E94C31D32
:1040E0001F927F9219E1812E912CA12CB12C00E01E
:1040F00010E82BEB34E440E050E36CE175E428C1B8
:104100001F9283E08F9368E0862E912CA12CB12C16
:1041100076E6C72EDC2C76E8E72E7FE3F72E00E06C
:1041200010E82BEB35E440E050E06AEF74E4CE0198
:104130000E94C31D62E370E080E090E00E94E828E6
:104140001F9282E08F93EDE08E2E912CA12CB12C4A
:1041500000E010E02AEF34E440E058E76BEB75E450
:10416000F7C01F9228E0722E7F923FE0832E912CA1
:10417000A12CB12C46E6C42EDC2C46E8E42E4FE3FD
:10418000F42E00E010E02AEF34E440E050E86BEB5E
:1041900074E40E94C31D64E670E080E090E00E9439
:1041A000E8281F927F925AE0852E912CA12CB12CE9
:1041B00000E010E42CE135E440E050E86DEE74E4FA
:1041C000C7C01F9288EC8F9384E1882E912CA12C7C
:1041D000B12C9CE5C92E9FE8D92E92E8E92E9FE3E9
:1041E000F92E00E010E427E234E440E050E06CE512
:1041F00074E483C01F9282E08F93F8E08F2E912C9D
:10420000A12CB12CAAE0CA2EA7EDDA2EA3E8EA2E43
:10421000AFE3FA2E00E010E824ED34E440E050E093
:104220006AE774E4CE010E94C31D1F9283E08F935E
:10423000B8EBCB2EBEE1DB2EB5E8EB2EBFE3FB2EB9
:1042400000E010E02AEF33E440E050E664ED74E46F
:10425000CE010E94C31D1F928AE08F9319E0812E28
:10426000912CA12CB12C06E6C02EDC2C06E8E02E09
:104270000FE3F02E00E010E824ED34E440E050E0DD
:104280006AE774E4CE010E94C31D0F900F900F9057
:104290000F900F900F9063C01F928FE08F9372E08A
:1042A000872E912CA12CB12CECE5CE2EEFE8DE2E42
:1042B000E2E8EE2EEFE3FE2E00E010E82BE335E41B
:1042C00040E050E068EC74E418C01F9284E18F93E2
:1042D00052E0852E912CA12CB12C6CE5C62E6FE8F6
:1042E000D62E62E8E62E6FE3F62E00E010E82BEB08
:1042F00035E440E050E06AEF74E4CE010E94C31D53
:104300000F900F902CC01F9224E1722E7F9232E00A
:10431000832E912CA12CB12C4CE5C42E4FE8D42E29
:1043200042E8E42E4FE3F42E00E010E02AE735E403
:1043300040E050E068EC74E40E94C31D1F927F923D
:1043400000E010E82BE335E440E050E06AE775E474
:10435000CE010E94C31D0F900F900F900F90DF9120
:10436000CF911F910F91FF90EF90DF90CF90BF9072
:10437000AF909F908F907F9008952F923F924F9291
:104380005F926F927F928F929F92AF92BF92CF92E5
:10439000DF92EF92FF920F931F93CF93DF93CDB7EE
:1043A000DEB7CA57D1090FB6F894DEBF0FBECDBF36
:1043B0003C0188E0EFE7F2E0DE01A759BF4F019032
:1043C0000D928A95E1F788E0E7E8F2E0DE01AF5967
:1043D000BF4F01900D928A95E1F788E0EFE8F2E097
:1043E000DE01A75ABF4F01900D928A95E1F788E050
:1043F000E7E9F2E0DE01AF5ABF4F01900D928A95D6
:10440000E1F788E0EFE9F2E0DE01A75BBF4F019042
:104410000D928A95E1F788E0E7EAF2E0DE01AF5B12
:10442000BF4F01900D928A95E1F788E0EFEAF2E044
:10443000DE01D99601900D928A95E1F788E0E7EBCD
:10444000F2E0DE01D19601900D928A95E1F788E0C5
:10445000EFEBF2E0DE01999601900D928A95E1F77B
:1044600088E0E7ECF2E0DE01919601900D928A95EA
:10447000E1F788E0EFECF2E0DE01599601900D9251
:104480008A95E1F788E0E7EDF2E0DE0151960190D0
:104490000D928A95E1F788E0EFEDF2E0DE011996E2
:1044A00001900D928A95E1F788E0E7EEF2E0DE01F7
:1044B000119601900D928A95E1F76D30710508F023
:1044C000F4C5FB01E859FF4F0C94563682E090E0AA
:1044D000E7969FAF8EAFE79733C484E090E0E7960E
:1044E0009FAF8EAFE797D5C3FEE1EF2EF12C02E32D
:1044F00010E020E030E044EA50ED64E274E4C301EF
:104500000E94961D4AE050E060E070E0C3010E9406
:10451000FB1C6DE070E0C3010E94551E04E110E039
:1045200020E233E040E050E060E87FE3C3010E9416
:1045300054186DE070E076C14BE050E060E070E050
:10454000C3010E94FB1C6BE070E0C3010E94551E7A
:104550004CE050E060E070E0C3010E94FB1C04E10D
:1045600010E024EF31E040E050E060E87FE3C30179
:104570000E94A5184BE050E060E070E0C3010E948B
:10458000FB1C6CE070E0C3010E94551E4CE050E043
:1045900060E070E0C3010E94FB1C24EF31E040E0CA
:1045A00050E060E87FE3C3010E94A51804C346E120
:1045B00050E060E070E0C3010E94FB1CAE0147596F
:1045C0005F4F6CEB72E0C3010E9403141F9268EC12
:1045D000562E5F9274E1872E912CA12CB12CECE524
:1045E000CE2EEFE8DE2EE2E8EE2EEFE3FE2E00E028
:1045F00010E82FE434E440E050E06CE574E4C301DB
:104600000E94C31D48E150E060E070E0C3010E94D9
:10461000FB1C1F925F9200E010E825E434E440E0C8
:1046200050E86FE474E4C3010E94C31D47E150E009
:1046300060E070E0C3010E94FB1C1F925F9200E0EB
:1046400010E029E334E440E050E865E474E4C30199
:104650000E94C31D48E150E060E070E0C3010E9489
:10466000FB1C1F925F9200E010E02FE234E440E078
:1046700050E069E374E4C3010E94C31D47E150E0C8
:1046800060E070E0C3010E94FB1C1F925F9200E09B
:1046900010E427E234E440E050E06FE274E4C30148
:1046A0000E94C31D46E150E060E070E0C3010E943B
:1046B000FB1C64EF71E080E090E00E94E828C301F9
:1046C0000E9460166CE271E080E090E00E94E828B1
:1046D00007C2AE014F595F4F6CEB72E0C3010E94FD
:1046E000031444E0442E512C5AE0352E2224239406
:1046F00020E030E041E050E060E070E0C3010E9463
:104700007F1D1F923F922AE0822E912CA12CB12C6A
:1047100038EBC32E3EE1D32E35E8E32E3FE3F32EF4
:1047200000E010E028E433E440E050E068EC72E49C
:10473000C3010E94C31D21E030E041E050E060E091
:1047400070E0C3010E947F1D1F923F9200E010E0C5
:1047500026E933E440E050E068E473E4C3010E94DA
:10476000C31D22E030E041E050E060E070E0C301B2
:104770000E947F1D1F923F9200E010E02AEF33E479
:1047800040E050E066E973E4C3010E94C31D64EF9A
:1047900071E080E090E00E94E82821E030E041E014
:1047A00050E060E070E0C3010E947F1D1F922F92D5
:1047B00000E010E02AE733E440E050E068EC73E406
:1047C000C3010E94C31D20E030E041E050E060E002
:1047D00070E0C3010E947F1D1F922F9200E010E045
:1047E00028EC32E440E050E06AE773E4C3010E9441
:1047F000C31D64EF71E080E090E00E94E82891E042
:10480000491A51080FB6F894DEBF0FBECDBF09F0AC
:104810006FCF43E150E060E070E0C3010E94FB1CF9
:1048200069E070E0C3010E94551EC5C1AE01475A40
:104830005F4F64EF71E0C3010E9403146CE271E00A
:1048400080E090E00E94E82843E150E060E070E002
:10485000C3010E94FB1C60E170E0C3010E94551E71
:1048600040E150E060E070E0C3010E94FB1C6AEF91
:1048700070E080E090E00E94E828AE014F5A5F4F60
:1048800064EF71E0C3010E9403146CE271E080E008
:1048900090E00E94E82843E150E060E070E0C3014E
:1048A0000E94FB1C61E170E0C3010E94551E40E1C3
:1048B00050E060E070E0C3010E94FB1C6AEF70E012
:1048C00080E090E00E94E828AE01475B5F4F64EF14
:1048D00071E0C3010E9403146CE271E080E090E09B
:1048E0000E94E82843E150E060E070E0C3010E94CC
:1048F000FB1C62E170E0C3010E94551E40E150E0E4
:1049000060E070E0C3010E94FB1C6CE271E080E09B
:1049100090E00E94E828C3010E94601664EF71E0F5
:1049200080E090E048C3AE014F5B5F4F6CE271E006
:10493000C3010E94031444E150E060E070E0C30151
:104940000E94FB1C6FE070E0C3010E94551E2DC148
:104950004DE050E060E070E0C3010E94FB1C69E0A4
:1049600070E0C3010E94551EEE24E394F12C0FE089
:1049700010E02CED35E040E050E060E070E4C30171
:104980000E94EB18C3010E9460166DE070E0C30145
:104990000E94551E83C3AE01475C5F4F6CE271E01D
:1049A000C3010E9403144EE150E060E070E0C301D7
:1049B0000E94FB1CFEE1EF2EF12C04E610E020E04B
:1049C00030E040E050E06CE574E4C3010E94961DC5
:1049D0001F92A4E05A2E5F92B7E08B2E912CA12C4F
:1049E000B12C1CE5C12E1FE8D12E12E8E12E1FE3E9
:1049F000F12E0FE115ED22E934E440E050E06CE5E2
:104A000074E4C3010E94C31D1F92442443944F9237
:104A10000AE0802E912CA12CB12C0CE51FEF23EC89
:104A200034E44FE155ED62E974E4C3010E94C31D13
:104A30001F924F9200E010E02CE534E44CE55FEF6C
:104A400063EC74E4C3010E94C31D6FE070E080E07A
:104A500090E00E94E8281F925F9284E1882E912CBA
:104A6000A12CB12C04EA10ED24E234E440E050E043
:104A70006CE574E4C3010E94C31D60E971E080E04D
:104A800090E00E94E828AE014F5C5F4F68EC70E058
:104A9000C3010E9403141F925F920FE115ED22E9FA
:104AA00034E440E050E06CE574E4C3010E94C31DAF
:104AB000AE01475D5F4F68EC70E0C3010E940314D4
:104AC0001F925F9204EA10ED24E234E440E050E0EB
:104AD0006CE574E4C3010E94C31DC3010E9460160B
:104AE0004BE050E060E070E0C3010E94FB1C0FB699
:104AF000F894DEBF0FBECDBFD8C24EE150E060E0FB
:104B000070E0C3010E94FB1C1F9264E0562E5F926E
:104B100074E1872E912CA12CB12CECE5CE2EEFE880
:104B2000DE2EE2E8EE2EEFE3FE2E0FE115ED22E998
:104B300034E440E050E06CE574E4C3010E94C31D1E
:104B40001F925F9204EA10ED24E234E440E050E06A
:104B50006CE574E4C3010E94C31D6CE271E080E067
:104B600090E00E94E82843E150E060E070E0C3017B
:104B70000E94FB1C0F900F900F900F9004E010E02C
:104B8000AE014F5D5F4F64E670E0C3010E94031405
:104B9000C3010E9460160150110991F74EE150E0E7
:104BA00060E070E0C3010E94FB1C64EF71E080E0F4
:104BB00090E00E94E828C3010E9460166FC2C30102
:104BC0000E94F2111F928AE08F9300E010E829E81A
:104BD00034E4EB964CAD5DAD6EAD7FADEB97C301AC
:104BE0000E94C31D0F900F90412C512C920142E066
:104BF00050E060E070E0C3010E947F1DB1016C597C
:104C00007F4F882777FD8095982F0E943334E59653
:104C10006CAF7DAF8EAF9FAFE597B101882777FD71
:104C20008095982F0E943334AB01BC011F929AE00B
:104C30009F932AE0822E912CA12CB12C38EBC32E0D
:104C40003EE1D32E35E8E32E3FE3F32EE5960CAD9F
:104C50001DAD2EAD3FADE597C3010E94C31D84E697
:104C6000281A31089FEF491A590A0F900F9080E9CE
:104C7000281681E0380609F0B9CFE7968EAD9FADD2
:104C8000E7970197E7969FAF8EAFE797892B09F4D7
:104C90008EC1E3961FAE1EAEE39700E911E0E396E6
:104CA0002EAD3FADE39742E050E060E070E0C3011D
:104CB0000E947F1D180194E6290E311CB801882737
:104CC00077FD8095982F0E943334EB966CAF7DAFC3
:104CD0008EAF9FAFEB97B101882777FD8095982F16
:104CE0000E9433348B019C011F928AE08F934AE02B
:104CF000842E912CA12CB12C58EBC52E5EE1D52E23
:104D000055E8E52E5FE3F52EEB964CAD5DAD6EAD4F
:104D10007FADEB97C3010E94C31DE3968EAD9FAD9F
:104D2000E3970196E3969FAF8EAFE3970F900F90B6
:104D300098EE291693E0390609F441CF8101AFCFEF
:104D4000212C312C64EF462E55245394910143E0DD
:104D500050E060E070E0C3010E947F1DB2016C5919
:104D60007F4F882777FD8095982F0E943334E596F2
:104D70006CAF7DAF8EAF9FAFE597B201882777FD0F
:104D80008095982F0E943334AB01BC011F929AE0AA
:104D90009F938AE0882E912CA12CB12C9CE5C92EE2
:104DA0009FE8D92E92E8E92E9FE3F92EE5960CAD07
:104DB0001DAD2EAD3FADE597C3010E94C31D85E635
:104DC000480E511C9FEF291A390A0F900F9086EE5A
:104DD000481685E0580609F0B9CF212C312C9101F5
:104DE00043E050E060E070E0C3010E947F1DB2012B
:104DF0006C597F4F882777FD8095982F0E94333418
:104E0000E5966CAF7DAF8EAF9FAFE597B201882777
:104E100077FD8095982F0E943334AB01BC011F921F
:104E20009AE09F931AE0812E912CA12CB12C0CE5D5
:104E3000C02E0FE8D02E02E8E02E0FE3F02EE5960C
:104E40000CAD1DAD2EAD3FADE597C3010E94C31D56
:104E500085E6480E511C9FEF291A390A0F900F90D2
:104E600088ED481689E0580609F0B9CF212C312C7D
:104E7000910143E050E060E070E0C3010E947F1DBB
:104E8000B20164567109882777FD8095982F0E949A
:104E90003334E5966CAF7DAF8EAF9FAFE597B2012F
:104EA000882777FD8095982F0E943334AB01BC0191
:104EB0001F929AE09F93AAE08A2E912CA12CB12CEC
:104EC000BCE5CB2EBFE8DB2EB2E8EB2EBFE3FB2E1A
:104ED000E5960CAD1DAD2EAD3FADE597C3010E942B
:104EE000C31D85E6481A51089FEF291A390A0F9009
:104EF0000F9086EE481685E0580609F0B9CF212CB0
:104F0000312C910143E050E060E070E0C3010E9469
:104F10007F1DB20164567109882777FD8095982F0F
:104F20000E943334E5966CAF7DAF8EAF9FAFE597AF
:104F3000B201882777FD8095982F0E943334AB010A
:104F4000BC011F929AE09F93EAE08E2E912CA12C37
:104F5000B12CFCE5CF2EFFE8DF2EF2E8EF2EFFE3C9
:104F6000FF2EE5960CAD1DAD2EAD3FADE597C3010F
:104F70000E94C31D85E6481A51089FEF291A390A75
:104F80000F900F9084EF481681E0580609F0B9CFD2
:104F9000E7968EAD9FADE7970197E7969FAF8EAFEF
:104FA000E797892B09F0CCCEC3010E94F2116CE285
:104FB00071E080E090E00E94E82870C047E150E096
:104FC00060E070E0C3010E94FB1CAE01475E5F4FD2
:104FD0006CE271E0C3010E940314E12CF12C08EC97
:104FE00010E020E030E040E050E061E674E4C3010E
:104FF0000E94961D48E150E060E070E0C3010E940D
:10500000FB1CAE014F5E5F4F6CE271E0C3010E947A
:10501000031408EC10E020E030E040E050E066E1EE
:1050200074E4C3010E94961D44E150E060E070E02A
:10503000C3010E94FB1CAE01475F5F4F6CE271E051
:10504000C3010E94031408EC10E020E030E040E0CF
:1050500050E066E973E4C3010E94961DAE014F5F04
:105060005F4F6CE271E0C3010E9403144AE150E01B
:1050700060E070E0C3010E94FB1CC3010E94BC13EE
:1050800008E918E020E030E040E050E066E173E439
:10509000C3010E94961DC3010E94F2114BE050E033
:1050A00060E070E0C3010E94FB1CC658DF4F0FB6E2
:1050B000F894DEBF0FBECDBFDF91CF911F910F914E
:1050C000FF90EF90DF90CF90BF90AF909F908F9028
:1050D0007F906F905F904F903F902F9008951F9218
:1050E0000F920FB60F9211242F933F938F939F939C
:1050F000AF93BF938091C1069091C206A091C30661
:10510000B091C4063091C00623E0230F2D3720F460
:105110000196A11DB11D05C026E8230F0296A11D11
:10512000B11D2093C0068093C1069093C206A09340
:10513000C306B093C4068091C5069091C606A0919F
:10514000C706B091C8060196A11DB11D8093C50682
:105150009093C606A093C706B093C806BF91AF91BF
:105160009F918F913F912F910F900FBE0F901F90A5
:1051700018952FB7F8946091C1067091C20680917E
:10518000C3069091C4062FBF08953FB7F89480914D
:10519000C5069091C606A091C706B091C80626B56F
:1051A000A89B05C02F3F19F00196A11DB11D3FBF5F
:1051B0006627782F892F9A2F620F711D811D911DEF
:1051C00042E0660F771F881F991F4A95D1F708950F
:1051D000CF92DF92EF92FF92CF93DF936B017C012E
:1051E0000E94C528EB01C114D104E104F10489F047
:1051F0000E942E330E94C5286C1B7D0B683E7340B5
:1052000090F381E0C81AD108E108F108C851DC4FD9
:10521000EACFDF91CF91FF90EF90DF90CF9008958C
:10522000019739F0880F991F880F991F02970197EE
:10523000F1F70895789484B5826084BD84B5816067
:1052400084BD85B5826085BD85B5816085BDEEE68E
:10525000F0E0808181608083E1E8F0E0108280816D
:1052600082608083808181608083E0E8F0E08081DB
:1052700081608083E1EBF0E0808184608083E0EBFB
:10528000F0E0808181608083EAE7F0E080818460E3
:10529000808380818260808380818160808380813F
:1052A000806880831092C10008958E3008F08E507F
:1052B00087702091090190E4299F90011124822B8D
:1052C00080937C0080917A00806480937A00809142
:1052D0007A0086FDFCCF809178002091790090E0E3
:1052E000922B0895833081F028F4813099F0823038
:1052F000A1F008958730A9F08830B9F08430D1F456
:10530000809180008F7D03C0809180008F77809393
:105310008000089584B58F7702C084B58F7D84BDE9
:1053200008958091B0008F7703C08091B0008F7D89
:105330008093B0000895CF93DF9390E0FC01E35990
:10534000FE4F2491FC01EF57FE4F8491882349F1D1
:1053500090E0880F991FFC01E755FE4FA591B4918D
:1053600081569E4FFC01C591D4919FB7611108C031
:10537000F8948C91209582238C93888182230AC093
:10538000623051F4F8948C91322F309583238C93B2
:105390008881822B888304C0F8948C91822B8C9313
:1053A0009FBFDF91CF9108950F931F93CF93DF930A
:1053B0001F92CDB7DEB7282F30E0F901E75AFE4F34
:1053C0008491F901E359FE4F1491F901EF57FE4F13
:1053D00004910023C9F0882321F069830E94722977
:1053E0006981E02FF0E0EE0FFF1FE156FE4FA5911F
:1053F000B4919FB7F8948C91611103C010958123EB
:1054000001C0812B8C939FBF0F90DF91CF911F9193
:105410000F910895CF92DF92EF92FF920F931F9317
:10542000CF93DF9390E0FC01E359FE4FD491FC0150
:10543000EF57FE4F7491611102C0C0E001C0CD2F43
:10544000DA01C901BF70672F70E0660F771F6B56D6
:105450007E4F00E010E09801FB01E590F490F70129
:1054600040814D234C131EC0680179014FEFC41ACF
:10547000D40AE40AF40A081719072A073B0709F4B3
:1054800042C097018601E8CF68017901FFEFCF1A8A
:10549000DF0AEF0AFF0A081719072A073B0799F1E5
:1054A00097018601FB01E590F490F70140814D23BF
:1054B0004C13EACF801B910BA20BB30B20E030E022
:1054C000A901FB01E590F490F701F080FD22FC12A8
:1054D0000AC0281739074A075B07A9F02F5F3F4F1B
:1054E0004F4F5F4FEECFA8E1B0E00E945C36605FA7
:1054F0007F4F8F4F9F4F24E09695879577956795BF
:105500002A95D1F703C060E070E0CB01DF91CF9125
:105510001F910F91FF90EF90DF90CF900895FC01C5
:10552000818D228D90E0805C9F4F821B91098F734B
:1055300099270895FC01918D828D981731F0828D05
:10554000E80FF11D858D90E008958FEF9FEF08958E
:10555000FC01918D828D981761F0828DDF01A80F7B
:10556000B11D5D968C91928D9F5F9F73928F90E09D
:1055700008958FEF9FEF08958CE29CE2892B49F00C
:1055800080E090E0892B29F00E942C2C81110C9452
:1055900000000895FC01848DDF01A80FB11DA35AFE
:1055A000BF4F2C91848D90E001968F739927848F43
:1055B000A689B7892C93A089B1898C9180648C933A
:1055C000938D848D981306C00288F389E02D808125
:1055D0008F7D80830895CF93DF93EC01888D88239E
:1055E000C9F0EA89FB89808185FD05C0A889B98950
:1055F0008C9186FD0FC00FB607FCF5CF808185FF2B
:10560000F2CFA889B9898C9185FFEDCFCE010E9498
:10561000CA2AE7CFDF91CF910895CF92DF92FF9210
:105620000F931F93CF93DF931F92CDB7DEB76C011B
:10563000DC015B969C915B975C968C915C979813D0
:1056400007C05096ED91FC915197808185FD32C045
:10565000F601038D10E00F5F1F4F0F731127F02E1F
:10566000F601848DF81211C00FB607FCF9CFD601F0
:105670005096ED91FC915197808185FFF1CFC60145
:1056800069830E94CA2A6981EBCF838DE80FF11DDF
:10569000E35AFF4F6083D6015B960C935B9752965B
:1056A000ED91FC91539780818062808381E05896D0
:1056B0008C930DC0D6015696ED91FC91579760835F
:1056C0005096ED91FC91519780818064808381E0B8
:1056D00090E00F90DF91CF911F910F91FF90DF909D
:1056E000CF900895BF92CF92DF92EF92FF92CF9327
:1056F000DF93EC016A017B01B22EE889F98982E02F
:105700008083411581EE580761057105A1F060E0C5
:1057100079E08DE390E0A70196010E9415362150B3
:105720003109410951095695479537952795211516
:1057300080E1380798F0E889F989108260E874E818
:105740008EE190E0A70196010E94153621503109A3
:10575000410951095695479537952795EC85FD8563
:105760003083EE85FF852083188EEC89FD89B08219
:10577000EA89FB89808180618083EA89FB89808155
:1057800088608083EA89FB89808180688083EA89D8
:10579000FB8980818F7D8083DF91CF91FF90EF9097
:1057A000DF90CF90BF9008951F920F920FB60F9287
:1057B00011242F938F939F93EF93FF93E091D9063A
:1057C000F091DA068081E091DF06F091E00682FD3B
:1057D00012C090818091E2068F5F8F732091E30663
:1057E000821751F0E091E206F0E0E753F94F958F10
:1057F0008093E20601C08081FF91EF919F918F918C
:105800002F910F900FBE0F901F9018951F920F921F
:105810000FB60F9211242F933F934F935F936F9383
:105820007F938F939F93AF93BF93EF93FF9389ECF5
:1058300096E00E94CA2AFF91EF91BF91AF919F918C
:105840008F917F916F915F914F913F912F910F9029
:105850000FBE0F901F90189589EC96E00E948F2A3A
:1058600021E0892B09F420E0822F08951092CC06C4
:105870001092CB0688EE93E0A0E0B0E08093CD06D6
:105880009093CE06A093CF06B093D0068BE193E021
:105890009093CA068093C90685EC90E09093D60653
:1058A0008093D50684EC90E09093D8068093D70639
:1058B00080EC90E09093DA068093D90681EC90E03A
:1058C0009093DC068093DB0682EC90E09093DE06FA
:1058D0008093DD0686EC90E09093E0068093DF06EF
:1058E0001092E2061092E3061092E4061092E5068A
:1058F000089508950E941A290E94792C0E94120787
:10590000CCEBDAE20E949B0B2097E1F30E94BC2AC9
:10591000F9CFCF92DF92EF92FF920F931F93CF9325
:10592000DF936C017A01EB01E60EF71E00E010E058
:10593000CE15DF0561F06991D601ED91FC910190E2
:10594000F081E02DC6010995080F191FF1CFC8019C
:10595000DF91CF911F910F91FF90EF90DF90CF904B
:1059600008956115710581F0DB010D900020E9F7C4
:10597000AD0141505109461B570BDC01ED91FC91E3
:105980000280F381E02D099480E090E00895EF9289
:10599000FF920F931F93CF93DF938C01FB01C0E025
:1059A000D0E064917F018FEFE81AF80A662361F076
:1059B000D801ED91FC910190F081E02DC80109958D
:1059C000C80FD91FF701EDCFCE01DF91CF911F9105
:1059D0000F91FF90EF9008950C94B12CDC01ED91A4
:1059E000FC910190F081E02D09940F931F93CF93C8
:1059F000DF93EC016DE00E94EE2C8C016AE0CE0199
:105A00000E94EE2C800F911FDF91CF911F910F917B
:105A100008950F931F93CF93DF93EC010E94C72C3F
:105A20008C01CE010E94F52C800F911FDF91CF9148
:105A30001F910F9108958F929F92AF92BF92CF9234
:105A4000DF92EF92FF920F931F93CF93DF93CDB727
:105A5000DEB7A1970FB6F894DEBF0FBECDBF7C01B5
:105A6000C42EE52FCB01D22E19A221E02D1510F066
:105A70002AE0D22E8E010F5D1F4F8D2C912CA12C70
:105A8000B12C6C2D7E2FA50194010E9415368C2D12
:105A9000D29E80191124015011098A3014F4805DBE
:105AA00001C0895CF801808321153105410551054C
:105AB00021F0C22EE32FCA01E4CFB801C7010E9432
:105AC000B12CA1960FB6F894DEBF0FBECDBFDF910B
:105AD000CF911F910F91FF90EF90DF90CF90BF90EB
