:100000000C94D8000C9496020C94BD020C94E4025B
:100010000C9447030C94AA030C9400010C94712FC8
:100020000C9400010C9400010C9400010C94480EF7
:100030000C9400010C9400010C9400010C9400013C
:100040000C94E9260C9400010C944E2A0C94802AFE
:100050000C9400010C9400010C9400010C9400011C
:100060000C9400010C9400012D0430043C043F0466
:100070004B04590461047204800488049904A604A2
:10008000AE04BF04CD04D004DC04DF04EB04F904A7
:100090001D0E200E230E260E290E2C0E2F0E320EB4
:1000A000350E380E3B0E3E0E410E391D601D8B1D68
:1000B000C41DDD1DF61D1C1E501E891EC21EF61E0F
:1000C000231F4D1F7E1FAE1FC71F19203220502037
:1000D00054217C21B7214922F62273238823AB23A4
:1000E0005D2446213F21C326C32605A84CCDB2D4AA
:1000F0004EB93836A9020C50B9918688083CA6AA98
:10010000AA2ABE000000803F2525004100262600C7
:10011000252500492000262600252500422000260E
:1001200026002525004E20002626002525004420F7
:100130000026260025250045200026260000010275
:10014000030405060700010203040500010203047D
:100150000500000008000201000003040700000081
:100160000000000000010204081020408001020489
:1001700008102001020408102004040404040404EC
:10018000040202020202020303030303030000004D
:100190000023002600290000000000250028002B75
:1001A0000000000000240027002A0002A806B02A50
:1001B00011241FBECFEFD8E0DEBFCDBF13E0A0E01B
:1001C000B1E0E8ECFDE602C005900D92A631B10762
:1001D000D9F727E0A6E1B3E001C01D92A435B2072C
:1001E000E1F711E0C0EBD1E004C02297FE010E94CC
:1001F000B834CC3AD107C9F70E94F42A0C94E236FD
:100200000C94000081E080931F03909120039111D2
:100210000BC08093200321E04FE050E060E070E0ED
:1002200085E293E00C94581C089581E080931E03AE
:100230009091200391110BC08093200321E04FE0A7
:1002400050E060E070E085E293E00C94581C089563
:10025000EF92FF920F931F93CF93DF931F92CDB72F
:10026000DEB77C01FC0100811181C80169830E9415
:10027000C1366981681719F0C8010E94C936C701E3
:100280000F90DF91CF911F910F91FF90EF90089504
:10029000A82FAF7787FD05C08EEF8A0F823008F454
:1002A00099C0B0E0FD01EB59FE4F2491FD01E758E4
:1002B000FE4F8491942F9D7F9130B9F4823031F4B8
:1002C00090915E06922B90935E060FC0833031F4BE
:1002D00090914F06922B90934F0607C0843029F4DB
:1002E00090913C06922B90933C0641504230B8F4DA
:1002F000823031F490915D06922B90935D060FC091
:10030000833031F490914E06922B90934E0607C0A5
:10031000843029F490913B06922B90933B06FD018B
:10032000E35CFE4FA4918230C1F4B0E0AA0FBB1F82
:10033000A15AB94F6D937C93E1E9F1E0A591B49195
:100340008C9180935C068BE690E09093700680938E
:100350006F0680916800816033C08330C1F4B0E0E3
:10036000AA0FBB1FA05BB94F6D937C93E3E9F1E04B
:10037000A591B4918C9180934D068CE690E090937A
:10038000700680936F0680916800826019C0843087
:10039000C9F4B0E0AA0FBB1FA35CB94F6D937C9367
:1003A000E5E9F1E0A591B4918C9180933A068DE650
:1003B00090E09093700680936F068091680084604F
:1003C00080936800A0916F06B09170068C91822B8B
:1003D0008C9316C09FB7F894A230B1F470936C065A
:1003E00060936B06E898809169008C7F8093690028
:1003F00080916900842B80936900E09AE89A9FBFFE
:100400008FB780688FBF089570936E0660936D06F6
:10041000E99880916900837F8093690080916900E9
:1004200024E0429FA0011124842B80936900E19A6B
:10043000E99AE5CF3FB7F894982F9F7787FD05C0DD
:100440008EEF890F823008F45EC0892F90E0FC01A6
:10045000EB59FE4F2491FC01E758FE4F8491823006
:10046000D1F480916B002095822380936B00809162
:100470006B00811105C0809168008E7F80936800B9
:1004800080915E06822380935E0680915D068223C2
:1004900080935D0641C08330D1F480916C0020953B
:1004A000822380936C0080916C00811105C0809143
:1004B00068008D7F8093680080914F06822380932F
:1004C0004F0680914E06822380934E0625C08430CD
:1004D00019F580916D002095822380936D008091A5
:1004E0006D00811105C0809168008B7F809368004A
:1004F00080913C06822380933C0680913B068223B8
:1005000080933B0609C0923049F4E89880916900D5
:100510008C7F80936900E09A3FBF0895E9988091AD
:100520006900837F80936900E19AF6CF1F920F9252
:100530000FB60F9211242F933F934F935F936F93B6
:100540007F938F939F93AF93BF93EF93FF93E0912C
:100550006B06F0916C060995FF91EF91BF91AF91F9
:100560009F918F917F916F915F914F913F912F91CB
:100570000F900FBE0F901F9018951F920F920FB6FD
:100580000F9211242F933F934F935F936F937F9319
:100590008F939F93AF93BF93EF93FF93E0916D067B
:1005A000F0916E060995FF91EF91BF91AF919F91E8
:1005B0008F917F916F915F914F913F912F910F900C
:1005C0000FBE0F901F9018951F920F920FB60F92AB
:1005D00011242F933F934F935F936F937F938F9348
:1005E0009F93AF93BF93CF93EF93FF9393B1C0913A
:1005F0005C0620915E0630915D06892F80958323ED
:100600002923822B20916B00C927C223C8239093F2
:100610005C06CC2351F1C0FF05C0E0915F06F0916C
:1006200060060995C1FF05C0E0916106F091620680
:100630000995C2FF05C0E0916306F0916406099533
:10064000C3FF05C0E0916506F09166060995C4FFF9
:1006500005C0E0916706F09168060995C5FF05C0E1
:10066000E0916906F0916A060995FF91EF91CF91AB
:10067000BF91AF919F918F917F916F915F914F91BA
:100680003F912F910F900FBE0F901F9018951F92C2
:100690000F920FB60F9211242F933F934F935F93B6
:1006A0006F937F938F939F93AF93BF93CF93EF936A
:1006B000FF9396B1C0914D0620914F0630914E06A2
:1006C000892F809583232923822B20916C00C927B1
:1006D000C223C82390934D06CC2351F1C0FF05C01F
:1006E000E0915006F09151060995C1FF05C0E091D7
:1006F0005206F09153060995C2FF05C0E0915406D9
:10070000F09155060995C3FF05C0E0915606F0919A
:1007100057060995C4FF05C0E0915806F0915906A7
:100720000995C5FF05C0E0915A06F0915B06099551
:10073000FF91EF91CF91BF91AF919F918F917F9159
:100740006F915F914F913F912F910F900FBE0F903E
:100750001F9018951F920F920FB60F9211242F938E
:100760003F934F935F936F937F938F939F93AF9339
:10077000BF93CF93EF93FF9399B1C0913A06209125
:100780003C0630913B06892F809583232923822BB9
:1007900020916D00C927C223C82390933A06CC2329
:1007A000C1F1C0FF05C0E0913D06F0913E060995FC
:1007B000C1FF05C0E0913F06F09140060995C2FFD8
:1007C00005C0E0914106F09142060995C3FF05C0BE
:1007D000E0914306F09144060995C4FF05C0E091FD
:1007E0004506F09146060995C5FF05C0E09147060C
:1007F000F09148060995C6FF05C0E0914906F091C1
:100800004A060995C7FF05C0E0914B06F0914C06DA
:100810000995FF91EF91CF91BF91AF919F918F91EA
:100820007F916F915F914F913F912F910F900FBEEC
:100830000F901F901895EF92FF920F931F930197BF
:100840008431910508F0E2C08C5C9F4F4091080113
:1008500050910901FC010C94B63401E010E002C093
:100860000FEF1FEF9A0140E050E060E87FE385E280
:1008700093E00E94A215CAC001E010E002C00FEF91
:100880001FEF9A0140E050E060E87FE385E293E0EB
:100890000E941216BBC000910401109105019A013B
:1008A00040E050E060E87FE385E293E00E946E164E
:1008B000ADC00091040110910501EE24E394F12CE8
:1008C00007C00091040110910501EE24EA94FE2C6A
:1008D0009A0140E050E060E87FE385E293E00E9407
:1008E000B81694C000910401109105019A0140E0EE
:1008F00050E060E87FE385E293E00E946A1786C0DB
:100900000091040110910501EE24E394F12C07C03D
:100910000091040110910501EE24EA94FE2C9A0145
:1009200040E050E060E87FE385E293E00E94011838
:100930006DC09A0140E050E060E87FE385E293E01B
:100940001F910F91FF90EF900C94A2180091040159
:1009500010910501EE24E394F12C07C000910401ED
:1009600010910501EE24EA94FE2C9A0140E050E03B
:1009700060E87FE385E293E00E94DF1847C00091C2
:100980000401109105019A0140E050E060E87FE326
:1009900085E293E00E94BB1739C021E030E002C03D
:1009A0002FEF3FEF61E070E085E293E01F910F9140
:1009B000FF90EF900C94481A21E030E002C02FEF36
:1009C0003FEF61E070E085E293E01F910F91FF90AF
:1009D000EF900C948D1900910401109105019A017A
:1009E00040E050E060E87FE385E293E00E94E71A90
:1009F0000DC000910401109105019A0140E050E002
:100A000060E87FE385E293E00E942F1B1F910F9126
:100A1000FF90EF9008958F929F92AF92BF92CF92E6
:100A2000DF92EF92FF920F931F93CF9385E293E0B3
:100A30000E948A2020E030E048E452E40E94F43131
:100A400087FF54C0C3E08091200381114FC021E093
:100A50004CE150E060E070E085E293E00E94581CB9
:100A60001F92CF9318E0812E912CA12CB12C08EB72
:100A7000C02E0EE1D02E05E8E02E0FE3F02E00E0B0
:100A800010E02AEF34E440E050E06CE574E485E2E5
:100A900093E00E94901C6EE170E080E090E00E9484
:100AA00062271F92CF938CE5C82E8FE8D82E82E85C
:100AB000E82E8FE3F82E00E010E02CE534E440E06F
:100AC00050E06AEF74E485E293E00E94901C85E2B6
:100AD00093E00E945F1C64EF71E080E090E00E9470
:100AE00062270F900F900F900F90ADCFCF911F9175
:100AF0000F91FF90EF90DF90CF90BF90AF909F90BD
:100B00008F9008954F925F926F927F928F929F92F3
:100B1000AF92BF92CF92DF92EF92FF920F931F930B
:100B2000CF93DF93CDB7DEB728970FB6F894DEBF2B
:100B30000FBECDBF88E0E9E1F1E0DE011196019042
:100B40000D928A95E1F780912003811109C0AE01D1
:100B50004F5F5F4F60E273E085E293E00E942713EE
:100B600034E0632E712C4AE0542E44244394809147
:100B700020038823A1F0809120038111C1C021E0CE
:100B800043E150E060E070E085E293E00E94581C91
:100B900069E070E085E293E00E94221DB1C020E090
:100BA00030E041E050E060E070E085E293E00E94D8
:100BB000461C1F925F929AE0892E912CA12CB12C99
:100BC00028EBC22E2EE1D22E25E8E22E2FE3F22EC4
:100BD00000E010E028E433E440E050E068EC72E428
:100BE00085E293E00E94901C809120030F900F906B
:100BF0008111C1CF21E030E041E050E060E070E0E1
:100C000085E293E00E94461C1F925F9200E010E094
:100C100026E933E440E050E068E473E485E293E0E1
:100C20000E94901C809120030F900F908111A3CF00
:100C300022E030E041E050E060E070E085E293E0E7
:100C40000E94461C1F925F9200E010E02AEF33E4FE
:100C500040E050E066E973E485E293E00E94901C76
:100C600064EF71E080E090E00E94622780912003B1
:100C70000F900F9081117FCF21E030E041E050E0F4
:100C800060E070E085E293E00E94461C1F924F9264
:100C900000E010E02AE733E440E050E068EC73E461
:100CA00085E293E00E94901C809120030F900F90AA
:100CB000811161CF20E030E041E050E060E070E081
:100CC00085E293E00E94461C1F924F9200E010E0E4
:100CD00028EC32E440E050E06AE773E485E293E018
:100CE0000E94901C64EF71E080E090E00E94622717
:100CF00081E0681A71080F900F9009F038CF3BCF50
:100D000085E293E00E947F1580912003811109C044
:100D100021E04BE050E060E070E085E293E00E946B
:100D2000581C28960FB6F894DEBF0FBECDBFDF91DA
:100D3000CF911F910F91FF90EF90DF90CF90BF90D8
:100D4000AF909F908F907F906F905F904F9008959D
:100D5000CF93DF9381E094E00E944B1085E293E013
:100D60000E94C811C6E2D3E0CE010E94040F188A87
:100D70001F86A99683E0CA3CD807B1F78AEC93E0B6
:100D80000E9423122CE04DE06BE08EEC93E0DF91AB
:100D9000CF910C9493110F931F93CF93DF9380EA1D
:100DA00096E00E940929181619063CF48091210347
:100DB00090912203049709F0C5C1809120038823F4
:100DC00041F185E293E00E947F1564E670E080E0E7
:100DD00090E00E94622762E070E085E293E00E946A
:100DE000221D68EC70E080E090E00E946227809114
:100DF0001F03882309F4BCC180911E038111B8C16F
:100E000081E090E0909322038093210363E070E0FF
:100E1000F7C100912103109122030230110509F45A
:100E200087C03CF40115110569F00130110559F135
:100E300082C10330110509F407C10430110509F41A
:100E400065C179C10E94332700911A0310911B03D9
:100E500020911C0330911D03601B710B820B930BBF
:100E6000603878438140910508F4CFC10E94820523
:100E70000E94332760931A0370931B0380931C0313
:100E800090931D03C2C125E130E040E050E065E0F1
:100E900070E080E090E00E94F92F70931903609356
:100EA00018036F5071096430710538F410931703FB
:100EB0000093160380E496E010C026E030E040E0A6
:100EC00050E063E070E080E090E00E94F92F7093C2
:100ED00017036093160388EE93E0909309018093C3
:100EE000080125E130E040E050E06AE070E080E099
:100EF00090E00E94F92FAB01BC0121E085E293E074
:100F00000E94581CC0E0D0E0809116039091170316
:100F1000C817D9070CF079C1809118039091190373
:100F20000E941B048091200381116FC12196ECCF98
:100F300085E293E00E94811B20E030E040E751E42D
:100F40000E94F43118160CF472C0809120038111B4
:100F50000FC021E04EE050E060E070E085E293E0F9
:100F60000E94581C66E070E085E293E00E94221D1A
:100F70008091200381110AC024EF31E040E050E06D
:100F800060EA70E485E293E00E94A2188091200359
:100F900081110FC021E044E150E060E070E085E2A3
:100FA00093E00E94581C69E070E085E293E00E94A3
:100FB000221DC3E0D0E0809120038823A1F080911E
:100FC000200381111FC021E04AE050E060E070E0A2
:100FD00085E293E00E94581C6DE070E085E293E0AA
:100FE0000E94221D0FC00FEF1FEF24E135E040E00B
:100FF00050E060E87FE385E293E00E94A21521972C
:10100000D1F6DDCFC3E0D0E08091200381116DC027
:1010100001E010E024E135E040E050E060E87FE3EB
:1010200085E293E00E941216219771F75EC001E0FD
:1010300010E028EE33E040E050E060E87FE385E236
:1010400093E00E94A215E1C085E293E00E94851B17
:1010500020E030E840E454E40E94433387FDD5C0EB
:1010600062E370E080E090E00E94622780912003BC
:1010700081113BC021E04EE050E060E070E085E28D
:1010800093E00E94581C67E070E085E293E00E94C4
:10109000221D809120038111B8C025E130E040E09D
:1010A00050E06AE070E080E090E00E94F92FAB0130
:1010B000BC0121E085E293E00E94581C24E130E06D
:1010C00040E050E061E070E080E090E00E94F92FA5
:1010D000CB010E941B0485E293E00E947F1562E32E
:1010E00070E080E090E00E946227809120038111EF
:1010F0008CC021E04BE050E060E070E085E293E0DE
:10110000DF91CF911F910F910C94581C81E094E0D6
:101110000E9498108091060190910701892B09F097
:1011200074C08091230390912403DF91CF911F918C
:101130000F910C941B0484E090E090932203809321
:10114000210363C084E090E0909322038093210305
:1011500021E04BE050E060E070E085E293E00E9427
:10116000581C86E00E941A0287E00E941A0225CECF
:1011700080911F0381110DC080911E03882349F0C7
:1011800082E090E0909322038093210364E070E07A
:1011900037C080911F03882321F080911E038111A5
:1011A00027C04091210350912203662757FD609587
:1011B000762F21E085E293E00E94581CC8ECD0E035
:1011C0006AE070E080E090E00E9462272197C1F71A
:1011D00021E04BE050E060E070E085E293E00E94A7
:1011E000581C1092200310921F0310921E030DC072
:1011F00083E090E0909322038093210365E070E008
:1012000085E293E00E94221DCCCFDF91CF911F9108
:101210000F910895CF92DF92EF92FF920F931F9359
:10122000CF93DF93CDB7DEB72B970FB6F894DEBF21
:101230000FBECDBF19821A821B821C82FE01359619
:1012400087E0DF011D928A95E9F78E010F5F1F4F3E
:1012500055E0E52EF12C6801C7010E94C136F80166
:1012600081938F01FFEFEF1AFF0A80E1E816F10486
:1012700099F76AE371E080EA96E00E94412B67E308
:1012800071E080EA96E00E94412BB60180EA96E088
:101290000E94662B64E371E080EA96E00E94832B53
:1012A00080EA96E00E9465292B960FB6F894DEBF7F
:1012B0000FBECDBFDF91CF911F910F91FF90EF90A7
:1012C000DF90CF900895CF92DF92EF92FF9285E268
:1012D00093E00E94811B6B017C0161E371E080EA75
:1012E00096E00E94412B6EE271E080EA96E00E9457
:1012F000412BC701B6010E9460324AE050E080EA0B
:1013000096E00E94382C6BE271E080EA96E00E9441
:10131000832B80EA96E0FF90EF90DF90CF900C94C3
:101320006529CF92DF92EF92FF9285E293E00E94CF
:10133000851B6B017C0168E271E080EA96E00E9407
:10134000412B65E271E080EA96E00E94412BC701E3
:10135000B6010E9460324AE050E080EA96E00E94C6
:10136000382C62E271E080EA96E00E94832B80EAEA
:1013700096E0FF90EF90DF90CF900C946529CF928C
:10138000DF92EF92FF9285E293E00E948A206B0148
:101390007C016FE171E080EA96E00E94412B6CE1F4
:1013A00071E080EA96E00E94412B22E030E0B70134
:1013B000A60180EA96E00E942B2D69E171E080EAA7
:1013C00096E00E94832B80EA96E0FF90EF90DF90FA
:1013D000CF900C94652966E171E080EA96E00E9466
:1013E000412B63E171E080EA96E00E94412B6AE0C4
:1013F00071E080EA96E00E94662B60E171E080EA8D
:1014000096E00E94832B80EA96E00C9465298F92E7
:101410009F92AF92BF92CF92DF92EF92FF920F9383
:101420001F93CF93DF9300D0CDB7DEB726E040E027
:1014300052EC61E070E080EA96E00E94EC2960E006
:1014400086E00E94152860E087E00E9415281F9220
:1014500089E08F9378E0872E912CEAE0AE2EB12CB4
:10146000F4E1CF2ED12CEE24E39405E010E024E04B
:1014700030E043E050E062E070E085E293E00E94FB
:101480006C1284E10E94CF270E94CD2F43E062E0DE
:1014900071E086E00E94480143E065E171E087E089
:1014A0000E94480141EB5BE06DED72E081E094E069
:1014B0000E9460104DEB5BE06FED72E081E094E024
:1014C0000E94601041EF5BE061EE72E081E094E029
:1014D0000E9460104AE95DE063EE72E081E094E012
:1014E0000E94601046EF5DE065EE72E081E094E0FE
:1014F0000E9460104EEB5CE067EE72E081E094E0E9
:101500000E94601043E25DE069EE72E081E094E0E9
:101510000E94601042E55CE06BEE72E081E094E0D6
:101520000E9460104AE059E06DEE72E081E094E0C4
:101530000E94601043E659E06FEE72E081E094E0B3
:101540000E94601041E959E061EF72E081E094E0AF
:101550000E9460104FEB59E063EF72E081E094E08D
:101560000E9460104BEE59E065EF72E081E094E07C
:101570000E94601061EB7BE081E094E00E94921099
:1015800060E070E085E293E00E94221D85E293E036
:101590000E947F1585E090E00E94C1360F900F9069
:1015A0008432C9F485E090E09A83898363E2CE01B6
:1015B00001960E94280121E04DE150E060E070E0DA
:1015C00085E293E00E94581C68EE73E080E090E0B2
:1015D0000E946227F9CF0E940A090E94EB090E942B
:1015E000BF090E940B0562E0E62EF12C00E010E03E
:1015F00080912003882329F081E0E81AF108A9F0FE
:10160000F5CF980140E050E0BA0185E293E00E94F6
:10161000461C66E970E080E090E00E9462270F5F60
:101620001F4F0830110521F7E7CF8091200381116A
:1016300015C021E04AE050E060E070E085E293E010
:101640000E94581C6BE070E085E293E00E94221D2E
:1016500068EC70E080E090E00E94622785E090E016
:101660000E94C1368332E9F580912003811110C0B8
:101670002CEB32E040E050E060E87FE385E293E06D
:101680000E94A21868EC70E080E090E00E9462275F
:101690008091200381110CC04091080150910901F3
:1016A00021E030E061E070E085E293E00E948D1976
:1016B00080912003811115C021E04FE050E060E0EF
:1016C00070E085E293E00E94581C04E110E020E203
:1016D00033E040E050E060E070E485E293E00E9497
:1016E0006A178091200381110DC085E293E00E946A
:1016F0007F1521E04BE050E060E070E085E293E090
:101700000E94581C0E94332760931A0370931B0396
:1017100080931C0390931D030F900F90DF91CF9146
:101720001F910F91FF90EF90DF90CF90BF90AF90FF
:101730009F908F9008956DE071E080EA96E00E949E
:10174000412B6BE071E080EA96E00E94412B68E05B
:1017500071E080EA96E00E94832B80EA96E00C9488
:1017600065290E949B0B81E090E090930701809394
:10177000060185E293E00C947F15CF93DF9300D0B0
:10178000CDB7DEB70E94B10B81E094E00E94561005
:10179000009779F042E050E0BE016F5F7F4F0E94FA
:1017A0003335AB01BC0121E085E293E00E94581C77
:1017B00013C021E04AE150E060E070E085E293E090
:1017C0000E94581C60ED77E080E090E00E94622764
:1017D00085E293E00E945F1C0F900F90DF91CF9104
:1017E00008958F929F92AF92BF92EF92FF920F93C4
:1017F0001F93CF93DF930E94B10B81E094E00E948E
:101800005610009729F00E944736EC0110E001C005
:1018100011E081E094E00E945610009721F00E94B0
:1018200047361123E9F021E04AE150E060E070E042
:1018300085E293E00E94581C60ED77E080E090E044
:101840000E94622785E293E0DF91CF911F910F9173
:10185000FF90EF90BF90AF909F908F900C945F1C83
:101860004C01AA2497FCA094BA2CBE01882777FDCE
:101870008095982F0E949332AB01BC01EE24E39433
:10188000F12C9501840185E293E00E94631CDF91B5
:10189000CF911F910F91FF90EF90BF90AF909F90CD
:1018A0008F900895CF92DF92EF92FF920F931F9344
:1018B000CF93DF93CDB7DEB72D970FB6F894DEBF89
:1018C0000FBECDBF0E94B10B19821A821B821C82EF
:1018D000FE01359687E0DF011D928A95E9F781E0E8
:1018E00094E00E945610009739F1DC01FE01319618
:1018F0009E2F2F2F6E018CE0C80ED11C8D9181116F
:1019000006C0092F122FB5E0EB2EF12C05C0EC1507
:10191000FD05B9F38193F2CFD8016D918D01FD865C
:10192000EC86C6010E942801BFEFEB1AFB0AE0E13A
:10193000EE16F10489F713C021E04AE150E060E0BF
:1019400070E085E293E00E94581C60ED77E080E053
:1019500090E00E94622785E293E00E945F1C2D9632
:101960000FB6F894DEBF0FBECDBFDF91CF911F91B0
:101970000F91FF90EF90DF90CF900895CF92DF927C
:10198000EF92FF920F931F93CF93DF930E949B0BD5
:1019900081E094E00E945610009729F00E9447369B
:1019A000EC0110E001C011E081E094E00E945610CB
:1019B000009721F00E9447367C0101C011E081E0D0
:1019C00094E00E945610009721F00E9447366C0167
:1019D00001C011E081E094E00E945610009721F0D0
:1019E0000E9447361123D9F021E04AE150E060E03F
:1019F00070E085E293E00E94581C60ED77E080E0A3
:101A000090E00E94622785E293E0DF91CF911F91E1
:101A10000F91FF90EF90DF90CF900C945F1C8C01A2
:101A20009601A701BE0185E293E00E94F71285E2CC
:101A300093E0DF91CF911F910F91FF90EF90DF9096
:101A4000CF900C940813BF92CF92DF92EF92FF9247
:101A50000F931F93CF93DF93CDB7DEB728970FB6C1
:101A6000F894DEBF0FBECDBF0E949B0B81E094E0D7
:101A70000E945610009729F00E9447366C01B12C45
:101A800002C0BB24B39481E094E00E9456100097FA
:101A900021F00E9447367C0102C0BB24B39481E050
:101AA00094E00E945610009721F00E9447368C0166
:101AB00002C0BB24B39481E094E00E9456100097CA
:101AC00021F00E944736BB20A1F021E04AE150E01E
:101AD00060E070E085E293E00E94581C60ED77E0E2
:101AE00080E090E00E94622785E293E00E945F1C04
:101AF00011C0DA82C982FC82EB821E830D83988733
:101B00008F83AE014F5F5F4F68EC70E085E293E03A
:101B10000E94271328960FB6F894DEBF0FBECDBFE4
:101B2000DF91CF911F910F91FF90EF90DF90CF90B9
:101B3000BF9008950E949B0B81E094E00E94561094
:101B4000009739F00E944736909324038093230333
:101B500017C021E04AE150E060E070E085E293E0E8
:101B60000E94581C60ED77E080E090E00E946227C0
:101B700085E293E00E945F1C1092240310922303DD
:101B800081E094E00E945610009719F00E944736B9
:101B900015C021E04AE150E060E070E085E293E0AA
:101BA0000E94581C60ED77E080E090E00E94622780
:101BB00085E293E00E945F1C88EE93E09093090118
:101BC0008093080181E094E00E945610009719F07C
:101BD0000E94473602C08EE190E090930501809309
:101BE0000401109207011092060108950E949B0BB8
:101BF00081E094E00E945610009761F00E94473601
:101C000001978D30910508F042C0885B9F4FFC0121
:101C10000C94B63421E04AE150E060E070E085E2E7
:101C200093E00E94581C60ED77E080E090E00E9415
:101C3000622785E293E00C945F1C60E070E023C0B3
:101C400061E070E020C062E070E01DC063E070E021
:101C50001AC064E070E017C065E070E014C066E090
:101C600070E011C067E070E00EC068E070E00BC08B
:101C700069E070E008C06AE070E005C06BE070E009
:101C800002C06CE070E085E293E00C94BE20089501
:101C90001F920F920FB60F9211242F933F934F93E1
:101CA0005F936F937F938F939F93AF93BF93EF93C4
:101CB000FF938091720687FF05C0109285001092F5
:101CC00084001AC020917206332727FD3095809139
:101CD000710690E0281739077CF4809172069927E5
:101CE00087FD9095FC01EE0FFF1FE80FF91FED58DF
:101CF000F94F808186FD15C0809172068F5F8093B9
:101D0000720620917206332727FD30958091710667
:101D100090E028173907BCF4809172068C305CF192
:101D200012C080917206992787FD9095FC01EE0FF5
:101D3000FF1FE80FF91FED58F94F808160E08F73A6
:101D40000E944E28D9CF80918400909185000496FE
:101D500080349C4918F480E49CE905C0809184009B
:101D600090918500049690938900809388008FEF6E
:101D70008093720638C02091840030918500809154
:101D80007206992787FD9095FC01EE0FFF1FE80F63
:101D9000F91FED58F94F81819281820F931F909323
:101DA00089008093880080917206992787FD90951D
:101DB000FC01EE0FFF1FE80FF91FED58F94F80816E
:101DC00086FF11C080917206992787FD9095FC01CE
:101DD000EE0FFF1FE80FF91FED58F94F808161E00A
:101DE0008F730E944E28FF91EF91BF91AF919F9109
:101DF0008F917F916F915F914F913F912F910F90B4
:101E00000FBE0F901F901895209171062C30A0F4F2
:101E100031E0320F30937106FC012083822F90E075
:101E2000FC01EE0FFF1FE80FF91FED58F94F88EB8B
:101E30009BE09283818308952FEFFC012083089516
:101E4000DF92EF92FF920F931F93CF93DF93EC01FA
:101E5000D62E7A01890188818C3008F066C061E055
:101E60008D2D0E9415288881A82FB0E0FD01EE0F6E
:101E7000FF1FEA0FFB1FED58F94F2D2D2F73908197
:101E8000907C922B908360E272E06E197F0977FF5D
:101E900002C06D5F7F4F75956795759567956983EE
:101EA00040E659E0401B510B57FF02C04D5F5F4FAA
:101EB00055954795559547954A836CE00E94413466
:101EC0009CE0899FB001112420E030E0A901460F79
:101ED000571FFA01EE0FFF1FE40FF51FED58F94FE2
:101EE000908196FD16C02F5F3F4F2C30310571F762
:101EF00081110FC01092800082E0809381001092C7
:101F0000850010928400B19A80916F008260809366
:101F10006F00888190E0FC01EE0FFF1FE80FF91FB2
:101F2000ED58F94F8081806480838881DF91CF9163
:101F30001F910F91FF90EF90DF90089520E639E018
:101F400040E252E00C94200FFC0180818C3070F54F
:101F5000918128E830E0291B310997FD3395220F44
:101F6000331F220F331F621773077CF0928128E51D
:101F700032E0291B310997FD3395220F331F220FC1
:101F8000331F621773070CF49B0122503109220F93
:101F9000331F4FB7F89490E0FC01EE0FFF1FE80FDE
:101FA000F91FED58F94F328321834FBF08954F92A7
:101FB0005F926F927F92AF92BF92CF92DF92EF9239
:101FC000FF920F931F93CF93DF93EC01603282E077
:101FD00078070CF040C077FD06C0653B71052CF01A
:101FE00064EB70E002C060E070E0898128E830E0D6
:101FF000281B310987FD3395220F331F220F331F12
:102000005901CC24B7FCC094DC2C882777FD80953F
:10201000982F2A8148E552E0421B510927FD53952C
:10202000440F551F440F551F2A01662457FC609426
:10203000762C7F926F925F924F9214EBE12EF12CEF
:1020400000E010E020E030E0A9010E9415300F9080
:102050000F900F900F90CE01DF91CF911F910F91B4
:10206000FF90EF90DF90CF90BF90AF907F906F90F8
:102070005F904F900C94A40F21E030E0FC01E20F40
:10208000F31F10822F5F3F4F24323105B9F7FC0157
:1020900015A214A2089520E230E0FC0137A326A384
:1020A0002DE020A716A615A60C943C10AC01455DAA
:1020B0005F4FBC016A5D7F4F80E090E00C949236E8
:1020C000FF920F931F93CF93DF93EC018A012DA50D
:1020D0003EA52E30310504F585E2F82EF29EC001B2
:1020E000F39E900D11248F9643E250E08C0F9D1FBC
:1020F0000E9483362DA53EA5F29EC001F39E900D51
:1021000011248C0F9D1FFC01EE5AFF4F1183008399
:102110002F5F3F4F3EA72DA7DF91CF911F910F91CA
:10212000FF9008958B5C9D4FFC017183608308953F
:102130002F923F924F925F926F927F928F929F92D7
:10214000AF92BF92CF92DF92EF92FF920F931F93C5
:10215000CF93DF9300D000D0CDB7DEB79C838B83C5
:102160001C012BE2220E311C2C0136E2430E511CC5
:102170006C018FEFC81AD80AAB80BC809FE2A90E11
:10218000B11C2B813C812B5C3D4F3A83298380EA33
:1021900096E00E940929181619060CF073C080EA0F
:1021A00096E00E942229AB81BC818C9398969C91E9
:1021B0009897891341C095961C921E929497A101FD
:1021C000B201C6010E9492363C01EB81FC8192A7CC
:1021D00081A7009709F456C085A496A4750100E074
:1021E00010E008151905FCF443E250E0B701C30103
:1021F0000E947536F5E2EF0EF11C892B89F425E279
:10220000209FC001219F900D11242B813C81820FC2
:10221000931FFC01EE5AFF4F0190F081E02D07C0A3
:102220000F5F1F4FDECFA981BA81ED91FC91099517
:102230008B819C810E943C10AB81BC811C91812FC1
:10224000992787FD90950E946736892B09F49FCFC7
:10225000EB81FC8124A135A1C901019695A384A33A
:10226000E20FF31F1183EB81FC81E80FF91F11824C
:1022700083970CF48CCFAB81BC8195961C921E92F7
:10228000949785CF0F900F900F900F90DF91CF9183
:102290001F910F91FF90EF90DF90CF90BF90AF9084
:1022A0009F908F907F906F905F904F903F902F9076
:1022B00008950F931F93CF93DF93EC0100E010E09C
:1022C000488159816A817B81002E04C0769567958B
:1022D000579547950A94D2F7642F61708C810E94BC
:1022E0004E2800000000000061E08D810E944E2811
:1022F00000000000000060E08D810E944E280F5F0A
:102300001F4F0E311105E1F661E08E810E944E28CB
:1023100000000000000060E08E81DF91CF911F91EE
:102320000F910C944E28CF93DF93EC01862F1882E7
:1023300019821A821B826C834D832E8361E00E9476
:10234000152861E08D810E94152861E08E810E9430
:10235000152860E08C810E944E2860E08D810E94EB
:102360004E2860E08E810E944E28CE01DF91CF91F1
:102370000C945911FC0140835183628373830C9444
:102380005911FC0110821182128213820C9459118E
:1023900008950F931F93CF93DF9385E10E94CF277A
:1023A00025E0AC01249FC001259F900D1124BC01A4
:1023B000882777FD8095982F0E94933220E030E0A7
:1023C00040E85AE30E9447338B01D82FC92F26E6F5
:1023D00036E646E850E40E944333181624F406E635
:1023E00016E6D6E8C0E4B8018D2F9C2FDF91CF917F
:1023F0001F910F9108950F931F93CF93DF930E9426
:10240000C9112FEB36E842ED52E40E9447332CE726
:102410003DE04BEA53E40E948F318B01D82FC92F46
:1024200020E030E0A9010E94F43187FF04C000E001
:1024300010E0D0E0C0E0B8018D2F9C2FDF91CF914C
:102440001F910F9108950895CF93DF93EC01862F8C
:10245000688379835B834A8361E00E94152860E08A
:102460008A81DF91CF910C941528CF93DF93EC01F3
:1024700060E088810E944E2882E090E00E948A27D6
:1024800061E088810E944E288AE090E00E948A27BD
:1024900060E088810E944E2820E43CE940E050E062
:1024A00061E08A81DF91CF910C9484280E943512DB
:1024B0002AE330E040E050E00E94973421153105D6
:1024C0004105510521F427EE33E040E050E0CA0118
:1024D000B9010E94933208952F923F924F925F92DA
:1024E0006F927F928F929F92AF92BF92CF92DF9224
:1024F000EF92FF920F931F93CF93DF931F92CDB76D
:10250000DEB73C012A011901FC2CD982CE88DF8874
:1025100040E001960E948E3040E0B201C3018A96ED
:102520000E948E3040E0B101C3018D5A9F4F0E943E
:102530008E3040E0B801C30184589F4F0E948E3016
:10254000E1103BC0F301E854FF4F8AE590E091832E
:1025500080833296918380833296918380833296F2
:1025600091838083A601B401C3018B559F4F0E94C4
:102570002412F301E054FF4FA082B1823296F08220
:102580008981818361E08A2D0E94152860E08F2D6A
:102590000F90DF91CF911F910F91FF90EF90DF90FF
:1025A000CF90BF90AF909F908F907F906F905F90F3
:1025B0004F903F902F900C941528412C512C00E007
:1025C00010E0C8010E94C13690E0813891050CF0FE
:1025D0009A95F301E40DF51D918B808B0F5F1F4FD2
:1025E00089E2480E511C0430110559F7ABCF0F9307
:1025F0001F93FC01718B608B52AF41AFEE59FF4FBF
:1026000031832083B996118300831F910F91089520
:10261000EF92FF920F931F93CF93DF937C0100E023
:1026200010E0C0E0D0E0F701E00FF11F6089CE01BB
:102630000E94C9362196075D1F4FC430D10599F716
:10264000DF91CF911F910F91FF90EF9008952F92FE
:102650003F924F925F926F927F928F929F92AF9232
:10266000BF92CF92DF92EF92FF920F931F93CF937F
:10267000DF93CDB7DEB72A970FB6F894DEBF0FBE53
:10268000CDBF1C0149835A836B3071050CF4CEC059
:102690006B01EE24D7FCE094FE2CC701B6010E942A
:1026A000933220E030E040E251E40E94F8312B0107
:1026B0003C0129812B833A813C83510100E010E0E9
:1026C000AB81BC818D919D91BC83AB834501BCECFA
:1026D0008B0E911CF101E00FF11FE854FF4F208198
:1026E0003181821B930BBC01882777FD8095982F41
:1026F0000E949332A30192010E94F831F401608399
:102700007183828393830E5F1F4FF4E0AF0EB11C81
:1027100008301105A9F60E94332791012C533F4F31
:102720003C832B836C0D7D1D8E1D9F1DD9016D93E8
:102730007D938D939C93139744244394512CF101E2
:10274000E853FF4FFE83ED83235C310938872F83E5
:102750000E943327EB81FC8100811181228133812A
:10276000601771078207930708F076C00E9433272D
:10277000665F7F4F8F4F9F4FAD81BE816D937D937D
:102780008D939C9313976F80788481011A861986A4
:102790004201AA2497FCA094BA2CE985FA85E20D9F
:1027A000F31DE854FF4F80819181BC01882777FD9C
:1027B0008095982F0E9493326B017C01C501B40172
:1027C0000E949332F801E453FF4F2081318142810E
:1027D00053810E9447339B01AC01C701B6010E949F
:1027E00090310E946032C3010E94F730E985FA857A
:1027F0003296FA87E9870C5F1F4FF9E26F0E711C62
:1028000029853A852830310541F60E943327AD816C
:10281000BE810D911D912D913C916017710782072A
:10282000930798F3BFEF4B1A5B0A92CFC980DA8007
:1028300000E010E07C01FFEFEF1AFF0AD6016D9176
:102840007D916D01C701800F911F0E94F730075DD8
:102850001F4F043A110591F7E981FA8180E090E079
:1028600021913191D101A80FB91FA854BF4F2D93C9
:102870003C9302968830910599F72A960FB6F89402
:10288000DEBF0FBECDBFDF91CF911F910F91FF90A3
:10289000EF90DF90CF90BF90AF909F908F907F9000
:1028A0006F905F904F903F902F9008952F923F929E
:1028B0004F925F926F927F928F929F92AF92BF9250
:1028C000CF92DF92EF92FF920F931F93CF93DF93FC
:1028D00000D000D0CDB7DEB75C01CA012901A70145
:1028E00096013C014B0165018FEFC81AD80A7801A7
:1028F00004E010E03C2C2D2CF301819191913F01DB
:10290000F60196838583F401819191914F01F6013F
:1029100094838383B201C60129833A834B835C830A
:102920000E94D630F70181919191A191B1917F01DF
:10293000F60181879287A387B48701501109F9E2D4
:10294000CF0ED11C29813A814B815C810115110583
:1029500099F60E9433270E9491326B017C01B201EB
:10296000882777FD8095982F0E94933229813A819C
:102970004B815C810E944733A70196010E949031F0
:102980002B013C018501065D1F4F450183E5880E43
:10299000911CECE7AE0EB11CA3019201C701B60178
:1029A0000E94F4311816A4F0832D922D0E94FE305F
:1029B000C8010E94FE30C4010E94FE30C5010E9481
:1029C000FE300E9433270E9491326B017C01E4CFDC
:1029D0000F900F900F900F90DF91CF911F910F915B
:1029E000FF90EF90DF90CF90BF90AF909F908F902F
:1029F0007F906F905F904F903F902F9008952F920F
:102A00003F924F925F926F927F928F929F92AF927E
:102A1000BF92CF92DF92EF92FF920F931F93CF93CB
:102A2000DF93CDB7DEB72C970FB6F894DEBF0FBE9D
:102A3000CDBF9A8389837C836B835E834D83190129
:102A4000480126013701C701B6010E9460326F8339
:102A5000788789879A87AF80B8841A141B04A4F1F9
:102A60002F813885B901882777FD8095982F0E949E
:102A700093329B01AC01C301B2010E948F316B0103
:102A80007C01840191014D815E816B817C81898112
:102A90009A810E9456142C960FB6F894DEBF0FBE92
:102AA000CDBFDF91CF911F910F91FF90EF90DF90FD
:102AB000CF90BF90AF909F908F907F906F905F90DE
:102AC0004F903F902F9008951C861B86C12CD12CCF
:102AD00090E8E92E9FE3F92E840191014D815E81FA
:102AE0006B817C8189819A810E9456148B859C859B
:102AF00001969C878B878A159B0541F7B1CFCF93B1
:102B0000DF93CDB7DEB728970FB6F894DEBF0FBEC0
:102B1000CDBF28E0E1E2F1E0DE01119601900D92D7
:102B20002A95E1F7AE014F5F5F4F64EF71E00E94BD
:102B3000271328960FB6F894DEBF0FBECDBFDF91E6
:102B4000CF9108958F929F92AF92BF92CF92DF92D2
:102B5000EF92FF920F931F93CF93DF93CDB7DEB722
:102B6000A0970FB6F894DEBF0FBECDBF5C016A011F
:102B70007B014901980188E0E9E2F1E0DE01599624
:102B800001900D928A95E1F788E0E1E3F1E0DE0142
:102B9000519601900D928A95E1F78E010F5F1F4FBC
:102BA00080E1F80111928A95E9F746EA4203B00103
:102BB000439F700D1124882777FD8095982F0E94E0
:102BC00093322BED3FE049E450E40E94473320E08C
:102BD00030E044E353E40E94F83169877A878B87B9
:102BE0009C876D877E878F87988B9401AE014F5E9F
:102BF0005F4FBE01675E7F4FC5010E94FF14A09624
:102C00000FB6F894DEBF0FBECDBFDF91CF911F91FD
:102C10000F91FF90EF90DF90CF90BF90AF909F907B
:102C20008F900895CF92DF92EF92FF920F931F93B0
:102C3000CF93DF93CDB7DEB7A0970FB6F894DEBF82
:102C40000FBECDBFE8E0FE2EE9E2F1E0DE015996CD
:102C500001900D92FA94E1F7F8E0FF2EE1E3F1E044
:102C6000DE01519601900D92FA94E1F7A0E1FA2E5F
:102C7000E9E3F1E0DE01119601900D92FA94E1F79B
:102C80000130110539F4EEE1F0E0FA8FE98FEAE066
:102C9000F0E006C0EAE0F0E0FA8FE98FEEE1F0E064
:102CA000FC8FEB8F6A017B018E010F5F1F4FAE011E
:102CB0004F5E5F4FBE01675E7F4F0E94FF14A0967C
:102CC0000FB6F894DEBF0FBECDBFDF91CF911F913D
:102CD0000F91FF90EF90DF90CF900895CF92DF9209
:102CE000EF92FF920F931F93CF93DF93CDB7DEB791
:102CF000A0970FB6F894DEBF0FBECDBF6A017B016F
:102D0000E8E0BE01675E7F4FDB014E2F1D924A95C2
:102D1000E9F71E8F0D8F18A30F8FAE014F5E5F4F27
:102D2000DA011D92EA95E9F71E8B0D8B119501953D
:102D30001109188F0F8B10E1E9E4F1E0DE01119623
:102D400001900D921A95E1F78E010F5F1F4F0E94BF
:102D5000FF14A0960FB6F894DEBF0FBECDBFDF9173
:102D6000CF911F910F91FF90EF90DF90CF9008953A
:102D70002F923F924F925F926F927F928F929F928B
:102D8000AF92BF92CF92DF92EF92FF920F931F9379
:102D9000CF93DF93CDB7DEB7A2970FB6F894DEBF1F
:102DA0000FBECDBF4C011A012B01390188E09E01F5
:102DB000275E3F4F3AA329A3F901282F11922A95A4
:102DC000E9F71E8F0D8F18A30F8F5E0131E1A30E5F
:102DD000B11CF50111928A95E9F7C80117FD01961A
:102DE0009595879502969E8B8D8B17FF02C00F5F7E
:102DF0001F4F15950795119501951109025011095D
:102E0000188F0F8B26EAA70124036001259FD00CA1
:102E100011248E010F5F1F4F80E1F80111928A95F6
:102E2000E9F7B601882777FD8095982F0E949332A5
:102E30002BED3FE049E450E40E94473320E030E0CE
:102E400044E353E40E94F83169877A878B879C8733
:102E500024ECA7012403B001259F700D11246C0DF3
:102E60007D1D882777FD8095982F0E9493322BED4A
:102E70003FE049E450E40E94473320E030E044E37F
:102E800053E40E94F8316D877E878F87988B72019B
:102E900061019301A501BE01675E7F4FC4010E94DD
:102EA000FF14A2960FB6F894DEBF0FBECDBFDF9120
:102EB000CF911F910F91FF90EF90DF90CF90BF9037
:102EC000AF909F908F907F906F905F904F903F90CA
:102ED0002F900895CF92DF92EF92FF920F931F935E
:102EE000CF93DF93CDB7DEB7A0970FB6F894DEBFD0
:102EF0000FBECDBF6A017B01E8E0BE01675E7F4F78
:102F0000DB014E2F1D924A95E9F71E8F0D8F18A3F6
:102F10000F8FAE014F5E5F4FDA011D92EA95E9F720
:102F2000F80117FD3196F595E795FE8BED8B17FFB0
:102F300002C00F5F1F4F1595079511950195110957
:102F4000188F0F8B8E010F5F1F4FE0E1D8011D928C
:102F5000EA95E9F70E94FF14A0960FB6F894DEBF39
:102F60000FBECDBFDF91CF911F910F91FF90EF90DA
:102F7000DF90CF900895CF92DF92EF92FF920F9360
:102F80001F93CF93DF93CDB7DEB7A0970FB6F8941A
:102F9000DEBF0FBECDBF6A017B01E8E0BE01675E08
:102FA0007F4FDB014E2F1D924A95E9F71E8F0D8F43
:102FB00018A30F8FAE014F5E5F4FDA011D92EA95A5
:102FC000E9F71E8B0D8B119501951109188F0F8B49
:102FD0008E010F5F1F4FE0E1D8011D92EA95E9F7DE
:102FE0000E94FF14A0960FB6F894DEBF0FBECDBFAF
:102FF000DF91CF911F910F91FF90EF90DF90CF90D5
:1030000008952F923F924F925F926F927F928F928C
:103010009F92AF92BF92CF92DF92EF92FF920F9367
:103020001F93CF93DF93CDB7DEB7A0970FB6F89479
:10303000DEBF0FBECDBF4C015A016B01390128E044
:103040002E0149E1440E511CF201422F11924A9582
:10305000E9F789E190E09A8F898F9C8F8B8F1E8F83
:103060000D8F18A30F8F1E0151E1250E311CF101A8
:1030700011922A95E9F7C80117FD01969595879554
:1030800004969E8B8D8B17FF02C00F5F1F4F159507
:10309000079511950195110904501109188F0F8B8F
:1030A0008E010F5F1F4F80E1F80111928A95E9F7B9
:1030B00080E090E0A4EBB2E489839A83AB83BC8385
:1030C0008D839E83AF83B88724ECA7012403B001CE
:1030D000259F700D1124882777FD8095982F0E94D9
:1030E00093322BED3FE049E450E40E94473320E067
:1030F00030E044E353E40E94F8316D877E878F8788
:10310000988B760165019301A101B201C4010E946F
:10311000FF14A0960FB6F894DEBF0FBECDBFDF91AF
:10312000CF911F910F91FF90EF90DF90CF90BF90C4
:10313000AF909F908F907F906F905F904F903F9057
:103140002F900895EF92FF920F931F93CF93DF93E9
:10315000CDB7DEB760970FB6F894DEBF0FBECDBF18
:103160008C01790188E0E9E5F1E0DE011996019032
:103170000D928A95E1F7AE01475F5F4FB901C80133
:103180000E94271388E0E1E2F1E0DE011196019050
:103190000D928A95E1F7AE014F5F5F4FB701C8010D
:1031A0000E94271360960FB6F894DEBF0FBECDBF06
:1031B000DF91CF911F910F91FF90EF9008952F9283
:1031C0003F924F925F926F927F928F929F92AF92B7
:1031D000BF92CF92DF92EF92FF920F931F93CF9304
:1031E000DF93CDB7DEB7A0970FB6F894DEBF0FBE62
:1031F000CDBF4C015A016B01390128E02E0149E194
:10320000440E511CF201422F11924A95E9F78CE0CD
:1032100090E09A8F898F9C8F8B8F1E8F0D8F18A3B4
:103220000F8F1E0151E1250E311CF10111922A95DB
:10323000E9F7C8010A979E8B8D8B8AE090E0801B8E
:10324000910B988F8F8B8E010F5F1F4F80E1F801DC
:1032500011928A95E9F78BED9FE0A9E4B0E48D83A4
:103260009E83AF83B88726EAA7012403B001259F78
:10327000700D1124882777FD8095982F0E94933236
:103280002BED3FE049E450E40E94473320E030E07A
:1032900044E353E40E94F83169877A878B879C87DF
:1032A0008AE58E9DB0018F9D700D1124882777FDD2
:1032B0008095982F0E9493322BED3FE049E450E433
:1032C0000E94473320E030E044E353E40E94F831A9
:1032D0006D877E878F87988B760165019301A101A9
:1032E000B201C4010E94FF14A0960FB6F894DEBF8D
:1032F0000FBECDBFDF91CF911F910F91FF90EF9047
:10330000DF90CF90BF90AF909F908F907F906F9005
:103310005F904F903F902F9008958F929F92AF9221
:10332000BF92CF92DF92EF92FF920F931F93CF93B2
:10333000DF93CDB7DEB7A0970FB6F894DEBF0FBE10
:10334000CDBF8C014B0188E0E1E6F1E0DE0159964A
:1033500001900D928A95E1F788E0E9E6F1E0DE015F
:10336000519601900D928A95E1F788E0E1E7F1E04E
:10337000DE01199601900D928A95E1F788E0E1E26D
:10338000F1E0DE01119601900D928A95E1F721306E
:103390003105A1F481E990E09E8F8D8F8AE790E05E
:1033A00098A38F8F2CE330E03E8B2D8B988F8F8BE3
:1033B00028E730E03E872D87988B8F876A0188EE5B
:1033C000C81A83E0D80A80E9C81681E0D80624F438
:1033D00040E9C42EDD24D3947601F594E794F59466
:1033E000E794A12CB12CA814B904C4F5AE01475E32
:1033F0005F4F64EF71E0C8010E942713AE014F5E7A
:103400005F4F64EF71E0C8010E942713AE01475F70
:103410005F4FB701C8010E942713AE014F5E5F4F97
:10342000B701C8010E942713AE01475F5F4FB70184
:10343000C8010E942713AE014F5E5F4FB701C8015C
:103440000E942713AE014F5F5F4F64EF71E0C80128
:103450000E9427138FEFA81AB80AC5CFB601882794
:1034600077FD8095982F0E946227A0960FB6F8945A
:10347000DEBF0FBECDBFDF91CF911F910F91FF90A7
:10348000EF90DF90CF90BF90AF909F908F90089576
:103490004F925F926F927F928F929F92AF92BF9264
:1034A000CF92DF92EF92FF920F931F93CF93DF9310
:1034B000CDB7DEB768970FB6F894DEBF0FBECDBFAD
:1034C0008C016B0188E0E1E6F1E0DE0151960190AC
:1034D0000D928A95E1F788E0E9E7F1E0DE011996BF
:1034E00001900D928A95E1F788E0E1E2F1E0DE01DA
:1034F000119601900D928A95E1F7FA01483582E024
:10350000580714F4E8E5F2E02F3F3F4F71F481E9EA
:1035100090E09E8B8D8B8AE790E0988F8F8B2BE4C9
:1035200030E03E872D87988B8F874F019594879445
:1035300095948794CF016AE070E00E9461345B014A
:103540002F01440C551C4E0E5F1E55944794559404
:103550004794662457FC6094762CE12CF12CEC14F3
:10356000FD04F4F4AE014F5E5F4FB401C8010E9448
:103570002713AE01475F5F4FB501C8010E942713B3
:10358000C301B2010E946227AE014F5F5F4F64EF3B
:1035900071E0C8010E9427138FEFE81AF80ADFCF05
:1035A00068960FB6F894DEBF0FBECDBFDF91CF9106
:1035B0001F910F91FF90EF90DF90CF90BF90AF9051
:1035C0009F908F907F906F905F904F900895CF92D3
:1035D000DF92EF92FF920F931F93CF93DF93CDB7BC
:1035E000DEB7A0970FB6F894DEBF0FBECDBF6A015D
:1035F0007B010A31110514F009E110E0E8E0BE0199
:10360000675E7F4FDB014E2F1D924A95E9F71A8FB7
:10361000098F1C8F0B8FAE014F5E5F4FDA011D9239
:10362000EA95E9F710E1E1E8F1E0DE011196019099
:103630000D921A95E1F78E010F5F1F4F0E945614ED
:10364000A0960FB6F894DEBF0FBECDBFDF91CF912D
:103650001F910F91FF90EF90DF90CF900895CF9240
:10366000DF92EF92FF920F931F93CF93DF93CDB72B
:10367000DEB7A0970FB6F894DEBF0FBECDBF6A01CC
:103680007B010031110514F00FE010E01A8F098F53
:103690001C8F0B8F1E8F0D8F18A30F8FAE014F5EE7
:1036A0005F4F68E0FA0111926A95E9F7B8016C5F23
:1036B0007F4F7E8B6D8B64E070E0601B710B788FA9
:1036C0006F8B60E1E1E9F1E0DE01119601900D926E
:1036D0006A95E1F78E010F5F1F4FBE01675E7F4F56
:1036E0000E94FF14A0960FB6F894DEBF0FBECDBFA8
:1036F000DF91CF911F910F91FF90EF90DF90CF90CE
:1037000008958B559F4F0C9456128E539F4FFC017A
:1037100080810E94CF27BC01882777FD8095982F54
:103720000E9493320895CF93DF93CDB7DEB7CC5785
:10373000D1090FB6F894DEBF0FBECDBF8CE7E1EA2A
:10374000F1E0DE01119601900D928A95E1F7660F86
:10375000771F660F771F81E090E08C0F9D1F680F29
:10376000791FFB016081718182819381C458DF4F91
:103770000FB6F894DEBF0FBECDBFDF91CF91089595
:10378000CF93DF93EC01BA010E94931BAB01BC0104
:10379000CE0187559F4FDF91CF910C94BA11CF93F3
:1037A000DF93CDB7DEB7C057D1090FB6F894DEBFAF
:1037B0000FBECDBF80E2EDE1F2E0DE01999601900F
:1037C0000D928A95E1F780E1EDE3F2E0DE01AF5979
:1037D000BF4F01900D928A95E1F788E1EDE4F2E0A8
:1037E000DE01A75BBF4F01900D928A95E1F788E259
:1037F000E5E6F2E0DE01119601900D928A95E1F77F
:103800006130710509F194F4672BB1F5FA01EE0FFF
:10381000FF1FEE0FFF1F81E090E08C0F9D1FE80F50
:10382000F91F60A571A582A593A526C06230710518
:1038300099F06330710501F5FA01EE0FFF1FEE0FED
:10384000FF1F81E090E00FC0FA01EE0FFF1FEE0FA7
:10385000FF1F81E690E007C0FA01EE0FFF1FEE0F99
:10386000FF1F89E490E08C0F9D1FE80FF91F608116
:1038700071818281938100C0C059DF4F0FB6F894E7
:10388000DEBF0FBECDBFDF91CF910895CF93DF9301
:10389000EC01CB01BA01A901CE010E94CF1BAB0103
:1038A000BC01CE0187559F4FDF91CF910C94BA1187
:1038B00021110C94C01B87559F4F0C94BA1187554A
:1038C0009F4F0C94C1118F929F92AF92BF92EF9233
:1038D000FF920F931F93CF93DF93EC01480159019F
:1038E000CB01BA010E946532C054DF4FA50194019B
:1038F00088810E942D2DC501B4010E946227B70165
:10390000882777FD8095982FDF91CF911F910F9198
:10391000FF90EF90BF90AF909F908F900C94622794
:103920002F923F924F925F926F927F928F929F92CF
:10393000AF92BF92CF92DF92EF92FF920F931F93BD
:10394000CF93DF93CDB7DEB728970FB6F894DEBFDD
:103950000FBECDBF1C012A013B0109831A832B83B3
:103960003C83CD82DE82EF82F886CD8CDE8CA9018D
:103970009801C301B2010E94F43187FF25C0C30141
:10398000B2010E946032882777FD8095982F0E94AF
:1039900093322B013C0129813A814B815C810E9449
:1039A000F43187FF36C0760195018401B301A2018D
:1039B000C1010E94631C2D813E814F815885C30146
:1039C000B2010E944733DDCFC301B2010E946032D1
:1039D000882777FD8095982F0E9493322B013C0118
:1039E00029813A814B815C810E94433318168CF403
:1039F000760195018401B301A201C1010E94631CFB
:103A00002D813E814F815885C301B2010E94F8315A
:103A1000DDCF28960FB6F894DEBF0FBECDBFDF9185
:103A2000CF911F910F91FF90EF90DF90CF90BF90BB
:103A3000AF909F908F907F906F905F904F903F904E
:103A40002F9008957F928F929F92AF92BF92CF92C4
:103A5000DF92EF92FF920F931F93CF93DF93EC01CE
:103A60006331710508F048C3FB01EB5AFF4F0C941A
:103A7000B6343EE1E32EF12C02E310E020E030E02A
:103A800044EA50ED64E274E40E94631C49E1E42ED0
:103A9000F12C07E310E020E030E042E550ED64EA6D
:103AA00074E4CE010E94631C5AE0E52EF12C0CE375
:103AB00010E020E030E040E050E06CED74E427C01E
:103AC0008EE1E82EF12C02E310E020E030E044EA41
:103AD00050ED64E274E4CE010E94631C99E1E92E8A
:103AE000F12C07E310E020E030E040E050E06CED26
:103AF00074E4CE010E94631C2AE0E22EF12C02E362
:103B000010E020E030E042E550ED64EA74E4CE01DC
:103B10000E94631CF1C21F92F2E07F2E7F92A4E10B
:103B20008A2E912CA12CB12CBAE0CB2EB7EDDB2E36
:103B3000B3E8EB2EBFE3FB2E0CE51FEF23EC34E4E0
:103B400042E550ED64EA74E40E94901C6EE170E07E
:103B500080E090E00E9462271F927F921AE0812EFF
:103B6000912CA12CB12C08EBC02E0EE1D02E05E833
:103B7000E02E0FE3F02E0FE115ED22E135E442E5F2
:103B800050ED64EA74E4B1C21F928AE08F937EE143
:103B9000872E912CA12CB12CECE5CE2EEFE8DE2E59
:103BA000E2E8EE2EEFE3FE2E00E010E02CED34E430
:103BB00042E550ED64EA74E46DC21F928AE08F938F
:103BC0005EE1852E912CA12CB12C6AE0C62E67ED0A
:103BD000D62E63E8E62E6FE3F62E0FE115ED22E117
:103BE00035E44CE55FEF63EC74E454C234E6E32E55
:103BF000F12C02E310E020E030E042E550ED64EA11
:103C000074E40E94631C40E5E42EF12C02E310E012
:103C100020E030E04CE55FEF63EC74E4CE010E94FD
:103C2000631CE12CF12C0CE211E020E030E04FE1CC
:103C300055ED62E175E46BCF1F92772473947F9208
:103C40000AE0802E912CA12CB12C8CE5C82E8FE897
:103C5000D82E82E8E82E8FE3F82E00E010E626E06A
:103C600035E440E050E068E474E4CE010E94901C2A
:103C70001F927F9297E0892E912CA12CB12C2AE0E3
:103C8000C22E27EDD22E23E8E22E2FE3F22E00E003
:103C900010E028E434E440E050E566E075E425C235
:103CA0001F9283E08F93A8E08A2E912CA12CB12C37
:103CB000B8EBCB2EBEE1DB2EB5E8EB2EBFE3FB2E3F
:103CC00000E010E02AEF34E440E050E06CE574E4FA
:103CD000CE010E94901C68EC70E080E090E00E94B1
:103CE00062270F900F9016E1C12ED12CFAE0EF2E33
:103CF000F12C05E010E020E030E048E451EF66E709
:103D000074E4CE010E94631C81E0C81AD10871F7E7
:103D1000F3C11F9283E08F9368E0862E912CA12C33
:103D2000B12C7AE0C72E77EDD72E73E8E72E7FE32C
:103D3000F72E00E010E82BE335E440E050E06BEEB6
:103D400074E4CE010E94901C68EC70E080E090E08A
:103D50000E9462270F900F90E0E1CE2ED12C5AE006
:103D6000E52EF12C0AE010E020E030E040E050EDDC
:103D700062E874E4CE010E94631C81E0C81AD10895
:103D800071F7BAC11F9284E08F9390E1892E912C34
:103D9000A12CB12C2AE0C22E27EDD22E23E8E22E50
:103DA0002FE3F22E00E010E021E634E440E050E0A2
:103DB0006FE274E4CE010E94901C1F9287E08F9303
:103DC00032E1832E912CA12CB12C4EEAC42E47E473
:103DD000D42E41E8E42E4FE3F42E00E010E822E276
:103DE00034E440E050EC60E674E47FC11F928AE066
:103DF0008F930AE0802E912CA12CB12C88EBC82E39
:103E00008EE1D82E85E8E82E8FE3F82E00E010E052
:103E10002AEF33E440E050E068EC72E4CE010E9407
:103E2000901C64EF71E080E090E00E9462271F9296
:103E300081E08F9300E010E028EC32E440E050E0B5
:103E400068EC73E452C11F92F8E07F2E7F92A4E1E8
:103E50008A2E912CA12CB12CB6E6CB2EDC2CB6E808
:103E6000EB2EBFE3FB2E00E010E42CE135E440E054
:103E700050E86BEB74E40E94901C1F927F9219E152
:103E8000812E912CA12CB12C00E010E82BEB34E416
:103E900040E050E36CE175E428C11F9283E08F930A
:103EA00068E0862E912CA12CB12C76E6C72EDC2C56
:103EB00076E8E72E7FE3F72E00E010E82BEB35E401
:103EC00040E050E06AEF74E4CE010E94901C62E38F
:103ED00070E080E090E00E9462271F9282E08F9362
:103EE000EDE08E2E912CA12CB12C00E010E02AEFF9
:103EF00034E440E058E76BEB75E4F7C01F9228E02C
:103F0000722E7F923FE0832E912CA12CB12C46E69D
:103F1000C42EDC2C46E8E42E4FE3F42E00E010E043
:103F20002AEF34E440E050E86BEB74E40E94901C0C
:103F300064E670E080E090E00E9462271F927F922A
:103F40005AE0852E912CA12CB12C00E010E42CE13C
:103F500035E440E050E86DEE74E4C7C01F9288EC91
:103F60008F9384E1882E912CA12CB12C9CE5C92E35
:103F70009FE8D92E92E8E92E9FE3F92E00E010E4A5
:103F800027E234E440E050E06CE574E483C01F9223
:103F900082E08F93F8E08F2E912CA12CB12CAAE017
:103FA000CA2EA7EDDA2EA3E8EA2EAFE3FA2E00E040
:103FB00010E824ED34E440E050E06AE774E4CE0118
:103FC0000E94901C1F9283E08F93B8EBCB2EBEE132
:103FD000DB2EB5E8EB2EBFE3FB2E00E010E02AEF6E
:103FE00033E440E050E664ED74E4CE010E94901C9E
:103FF0001F928AE08F9319E0812E912CA12CB12C75
:1040000006E6C02EDC2C06E8E02E0FE3F02E00E0E2
:1040100010E824ED34E440E050E06AE774E4CE01B7
:104020000E94901C0F900F900F900F900F900F9088
:1040300063C01F928FE08F9372E0872E912CA12C8A
:10404000B12CECE5CE2EEFE8DE2EE2E8EE2EEFE32B
:10405000FE2E00E010E82BE335E440E050E068EC91
:1040600074E418C01F9284E18F9352E0852E912C46
:10407000A12CB12C6CE5C62E6FE8D62E62E8E62E98
:104080006FE3F62E00E010E82BEB35E440E050E063
:104090006AEF74E4CE010E94901C0F900F902CC028
:1040A0001F9224E1722E7F9232E0832E912CA12C5C
:1040B000B12C4CE5C42E4FE8D42E42E8E42E4FE359
:1040C000F42E00E010E02AE735E440E050E068EC30
:1040D00074E40E94901C1F927F9200E010E82BE392
:1040E00035E440E050E06AE775E4CE010E94901CA0
:1040F0000F900F900F900F90DF91CF911F910F9124
:10410000FF90EF90DF90CF90BF90AF909F908F90F7
:104110007F900895CF92DF92EF92FF920F931F93BB
:10412000CF93DF938C010E94FB11CAE0D0E0C12C39
:10413000D12C7601C8010E94FB119B01AC01C70183
:10414000B6010E9490316B017C0161E070E080E07B
:1041500090E00E946227219769F720E030E040E27A
:1041600051E4C701B6010E94F831DF91CF911F9150
:104170000F91FF90EF90DF90CF9008952F923F9294
:104180004F925F926F927F928F929F92AF92BF9267
:10419000CF92DF92EF92FF920F931F93CF93DF9313
:1041A000CDB7DEB7CC55D1090FB6F894DEBF0FBE40
:1041B000CDBF3C0188E0EDE8F2E0DE01A75BBF4F38
:1041C00001900D928A95E1F788E0E5E9F2E0DE01E1
:1041D000AF5BBF4F01900D928A95E1F788E0EDE962
:1041E000F2E0DE01D99601900D928A95E1F788E020
:1041F000E5EAF2E0DE01D19601900D928A95E1F7B1
:1042000088E0EDEAF2E0DE01999601900D928A9540
:10421000E1F788E0E5EBF2E0DE01919601900D9286
:104220008A95E1F788E0EDEBF2E0DE015996019026
:104230000D928A95E1F788E0E5ECF2E0DE01519617
:1042400001900D928A95E1F788E0EDECF2E0DE0155
:10425000199601900D928A95E1F788E0E5EDF2E07C
:10426000DE01119601900D928A95E1F76D3071058E
:1042700008F095C5FB01E859FF4F0C94B63482E075
:1042800090E067969FAF8EAF67973DC484E090E063
:1042900067969FAF8EAF6797C30187559F4F6D9607
:1042A0009FAF8EAF6D97D8C3FEE1EF2EF12C02E3E6
:1042B00010E020E030E044EA50ED64E274E4C30131
:1042C0000E94631C4AE050E060E070E0C3010E947D
:1042D000C01B6DE070E0C3010E94221D04E110E0EC
:1042E00020E233E040E050E060E87FE3C3010E9459
:1042F0006A176DE070E076C14BE050E060E070E07E
:10430000C3010E94C01B6BE070E0C3010E94221D2C
:104310004CE050E060E070E0C3010E94C01B04E18B
:1043200010E024EF31E040E050E060E87FE3C301BB
:104330000E94BB174BE050E060E070E0C3010E94B8
:10434000C01B6CE070E0C3010E94221D4CE050E0F5
:1043500060E070E0C3010E94C01B24EF31E040E048
:1043600050E060E87FE3C3010E94BB1704C346E14D
:1043700050E060E070E0C3010E94C01BAE01475BEB
:104380005F4F6CEB72E0C3010E9427131F9268EC31
:10439000562E5F9274E1872E912CA12CB12CECE566
:1043A000CE2EEFE8DE2EE2E8EE2EEFE3FE2E00E06A
:1043B00010E82FE434E440E050E06CE574E4C3011D
:1043C0000E94901C48E150E060E070E0C3010E9450
:1043D000C01B1F925F9200E010E825E434E440E047
:1043E00050E86FE474E4C3010E94901C47E150E080
:1043F00060E070E0C3010E94C01B1F925F9200E06A
:1044000010E029E334E440E050E865E474E4C301DB
:104410000E94901C48E150E060E070E0C3010E94FF
:10442000C01B1F925F9200E010E02FE234E440E0F6
:1044300050E069E374E4C3010E94901C47E150E03E
:1044400060E070E0C3010E94C01B1F925F9200E019
:1044500010E427E234E440E050E06FE274E4C3018A
:104460000E94901C46E150E060E070E0C3010E94B1
:10447000C01B64EF71E080E090E00E946227C301FE
:104480000E947F156CE271E080E090E00E9462275C
:1044900007C2AE014F5B5F4F60E273E0C3010E9451
:1044A000271344E0442E512C5AE0352E2224239425
:1044B00020E030E041E050E060E070E0C3010E94A5
:1044C000461C1F923F922AE0822E912CA12CB12CE7
:1044D00038EBC32E3EE1D32E35E8E32E3FE3F32E37
:1044E00000E010E028E433E440E050E068EC72E4DF
:1044F000C3010E94901C21E030E041E050E060E008
:1045000070E0C3010E94461C1F923F9200E010E041
:1045100026E933E440E050E068E473E4C3010E941C
:10452000901C22E030E041E050E060E070E0C30128
:104530000E94461C1F923F9200E010E02AEF33E4F5
:1045400040E050E066E973E4C3010E94901C64EF10
:1045500071E080E090E00E94622721E030E041E0DD
:1045600050E060E070E0C3010E94461C1F922F9251
:1045700000E010E02AE733E440E050E068EC73E448
:10458000C3010E94901C20E030E041E050E060E078
:1045900070E0C3010E94461C1F922F9200E010E0C1
:1045A00028EC32E440E050E06AE773E4C3010E9483
:1045B000901C64EF71E080E090E00E94622791E03F
:1045C000491A51080FB6F894DEBF0FBECDBF09F0EF
:1045D0006FCF43E150E060E070E0C3010E94C01B78
:1045E00069E070E0C3010E94221DC5C1AE01475CB5
:1045F0005F4F64EF71E0C3010E9427136CE271E02A
:1046000080E090E00E94622743E150E060E070E0CB
:10461000C3010E94C01B60E170E0C3010E94221D23
:1046200040E150E060E070E0C3010E94C01B6AEF0F
:1046300070E080E090E00E946227AE014F5C5F4F27
:1046400064EF71E0C3010E9427136CE271E080E027
:1046500090E00E94622743E150E060E070E0C30117
:104660000E94C01B61E170E0C3010E94221D40E175
:1046700050E060E070E0C3010E94C01B6AEF70E090
:1046800080E090E00E946227AE01475D5F4F64EFDB
:1046900071E0C3010E9427136CE271E080E090E0BA
:1046A0000E94622743E150E060E070E0C3010E9495
:1046B000C01B62E170E0C3010E94221D40E150E096
:1046C00060E070E0C3010E94C01B6CE271E080E01A
:1046D00090E00E946227C3010E947F1564EF71E0A1
:1046E00080E090E04DC3AE014F5D5F4F6CE271E042
:1046F000C3010E94271344E150E060E070E0C30171
:104700000E94C01B6FE070E0C3010E94221D2DC1FA
:104710004DE050E060E070E0C3010E94C01B69E022
:1047200070E0C3010E94221DEE24E394F12C0FE0FF
:1047300010E02CED35E040E050E060E070E4C301B3
:104740000E940118C3010E947F156DE070E0C30153
:104750000E94221D1DC3AE01475E5F4F6CE271E0F7
:10476000C3010E9427134EE150E060E070E0C301F6
:104770000E94C01BFEE1EF2EF12C04E610E020E0C9
:1047800030E040E050E06CE574E4C3010E94631C3B
:104790001F92A4E05A2E5F92B7E08B2E912CA12C91
:1047A000B12C1CE5C12E1FE8D12E12E8E12E1FE32B
:1047B000F12E0FE115ED22E934E440E050E06CE524
:1047C00074E4C3010E94901C1F92442443944F92AE
:1047D0000AE0802E912CA12CB12C0CE51FEF23ECCC
:1047E00034E44FE155ED62E974E4C3010E94901C8A
:1047F0001F924F9200E010E02CE534E44CE55FEFAF
:1048000063EC74E4C3010E94901C6FE070E080E0F0
:1048100090E00E9462271F925F9284E1882E912C83
:10482000A12CB12C04EA10ED24E234E440E050E085
:104830006CE574E4C3010E94901C60E971E080E0C3
:1048400090E00E946227AE014F5E5F4F68EC70E01F
:10485000C3010E9427131F925F920FE115ED22E919
:1048600034E440E050E06CE574E4C3010E94901C25
:10487000AE01475F5F4F68EC70E0C3010E942713F1
:104880001F925F9204EA10ED24E234E440E050E02D
:104890006CE574E4C3010E94901CC3010E947F1563
:1048A0004BE050E060E070E0C3010E94C01B0FB617
:1048B000F894DEBF0FBECDBF72C24EE150E060E0A3
:1048C00070E0C3010E94C01B1F9264E0562E5F92ED
:1048D00074E1872E912CA12CB12CECE5CE2EEFE8C3
:1048E000DE2EE2E8EE2EEFE3FE2E0FE115ED22E9DB
:1048F00034E440E050E06CE574E4C3010E94901C95
:104900001F925F9204EA10ED24E234E440E050E0AC
:104910006CE574E4C3010E94901C6CE271E080E0DD
:1049200090E00E94622743E150E060E070E0C30144
:104930000E94C01B0F900F900F900F9004E010E0AA
:10494000AE014F5F5F4F64E670E0C3010E94271322
:10495000C3010E947F150150110991F74EE150E00B
:1049600060E070E0C3010E94C01B64EF71E080E072
:1049700090E00E946227C3010E947F1509C26D96D4
:104980008EAD9FAD6D970E94C1111F928AE08F93EB
:1049900000E010E829E834E46B964CAD5DAD6EADF7
:1049A0007FAD6B97C3010E94901C0F900F90412C1C
:1049B000512C920142E050E060E070E0C3010E949F
:1049C000461CB1016C597F4F882777FD8095982F41
:1049D0000E94933265966CAF7DAF8EAF9FAF6597A7
:1049E000B101882777FD8095982F0E949332AB0103
:1049F000BC011F929AE09F932AE0822E912CA12C59
:104A0000B12C38EBC32E3EE1D32E35E8E32E3FE345
:104A1000F32E65960CAD1DAD2EAD3FAD6597C30170
:104A20000E94901C84E6281A31089FEF491A590AFF
:104A30000F900F9080E9281681E0380609F0B9CF71
:104A400067968EAD9FAD6797019767969FAF8EAFC4
:104A50006797892B09F490C163961FAE1EAE6397CA
:104A600000E911E063962EAD3FAD639742E050E060
:104A700060E070E0C3010E94461C180194E6290E14
:104A8000311CB801882777FD8095982F0E949332BA
:104A90006B966CAF7DAF8EAF9FAF6B97B1018827E0
:104AA00077FD8095982F0E9493328B019C011F9275
:104AB0008AE08F934AE0842E912CA12CB12C58EBE4
:104AC000C52E5EE1D52E55E8E52E5FE3F52E6B96FB
:104AD0004CAD5DAD6EAD7FAD6B97C3010E94901C78
:104AE00063968EAD9FAD6397019663969FAF8EAF31
:104AF00063970F900F9098EE291693E0390609F40A
:104B00003ECF8101AFCF212C312C64EF462E5524AE
:104B10005394910143E050E060E070E0C3010E94D3
:104B2000461CB2016C597F4F882777FD8095982FDE
:104B30000E94933265966CAF7DAF8EAF9FAF659745
:104B4000B201882777FD8095982F0E949332AB01A0
:104B5000BC011F929AE09F938AE0882E912CA12C91
:104B6000B12C9CE5C92E9FE8D92E92E8E92E9FE34F
:104B7000F92E65960CAD1DAD2EAD3FAD6597C30109
:104B80000E94901C85E6480E511C9FEF291A390A95
:104B90000F900F9086EE481685E0580609F0B9CFC1
:104BA000212C312C910143E050E060E070E0C30122
:104BB0000E94461CB2016C597F4F882777FD809573
:104BC000982F0E94933265966CAF7DAF8EAF9FAFEA
:104BD0006597B201882777FD8095982F0E949332C0
:104BE000AB01BC011F929AE09F931AE0812E912C99
:104BF000A12CB12C0CE5C02E0FE8D02E02E8E02E3F
:104C00000FE3F02E65960CAD1DAD2EAD3FAD659753
:104C1000C3010E94901C85E6480E511C9FEF291A83
:104C2000390A0F900F9088ED481689E0580609F070
:104C3000B9CF212C312C910143E050E060E070E0CD
:104C4000C3010E94461CB20164567109882777FD92
:104C50008095982F0E94933265966CAF7DAF8EAF92
:104C60009FAF6597B201882777FD8095982F0E94A6
:104C70009332AB01BC011F929AE09F93AAE08A2E67
:104C8000912CA12CB12CBCE5CB2EBFE8DB2EB2E8D9
:104C9000EB2EBFE3FB2E65960CAD1DAD2EAD3FADEB
:104CA0006597C3010E94901C85E6481A51089FEF42
:104CB000291A390A0F900F9086EE481685E058069B
:104CC00009F0B9CF212C312C910143E050E060E094
:104CD00070E0C3010E94461CB20164567109882726
:104CE00077FD8095982F0E94933265966CAF7DAFCB
:104CF0008EAF9FAF6597B201882777FD8095982F7B
:104D00000E949332AB01BC011F929AE09F93EAE0AC
:104D10008E2E912CA12CB12CFCE5CF2EFFE8DF2E9E
:104D2000F2E8EF2EFFE3FF2E65960CAD1DAD2EAD24
:104D30003FAD6597C3010E94901C85E6481A510853
:104D40009FEF291A390A0F900F9084EF481681E0DF
:104D5000580609F0B9CF67968EAD9FAD679701975A
:104D600067969FAF8EAF6797892B09F0CCCEC301B2
:104D700087559F4F0E94C1116CE271E080E090E086
:104D80000E94622705C0C30187559F4F0E94C11131
:104D90004BE050E060E070E0C3010E94C01BC45AC9
:104DA000DF4F0FB6F894DEBF0FBECDBFDF91CF91BE
:104DB0001F910F91FF90EF90DF90CF90BF90AF9039
:104DC0009F908F907F906F905F904F903F902F902B
:104DD00008951F920F920FB60F9211242F933F93B5
:104DE0008F939F93AF93BF9380919806909199066C
:104DF000A0919A06B0919B063091970623E0230F6D
:104E00002D3720F40196A11DB11D05C026E8230F02
:104E10000296A11DB11D209397068093980690934A
:104E20009906A0939A06B0939B0680919C06909158
:104E30009D06A0919E06B0919F060196A11DB11DF1
:104E400080939C0690939D06A0939E06B0939F0628
:104E5000BF91AF919F918F913F912F910F900FBE76
:104E60000F901F9018952FB7F89460919806709145
:104E7000990680919A0690919B062FBF08953FB79F
:104E8000F89480919C0690919D06A0919E06B09109
:104E90009F0626B5A89B05C02F3F19F00196A11DBE
:104EA000B11D3FBF6627782F892F9A2F620F711D82
:104EB000811D911D42E0660F771F881F991F4A953B
:104EC000D1F70895CF92DF92EF92FF92CF93DF93C5
:104ED0006B017C010E943F27EB01C114D104E10466
:104EE000F10489F00E948E310E943F276C1B7D0BDC
:104EF000683E734090F381E0C81AD108E108F108D8
:104F0000C851DC4FEACFDF91CF91FF90EF90DF9057
:104F1000CF900895019739F0880F991F880F991F36
:104F200002970197F1F70895789484B5826084BD63
:104F300084B5816084BD85B5826085BD85B581609D
:104F400085BDEEE6F0E0808181608083E1E8F0E0FD
:104F50001082808182608083808181608083E0E82C
:104F6000F0E0808181608083E1EBF0E0808184600B
:104F70008083E0EBF0E0808181608083EAE7F0E00D
:104F80008081846080838081826080838081816071
:104F900080838081806880831092C10008958E3064
:104FA00008F08E5087702091170190E4299F90019E
:104FB0001124822B80937C0080917A0080648093FE
:104FC0007A0080917A0086FDFCCF80917800209154
:104FD000790090E0922B0895833081F028F481309D
:104FE00099F08230A1F008958730A9F08830B9F0A7
:104FF0008430D1F4809180008F7D03C08091800047
:105000008F7780938000089584B58F7702C084B530
:105010008F7D84BD08958091B0008F7703C080910B
:10502000B0008F7D8093B0000895CF93DF9390E020
:10503000FC01EB59FE4F2491FC01E758FE4F84918F
:10504000882349F190E0880F991FFC01EF55FE4F2E
:10505000A591B49189569E4FFC01C591D4919FB7FB
:10506000611108C0F8948C91209582238C938881DB
:1050700082230AC0623051F4F8948C91322F30951B
:1050800083238C938881822B888304C0F8948C912D
:10509000822B8C939FBFDF91CF9108950F931F9325
:1050A000CF93DF931F92CDB7DEB7282F30E0F90101
:1050B000EF5AFE4F8491F901EB59FE4F1491F9011B
:1050C000E758FE4F04910023C9F0882321F069833B
:1050D0000E94EC276981E02FF0E0EE0FFF1FE956F8
:1050E000FE4FA591B4919FB7F8948C91611103C0C4
:1050F0001095812301C0812B8C939FBF0F90DF916E
:10510000CF911F910F910895CF92DF92EF92FF926E
:105110000F931F93CF93DF9390E0FC01EB59FE4F69
:10512000D491FC01E758FE4F7491611102C0C0E0B8
:1051300001C0CD2FDA01C901BF70672F70E0660F83
:10514000771F63577E4F00E010E09801FB01E59068
:10515000F490F70140814D234C131EC06801790182
:105160004FEFC41AD40AE40AF40A081719072A07E9
:105170003B0709F442C097018601E8CF6801790135
:10518000FFEFCF1ADF0AEF0AFF0A081719072A07ED
:105190003B0799F197018601FB01E590F490F70137
:1051A00040814D234C13EACF801B910BA20BB30B14
:1051B00020E030E0A901FB01E590F490F701F080D8
:1051C000FD22FC120AC0281739074A075B07A9F01D
:1051D0002F5F3F4F4F4F5F4FEECFA8E1B0E00E94EF
:1051E000BC34605F7F4F8F4F9F4F24E0969587952B
:1051F000779567952A95D1F703C060E070E0CB0101
:10520000DF91CF911F910F91FF90EF90DF90CF90A2
:105210000895FC01818D228D90E0805C9F4F821B60
:1052200091098F7399270895FC01918D828D9817AC
:1052300031F0828DE80FF11D858D90E008958FEF9C
:105240009FEF0895FC01918D828D981761F0828DFA
:10525000DF01A80FB11D5D968C91928D9F5F9F73AA
:10526000928F90E008958FEF9FEF089586EA9AE27B
:10527000892B49F080E090E0892B29F00E94A62A32
:1052800081110C9400000895FC01848DDF01A80FAA
:10529000B11DA35ABF4F2C91848D90E001968F735E
:1052A0009927848FA689B7892C93A089B1898C917D
:1052B00080648C93938D848D981306C00288F38943
:1052C000E02D80818F7D80830895CF93DF93EC0163
:1052D000888D8823C9F0EA89FB89808185FD05C016
:1052E000A889B9898C9186FD0FC00FB607FCF5CF50
:1052F000808185FFF2CFA889B9898C9185FFEDCF98
:10530000CE010E944429E7CFDF91CF910895CF923B
:10531000DF92FF920F931F93CF93DF931F92CDB72E
:10532000DEB76C01DC015B969C915B975C968C917F
:105330005C97981307C05096ED91FC91519780812E
:1053400085FD32C0F601038D10E00F5F1F4F0F7314
:105350001127F02EF601848DF81211C00FB607FC4C
:10536000F9CFD6015096ED91FC915197808185FF40
:10537000F1CFC60169830E9444296981EBCF838DF7
:10538000E80FF11DE35AFF4F6083D6015B960C9343
:105390005B975296ED91FC91539780818062808358
:1053A00081E058968C930DC0D6015696ED91FC91F4
:1053B000579760835096ED91FC915197808180645E
:1053C000808381E090E00F90DF91CF911F910F914A
:1053D000FF90DF90CF900895BF92CF92DF92EF922F
:1053E000FF92CF93DF93EC016A017B01B22EE88933
:1053F000F98982E08083411581EE580761057105C6
:10540000A1F060E079E08DE390E0A70196010E94B1
:105410007534215031094109510956954795379501
:105420002795211580E1380798F0E889F9891082DD
:1054300060E874E88EE190E0A70196010E9475345F
:1054400021503109410951095695479537952795BE
:10545000EC85FD853083EE85FF852083188EEC89F1
:10546000FD89B082EA89FB89808180618083EA8935
:10547000FB89808188608083EA89FB8980818068DC
:105480008083EA89FB8980818F7D8083DF91CF9142
:10549000FF90EF90DF90CF90BF9008951F920F92F2
:1054A0000FB60F9211242F938F939F93EF93FF9337
:1054B000E091B006F091B1068081E091B606F091DE
:1054C000B70682FD12C090818091B9068F5F8F73FD
:1054D0002091BA06821751F0E091B906F0E0E0564B
:1054E000F94F958F8093B90601C08081FF91EF91AC
:1054F0009F918F912F910F900FBE0F901F90189535
:105500001F920F920FB60F9211242F933F934F9338
:105510005F936F937F938F939F93AF93BF93EF931B
:10552000FF9380EA96E00E944429FF91EF91BF919A
:10553000AF919F918F917F916F915F914F913F912B
:105540002F910F900FBE0F901F90189580EA96E054
:105550000E94092921E0892B09F420E0822F089577
:105560001092A3061092A20688EE93E0A0E0B0E0AD
:105570008093A4069093A506A093A606B093A706D1
:105580008BEF92E09093A1068093A00685EC90E0CB
:105590009093AD068093AC0684EC90E09093AF06B8
:1055A0008093AE0680EC90E09093B1068093B006B5
:1055B00081EC90E09093B3068093B20682EC90E089
:1055C0009093B5068093B40686EC90E09093B7066E
:1055D0008093B6061092B9061092BA061092BB06D6
:1055E0001092BC06089508950E9494270E94F32A01
:1055F0000E94070AC6E3D9E20E94CB062097E1F396
:105600000E943629F9CFCF92DF92EF92FF920F934B
:105610001F93CF93DF936C017A01EB01E60EF71E27
:1056200000E010E0CE15DF0561F06991D601ED9143
:10563000FC910190F081E02DC6010995080F191F1A
:10564000F1CFC801DF91CF911F910F91FF90EF90A3
:10565000DF90CF9008956115710581F0DB010D9009
:105660000020E9F7AD0141505109461B570BDC0101
:10567000ED91FC910280F381E02D099480E090E0AF
:105680000895EF92FF920F931F93CF93DF938C01B6
:10569000FB01C0E0D0E064917F018FEFE81AF80AC7
:1056A000662361F0D801ED91FC910190F081E02D2D
:1056B000C8010995C80FD91FF701EDCFCE01DF91C1
:1056C000CF911F910F91FF90EF9008950C942B2B89
:1056D000DC01ED91FC910190F081E02D09940F9394
:1056E0001F93CF93DF93EC016DE00E94682B8C0138
:1056F0006AE0CE010E94682B800F911FDF91CF914D
:105700001F910F9108950F931F93CF93DF93EC0197
:105710000E94412B8C01CE010E946F2B800F911FA4
:10572000DF91CF911F910F9108958F929F92AF9229
:10573000BF92CF92DF92EF92FF920F931F93CF937E
:10574000DF93CDB7DEB7A1970FB6F894DEBF0FBEDB
:10575000CDBF7C01C42EE52FCB01D22E19A221E0B2
:105760002D1510F02AE0D22E8E010F5D1F4F8D2CCB
:10577000912CA12CB12C6C2D7E2FA50194010E949F
:1057800075348C2DD29E80191124015011098A3054
:1057900014F4805D01C0895CF80180832115310516
:1057A0004105510521F0C22EE32FCA01E4CFB80113
:1057B000C7010E942B2BA1960FB6F894DEBF0FBE37
:1057C000CDBFDF91CF911F910F91FF90EF90DF90B0
:1057D000CF90BF90AF909F908F900895CF92DF921F
:1057E000EF92FF920F931F93CF93DF93EC016A0127
:1057F0007B012115310579F4E881F9810190F0816F
:10580000E02D642FDF91CF911F910F91FF90EF90CA
:10581000DF90CF9009942A303105E9F477FF1AC060
:105820006DE20E94682B8C0144275527BA014C1960
:105830005D096E097F092AE0CE010E94952B800F39
:10584000911FDF91CF911F910F91FF90EF90DF900B
:10585000CF9008952AE0B701A601CE01DF91CF9144
:105860001F910F91FF90EF90DF90CF900C94952BAC
:105870009A01AB01662757FD6095762F0C94EE2BAD
:105880004F925F926F927F928F929F92AF92BF9250
:10589000CF92DF92EF92FF920F931F93CF93DF93FC
:1058A000EC016A017B01B22E9A01AB01C701B6017E
:1058B0000E94B033882319F067E073E027C0260107
:1058C0003701E89477F82FEF3FEF4FE75FE7C30129
:1058D000B2010E94B03381110DC02FEF3FEF4FE7AF
:1058E0005FE7C301B2010E94F43118161CF46BE0AB
:1058F00073E00CC02FEF3FEF4FE75FE4C701B60145
:105900000E9443331816ACF46FE073E0CE01DF91D0
:10591000CF911F910F91FF90EF90DF90CF90BF90AC
:10592000AF909F908F907F906F905F904F900C946E
:105930002B2B2FEF3FEF4FE75FECC701B6010E9423
:10594000F43187FDE1CF20E030E0A901C701B601C5
:105950000E94F43187FF0AC06DE2CE010E94682BDD
:105960008C01F7FAF094F7F8F09402C000E010E030
:10597000A12C60E070E080E09FE3AB1441F020E0F8
:1059800030E040E251E40E94F831A394F6CF9B014D
:10599000AC01C701B6010E9490316B017C010E94ED
:1059A00065322B013C010E9491329B01AC01C70181
:1059B000B6010E948F316B017C012AE0B301A20184
:1059C000CE010E94952B080F191FBB2039F063E10F
:1059D00073E0CE010E942B2B080F191F7B2C772020
:1059E00041F120E030E040E251E4C701B6010E94FD
:1059F00047336B017C010E9460324B01AA2497FC63
:105A0000A094BA2C2AE030E0B501A401CE010E9496
:105A1000EE2B080F191FC501B4010E9493329B01A0
:105A2000AC01C701B6010E948F316B017C017A94F1
:105A3000D6CFC801DF91CF911F910F91FF90EF90CA
:105A4000DF90CF90BF90AF909F908F907F906F909E
:105A50005F904F9008950C94402C3F924F925F922C
:105A60006F927F928F929F92AF92BF92CF92DF926E
:105A7000EF92FF920F931F93CF93DF9300D000D04C
:105A8000CDB7DEB78B0129013A0190911801981723
:105A900021F09F3F09F0DAC104C0EBEAF1E0349055
:105AA00081C080931801EBEAF1E0E491EF3F09F443
:105AB000CDC1E13031F1E23009F44BC0E11171C0E8
:105AC00014BC15BC94B5926094BD95B5916095BD1C
:105AD000282F30E0F901E758FE4FE491F0E0EE0F97
